{"abi":[{"inputs":[],"stateMutability":"nonpayable","type":"constructor"},{"anonymous":false,"inputs":[{"indexed":true,"internalType":"address","name":"_exporter","type":"address"},{"indexed":false,"internalType":"string","name":"_ipfsHash","type":"string"}],"name":"AddHash","type":"event"},{"inputs":[{"internalType":"string","name":"hash","type":"string"},{"internalType":"string","name":"_ipfs","type":"string"},{"internalType":"address","name":"_studentAddress","type":"address"},{"internalType":"string","name":"_studentName","type":"string"},{"internalType":"string","name":"_certificateDetails","type":"string"}],"name":"addDocHash","outputs":[],"stateMutability":"nonpayable","type":"function"},{"inputs":[{"internalType":"address","name":"_add","type":"address"},{"internalType":"string","name":"_info","type":"string"}],"name":"addExporter","outputs":[],"stateMutability":"nonpayable","type":"function"},{"inputs":[{"internalType":"address","name":"_add","type":"address"},{"internalType":"string","name":"_newInfo","type":"string"}],"name":"alterExporter","outputs":[],"stateMutability":"nonpayable","type":"function"},{"inputs":[{"internalType":"uint256","name":"","type":"uint256"}],"name":"approvedExporters","outputs":[{"internalType":"address","name":"","type":"address"}],"stateMutability":"view","type":"function"},{"inputs":[{"internalType":"address","name":"_newOwner","type":"address"}],"name":"changeOwner","outputs":[],"stateMutability":"nonpayable","type":"function"},{"inputs":[],"name":"countExporters","outputs":[{"internalType":"uint16","name":"","type":"uint16"}],"stateMutability":"view","type":"function"},{"inputs":[{"internalType":"address","name":"_add","type":"address"}],"name":"deleteExporter","outputs":[],"stateMutability":"nonpayable","type":"function"},{"inputs":[{"internalType":"string","name":"_hash","type":"string"},{"internalType":"address","name":"_studentAddress","type":"address"}],"name":"deleteHash","outputs":[],"stateMutability":"nonpayable","type":"function"},{"inputs":[{"internalType":"string","name":"_hash","type":"string"}],"name":"findDocHash","outputs":[{"internalType":"uint256","name":"","type":"uint256"},{"internalType":"uint256","name":"","type":"uint256"},{"internalType":"string","name":"","type":"string"},{"internalType":"string","name":"","type":"string"}],"stateMutability":"view","type":"function"},{"inputs":[],"name":"getApprovedExporters","outputs":[{"internalType":"address[]","name":"","type":"address[]"}],"stateMutability":"view","type":"function"},{"inputs":[{"internalType":"address","name":"_exporter","type":"address"}],"name":"getExporterDocuments","outputs":[{"components":[{"internalType":"string","name":"ipfsHash","type":"string"},{"internalType":"address","name":"studentAddress","type":"address"},{"internalType":"string","name":"studentName","type":"string"}],"internalType":"struct Verification.DocumentDetails[]","name":"","type":"tuple[]"}],"stateMutability":"view","type":"function"},{"inputs":[{"internalType":"address","name":"_add","type":"address"}],"name":"getExporterInfo","outputs":[{"internalType":"string","name":"","type":"string"}],"stateMutability":"view","type":"function"},{"inputs":[{"internalType":"address","name":"_studentAddress","type":"address"}],"name":"getStudentCertificate","outputs":[{"components":[{"internalType":"string","name":"ipfs_hash","type":"string"},{"internalType":"string","name":"studentName","type":"string"},{"internalType":"string","name":"certificateDetails","type":"string"},{"internalType":"uint256","name":"issuedAt","type":"uint256"}],"internalType":"struct Verification.Certificate","name":"","type":"tuple"}],"stateMutability":"view","type":"function"},{"inputs":[],"name":"owner","outputs":[{"internalType":"address","name":"","type":"address"}],"stateMutability":"view","type":"function"},{"inputs":[{"internalType":"address","name":"","type":"address"}],"name":"studentCertificates","outputs":[{"internalType":"string","name":"ipfs_hash","type":"string"},{"internalType":"string","name":"studentName","type":"string"},{"internalType":"string","name":"certificateDetails","type":"string"},{"internalType":"uint256","name":"issuedAt","type":"uint256"}],"stateMutability":"view","type":"function"}],"devdoc":{"kind":"dev","methods":{},"version":1},"evm":{"assembly":"    /* \"Verification.sol\":61:6265  contract Verification {... */\n  mstore(0x40, 0x80)\n    /* \"Verification.sol\":676:677  0 */\n  0x00\n    /* \"Verification.sol\":645:677  uint16 public countExporters = 0 */\n  dup1\n  exp(0x0100, 0x00)\n  dup2\n  sload\n  dup2\n  0xffff\n  mul\n  not\n  and\n  swap1\n  dup4\n  0xffff\n  and\n  mul\n  or\n  swap1\n  sstore\n  pop\n    /* \"Verification.sol\":90:141  constructor() {... */\n  callvalue\n  dup1\n  iszero\n  tag_1\n  jumpi\n  0x00\n  dup1\n  revert\ntag_1:\n  pop\n    /* \"Verification.sol\":123:133  msg.sender */\n  caller\n    /* \"Verification.sol\":115:120  owner */\n  0x00\n  0x02\n    /* \"Verification.sol\":115:133  owner = msg.sender */\n  0x0100\n  exp\n  dup2\n  sload\n  dup2\n  0xffffffffffffffffffffffffffffffffffffffff\n  mul\n  not\n  and\n  swap1\n  dup4\n  0xffffffffffffffffffffffffffffffffffffffff\n  and\n  mul\n  or\n  swap1\n  sstore\n  pop\n    /* \"Verification.sol\":61:6265  contract Verification {... */\n  dataSize(sub_0)\n  dup1\n  dataOffset(sub_0)\n  0x00\n  codecopy\n  0x00\n  return\nstop\n\nsub_0: assembly {\n        /* \"Verification.sol\":61:6265  contract Verification {... */\n      mstore(0x40, 0x80)\n      callvalue\n      dup1\n      iszero\n      tag_1\n      jumpi\n      0x00\n      dup1\n      revert\n    tag_1:\n      pop\n      jumpi(tag_2, lt(calldatasize, 0x04))\n      shr(0xe0, calldataload(0x00))\n      dup1\n      0x478b2aa2\n      gt\n      tag_18\n      jumpi\n      dup1\n      0xa6f9dae1\n      gt\n      tag_19\n      jumpi\n      dup1\n      0xa6f9dae1\n      eq\n      tag_14\n      jumpi\n      dup1\n      0xccde7710\n      eq\n      tag_15\n      jumpi\n      dup1\n      0xccf715ea\n      eq\n      tag_16\n      jumpi\n      dup1\n      0xe7d99722\n      eq\n      tag_17\n      jumpi\n      jump(tag_2)\n    tag_19:\n      dup1\n      0x478b2aa2\n      eq\n      tag_10\n      jumpi\n      dup1\n      0x77f89255\n      eq\n      tag_11\n      jumpi\n      dup1\n      0x8da5cb5b\n      eq\n      tag_12\n      jumpi\n      dup1\n      0xa3daddc5\n      eq\n      tag_13\n      jumpi\n      jump(tag_2)\n    tag_18:\n      dup1\n      0x117cabec\n      gt\n      tag_20\n      jumpi\n      dup1\n      0x117cabec\n      eq\n      tag_6\n      jumpi\n      dup1\n      0x1eff1d71\n      eq\n      tag_7\n      jumpi\n      dup1\n      0x4078dfcf\n      eq\n      tag_8\n      jumpi\n      dup1\n      0x45278d1e\n      eq\n      tag_9\n      jumpi\n      jump(tag_2)\n    tag_20:\n      dup1\n      0x03233af8\n      eq\n      tag_3\n      jumpi\n      dup1\n      0x05c8dc19\n      eq\n      tag_4\n      jumpi\n      dup1\n      0x0b2b5bf5\n      eq\n      tag_5\n      jumpi\n    tag_2:\n      0x00\n      dup1\n      revert\n        /* \"Verification.sol\":5897:6013  function getApprovedExporters() external view returns (address[] memory) {... */\n    tag_3:\n      tag_21\n      tag_22\n      jump\t// in\n    tag_21:\n      mload(0x40)\n      tag_23\n      swap2\n      swap1\n      tag_24\n      jump\t// in\n    tag_23:\n      mload(0x40)\n      dup1\n      swap2\n      sub\n      swap1\n      return\n        /* \"Verification.sol\":5750:5889  function getExporterInfo(... */\n    tag_4:\n      tag_25\n      0x04\n      dup1\n      calldatasize\n      sub\n      dup2\n      add\n      swap1\n      tag_26\n      swap2\n      swap1\n      tag_27\n      jump\t// in\n    tag_26:\n      tag_28\n      jump\t// in\n    tag_25:\n      mload(0x40)\n      tag_29\n      swap2\n      swap1\n      tag_30\n      jump\t// in\n    tag_29:\n      mload(0x40)\n      dup1\n      swap2\n      sub\n      swap1\n      return\n        /* \"Verification.sol\":5489:5742  function getStudentCertificate(... */\n    tag_5:\n      tag_31\n      0x04\n      dup1\n      calldatasize\n      sub\n      dup2\n      add\n      swap1\n      tag_32\n      swap2\n      swap1\n      tag_27\n      jump\t// in\n    tag_32:\n      tag_33\n      jump\t// in\n    tag_31:\n      mload(0x40)\n      tag_34\n      swap2\n      swap1\n      tag_35\n      jump\t// in\n    tag_34:\n      mload(0x40)\n      dup1\n      swap2\n      sub\n      swap1\n      return\n        /* \"Verification.sol\":6021:6262  function getExporterDocuments(... */\n    tag_6:\n      tag_36\n      0x04\n      dup1\n      calldatasize\n      sub\n      dup2\n      add\n      swap1\n      tag_37\n      swap2\n      swap1\n      tag_27\n      jump\t// in\n    tag_37:\n      tag_38\n      jump\t// in\n    tag_36:\n      mload(0x40)\n      tag_39\n      swap2\n      swap1\n      tag_40\n      jump\t// in\n    tag_39:\n      mload(0x40)\n      dup1\n      swap2\n      sub\n      swap1\n      return\n        /* \"Verification.sol\":2691:2912  function alterExporter(... */\n    tag_7:\n      tag_41\n      0x04\n      dup1\n      calldatasize\n      sub\n      dup2\n      add\n      swap1\n      tag_42\n      swap2\n      swap1\n      tag_43\n      jump\t// in\n    tag_42:\n      tag_44\n      jump\t// in\n    tag_41:\n      stop\n        /* \"Verification.sol\":4227:4549  function findDocHash(... */\n    tag_8:\n      tag_45\n      0x04\n      dup1\n      calldatasize\n      sub\n      dup2\n      add\n      swap1\n      tag_46\n      swap2\n      swap1\n      tag_47\n      jump\t// in\n    tag_46:\n      tag_48\n      jump\t// in\n    tag_45:\n      mload(0x40)\n      tag_49\n      swap5\n      swap4\n      swap3\n      swap2\n      swap1\n      tag_50\n      jump\t// in\n    tag_49:\n      mload(0x40)\n      dup1\n      swap2\n      sub\n      swap1\n      return\n        /* \"Verification.sol\":1840:2151  function addExporter(... */\n    tag_9:\n      tag_51\n      0x04\n      dup1\n      calldatasize\n      sub\n      dup2\n      add\n      swap1\n      tag_52\n      swap2\n      swap1\n      tag_43\n      jump\t// in\n    tag_52:\n      tag_53\n      jump\t// in\n    tag_51:\n      stop\n        /* \"Verification.sol\":885:919  address[] public approvedExporters */\n    tag_10:\n      tag_54\n      0x04\n      dup1\n      calldatasize\n      sub\n      dup2\n      add\n      swap1\n      tag_55\n      swap2\n      swap1\n      tag_56\n      jump\t// in\n    tag_55:\n      tag_57\n      jump\t// in\n    tag_54:\n      mload(0x40)\n      tag_58\n      swap2\n      swap1\n      tag_59\n      jump\t// in\n    tag_58:\n      mload(0x40)\n      dup1\n      swap2\n      sub\n      swap1\n      return\n        /* \"Verification.sol\":645:677  uint16 public countExporters = 0 */\n    tag_11:\n      tag_60\n      tag_61\n      jump\t// in\n    tag_60:\n      mload(0x40)\n      tag_62\n      swap2\n      swap1\n      tag_63\n      jump\t// in\n    tag_62:\n      mload(0x40)\n      dup1\n      swap2\n      sub\n      swap1\n      return\n        /* \"Verification.sol\":684:704  address public owner */\n    tag_12:\n      tag_64\n      tag_65\n      jump\t// in\n    tag_64:\n      mload(0x40)\n      tag_66\n      swap2\n      swap1\n      tag_59\n      jump\t// in\n    tag_66:\n      mload(0x40)\n      dup1\n      swap2\n      sub\n      swap1\n      return\n        /* \"Verification.sol\":820:878  mapping(address => Certificate) public studentCertificates */\n    tag_13:\n      tag_67\n      0x04\n      dup1\n      calldatasize\n      sub\n      dup2\n      add\n      swap1\n      tag_68\n      swap2\n      swap1\n      tag_27\n      jump\t// in\n    tag_68:\n      tag_69\n      jump\t// in\n    tag_67:\n      mload(0x40)\n      tag_70\n      swap5\n      swap4\n      swap3\n      swap2\n      swap1\n      tag_71\n      jump\t// in\n    tag_70:\n      mload(0x40)\n      dup1\n      swap2\n      sub\n      swap1\n      return\n        /* \"Verification.sol\":2920:3053  function changeOwner(... */\n    tag_14:\n      tag_72\n      0x04\n      dup1\n      calldatasize\n      sub\n      dup2\n      add\n      swap1\n      tag_73\n      swap2\n      swap1\n      tag_27\n      jump\t// in\n    tag_73:\n      tag_74\n      jump\t// in\n    tag_72:\n      stop\n        /* \"Verification.sol\":2159:2683  function deleteExporter(address _add) external onlyOwner {... */\n    tag_15:\n      tag_75\n      0x04\n      dup1\n      calldatasize\n      sub\n      dup2\n      add\n      swap1\n      tag_76\n      swap2\n      swap1\n      tag_27\n      jump\t// in\n    tag_76:\n      tag_77\n      jump\t// in\n    tag_75:\n      stop\n        /* \"Verification.sol\":3128:4219  function addDocHash(... */\n    tag_16:\n      tag_78\n      0x04\n      dup1\n      calldatasize\n      sub\n      dup2\n      add\n      swap1\n      tag_79\n      swap2\n      swap1\n      tag_80\n      jump\t// in\n    tag_79:\n      tag_81\n      jump\t// in\n    tag_78:\n      stop\n        /* \"Verification.sol\":4557:5481  function deleteHash(... */\n    tag_17:\n      tag_82\n      0x04\n      dup1\n      calldatasize\n      sub\n      dup2\n      add\n      swap1\n      tag_83\n      swap2\n      swap1\n      tag_84\n      jump\t// in\n    tag_83:\n      tag_85\n      jump\t// in\n    tag_82:\n      stop\n        /* \"Verification.sol\":5897:6013  function getApprovedExporters() external view returns (address[] memory) {... */\n    tag_22:\n        /* \"Verification.sol\":5952:5968  address[] memory */\n      0x60\n        /* \"Verification.sol\":5988:6005  approvedExporters */\n      0x04\n        /* \"Verification.sol\":5981:6005  return approvedExporters */\n      dup1\n      sload\n      dup1\n      0x20\n      mul\n      0x20\n      add\n      mload(0x40)\n      swap1\n      dup2\n      add\n      0x40\n      mstore\n      dup1\n      swap3\n      swap2\n      swap1\n      dup2\n      dup2\n      mstore\n      0x20\n      add\n      dup3\n      dup1\n      sload\n      dup1\n      iszero\n      tag_87\n      jumpi\n      0x20\n      mul\n      dup3\n      add\n      swap2\n      swap1\n      0x00\n      mstore\n      keccak256(0x00, 0x20)\n      swap1\n    tag_88:\n      dup2\n      0x00\n      swap1\n      sload\n      swap1\n      0x0100\n      exp\n      swap1\n      div\n      0xffffffffffffffffffffffffffffffffffffffff\n      and\n      0xffffffffffffffffffffffffffffffffffffffff\n      and\n      dup2\n      mstore\n      0x20\n      add\n      swap1\n      0x01\n      add\n      swap1\n      dup1\n      dup4\n      gt\n      tag_88\n      jumpi\n    tag_87:\n      pop\n      pop\n      pop\n      pop\n      pop\n      swap1\n      pop\n        /* \"Verification.sol\":5897:6013  function getApprovedExporters() external view returns (address[] memory) {... */\n      swap1\n      jump\t// out\n        /* \"Verification.sol\":5750:5889  function getExporterInfo(... */\n    tag_28:\n        /* \"Verification.sol\":5828:5841  string memory */\n      0x60\n        /* \"Verification.sol\":5861:5870  exporters */\n      0x02\n        /* \"Verification.sol\":5861:5876  exporters[_add] */\n      0x00\n        /* \"Verification.sol\":5871:5875  _add */\n      dup4\n        /* \"Verification.sol\":5861:5876  exporters[_add] */\n      0xffffffffffffffffffffffffffffffffffffffff\n      and\n      0xffffffffffffffffffffffffffffffffffffffff\n      and\n      dup2\n      mstore\n      0x20\n      add\n      swap1\n      dup2\n      mstore\n      0x20\n      add\n      0x00\n      keccak256\n        /* \"Verification.sol\":5861:5881  exporters[_add].info */\n      0x01\n      add\n        /* \"Verification.sol\":5854:5881  return exporters[_add].info */\n      dup1\n      sload\n      tag_90\n      swap1\n      tag_91\n      jump\t// in\n    tag_90:\n      dup1\n      0x1f\n      add\n      0x20\n      dup1\n      swap2\n      div\n      mul\n      0x20\n      add\n      mload(0x40)\n      swap1\n      dup2\n      add\n      0x40\n      mstore\n      dup1\n      swap3\n      swap2\n      swap1\n      dup2\n      dup2\n      mstore\n      0x20\n      add\n      dup3\n      dup1\n      sload\n      tag_92\n      swap1\n      tag_91\n      jump\t// in\n    tag_92:\n      dup1\n      iszero\n      tag_93\n      jumpi\n      dup1\n      0x1f\n      lt\n      tag_94\n      jumpi\n      0x0100\n      dup1\n      dup4\n      sload\n      div\n      mul\n      dup4\n      mstore\n      swap2\n      0x20\n      add\n      swap2\n      jump(tag_93)\n    tag_94:\n      dup3\n      add\n      swap2\n      swap1\n      0x00\n      mstore\n      keccak256(0x00, 0x20)\n      swap1\n    tag_95:\n      dup2\n      sload\n      dup2\n      mstore\n      swap1\n      0x01\n      add\n      swap1\n      0x20\n      add\n      dup1\n      dup4\n      gt\n      tag_95\n      jumpi\n      dup3\n      swap1\n      sub\n      0x1f\n      and\n      dup3\n      add\n      swap2\n    tag_93:\n      pop\n      pop\n      pop\n      pop\n      pop\n      swap1\n      pop\n        /* \"Verification.sol\":5750:5889  function getExporterInfo(... */\n      swap2\n      swap1\n      pop\n      jump\t// out\n        /* \"Verification.sol\":5489:5742  function getStudentCertificate(... */\n    tag_33:\n        /* \"Verification.sol\":5584:5602  Certificate memory */\n      tag_96\n      tag_97\n      jump\t// in\n    tag_96:\n        /* \"Verification.sol\":5650:5651  0 */\n      0x00\n        /* \"Verification.sol\":5623:5652  _studentAddress != address(0) */\n      0xffffffffffffffffffffffffffffffffffffffff\n      and\n        /* \"Verification.sol\":5623:5638  _studentAddress */\n      dup3\n        /* \"Verification.sol\":5623:5652  _studentAddress != address(0) */\n      0xffffffffffffffffffffffffffffffffffffffff\n      and\n      sub\n        /* \"Verification.sol\":5615:5680  require(_studentAddress != address(0), \"Invalid student address\") */\n      tag_99\n      jumpi\n      mload(0x40)\n      0x08c379a000000000000000000000000000000000000000000000000000000000\n      dup2\n      mstore\n      0x04\n      add\n      tag_100\n      swap1\n      tag_101\n      jump\t// in\n    tag_100:\n      mload(0x40)\n      dup1\n      swap2\n      sub\n      swap1\n      revert\n    tag_99:\n        /* \"Verification.sol\":5698:5717  studentCertificates */\n      0x03\n        /* \"Verification.sol\":5698:5734  studentCertificates[_studentAddress] */\n      0x00\n        /* \"Verification.sol\":5718:5733  _studentAddress */\n      dup4\n        /* \"Verification.sol\":5698:5734  studentCertificates[_studentAddress] */\n      0xffffffffffffffffffffffffffffffffffffffff\n      and\n      0xffffffffffffffffffffffffffffffffffffffff\n      and\n      dup2\n      mstore\n      0x20\n      add\n      swap1\n      dup2\n      mstore\n      0x20\n      add\n      0x00\n      keccak256\n        /* \"Verification.sol\":5691:5734  return studentCertificates[_studentAddress] */\n      mload(0x40)\n      dup1\n      0x80\n      add\n      0x40\n      mstore\n      swap1\n      dup2\n      0x00\n      dup3\n      add\n      dup1\n      sload\n      tag_102\n      swap1\n      tag_91\n      jump\t// in\n    tag_102:\n      dup1\n      0x1f\n      add\n      0x20\n      dup1\n      swap2\n      div\n      mul\n      0x20\n      add\n      mload(0x40)\n      swap1\n      dup2\n      add\n      0x40\n      mstore\n      dup1\n      swap3\n      swap2\n      swap1\n      dup2\n      dup2\n      mstore\n      0x20\n      add\n      dup3\n      dup1\n      sload\n      tag_103\n      swap1\n      tag_91\n      jump\t// in\n    tag_103:\n      dup1\n      iszero\n      tag_104\n      jumpi\n      dup1\n      0x1f\n      lt\n      tag_105\n      jumpi\n      0x0100\n      dup1\n      dup4\n      sload\n      div\n      mul\n      dup4\n      mstore\n      swap2\n      0x20\n      add\n      swap2\n      jump(tag_104)\n    tag_105:\n      dup3\n      add\n      swap2\n      swap1\n      0x00\n      mstore\n      keccak256(0x00, 0x20)\n      swap1\n    tag_106:\n      dup2\n      sload\n      dup2\n      mstore\n      swap1\n      0x01\n      add\n      swap1\n      0x20\n      add\n      dup1\n      dup4\n      gt\n      tag_106\n      jumpi\n      dup3\n      swap1\n      sub\n      0x1f\n      and\n      dup3\n      add\n      swap2\n    tag_104:\n      pop\n      pop\n      pop\n      pop\n      pop\n      dup2\n      mstore\n      0x20\n      add\n      0x01\n      dup3\n      add\n      dup1\n      sload\n      tag_107\n      swap1\n      tag_91\n      jump\t// in\n    tag_107:\n      dup1\n      0x1f\n      add\n      0x20\n      dup1\n      swap2\n      div\n      mul\n      0x20\n      add\n      mload(0x40)\n      swap1\n      dup2\n      add\n      0x40\n      mstore\n      dup1\n      swap3\n      swap2\n      swap1\n      dup2\n      dup2\n      mstore\n      0x20\n      add\n      dup3\n      dup1\n      sload\n      tag_108\n      swap1\n      tag_91\n      jump\t// in\n    tag_108:\n      dup1\n      iszero\n      tag_109\n      jumpi\n      dup1\n      0x1f\n      lt\n      tag_110\n      jumpi\n      0x0100\n      dup1\n      dup4\n      sload\n      div\n      mul\n      dup4\n      mstore\n      swap2\n      0x20\n      add\n      swap2\n      jump(tag_109)\n    tag_110:\n      dup3\n      add\n      swap2\n      swap1\n      0x00\n      mstore\n      keccak256(0x00, 0x20)\n      swap1\n    tag_111:\n      dup2\n      sload\n      dup2\n      mstore\n      swap1\n      0x01\n      add\n      swap1\n      0x20\n      add\n      dup1\n      dup4\n      gt\n      tag_111\n      jumpi\n      dup3\n      swap1\n      sub\n      0x1f\n      and\n      dup3\n      add\n      swap2\n    tag_109:\n      pop\n      pop\n      pop\n      pop\n      pop\n      dup2\n      mstore\n      0x20\n      add\n      0x02\n      dup3\n      add\n      dup1\n      sload\n      tag_112\n      swap1\n      tag_91\n      jump\t// in\n    tag_112:\n      dup1\n      0x1f\n      add\n      0x20\n      dup1\n      swap2\n      div\n      mul\n      0x20\n      add\n      mload(0x40)\n      swap1\n      dup2\n      add\n      0x40\n      mstore\n      dup1\n      swap3\n      swap2\n      swap1\n      dup2\n      dup2\n      mstore\n      0x20\n      add\n      dup3\n      dup1\n      sload\n      tag_113\n      swap1\n      tag_91\n      jump\t// in\n    tag_113:\n      dup1\n      iszero\n      tag_114\n      jumpi\n      dup1\n      0x1f\n      lt\n      tag_115\n      jumpi\n      0x0100\n      dup1\n      dup4\n      sload\n      div\n      mul\n      dup4\n      mstore\n      swap2\n      0x20\n      add\n      swap2\n      jump(tag_114)\n    tag_115:\n      dup3\n      add\n      swap2\n      swap1\n      0x00\n      mstore\n      keccak256(0x00, 0x20)\n      swap1\n    tag_116:\n      dup2\n      sload\n      dup2\n      mstore\n      swap1\n      0x01\n      add\n      swap1\n      0x20\n      add\n      dup1\n      dup4\n      gt\n      tag_116\n      jumpi\n      dup3\n      swap1\n      sub\n      0x1f\n      and\n      dup3\n      add\n      swap2\n    tag_114:\n      pop\n      pop\n      pop\n      pop\n      pop\n      dup2\n      mstore\n      0x20\n      add\n      0x03\n      dup3\n      add\n      sload\n      dup2\n      mstore\n      pop\n      pop\n      swap1\n      pop\n        /* \"Verification.sol\":5489:5742  function getStudentCertificate(... */\n      swap2\n      swap1\n      pop\n      jump\t// out\n        /* \"Verification.sol\":6021:6262  function getExporterDocuments(... */\n    tag_38:\n        /* \"Verification.sol\":6109:6133  DocumentDetails[] memory */\n      0x60\n        /* \"Verification.sol\":6154:6183  isExporterApproved(_exporter) */\n      tag_118\n        /* \"Verification.sol\":6173:6182  _exporter */\n      dup3\n        /* \"Verification.sol\":6154:6172  isExporterApproved */\n      tag_119\n        /* \"Verification.sol\":6154:6183  isExporterApproved(_exporter) */\n      jump\t// in\n    tag_118:\n        /* \"Verification.sol\":6146:6206  require(isExporterApproved(_exporter), \"Exporter not found\") */\n      tag_120\n      jumpi\n      mload(0x40)\n      0x08c379a000000000000000000000000000000000000000000000000000000000\n      dup2\n      mstore\n      0x04\n      add\n      tag_121\n      swap1\n      tag_122\n      jump\t// in\n    tag_121:\n      mload(0x40)\n      dup1\n      swap2\n      sub\n      swap1\n      revert\n    tag_120:\n        /* \"Verification.sol\":6226:6243  exporterDocuments */\n      0x05\n        /* \"Verification.sol\":6226:6254  exporterDocuments[_exporter] */\n      0x00\n        /* \"Verification.sol\":6244:6253  _exporter */\n      dup4\n        /* \"Verification.sol\":6226:6254  exporterDocuments[_exporter] */\n      0xffffffffffffffffffffffffffffffffffffffff\n      and\n      0xffffffffffffffffffffffffffffffffffffffff\n      and\n      dup2\n      mstore\n      0x20\n      add\n      swap1\n      dup2\n      mstore\n      0x20\n      add\n      0x00\n      keccak256\n        /* \"Verification.sol\":6219:6254  return exporterDocuments[_exporter] */\n      dup1\n      sload\n      dup1\n      0x20\n      mul\n      0x20\n      add\n      mload(0x40)\n      swap1\n      dup2\n      add\n      0x40\n      mstore\n      dup1\n      swap3\n      swap2\n      swap1\n      dup2\n      dup2\n      mstore\n      0x20\n      add\n      0x00\n      swap1\n    tag_123:\n      dup3\n      dup3\n      lt\n      iszero\n      tag_124\n      jumpi\n      dup4\n      dup3\n      swap1\n      0x00\n      mstore\n      keccak256(0x00, 0x20)\n      swap1\n      0x03\n      mul\n      add\n      mload(0x40)\n      dup1\n      0x60\n      add\n      0x40\n      mstore\n      swap1\n      dup2\n      0x00\n      dup3\n      add\n      dup1\n      sload\n      tag_126\n      swap1\n      tag_91\n      jump\t// in\n    tag_126:\n      dup1\n      0x1f\n      add\n      0x20\n      dup1\n      swap2\n      div\n      mul\n      0x20\n      add\n      mload(0x40)\n      swap1\n      dup2\n      add\n      0x40\n      mstore\n      dup1\n      swap3\n      swap2\n      swap1\n      dup2\n      dup2\n      mstore\n      0x20\n      add\n      dup3\n      dup1\n      sload\n      tag_127\n      swap1\n      tag_91\n      jump\t// in\n    tag_127:\n      dup1\n      iszero\n      tag_128\n      jumpi\n      dup1\n      0x1f\n      lt\n      tag_129\n      jumpi\n      0x0100\n      dup1\n      dup4\n      sload\n      div\n      mul\n      dup4\n      mstore\n      swap2\n      0x20\n      add\n      swap2\n      jump(tag_128)\n    tag_129:\n      dup3\n      add\n      swap2\n      swap1\n      0x00\n      mstore\n      keccak256(0x00, 0x20)\n      swap1\n    tag_130:\n      dup2\n      sload\n      dup2\n      mstore\n      swap1\n      0x01\n      add\n      swap1\n      0x20\n      add\n      dup1\n      dup4\n      gt\n      tag_130\n      jumpi\n      dup3\n      swap1\n      sub\n      0x1f\n      and\n      dup3\n      add\n      swap2\n    tag_128:\n      pop\n      pop\n      pop\n      pop\n      pop\n      dup2\n      mstore\n      0x20\n      add\n      0x01\n      dup3\n      add\n      0x00\n      swap1\n      sload\n      swap1\n      0x0100\n      exp\n      swap1\n      div\n      0xffffffffffffffffffffffffffffffffffffffff\n      and\n      0xffffffffffffffffffffffffffffffffffffffff\n      and\n      0xffffffffffffffffffffffffffffffffffffffff\n      and\n      dup2\n      mstore\n      0x20\n      add\n      0x02\n      dup3\n      add\n      dup1\n      sload\n      tag_131\n      swap1\n      tag_91\n      jump\t// in\n    tag_131:\n      dup1\n      0x1f\n      add\n      0x20\n      dup1\n      swap2\n      div\n      mul\n      0x20\n      add\n      mload(0x40)\n      swap1\n      dup2\n      add\n      0x40\n      mstore\n      dup1\n      swap3\n      swap2\n      swap1\n      dup2\n      dup2\n      mstore\n      0x20\n      add\n      dup3\n      dup1\n      sload\n      tag_132\n      swap1\n      tag_91\n      jump\t// in\n    tag_132:\n      dup1\n      iszero\n      tag_133\n      jumpi\n      dup1\n      0x1f\n      lt\n      tag_134\n      jumpi\n      0x0100\n      dup1\n      dup4\n      sload\n      div\n      mul\n      dup4\n      mstore\n      swap2\n      0x20\n      add\n      swap2\n      jump(tag_133)\n    tag_134:\n      dup3\n      add\n      swap2\n      swap1\n      0x00\n      mstore\n      keccak256(0x00, 0x20)\n      swap1\n    tag_135:\n      dup2\n      sload\n      dup2\n      mstore\n      swap1\n      0x01\n      add\n      swap1\n      0x20\n      add\n      dup1\n      dup4\n      gt\n      tag_135\n      jumpi\n      dup3\n      swap1\n      sub\n      0x1f\n      and\n      dup3\n      add\n      swap2\n    tag_133:\n      pop\n      pop\n      pop\n      pop\n      pop\n      dup2\n      mstore\n      pop\n      pop\n      dup2\n      mstore\n      0x20\n      add\n      swap1\n      0x01\n      add\n      swap1\n      jump(tag_123)\n    tag_124:\n      pop\n      pop\n      pop\n      pop\n      swap1\n      pop\n        /* \"Verification.sol\":6021:6262  function getExporterDocuments(... */\n      swap2\n      swap1\n      pop\n      jump\t// out\n        /* \"Verification.sol\":2691:2912  function alterExporter(... */\n    tag_44:\n        /* \"Verification.sol\":1046:1051  owner */\n      0x00\n      0x02\n      swap1\n      sload\n      swap1\n      0x0100\n      exp\n      swap1\n      div\n      0xffffffffffffffffffffffffffffffffffffffff\n      and\n        /* \"Verification.sol\":1032:1051  msg.sender != owner */\n      0xffffffffffffffffffffffffffffffffffffffff\n      and\n        /* \"Verification.sol\":1032:1042  msg.sender */\n      caller\n        /* \"Verification.sol\":1032:1051  msg.sender != owner */\n      0xffffffffffffffffffffffffffffffffffffffff\n      and\n      eq\n        /* \"Verification.sol\":1028:1113  if (msg.sender != owner) {... */\n      tag_137\n      jumpi\n        /* \"Verification.sol\":1068:1101  revert(\"Caller is not the owner\") */\n      mload(0x40)\n      0x08c379a000000000000000000000000000000000000000000000000000000000\n      dup2\n      mstore\n      0x04\n      add\n      tag_138\n      swap1\n      tag_139\n      jump\t// in\n    tag_138:\n      mload(0x40)\n      dup1\n      swap2\n      sub\n      swap1\n      revert\n        /* \"Verification.sol\":1028:1113  if (msg.sender != owner) {... */\n    tag_137:\n        /* \"Verification.sol\":2815:2839  isExporterApproved(_add) */\n      tag_141\n        /* \"Verification.sol\":2834:2838  _add */\n      dup4\n        /* \"Verification.sol\":2815:2833  isExporterApproved */\n      tag_119\n        /* \"Verification.sol\":2815:2839  isExporterApproved(_add) */\n      jump\t// in\n    tag_141:\n        /* \"Verification.sol\":2807:2862  require(isExporterApproved(_add), \"Exporter not found\") */\n      tag_142\n      jumpi\n      mload(0x40)\n      0x08c379a000000000000000000000000000000000000000000000000000000000\n      dup2\n      mstore\n      0x04\n      add\n      tag_143\n      swap1\n      tag_122\n      jump\t// in\n    tag_143:\n      mload(0x40)\n      dup1\n      swap2\n      sub\n      swap1\n      revert\n    tag_142:\n        /* \"Verification.sol\":2896:2904  _newInfo */\n      dup2\n      dup2\n        /* \"Verification.sol\":2873:2882  exporters */\n      0x02\n        /* \"Verification.sol\":2873:2888  exporters[_add] */\n      0x00\n        /* \"Verification.sol\":2883:2887  _add */\n      dup7\n        /* \"Verification.sol\":2873:2888  exporters[_add] */\n      0xffffffffffffffffffffffffffffffffffffffff\n      and\n      0xffffffffffffffffffffffffffffffffffffffff\n      and\n      dup2\n      mstore\n      0x20\n      add\n      swap1\n      dup2\n      mstore\n      0x20\n      add\n      0x00\n      keccak256\n        /* \"Verification.sol\":2873:2893  exporters[_add].info */\n      0x01\n      add\n        /* \"Verification.sol\":2873:2904  exporters[_add].info = _newInfo */\n      swap2\n      dup3\n      tag_144\n      swap3\n      swap2\n      swap1\n      tag_145\n      jump\t// in\n    tag_144:\n      pop\n        /* \"Verification.sol\":2691:2912  function alterExporter(... */\n      pop\n      pop\n      pop\n      jump\t// out\n        /* \"Verification.sol\":4227:4549  function findDocHash(... */\n    tag_48:\n        /* \"Verification.sol\":4310:4314  uint */\n      0x00\n        /* \"Verification.sol\":4316:4320  uint */\n      dup1\n        /* \"Verification.sol\":4322:4335  string memory */\n      0x60\n        /* \"Verification.sol\":4337:4350  string memory */\n      dup1\n        /* \"Verification.sol\":4385:4394  docHashes */\n      0x01\n        /* \"Verification.sol\":4395:4400  _hash */\n      dup7\n      dup7\n        /* \"Verification.sol\":4385:4401  docHashes[_hash] */\n      mload(0x40)\n      tag_147\n      swap3\n      swap2\n      swap1\n      tag_148\n      jump\t// in\n    tag_147:\n      swap1\n      dup2\n      mstore\n      0x20\n      add\n      mload(0x40)\n      dup1\n      swap2\n      sub\n      swap1\n      keccak256\n        /* \"Verification.sol\":4385:4413  docHashes[_hash].blockNumber */\n      0x00\n      add\n      sload\n        /* \"Verification.sol\":4428:4437  docHashes */\n      0x01\n        /* \"Verification.sol\":4438:4443  _hash */\n      dup8\n      dup8\n        /* \"Verification.sol\":4428:4444  docHashes[_hash] */\n      mload(0x40)\n      tag_149\n      swap3\n      swap2\n      swap1\n      tag_148\n      jump\t// in\n    tag_149:\n      swap1\n      dup2\n      mstore\n      0x20\n      add\n      mload(0x40)\n      dup1\n      swap2\n      sub\n      swap1\n      keccak256\n        /* \"Verification.sol\":4428:4454  docHashes[_hash].timestamp */\n      0x01\n      add\n      sload\n        /* \"Verification.sol\":4469:4478  docHashes */\n      0x01\n        /* \"Verification.sol\":4479:4484  _hash */\n      dup9\n      dup9\n        /* \"Verification.sol\":4469:4485  docHashes[_hash] */\n      mload(0x40)\n      tag_150\n      swap3\n      swap2\n      swap1\n      tag_148\n      jump\t// in\n    tag_150:\n      swap1\n      dup2\n      mstore\n      0x20\n      add\n      mload(0x40)\n      dup1\n      swap2\n      sub\n      swap1\n      keccak256\n        /* \"Verification.sol\":4469:4490  docHashes[_hash].info */\n      0x02\n      add\n        /* \"Verification.sol\":4505:4514  docHashes */\n      0x01\n        /* \"Verification.sol\":4515:4520  _hash */\n      dup10\n      dup10\n        /* \"Verification.sol\":4505:4521  docHashes[_hash] */\n      mload(0x40)\n      tag_151\n      swap3\n      swap2\n      swap1\n      tag_148\n      jump\t// in\n    tag_151:\n      swap1\n      dup2\n      mstore\n      0x20\n      add\n      mload(0x40)\n      dup1\n      swap2\n      sub\n      swap1\n      keccak256\n        /* \"Verification.sol\":4505:4530  docHashes[_hash].ipfsHash */\n      0x03\n      add\n        /* \"Verification.sol\":4363:4541  return (... */\n      dup2\n      dup1\n      sload\n      tag_152\n      swap1\n      tag_91\n      jump\t// in\n    tag_152:\n      dup1\n      0x1f\n      add\n      0x20\n      dup1\n      swap2\n      div\n      mul\n      0x20\n      add\n      mload(0x40)\n      swap1\n      dup2\n      add\n      0x40\n      mstore\n      dup1\n      swap3\n      swap2\n      swap1\n      dup2\n      dup2\n      mstore\n      0x20\n      add\n      dup3\n      dup1\n      sload\n      tag_153\n      swap1\n      tag_91\n      jump\t// in\n    tag_153:\n      dup1\n      iszero\n      tag_154\n      jumpi\n      dup1\n      0x1f\n      lt\n      tag_155\n      jumpi\n      0x0100\n      dup1\n      dup4\n      sload\n      div\n      mul\n      dup4\n      mstore\n      swap2\n      0x20\n      add\n      swap2\n      jump(tag_154)\n    tag_155:\n      dup3\n      add\n      swap2\n      swap1\n      0x00\n      mstore\n      keccak256(0x00, 0x20)\n      swap1\n    tag_156:\n      dup2\n      sload\n      dup2\n      mstore\n      swap1\n      0x01\n      add\n      swap1\n      0x20\n      add\n      dup1\n      dup4\n      gt\n      tag_156\n      jumpi\n      dup3\n      swap1\n      sub\n      0x1f\n      and\n      dup3\n      add\n      swap2\n    tag_154:\n      pop\n      pop\n      pop\n      pop\n      pop\n      swap2\n      pop\n      dup1\n      dup1\n      sload\n      tag_157\n      swap1\n      tag_91\n      jump\t// in\n    tag_157:\n      dup1\n      0x1f\n      add\n      0x20\n      dup1\n      swap2\n      div\n      mul\n      0x20\n      add\n      mload(0x40)\n      swap1\n      dup2\n      add\n      0x40\n      mstore\n      dup1\n      swap3\n      swap2\n      swap1\n      dup2\n      dup2\n      mstore\n      0x20\n      add\n      dup3\n      dup1\n      sload\n      tag_158\n      swap1\n      tag_91\n      jump\t// in\n    tag_158:\n      dup1\n      iszero\n      tag_159\n      jumpi\n      dup1\n      0x1f\n      lt\n      tag_160\n      jumpi\n      0x0100\n      dup1\n      dup4\n      sload\n      div\n      mul\n      dup4\n      mstore\n      swap2\n      0x20\n      add\n      swap2\n      jump(tag_159)\n    tag_160:\n      dup3\n      add\n      swap2\n      swap1\n      0x00\n      mstore\n      keccak256(0x00, 0x20)\n      swap1\n    tag_161:\n      dup2\n      sload\n      dup2\n      mstore\n      swap1\n      0x01\n      add\n      swap1\n      0x20\n      add\n      dup1\n      dup4\n      gt\n      tag_161\n      jumpi\n      dup3\n      swap1\n      sub\n      0x1f\n      and\n      dup3\n      add\n      swap2\n    tag_159:\n      pop\n      pop\n      pop\n      pop\n      pop\n      swap1\n      pop\n      swap4\n      pop\n      swap4\n      pop\n      swap4\n      pop\n      swap4\n      pop\n        /* \"Verification.sol\":4227:4549  function findDocHash(... */\n      swap3\n      swap6\n      swap2\n      swap5\n      pop\n      swap3\n      pop\n      jump\t// out\n        /* \"Verification.sol\":1840:2151  function addExporter(... */\n    tag_53:\n        /* \"Verification.sol\":1046:1051  owner */\n      0x00\n      0x02\n      swap1\n      sload\n      swap1\n      0x0100\n      exp\n      swap1\n      div\n      0xffffffffffffffffffffffffffffffffffffffff\n      and\n        /* \"Verification.sol\":1032:1051  msg.sender != owner */\n      0xffffffffffffffffffffffffffffffffffffffff\n      and\n        /* \"Verification.sol\":1032:1042  msg.sender */\n      caller\n        /* \"Verification.sol\":1032:1051  msg.sender != owner */\n      0xffffffffffffffffffffffffffffffffffffffff\n      and\n      eq\n        /* \"Verification.sol\":1028:1113  if (msg.sender != owner) {... */\n      tag_163\n      jumpi\n        /* \"Verification.sol\":1068:1101  revert(\"Caller is not the owner\") */\n      mload(0x40)\n      0x08c379a000000000000000000000000000000000000000000000000000000000\n      dup2\n      mstore\n      0x04\n      add\n      tag_164\n      swap1\n      tag_139\n      jump\t// in\n    tag_164:\n      mload(0x40)\n      dup1\n      swap2\n      sub\n      swap1\n      revert\n        /* \"Verification.sol\":1028:1113  if (msg.sender != owner) {... */\n    tag_163:\n        /* \"Verification.sol\":1962:1986  isExporterApproved(_add) */\n      tag_166\n        /* \"Verification.sol\":1981:1985  _add */\n      dup4\n        /* \"Verification.sol\":1962:1980  isExporterApproved */\n      tag_119\n        /* \"Verification.sol\":1962:1986  isExporterApproved(_add) */\n      jump\t// in\n    tag_166:\n        /* \"Verification.sol\":1961:1986  !isExporterApproved(_add) */\n      iszero\n        /* \"Verification.sol\":1953:2013  require(!isExporterApproved(_add), \"Exporter already added\") */\n      tag_167\n      jumpi\n      mload(0x40)\n      0x08c379a000000000000000000000000000000000000000000000000000000000\n      dup2\n      mstore\n      0x04\n      add\n      tag_168\n      swap1\n      tag_169\n      jump\t// in\n    tag_168:\n      mload(0x40)\n      dup1\n      swap2\n      sub\n      swap1\n      revert\n    tag_167:\n        /* \"Verification.sol\":2042:2077  ExporterRecord(block.number, _info) */\n      mload(0x40)\n      dup1\n      0x40\n      add\n      0x40\n      mstore\n      dup1\n        /* \"Verification.sol\":2057:2069  block.number */\n      number\n        /* \"Verification.sol\":2042:2077  ExporterRecord(block.number, _info) */\n      dup2\n      mstore\n      0x20\n      add\n        /* \"Verification.sol\":2071:2076  _info */\n      dup4\n      dup4\n        /* \"Verification.sol\":2042:2077  ExporterRecord(block.number, _info) */\n      dup1\n      dup1\n      0x1f\n      add\n      0x20\n      dup1\n      swap2\n      div\n      mul\n      0x20\n      add\n      mload(0x40)\n      swap1\n      dup2\n      add\n      0x40\n      mstore\n      dup1\n      swap4\n      swap3\n      swap2\n      swap1\n      dup2\n      dup2\n      mstore\n      0x20\n      add\n      dup4\n      dup4\n      dup1\n      dup3\n      dup5\n      calldatacopy\n      0x00\n      dup2\n      dup5\n      add\n      mstore\n      not(0x1f)\n      0x1f\n      dup3\n      add\n      and\n      swap1\n      pop\n      dup1\n      dup4\n      add\n      swap3\n      pop\n      pop\n      pop\n      pop\n      pop\n      pop\n      pop\n      dup2\n      mstore\n      pop\n        /* \"Verification.sol\":2024:2033  exporters */\n      0x02\n        /* \"Verification.sol\":2024:2039  exporters[_add] */\n      0x00\n        /* \"Verification.sol\":2034:2038  _add */\n      dup6\n        /* \"Verification.sol\":2024:2039  exporters[_add] */\n      0xffffffffffffffffffffffffffffffffffffffff\n      and\n      0xffffffffffffffffffffffffffffffffffffffff\n      and\n      dup2\n      mstore\n      0x20\n      add\n      swap1\n      dup2\n      mstore\n      0x20\n      add\n      0x00\n      keccak256\n        /* \"Verification.sol\":2024:2077  exporters[_add] = ExporterRecord(block.number, _info) */\n      0x00\n      dup3\n      add\n      mload\n      dup2\n      0x00\n      add\n      sstore\n      0x20\n      dup3\n      add\n      mload\n      dup2\n      0x01\n      add\n      swap1\n      dup2\n      tag_170\n      swap2\n      swap1\n      tag_171\n      jump\t// in\n    tag_170:\n      pop\n      swap1\n      pop\n      pop\n        /* \"Verification.sol\":2088:2105  approvedExporters */\n      0x04\n        /* \"Verification.sol\":2111:2115  _add */\n      dup4\n        /* \"Verification.sol\":2088:2116  approvedExporters.push(_add) */\n      swap1\n      dup1\n      0x01\n      dup2\n      sload\n      add\n      dup1\n      dup3\n      sstore\n      dup1\n      swap2\n      pop\n      pop\n      0x01\n      swap1\n      sub\n      swap1\n      0x00\n      mstore\n      keccak256(0x00, 0x20)\n      add\n      0x00\n      swap1\n      swap2\n      swap1\n      swap2\n      swap1\n      swap2\n      0x0100\n      exp\n      dup2\n      sload\n      dup2\n      0xffffffffffffffffffffffffffffffffffffffff\n      mul\n      not\n      and\n      swap1\n      dup4\n      0xffffffffffffffffffffffffffffffffffffffff\n      and\n      mul\n      or\n      swap1\n      sstore\n      pop\n        /* \"Verification.sol\":2129:2143  countExporters */\n      0x00\n      dup1\n        /* \"Verification.sol\":2127:2143  ++countExporters */\n      dup2\n      dup2\n      swap1\n      sload\n      swap1\n      0x0100\n      exp\n      swap1\n      div\n      0xffff\n      and\n      tag_173\n      swap1\n      tag_174\n      jump\t// in\n    tag_173:\n      swap2\n      swap1\n      0x0100\n      exp\n      dup2\n      sload\n      dup2\n      0xffff\n      mul\n      not\n      and\n      swap1\n      dup4\n      0xffff\n      and\n      mul\n      or\n      swap1\n      sstore\n      pop\n        /* \"Verification.sol\":1840:2151  function addExporter(... */\n      pop\n      pop\n      pop\n      jump\t// out\n        /* \"Verification.sol\":885:919  address[] public approvedExporters */\n    tag_57:\n      0x04\n      dup2\n      dup2\n      sload\n      dup2\n      lt\n      tag_175\n      jumpi\n      0x00\n      dup1\n      revert\n    tag_175:\n      swap1\n      0x00\n      mstore\n      keccak256(0x00, 0x20)\n      add\n      0x00\n      swap2\n      pop\n      sload\n      swap1\n      0x0100\n      exp\n      swap1\n      div\n      0xffffffffffffffffffffffffffffffffffffffff\n      and\n      dup2\n      jump\t// out\n        /* \"Verification.sol\":645:677  uint16 public countExporters = 0 */\n    tag_61:\n      0x00\n      dup1\n      sload\n      swap1\n      0x0100\n      exp\n      swap1\n      div\n      0xffff\n      and\n      dup2\n      jump\t// out\n        /* \"Verification.sol\":684:704  address public owner */\n    tag_65:\n      0x00\n      0x02\n      swap1\n      sload\n      swap1\n      0x0100\n      exp\n      swap1\n      div\n      0xffffffffffffffffffffffffffffffffffffffff\n      and\n      dup2\n      jump\t// out\n        /* \"Verification.sol\":820:878  mapping(address => Certificate) public studentCertificates */\n    tag_69:\n      mstore(0x20, 0x03)\n      dup1\n      0x00\n      mstore\n      keccak256(0x00, 0x40)\n      0x00\n      swap2\n      pop\n      swap1\n      pop\n      dup1\n      0x00\n      add\n      dup1\n      sload\n      tag_177\n      swap1\n      tag_91\n      jump\t// in\n    tag_177:\n      dup1\n      0x1f\n      add\n      0x20\n      dup1\n      swap2\n      div\n      mul\n      0x20\n      add\n      mload(0x40)\n      swap1\n      dup2\n      add\n      0x40\n      mstore\n      dup1\n      swap3\n      swap2\n      swap1\n      dup2\n      dup2\n      mstore\n      0x20\n      add\n      dup3\n      dup1\n      sload\n      tag_178\n      swap1\n      tag_91\n      jump\t// in\n    tag_178:\n      dup1\n      iszero\n      tag_179\n      jumpi\n      dup1\n      0x1f\n      lt\n      tag_180\n      jumpi\n      0x0100\n      dup1\n      dup4\n      sload\n      div\n      mul\n      dup4\n      mstore\n      swap2\n      0x20\n      add\n      swap2\n      jump(tag_179)\n    tag_180:\n      dup3\n      add\n      swap2\n      swap1\n      0x00\n      mstore\n      keccak256(0x00, 0x20)\n      swap1\n    tag_181:\n      dup2\n      sload\n      dup2\n      mstore\n      swap1\n      0x01\n      add\n      swap1\n      0x20\n      add\n      dup1\n      dup4\n      gt\n      tag_181\n      jumpi\n      dup3\n      swap1\n      sub\n      0x1f\n      and\n      dup3\n      add\n      swap2\n    tag_179:\n      pop\n      pop\n      pop\n      pop\n      pop\n      swap1\n      dup1\n      0x01\n      add\n      dup1\n      sload\n      tag_182\n      swap1\n      tag_91\n      jump\t// in\n    tag_182:\n      dup1\n      0x1f\n      add\n      0x20\n      dup1\n      swap2\n      div\n      mul\n      0x20\n      add\n      mload(0x40)\n      swap1\n      dup2\n      add\n      0x40\n      mstore\n      dup1\n      swap3\n      swap2\n      swap1\n      dup2\n      dup2\n      mstore\n      0x20\n      add\n      dup3\n      dup1\n      sload\n      tag_183\n      swap1\n      tag_91\n      jump\t// in\n    tag_183:\n      dup1\n      iszero\n      tag_184\n      jumpi\n      dup1\n      0x1f\n      lt\n      tag_185\n      jumpi\n      0x0100\n      dup1\n      dup4\n      sload\n      div\n      mul\n      dup4\n      mstore\n      swap2\n      0x20\n      add\n      swap2\n      jump(tag_184)\n    tag_185:\n      dup3\n      add\n      swap2\n      swap1\n      0x00\n      mstore\n      keccak256(0x00, 0x20)\n      swap1\n    tag_186:\n      dup2\n      sload\n      dup2\n      mstore\n      swap1\n      0x01\n      add\n      swap1\n      0x20\n      add\n      dup1\n      dup4\n      gt\n      tag_186\n      jumpi\n      dup3\n      swap1\n      sub\n      0x1f\n      and\n      dup3\n      add\n      swap2\n    tag_184:\n      pop\n      pop\n      pop\n      pop\n      pop\n      swap1\n      dup1\n      0x02\n      add\n      dup1\n      sload\n      tag_187\n      swap1\n      tag_91\n      jump\t// in\n    tag_187:\n      dup1\n      0x1f\n      add\n      0x20\n      dup1\n      swap2\n      div\n      mul\n      0x20\n      add\n      mload(0x40)\n      swap1\n      dup2\n      add\n      0x40\n      mstore\n      dup1\n      swap3\n      swap2\n      swap1\n      dup2\n      dup2\n      mstore\n      0x20\n      add\n      dup3\n      dup1\n      sload\n      tag_188\n      swap1\n      tag_91\n      jump\t// in\n    tag_188:\n      dup1\n      iszero\n      tag_189\n      jumpi\n      dup1\n      0x1f\n      lt\n      tag_190\n      jumpi\n      0x0100\n      dup1\n      dup4\n      sload\n      div\n      mul\n      dup4\n      mstore\n      swap2\n      0x20\n      add\n      swap2\n      jump(tag_189)\n    tag_190:\n      dup3\n      add\n      swap2\n      swap1\n      0x00\n      mstore\n      keccak256(0x00, 0x20)\n      swap1\n    tag_191:\n      dup2\n      sload\n      dup2\n      mstore\n      swap1\n      0x01\n      add\n      swap1\n      0x20\n      add\n      dup1\n      dup4\n      gt\n      tag_191\n      jumpi\n      dup3\n      swap1\n      sub\n      0x1f\n      and\n      dup3\n      add\n      swap2\n    tag_189:\n      pop\n      pop\n      pop\n      pop\n      pop\n      swap1\n      dup1\n      0x03\n      add\n      sload\n      swap1\n      pop\n      dup5\n      jump\t// out\n        /* \"Verification.sol\":2920:3053  function changeOwner(... */\n    tag_74:\n        /* \"Verification.sol\":1046:1051  owner */\n      0x00\n      0x02\n      swap1\n      sload\n      swap1\n      0x0100\n      exp\n      swap1\n      div\n      0xffffffffffffffffffffffffffffffffffffffff\n      and\n        /* \"Verification.sol\":1032:1051  msg.sender != owner */\n      0xffffffffffffffffffffffffffffffffffffffff\n      and\n        /* \"Verification.sol\":1032:1042  msg.sender */\n      caller\n        /* \"Verification.sol\":1032:1051  msg.sender != owner */\n      0xffffffffffffffffffffffffffffffffffffffff\n      and\n      eq\n        /* \"Verification.sol\":1028:1113  if (msg.sender != owner) {... */\n      tag_193\n      jumpi\n        /* \"Verification.sol\":1068:1101  revert(\"Caller is not the owner\") */\n      mload(0x40)\n      0x08c379a000000000000000000000000000000000000000000000000000000000\n      dup2\n      mstore\n      0x04\n      add\n      tag_194\n      swap1\n      tag_139\n      jump\t// in\n    tag_194:\n      mload(0x40)\n      dup1\n      swap2\n      sub\n      swap1\n      revert\n        /* \"Verification.sol\":1028:1113  if (msg.sender != owner) {... */\n    tag_193:\n        /* \"Verification.sol\":3006:3015  _newOwner */\n      dup1\n        /* \"Verification.sol\":1212:1213  0 */\n      0x00\n        /* \"Verification.sol\":1195:1214  _addr != address(0) */\n      0xffffffffffffffffffffffffffffffffffffffff\n      and\n        /* \"Verification.sol\":1195:1200  _addr */\n      dup2\n        /* \"Verification.sol\":1195:1214  _addr != address(0) */\n      0xffffffffffffffffffffffffffffffffffffffff\n      and\n      sub\n        /* \"Verification.sol\":1188:1215  assert(_addr != address(0)) */\n      tag_196\n      jumpi\n      tag_197\n      tag_198\n      jump\t// in\n    tag_197:\n    tag_196:\n        /* \"Verification.sol\":3036:3045  _newOwner */\n      dup2\n        /* \"Verification.sol\":3028:3033  owner */\n      0x00\n      0x02\n        /* \"Verification.sol\":3028:3045  owner = _newOwner */\n      0x0100\n      exp\n      dup2\n      sload\n      dup2\n      0xffffffffffffffffffffffffffffffffffffffff\n      mul\n      not\n      and\n      swap1\n      dup4\n      0xffffffffffffffffffffffffffffffffffffffff\n      and\n      mul\n      or\n      swap1\n      sstore\n      pop\n        /* \"Verification.sol\":1123:1124  _ */\n      pop\n        /* \"Verification.sol\":2920:3053  function changeOwner(... */\n      pop\n      jump\t// out\n        /* \"Verification.sol\":2159:2683  function deleteExporter(address _add) external onlyOwner {... */\n    tag_77:\n        /* \"Verification.sol\":1046:1051  owner */\n      0x00\n      0x02\n      swap1\n      sload\n      swap1\n      0x0100\n      exp\n      swap1\n      div\n      0xffffffffffffffffffffffffffffffffffffffff\n      and\n        /* \"Verification.sol\":1032:1051  msg.sender != owner */\n      0xffffffffffffffffffffffffffffffffffffffff\n      and\n        /* \"Verification.sol\":1032:1042  msg.sender */\n      caller\n        /* \"Verification.sol\":1032:1051  msg.sender != owner */\n      0xffffffffffffffffffffffffffffffffffffffff\n      and\n      eq\n        /* \"Verification.sol\":1028:1113  if (msg.sender != owner) {... */\n      tag_201\n      jumpi\n        /* \"Verification.sol\":1068:1101  revert(\"Caller is not the owner\") */\n      mload(0x40)\n      0x08c379a000000000000000000000000000000000000000000000000000000000\n      dup2\n      mstore\n      0x04\n      add\n      tag_202\n      swap1\n      tag_139\n      jump\t// in\n    tag_202:\n      mload(0x40)\n      dup1\n      swap2\n      sub\n      swap1\n      revert\n        /* \"Verification.sol\":1028:1113  if (msg.sender != owner) {... */\n    tag_201:\n        /* \"Verification.sol\":2235:2259  isExporterApproved(_add) */\n      tag_204\n        /* \"Verification.sol\":2254:2258  _add */\n      dup2\n        /* \"Verification.sol\":2235:2253  isExporterApproved */\n      tag_119\n        /* \"Verification.sol\":2235:2259  isExporterApproved(_add) */\n      jump\t// in\n    tag_204:\n        /* \"Verification.sol\":2227:2282  require(isExporterApproved(_add), \"Exporter not found\") */\n      tag_205\n      jumpi\n      mload(0x40)\n      0x08c379a000000000000000000000000000000000000000000000000000000000\n      dup2\n      mstore\n      0x04\n      add\n      tag_206\n      swap1\n      tag_122\n      jump\t// in\n    tag_206:\n      mload(0x40)\n      dup1\n      swap2\n      sub\n      swap1\n      revert\n    tag_205:\n        /* \"Verification.sol\":2300:2309  exporters */\n      0x02\n        /* \"Verification.sol\":2300:2315  exporters[_add] */\n      0x00\n        /* \"Verification.sol\":2310:2314  _add */\n      dup3\n        /* \"Verification.sol\":2300:2315  exporters[_add] */\n      0xffffffffffffffffffffffffffffffffffffffff\n      and\n      0xffffffffffffffffffffffffffffffffffffffff\n      and\n      dup2\n      mstore\n      0x20\n      add\n      swap1\n      dup2\n      mstore\n      0x20\n      add\n      0x00\n      keccak256\n      0x00\n        /* \"Verification.sol\":2293:2315  delete exporters[_add] */\n      dup1\n      dup3\n      add\n      0x00\n      swap1\n      sstore\n      0x01\n      dup3\n      add\n      0x00\n      tag_207\n      swap2\n      swap1\n      tag_208\n      jump\t// in\n    tag_207:\n      pop\n      pop\n        /* \"Verification.sol\":2331:2337  uint i */\n      0x00\n        /* \"Verification.sol\":2326:2649  for (uint i = 0; i < approvedExporters.length; i++) {... */\n    tag_209:\n        /* \"Verification.sol\":2347:2364  approvedExporters */\n      0x04\n        /* \"Verification.sol\":2347:2371  approvedExporters.length */\n      dup1\n      sload\n      swap1\n      pop\n        /* \"Verification.sol\":2343:2344  i */\n      dup2\n        /* \"Verification.sol\":2343:2371  i < approvedExporters.length */\n      lt\n        /* \"Verification.sol\":2326:2649  for (uint i = 0; i < approvedExporters.length; i++) {... */\n      iszero\n      tag_210\n      jumpi\n        /* \"Verification.sol\":2421:2425  _add */\n      dup2\n        /* \"Verification.sol\":2397:2425  approvedExporters[i] == _add */\n      0xffffffffffffffffffffffffffffffffffffffff\n      and\n        /* \"Verification.sol\":2397:2414  approvedExporters */\n      0x04\n        /* \"Verification.sol\":2415:2416  i */\n      dup3\n        /* \"Verification.sol\":2397:2417  approvedExporters[i] */\n      dup2\n      sload\n      dup2\n      lt\n      tag_212\n      jumpi\n      tag_213\n      tag_214\n      jump\t// in\n    tag_213:\n    tag_212:\n      swap1\n      0x00\n      mstore\n      keccak256(0x00, 0x20)\n      add\n      0x00\n      swap1\n      sload\n      swap1\n      0x0100\n      exp\n      swap1\n      div\n      0xffffffffffffffffffffffffffffffffffffffff\n      and\n        /* \"Verification.sol\":2397:2425  approvedExporters[i] == _add */\n      0xffffffffffffffffffffffffffffffffffffffff\n      and\n      sub\n        /* \"Verification.sol\":2393:2638  if (approvedExporters[i] == _add) {... */\n      tag_216\n      jumpi\n        /* \"Verification.sol\":2469:2486  approvedExporters */\n      0x04\n        /* \"Verification.sol\":2536:2537  1 */\n      0x01\n        /* \"Verification.sol\":2509:2526  approvedExporters */\n      0x04\n        /* \"Verification.sol\":2509:2533  approvedExporters.length */\n      dup1\n      sload\n      swap1\n      pop\n        /* \"Verification.sol\":2509:2537  approvedExporters.length - 1 */\n      tag_217\n      swap2\n      swap1\n      tag_218\n      jump\t// in\n    tag_217:\n        /* \"Verification.sol\":2469:2556  approvedExporters[... */\n      dup2\n      sload\n      dup2\n      lt\n      tag_219\n      jumpi\n      tag_220\n      tag_214\n      jump\t// in\n    tag_220:\n    tag_219:\n      swap1\n      0x00\n      mstore\n      keccak256(0x00, 0x20)\n      add\n      0x00\n      swap1\n      sload\n      swap1\n      0x0100\n      exp\n      swap1\n      div\n      0xffffffffffffffffffffffffffffffffffffffff\n      and\n        /* \"Verification.sol\":2446:2463  approvedExporters */\n      0x04\n        /* \"Verification.sol\":2464:2465  i */\n      dup3\n        /* \"Verification.sol\":2446:2466  approvedExporters[i] */\n      dup2\n      sload\n      dup2\n      lt\n      tag_222\n      jumpi\n      tag_223\n      tag_214\n      jump\t// in\n    tag_223:\n    tag_222:\n      swap1\n      0x00\n      mstore\n      keccak256(0x00, 0x20)\n      add\n      0x00\n        /* \"Verification.sol\":2446:2556  approvedExporters[i] = approvedExporters[... */\n      0x0100\n      exp\n      dup2\n      sload\n      dup2\n      0xffffffffffffffffffffffffffffffffffffffff\n      mul\n      not\n      and\n      swap1\n      dup4\n      0xffffffffffffffffffffffffffffffffffffffff\n      and\n      mul\n      or\n      swap1\n      sstore\n      pop\n        /* \"Verification.sol\":2575:2592  approvedExporters */\n      0x04\n        /* \"Verification.sol\":2575:2598  approvedExporters.pop() */\n      dup1\n      sload\n      dup1\n      tag_225\n      jumpi\n      tag_226\n      tag_227\n      jump\t// in\n    tag_226:\n    tag_225:\n      0x01\n      swap1\n      sub\n      dup2\n      dup2\n      swap1\n      0x00\n      mstore\n      keccak256(0x00, 0x20)\n      add\n      exp(0x0100, 0x00)\n      dup2\n      sload\n      swap1\n      0xffffffffffffffffffffffffffffffffffffffff\n      mul\n      not\n      and\n      swap1\n      sstore\n      swap1\n      sstore\n        /* \"Verification.sol\":2617:2622  break */\n      jump(tag_210)\n        /* \"Verification.sol\":2393:2638  if (approvedExporters[i] == _add) {... */\n    tag_216:\n        /* \"Verification.sol\":2373:2376  i++ */\n      dup1\n      dup1\n      0x01\n      add\n      swap2\n      pop\n      pop\n        /* \"Verification.sol\":2326:2649  for (uint i = 0; i < approvedExporters.length; i++) {... */\n      jump(tag_209)\n    tag_210:\n      pop\n        /* \"Verification.sol\":2661:2675  countExporters */\n      0x00\n      dup1\n        /* \"Verification.sol\":2659:2675  --countExporters */\n      dup2\n      dup2\n      swap1\n      sload\n      swap1\n      0x0100\n      exp\n      swap1\n      div\n      0xffff\n      and\n      tag_229\n      swap1\n      tag_230\n      jump\t// in\n    tag_229:\n      swap2\n      swap1\n      0x0100\n      exp\n      dup2\n      sload\n      dup2\n      0xffff\n      mul\n      not\n      and\n      swap1\n      dup4\n      0xffff\n      and\n      mul\n      or\n      swap1\n      sstore\n      pop\n        /* \"Verification.sol\":2159:2683  function deleteExporter(address _add) external onlyOwner {... */\n      pop\n      jump\t// out\n        /* \"Verification.sol\":3128:4219  function addDocHash(... */\n    tag_81:\n        /* \"Verification.sol\":3377:3407  isExporterApproved(msg.sender) */\n      tag_232\n        /* \"Verification.sol\":3396:3406  msg.sender */\n      caller\n        /* \"Verification.sol\":3377:3395  isExporterApproved */\n      tag_119\n        /* \"Verification.sol\":3377:3407  isExporterApproved(msg.sender) */\n      jump\t// in\n    tag_232:\n        /* \"Verification.sol\":3355:3469  require(... */\n      tag_233\n      jumpi\n      mload(0x40)\n      0x08c379a000000000000000000000000000000000000000000000000000000000\n      dup2\n      mstore\n      0x04\n      add\n      tag_234\n      swap1\n      tag_235\n      jump\t// in\n    tag_234:\n      mload(0x40)\n      dup1\n      swap2\n      sub\n      swap1\n      revert\n    tag_233:\n        /* \"Verification.sol\":3533:3534  0 */\n      0x00\n        /* \"Verification.sol\":3502:3511  docHashes */\n      0x01\n        /* \"Verification.sol\":3512:3516  hash */\n      dup11\n      dup11\n        /* \"Verification.sol\":3502:3517  docHashes[hash] */\n      mload(0x40)\n      tag_236\n      swap3\n      swap2\n      swap1\n      tag_148\n      jump\t// in\n    tag_236:\n      swap1\n      dup2\n      mstore\n      0x20\n      add\n      mload(0x40)\n      dup1\n      swap2\n      sub\n      swap1\n      keccak256\n        /* \"Verification.sol\":3502:3529  docHashes[hash].blockNumber */\n      0x00\n      add\n      sload\n        /* \"Verification.sol\":3502:3534  docHashes[hash].blockNumber == 0 */\n      eq\n        /* \"Verification.sol\":3480:3590  require(... */\n      tag_237\n      jumpi\n      mload(0x40)\n      0x08c379a000000000000000000000000000000000000000000000000000000000\n      dup2\n      mstore\n      0x04\n      add\n      tag_238\n      swap1\n      tag_239\n      jump\t// in\n    tag_238:\n      mload(0x40)\n      dup1\n      swap2\n      sub\n      swap1\n      revert\n    tag_237:\n        /* \"Verification.sol\":3621:3756  Record(... */\n      mload(0x40)\n      dup1\n      0x80\n      add\n      0x40\n      mstore\n      dup1\n        /* \"Verification.sol\":3642:3654  block.number */\n      number\n        /* \"Verification.sol\":3621:3756  Record(... */\n      dup2\n      mstore\n      0x20\n      add\n        /* \"Verification.sol\":3669:3684  block.timestamp */\n      timestamp\n        /* \"Verification.sol\":3621:3756  Record(... */\n      dup2\n      mstore\n      0x20\n      add\n        /* \"Verification.sol\":3699:3708  exporters */\n      0x02\n        /* \"Verification.sol\":3699:3720  exporters[msg.sender] */\n      0x00\n        /* \"Verification.sol\":3709:3719  msg.sender */\n      caller\n        /* \"Verification.sol\":3699:3720  exporters[msg.sender] */\n      0xffffffffffffffffffffffffffffffffffffffff\n      and\n      0xffffffffffffffffffffffffffffffffffffffff\n      and\n      dup2\n      mstore\n      0x20\n      add\n      swap1\n      dup2\n      mstore\n      0x20\n      add\n      0x00\n      keccak256\n        /* \"Verification.sol\":3699:3725  exporters[msg.sender].info */\n      0x01\n      add\n        /* \"Verification.sol\":3621:3756  Record(... */\n      dup1\n      sload\n      tag_240\n      swap1\n      tag_91\n      jump\t// in\n    tag_240:\n      dup1\n      0x1f\n      add\n      0x20\n      dup1\n      swap2\n      div\n      mul\n      0x20\n      add\n      mload(0x40)\n      swap1\n      dup2\n      add\n      0x40\n      mstore\n      dup1\n      swap3\n      swap2\n      swap1\n      dup2\n      dup2\n      mstore\n      0x20\n      add\n      dup3\n      dup1\n      sload\n      tag_241\n      swap1\n      tag_91\n      jump\t// in\n    tag_241:\n      dup1\n      iszero\n      tag_242\n      jumpi\n      dup1\n      0x1f\n      lt\n      tag_243\n      jumpi\n      0x0100\n      dup1\n      dup4\n      sload\n      div\n      mul\n      dup4\n      mstore\n      swap2\n      0x20\n      add\n      swap2\n      jump(tag_242)\n    tag_243:\n      dup3\n      add\n      swap2\n      swap1\n      0x00\n      mstore\n      keccak256(0x00, 0x20)\n      swap1\n    tag_244:\n      dup2\n      sload\n      dup2\n      mstore\n      swap1\n      0x01\n      add\n      swap1\n      0x20\n      add\n      dup1\n      dup4\n      gt\n      tag_244\n      jumpi\n      dup3\n      swap1\n      sub\n      0x1f\n      and\n      dup3\n      add\n      swap2\n    tag_242:\n      pop\n      pop\n      pop\n      pop\n      pop\n      dup2\n      mstore\n      0x20\n      add\n        /* \"Verification.sol\":3740:3745  _ipfs */\n      dup9\n      dup9\n        /* \"Verification.sol\":3621:3756  Record(... */\n      dup1\n      dup1\n      0x1f\n      add\n      0x20\n      dup1\n      swap2\n      div\n      mul\n      0x20\n      add\n      mload(0x40)\n      swap1\n      dup2\n      add\n      0x40\n      mstore\n      dup1\n      swap4\n      swap3\n      swap2\n      swap1\n      dup2\n      dup2\n      mstore\n      0x20\n      add\n      dup4\n      dup4\n      dup1\n      dup3\n      dup5\n      calldatacopy\n      0x00\n      dup2\n      dup5\n      add\n      mstore\n      not(0x1f)\n      0x1f\n      dup3\n      add\n      and\n      swap1\n      pop\n      dup1\n      dup4\n      add\n      swap3\n      pop\n      pop\n      pop\n      pop\n      pop\n      pop\n      pop\n      dup2\n      mstore\n      pop\n        /* \"Verification.sol\":3603:3612  docHashes */\n      0x01\n        /* \"Verification.sol\":3613:3617  hash */\n      dup11\n      dup11\n        /* \"Verification.sol\":3603:3618  docHashes[hash] */\n      mload(0x40)\n      tag_245\n      swap3\n      swap2\n      swap1\n      tag_148\n      jump\t// in\n    tag_245:\n      swap1\n      dup2\n      mstore\n      0x20\n      add\n      mload(0x40)\n      dup1\n      swap2\n      sub\n      swap1\n      keccak256\n        /* \"Verification.sol\":3603:3756  docHashes[hash] = Record(... */\n      0x00\n      dup3\n      add\n      mload\n      dup2\n      0x00\n      add\n      sstore\n      0x20\n      dup3\n      add\n      mload\n      dup2\n      0x01\n      add\n      sstore\n      0x40\n      dup3\n      add\n      mload\n      dup2\n      0x02\n      add\n      swap1\n      dup2\n      tag_246\n      swap2\n      swap1\n      tag_171\n      jump\t// in\n    tag_246:\n      pop\n      0x60\n      dup3\n      add\n      mload\n      dup2\n      0x03\n      add\n      swap1\n      dup2\n      tag_247\n      swap2\n      swap1\n      tag_171\n      jump\t// in\n    tag_247:\n      pop\n      swap1\n      pop\n      pop\n        /* \"Verification.sol\":3780:3790  msg.sender */\n      caller\n        /* \"Verification.sol\":3772:3798  AddHash(msg.sender, _ipfs) */\n      0xffffffffffffffffffffffffffffffffffffffff\n      and\n      0x42db1418459a4104bd694454330c69ef6e28a01ea57974c129dcbac8e8dd1412\n        /* \"Verification.sol\":3792:3797  _ipfs */\n      dup9\n      dup9\n        /* \"Verification.sol\":3772:3798  AddHash(msg.sender, _ipfs) */\n      mload(0x40)\n      tag_248\n      swap3\n      swap2\n      swap1\n      tag_249\n      jump\t// in\n    tag_248:\n      mload(0x40)\n      dup1\n      swap2\n      sub\n      swap1\n      log2\n        /* \"Verification.sol\":3876:3877  0 */\n      0x00\n        /* \"Verification.sol\":3849:3878  _studentAddress != address(0) */\n      0xffffffffffffffffffffffffffffffffffffffff\n      and\n        /* \"Verification.sol\":3849:3864  _studentAddress */\n      dup6\n        /* \"Verification.sol\":3849:3878  _studentAddress != address(0) */\n      0xffffffffffffffffffffffffffffffffffffffff\n      and\n      sub\n        /* \"Verification.sol\":3841:3906  require(_studentAddress != address(0), \"Invalid student address\") */\n      tag_250\n      jumpi\n      mload(0x40)\n      0x08c379a000000000000000000000000000000000000000000000000000000000\n      dup2\n      mstore\n      0x04\n      add\n      tag_251\n      swap1\n      tag_101\n      jump\t// in\n    tag_251:\n      mload(0x40)\n      dup1\n      swap2\n      sub\n      swap1\n      revert\n    tag_250:\n        /* \"Verification.sol\":3956:4088  Certificate(... */\n      mload(0x40)\n      dup1\n      0x80\n      add\n      0x40\n      mstore\n      dup1\n        /* \"Verification.sol\":3982:3986  hash */\n      dup11\n      dup11\n        /* \"Verification.sol\":3956:4088  Certificate(... */\n      dup1\n      dup1\n      0x1f\n      add\n      0x20\n      dup1\n      swap2\n      div\n      mul\n      0x20\n      add\n      mload(0x40)\n      swap1\n      dup2\n      add\n      0x40\n      mstore\n      dup1\n      swap4\n      swap3\n      swap2\n      swap1\n      dup2\n      dup2\n      mstore\n      0x20\n      add\n      dup4\n      dup4\n      dup1\n      dup3\n      dup5\n      calldatacopy\n      0x00\n      dup2\n      dup5\n      add\n      mstore\n      not(0x1f)\n      0x1f\n      dup3\n      add\n      and\n      swap1\n      pop\n      dup1\n      dup4\n      add\n      swap3\n      pop\n      pop\n      pop\n      pop\n      pop\n      pop\n      pop\n      dup2\n      mstore\n      0x20\n      add\n        /* \"Verification.sol\":4001:4013  _studentName */\n      dup6\n      dup6\n        /* \"Verification.sol\":3956:4088  Certificate(... */\n      dup1\n      dup1\n      0x1f\n      add\n      0x20\n      dup1\n      swap2\n      div\n      mul\n      0x20\n      add\n      mload(0x40)\n      swap1\n      dup2\n      add\n      0x40\n      mstore\n      dup1\n      swap4\n      swap3\n      swap2\n      swap1\n      dup2\n      dup2\n      mstore\n      0x20\n      add\n      dup4\n      dup4\n      dup1\n      dup3\n      dup5\n      calldatacopy\n      0x00\n      dup2\n      dup5\n      add\n      mstore\n      not(0x1f)\n      0x1f\n      dup3\n      add\n      and\n      swap1\n      pop\n      dup1\n      dup4\n      add\n      swap3\n      pop\n      pop\n      pop\n      pop\n      pop\n      pop\n      pop\n      dup2\n      mstore\n      0x20\n      add\n        /* \"Verification.sol\":4028:4047  _certificateDetails */\n      dup4\n      dup4\n        /* \"Verification.sol\":3956:4088  Certificate(... */\n      dup1\n      dup1\n      0x1f\n      add\n      0x20\n      dup1\n      swap2\n      div\n      mul\n      0x20\n      add\n      mload(0x40)\n      swap1\n      dup2\n      add\n      0x40\n      mstore\n      dup1\n      swap4\n      swap3\n      swap2\n      swap1\n      dup2\n      dup2\n      mstore\n      0x20\n      add\n      dup4\n      dup4\n      dup1\n      dup3\n      dup5\n      calldatacopy\n      0x00\n      dup2\n      dup5\n      add\n      mstore\n      not(0x1f)\n      0x1f\n      dup3\n      add\n      and\n      swap1\n      pop\n      dup1\n      dup4\n      add\n      swap3\n      pop\n      pop\n      pop\n      pop\n      pop\n      pop\n      pop\n      dup2\n      mstore\n      0x20\n      add\n        /* \"Verification.sol\":4062:4077  block.timestamp */\n      timestamp\n        /* \"Verification.sol\":3956:4088  Certificate(... */\n      dup2\n      mstore\n      pop\n        /* \"Verification.sol\":3917:3936  studentCertificates */\n      0x03\n        /* \"Verification.sol\":3917:3953  studentCertificates[_studentAddress] */\n      0x00\n        /* \"Verification.sol\":3937:3952  _studentAddress */\n      dup8\n        /* \"Verification.sol\":3917:3953  studentCertificates[_studentAddress] */\n      0xffffffffffffffffffffffffffffffffffffffff\n      and\n      0xffffffffffffffffffffffffffffffffffffffff\n      and\n      dup2\n      mstore\n      0x20\n      add\n      swap1\n      dup2\n      mstore\n      0x20\n      add\n      0x00\n      keccak256\n        /* \"Verification.sol\":3917:4088  studentCertificates[_studentAddress] = Certificate(... */\n      0x00\n      dup3\n      add\n      mload\n      dup2\n      0x00\n      add\n      swap1\n      dup2\n      tag_252\n      swap2\n      swap1\n      tag_171\n      jump\t// in\n    tag_252:\n      pop\n      0x20\n      dup3\n      add\n      mload\n      dup2\n      0x01\n      add\n      swap1\n      dup2\n      tag_253\n      swap2\n      swap1\n      tag_171\n      jump\t// in\n    tag_253:\n      pop\n      0x40\n      dup3\n      add\n      mload\n      dup2\n      0x02\n      add\n      swap1\n      dup2\n      tag_254\n      swap2\n      swap1\n      tag_171\n      jump\t// in\n    tag_254:\n      pop\n      0x60\n      dup3\n      add\n      mload\n      dup2\n      0x03\n      add\n      sstore\n      swap1\n      pop\n      pop\n        /* \"Verification.sol\":4099:4116  exporterDocuments */\n      0x05\n        /* \"Verification.sol\":4099:4128  exporterDocuments[msg.sender] */\n      0x00\n        /* \"Verification.sol\":4117:4127  msg.sender */\n      caller\n        /* \"Verification.sol\":4099:4128  exporterDocuments[msg.sender] */\n      0xffffffffffffffffffffffffffffffffffffffff\n      and\n      0xffffffffffffffffffffffffffffffffffffffff\n      and\n      dup2\n      mstore\n      0x20\n      add\n      swap1\n      dup2\n      mstore\n      0x20\n      add\n      0x00\n      keccak256\n        /* \"Verification.sol\":4148:4200  DocumentDetails(hash, _studentAddress, _studentName) */\n      mload(0x40)\n      dup1\n      0x60\n      add\n      0x40\n      mstore\n      dup1\n        /* \"Verification.sol\":4164:4168  hash */\n      dup12\n      dup12\n        /* \"Verification.sol\":4148:4200  DocumentDetails(hash, _studentAddress, _studentName) */\n      dup1\n      dup1\n      0x1f\n      add\n      0x20\n      dup1\n      swap2\n      div\n      mul\n      0x20\n      add\n      mload(0x40)\n      swap1\n      dup2\n      add\n      0x40\n      mstore\n      dup1\n      swap4\n      swap3\n      swap2\n      swap1\n      dup2\n      dup2\n      mstore\n      0x20\n      add\n      dup4\n      dup4\n      dup1\n      dup3\n      dup5\n      calldatacopy\n      0x00\n      dup2\n      dup5\n      add\n      mstore\n      not(0x1f)\n      0x1f\n      dup3\n      add\n      and\n      swap1\n      pop\n      dup1\n      dup4\n      add\n      swap3\n      pop\n      pop\n      pop\n      pop\n      pop\n      pop\n      pop\n      dup2\n      mstore\n      0x20\n      add\n        /* \"Verification.sol\":4170:4185  _studentAddress */\n      dup8\n        /* \"Verification.sol\":4148:4200  DocumentDetails(hash, _studentAddress, _studentName) */\n      0xffffffffffffffffffffffffffffffffffffffff\n      and\n      dup2\n      mstore\n      0x20\n      add\n        /* \"Verification.sol\":4187:4199  _studentName */\n      dup7\n      dup7\n        /* \"Verification.sol\":4148:4200  DocumentDetails(hash, _studentAddress, _studentName) */\n      dup1\n      dup1\n      0x1f\n      add\n      0x20\n      dup1\n      swap2\n      div\n      mul\n      0x20\n      add\n      mload(0x40)\n      swap1\n      dup2\n      add\n      0x40\n      mstore\n      dup1\n      swap4\n      swap3\n      swap2\n      swap1\n      dup2\n      dup2\n      mstore\n      0x20\n      add\n      dup4\n      dup4\n      dup1\n      dup3\n      dup5\n      calldatacopy\n      0x00\n      dup2\n      dup5\n      add\n      mstore\n      not(0x1f)\n      0x1f\n      dup3\n      add\n      and\n      swap1\n      pop\n      dup1\n      dup4\n      add\n      swap3\n      pop\n      pop\n      pop\n      pop\n      pop\n      pop\n      pop\n      dup2\n      mstore\n      pop\n        /* \"Verification.sol\":4099:4211  exporterDocuments[msg.sender].push(... */\n      swap1\n      dup1\n      0x01\n      dup2\n      sload\n      add\n      dup1\n      dup3\n      sstore\n      dup1\n      swap2\n      pop\n      pop\n      0x01\n      swap1\n      sub\n      swap1\n      0x00\n      mstore\n      keccak256(0x00, 0x20)\n      swap1\n      0x03\n      mul\n      add\n      0x00\n      swap1\n      swap2\n      swap1\n      swap2\n      swap1\n      swap2\n      pop\n      0x00\n      dup3\n      add\n      mload\n      dup2\n      0x00\n      add\n      swap1\n      dup2\n      tag_256\n      swap2\n      swap1\n      tag_171\n      jump\t// in\n    tag_256:\n      pop\n      0x20\n      dup3\n      add\n      mload\n      dup2\n      0x01\n      add\n      exp(0x0100, 0x00)\n      dup2\n      sload\n      dup2\n      0xffffffffffffffffffffffffffffffffffffffff\n      mul\n      not\n      and\n      swap1\n      dup4\n      0xffffffffffffffffffffffffffffffffffffffff\n      and\n      mul\n      or\n      swap1\n      sstore\n      pop\n      0x40\n      dup3\n      add\n      mload\n      dup2\n      0x02\n      add\n      swap1\n      dup2\n      tag_257\n      swap2\n      swap1\n      tag_171\n      jump\t// in\n    tag_257:\n      pop\n      pop\n      pop\n        /* \"Verification.sol\":3128:4219  function addDocHash(... */\n      pop\n      pop\n      pop\n      pop\n      pop\n      pop\n      pop\n      pop\n      pop\n      jump\t// out\n        /* \"Verification.sol\":4557:5481  function deleteHash(... */\n    tag_85:\n        /* \"Verification.sol\":4676:4681  _hash */\n      dup3\n      dup3\n        /* \"Verification.sol\":1326:1356  isExporterApproved(msg.sender) */\n      tag_259\n        /* \"Verification.sol\":1345:1355  msg.sender */\n      caller\n        /* \"Verification.sol\":1326:1344  isExporterApproved */\n      tag_119\n        /* \"Verification.sol\":1326:1356  isExporterApproved(msg.sender) */\n      jump\t// in\n    tag_259:\n        /* \"Verification.sol\":1304:1418  require(... */\n      tag_260\n      jumpi\n      mload(0x40)\n      0x08c379a000000000000000000000000000000000000000000000000000000000\n      dup2\n      mstore\n      0x04\n      add\n      tag_261\n      swap1\n      tag_235\n      jump\t// in\n    tag_261:\n      mload(0x40)\n      dup1\n      swap2\n      sub\n      swap1\n      revert\n    tag_260:\n        /* \"Verification.sol\":1549:1558  docHashes */\n      0x01\n        /* \"Verification.sol\":1559:1563  _doc */\n      dup3\n      dup3\n        /* \"Verification.sol\":1549:1564  docHashes[_doc] */\n      mload(0x40)\n      tag_262\n      swap3\n      swap2\n      swap1\n      tag_148\n      jump\t// in\n    tag_262:\n      swap1\n      dup2\n      mstore\n      0x20\n      add\n      mload(0x40)\n      dup1\n      swap2\n      sub\n      swap1\n      keccak256\n        /* \"Verification.sol\":1549:1569  docHashes[_doc].info */\n      0x02\n      add\n        /* \"Verification.sol\":1531:1571  abi.encodePacked((docHashes[_doc].info)) */\n      add(0x20, mload(0x40))\n      tag_263\n      swap2\n      swap1\n      tag_264\n      jump\t// in\n    tag_263:\n      mload(0x40)\n      0x20\n      dup2\n      dup4\n      sub\n      sub\n      dup2\n      mstore\n      swap1\n      0x40\n      mstore\n        /* \"Verification.sol\":1521:1572  keccak256(abi.encodePacked((docHashes[_doc].info))) */\n      dup1\n      mload\n      swap1\n      0x20\n      add\n      keccak256\n        /* \"Verification.sol\":1475:1484  exporters */\n      0x02\n        /* \"Verification.sol\":1475:1496  exporters[msg.sender] */\n      0x00\n        /* \"Verification.sol\":1485:1495  msg.sender */\n      caller\n        /* \"Verification.sol\":1475:1496  exporters[msg.sender] */\n      0xffffffffffffffffffffffffffffffffffffffff\n      and\n      0xffffffffffffffffffffffffffffffffffffffff\n      and\n      dup2\n      mstore\n      0x20\n      add\n      swap1\n      dup2\n      mstore\n      0x20\n      add\n      0x00\n      keccak256\n        /* \"Verification.sol\":1475:1501  exporters[msg.sender].info */\n      0x01\n      add\n        /* \"Verification.sol\":1457:1503  abi.encodePacked((exporters[msg.sender].info)) */\n      add(0x20, mload(0x40))\n      tag_265\n      swap2\n      swap1\n      tag_264\n      jump\t// in\n    tag_265:\n      mload(0x40)\n      0x20\n      dup2\n      dup4\n      sub\n      sub\n      dup2\n      mstore\n      swap1\n      0x40\n      mstore\n        /* \"Verification.sol\":1447:1504  keccak256(abi.encodePacked((exporters[msg.sender].info))) */\n      dup1\n      mload\n      swap1\n      0x20\n      add\n      keccak256\n        /* \"Verification.sol\":1447:1572  keccak256(abi.encodePacked((exporters[msg.sender].info))) !=... */\n      eq\n        /* \"Verification.sol\":1429:1667  if (... */\n      tag_266\n      jumpi\n        /* \"Verification.sol\":1599:1655  revert(\"Caller is not authorized to edit this document\") */\n      mload(0x40)\n      0x08c379a000000000000000000000000000000000000000000000000000000000\n      dup2\n      mstore\n      0x04\n      add\n      tag_267\n      swap1\n      tag_268\n      jump\t// in\n    tag_267:\n      mload(0x40)\n      dup1\n      swap2\n      sub\n      swap1\n      revert\n        /* \"Verification.sol\":1429:1667  if (... */\n    tag_266:\n        /* \"Verification.sol\":4732:4733  0 */\n      0x00\n        /* \"Verification.sol\":4702:4711  docHashes */\n      0x01\n        /* \"Verification.sol\":4712:4717  _hash */\n      dup7\n      dup7\n        /* \"Verification.sol\":4702:4718  docHashes[_hash] */\n      mload(0x40)\n      tag_270\n      swap3\n      swap2\n      swap1\n      tag_148\n      jump\t// in\n    tag_270:\n      swap1\n      dup2\n      mstore\n      0x20\n      add\n      mload(0x40)\n      dup1\n      swap2\n      sub\n      swap1\n      keccak256\n        /* \"Verification.sol\":4702:4728  docHashes[_hash].timestamp */\n      0x01\n      add\n      sload\n        /* \"Verification.sol\":4702:4733  docHashes[_hash].timestamp != 0 */\n      sub\n        /* \"Verification.sol\":4694:4761  require(docHashes[_hash].timestamp != 0, \"Document hash not found\") */\n      tag_271\n      jumpi\n      mload(0x40)\n      0x08c379a000000000000000000000000000000000000000000000000000000000\n      dup2\n      mstore\n      0x04\n      add\n      tag_272\n      swap1\n      tag_273\n      jump\t// in\n    tag_272:\n      mload(0x40)\n      dup1\n      swap2\n      sub\n      swap1\n      revert\n    tag_271:\n        /* \"Verification.sol\":4807:4808  0 */\n      0x00\n        /* \"Verification.sol\":4780:4809  _studentAddress != address(0) */\n      0xffffffffffffffffffffffffffffffffffffffff\n      and\n        /* \"Verification.sol\":4780:4795  _studentAddress */\n      dup4\n        /* \"Verification.sol\":4780:4809  _studentAddress != address(0) */\n      0xffffffffffffffffffffffffffffffffffffffff\n      and\n      sub\n        /* \"Verification.sol\":4772:4837  require(_studentAddress != address(0), \"Invalid student address\") */\n      tag_274\n      jumpi\n      mload(0x40)\n      0x08c379a000000000000000000000000000000000000000000000000000000000\n      dup2\n      mstore\n      0x04\n      add\n      tag_275\n      swap1\n      tag_101\n      jump\t// in\n    tag_275:\n      mload(0x40)\n      dup1\n      swap2\n      sub\n      swap1\n      revert\n    tag_274:\n        /* \"Verification.sol\":4848:4886  DocumentDetails[] storage exporterDocs */\n      0x00\n        /* \"Verification.sol\":4889:4906  exporterDocuments */\n      0x05\n        /* \"Verification.sol\":4889:4918  exporterDocuments[msg.sender] */\n      0x00\n        /* \"Verification.sol\":4907:4917  msg.sender */\n      caller\n        /* \"Verification.sol\":4889:4918  exporterDocuments[msg.sender] */\n      0xffffffffffffffffffffffffffffffffffffffff\n      and\n      0xffffffffffffffffffffffffffffffffffffffff\n      and\n      dup2\n      mstore\n      0x20\n      add\n      swap1\n      dup2\n      mstore\n      0x20\n      add\n      0x00\n      keccak256\n        /* \"Verification.sol\":4848:4918  DocumentDetails[] storage exporterDocs = exporterDocuments[msg.sender] */\n      swap1\n      pop\n        /* \"Verification.sol\":4934:4940  uint i */\n      0x00\n        /* \"Verification.sol\":4929:5277  for (uint i = 0; i < exporterDocs.length; i++) {... */\n    tag_276:\n        /* \"Verification.sol\":4950:4962  exporterDocs */\n      dup2\n        /* \"Verification.sol\":4950:4969  exporterDocs.length */\n      dup1\n      sload\n      swap1\n      pop\n        /* \"Verification.sol\":4946:4947  i */\n      dup2\n        /* \"Verification.sol\":4946:4969  i < exporterDocs.length */\n      lt\n        /* \"Verification.sol\":4929:5277  for (uint i = 0; i < exporterDocs.length; i++) {... */\n      iszero\n      tag_277\n      jumpi\n        /* \"Verification.sol\":5092:5097  _hash */\n      dup7\n      dup7\n        /* \"Verification.sol\":5076:5099  keccak256(bytes(_hash)) */\n      mload(0x40)\n      tag_279\n      swap3\n      swap2\n      swap1\n      tag_280\n      jump\t// in\n    tag_279:\n      mload(0x40)\n      dup1\n      swap2\n      sub\n      swap1\n      keccak256\n        /* \"Verification.sol\":5029:5041  exporterDocs */\n      dup3\n        /* \"Verification.sol\":5042:5043  i */\n      dup3\n        /* \"Verification.sol\":5029:5044  exporterDocs[i] */\n      dup2\n      sload\n      dup2\n      lt\n      tag_281\n      jumpi\n      tag_282\n      tag_214\n      jump\t// in\n    tag_282:\n    tag_281:\n      swap1\n      0x00\n      mstore\n      keccak256(0x00, 0x20)\n      swap1\n      0x03\n      mul\n      add\n        /* \"Verification.sol\":5029:5053  exporterDocs[i].ipfsHash */\n      0x00\n      add\n        /* \"Verification.sol\":5013:5055  keccak256(bytes(exporterDocs[i].ipfsHash)) */\n      mload(0x40)\n      tag_284\n      swap2\n      swap1\n      tag_285\n      jump\t// in\n    tag_284:\n      mload(0x40)\n      dup1\n      swap2\n      sub\n      swap1\n      keccak256\n        /* \"Verification.sol\":5013:5099  keccak256(bytes(exporterDocs[i].ipfsHash)) ==... */\n      sub\n        /* \"Verification.sol\":4991:5266  if (... */\n      tag_286\n      jumpi\n        /* \"Verification.sol\":5152:5164  exporterDocs */\n      dup2\n        /* \"Verification.sol\":5187:5188  1 */\n      0x01\n        /* \"Verification.sol\":5165:5177  exporterDocs */\n      dup4\n        /* \"Verification.sol\":5165:5184  exporterDocs.length */\n      dup1\n      sload\n      swap1\n      pop\n        /* \"Verification.sol\":5165:5188  exporterDocs.length - 1 */\n      tag_287\n      swap2\n      swap1\n      tag_218\n      jump\t// in\n    tag_287:\n        /* \"Verification.sol\":5152:5189  exporterDocs[exporterDocs.length - 1] */\n      dup2\n      sload\n      dup2\n      lt\n      tag_288\n      jumpi\n      tag_289\n      tag_214\n      jump\t// in\n    tag_289:\n    tag_288:\n      swap1\n      0x00\n      mstore\n      keccak256(0x00, 0x20)\n      swap1\n      0x03\n      mul\n      add\n        /* \"Verification.sol\":5134:5146  exporterDocs */\n      dup3\n        /* \"Verification.sol\":5147:5148  i */\n      dup3\n        /* \"Verification.sol\":5134:5149  exporterDocs[i] */\n      dup2\n      sload\n      dup2\n      lt\n      tag_291\n      jumpi\n      tag_292\n      tag_214\n      jump\t// in\n    tag_292:\n    tag_291:\n      swap1\n      0x00\n      mstore\n      keccak256(0x00, 0x20)\n      swap1\n      0x03\n      mul\n      add\n        /* \"Verification.sol\":5134:5189  exporterDocs[i] = exporterDocs[exporterDocs.length - 1] */\n      0x00\n      dup3\n      add\n      dup2\n      0x00\n      add\n      swap1\n      dup2\n      tag_294\n      swap2\n      swap1\n      tag_295\n      jump\t// in\n    tag_294:\n      pop\n      0x01\n      dup3\n      add\n      0x00\n      swap1\n      sload\n      swap1\n      0x0100\n      exp\n      swap1\n      div\n      0xffffffffffffffffffffffffffffffffffffffff\n      and\n      dup2\n      0x01\n      add\n      exp(0x0100, 0x00)\n      dup2\n      sload\n      dup2\n      0xffffffffffffffffffffffffffffffffffffffff\n      mul\n      not\n      and\n      swap1\n      dup4\n      0xffffffffffffffffffffffffffffffffffffffff\n      and\n      mul\n      or\n      swap1\n      sstore\n      pop\n      0x02\n      dup3\n      add\n      dup2\n      0x02\n      add\n      swap1\n      dup2\n      tag_296\n      swap2\n      swap1\n      tag_295\n      jump\t// in\n    tag_296:\n      pop\n      swap1\n      pop\n      pop\n        /* \"Verification.sol\":5208:5220  exporterDocs */\n      dup2\n        /* \"Verification.sol\":5208:5226  exporterDocs.pop() */\n      dup1\n      sload\n      dup1\n      tag_297\n      jumpi\n      tag_298\n      tag_227\n      jump\t// in\n    tag_298:\n    tag_297:\n      0x01\n      swap1\n      sub\n      dup2\n      dup2\n      swap1\n      0x00\n      mstore\n      keccak256(0x00, 0x20)\n      swap1\n      0x03\n      mul\n      add\n      0x00\n      dup1\n      dup3\n      add\n      0x00\n      tag_300\n      swap2\n      swap1\n      tag_208\n      jump\t// in\n    tag_300:\n      0x01\n      dup3\n      add\n      exp(0x0100, 0x00)\n      dup2\n      sload\n      swap1\n      0xffffffffffffffffffffffffffffffffffffffff\n      mul\n      not\n      and\n      swap1\n      sstore\n      0x02\n      dup3\n      add\n      0x00\n      tag_301\n      swap2\n      swap1\n      tag_208\n      jump\t// in\n    tag_301:\n      pop\n      pop\n      swap1\n      sstore\n        /* \"Verification.sol\":5245:5250  break */\n      jump(tag_277)\n        /* \"Verification.sol\":4991:5266  if (... */\n    tag_286:\n        /* \"Verification.sol\":4971:4974  i++ */\n      dup1\n      dup1\n      0x01\n      add\n      swap2\n      pop\n      pop\n        /* \"Verification.sol\":4929:5277  for (uint i = 0; i < exporterDocs.length; i++) {... */\n      jump(tag_276)\n    tag_277:\n      pop\n        /* \"Verification.sol\":5331:5340  docHashes */\n      0x01\n        /* \"Verification.sol\":5341:5346  _hash */\n      dup7\n      dup7\n        /* \"Verification.sol\":5331:5347  docHashes[_hash] */\n      mload(0x40)\n      tag_302\n      swap3\n      swap2\n      swap1\n      tag_148\n      jump\t// in\n    tag_302:\n      swap1\n      dup2\n      mstore\n      0x20\n      add\n      mload(0x40)\n      dup1\n      swap2\n      sub\n      swap1\n      keccak256\n      0x00\n        /* \"Verification.sol\":5324:5347  delete docHashes[_hash] */\n      dup1\n      dup3\n      add\n      0x00\n      swap1\n      sstore\n      0x01\n      dup3\n      add\n      0x00\n      swap1\n      sstore\n      0x02\n      dup3\n      add\n      0x00\n      tag_303\n      swap2\n      swap1\n      tag_208\n      jump\t// in\n    tag_303:\n      0x03\n      dup3\n      add\n      0x00\n      tag_304\n      swap2\n      swap1\n      tag_208\n      jump\t// in\n    tag_304:\n      pop\n      pop\n        /* \"Verification.sol\":5437:5456  studentCertificates */\n      0x03\n        /* \"Verification.sol\":5437:5473  studentCertificates[_studentAddress] */\n      0x00\n        /* \"Verification.sol\":5457:5472  _studentAddress */\n      dup6\n        /* \"Verification.sol\":5437:5473  studentCertificates[_studentAddress] */\n      0xffffffffffffffffffffffffffffffffffffffff\n      and\n      0xffffffffffffffffffffffffffffffffffffffff\n      and\n      dup2\n      mstore\n      0x20\n      add\n      swap1\n      dup2\n      mstore\n      0x20\n      add\n      0x00\n      keccak256\n      0x00\n        /* \"Verification.sol\":5430:5473  delete studentCertificates[_studentAddress] */\n      dup1\n      dup3\n      add\n      0x00\n      tag_305\n      swap2\n      swap1\n      tag_208\n      jump\t// in\n    tag_305:\n      0x01\n      dup3\n      add\n      0x00\n      tag_306\n      swap2\n      swap1\n      tag_208\n      jump\t// in\n    tag_306:\n      0x02\n      dup3\n      add\n      0x00\n      tag_307\n      swap2\n      swap1\n      tag_208\n      jump\t// in\n    tag_307:\n      0x03\n      dup3\n      add\n      0x00\n      swap1\n      sstore\n      pop\n      pop\n        /* \"Verification.sol\":4683:5481  {... */\n      pop\n        /* \"Verification.sol\":4557:5481  function deleteHash(... */\n      pop\n      pop\n      pop\n      pop\n      pop\n      jump\t// out\n        /* \"Verification.sol\":1694:1832  function isExporterApproved(address _exporter) private view returns (bool) {... */\n    tag_119:\n        /* \"Verification.sol\":1763:1767  bool */\n      0x00\n        /* \"Verification.sol\":1823:1824  0 */\n      dup1\n        /* \"Verification.sol\":1787:1796  exporters */\n      0x02\n        /* \"Verification.sol\":1787:1807  exporters[_exporter] */\n      0x00\n        /* \"Verification.sol\":1797:1806  _exporter */\n      dup5\n        /* \"Verification.sol\":1787:1807  exporters[_exporter] */\n      0xffffffffffffffffffffffffffffffffffffffff\n      and\n      0xffffffffffffffffffffffffffffffffffffffff\n      and\n      dup2\n      mstore\n      0x20\n      add\n      swap1\n      dup2\n      mstore\n      0x20\n      add\n      0x00\n      keccak256\n        /* \"Verification.sol\":1787:1819  exporters[_exporter].blockNumber */\n      0x00\n      add\n      sload\n        /* \"Verification.sol\":1787:1824  exporters[_exporter].blockNumber != 0 */\n      eq\n      iszero\n        /* \"Verification.sol\":1780:1824  return exporters[_exporter].blockNumber != 0 */\n      swap1\n      pop\n        /* \"Verification.sol\":1694:1832  function isExporterApproved(address _exporter) private view returns (bool) {... */\n      swap2\n      swap1\n      pop\n      jump\t// out\n    tag_97:\n      mload(0x40)\n      dup1\n      0x80\n      add\n      0x40\n      mstore\n      dup1\n      0x60\n      dup2\n      mstore\n      0x20\n      add\n      0x60\n      dup2\n      mstore\n      0x20\n      add\n      0x60\n      dup2\n      mstore\n      0x20\n      add\n      0x00\n      dup2\n      mstore\n      pop\n      swap1\n      jump\t// out\n    tag_208:\n      pop\n      dup1\n      sload\n      tag_309\n      swap1\n      tag_91\n      jump\t// in\n    tag_309:\n      0x00\n      dup3\n      sstore\n      dup1\n      0x1f\n      lt\n      tag_311\n      jumpi\n      pop\n      jump(tag_310)\n    tag_311:\n      0x1f\n      add\n      0x20\n      swap1\n      div\n      swap1\n      0x00\n      mstore\n      keccak256(0x00, 0x20)\n      swap1\n      dup2\n      add\n      swap1\n      tag_312\n      swap2\n      swap1\n      tag_313\n      jump\t// in\n    tag_312:\n    tag_310:\n      pop\n      jump\t// out\n    tag_313:\n    tag_314:\n      dup1\n      dup3\n      gt\n      iszero\n      tag_315\n      jumpi\n      0x00\n      dup2\n      0x00\n      swap1\n      sstore\n      pop\n      0x01\n      add\n      jump(tag_314)\n    tag_315:\n      pop\n      swap1\n      jump\t// out\n        /* \"#utility.yul\":7:121   */\n    tag_316:\n        /* \"#utility.yul\":74:80   */\n      0x00\n        /* \"#utility.yul\":108:113   */\n      dup2\n        /* \"#utility.yul\":102:114   */\n      mload\n        /* \"#utility.yul\":92:114   */\n      swap1\n      pop\n        /* \"#utility.yul\":7:121   */\n      swap2\n      swap1\n      pop\n      jump\t// out\n        /* \"#utility.yul\":127:311   */\n    tag_317:\n        /* \"#utility.yul\":226:237   */\n      0x00\n        /* \"#utility.yul\":260:266   */\n      dup3\n        /* \"#utility.yul\":255:258   */\n      dup3\n        /* \"#utility.yul\":248:267   */\n      mstore\n        /* \"#utility.yul\":300:304   */\n      0x20\n        /* \"#utility.yul\":295:298   */\n      dup3\n        /* \"#utility.yul\":291:305   */\n      add\n        /* \"#utility.yul\":276:305   */\n      swap1\n      pop\n        /* \"#utility.yul\":127:311   */\n      swap3\n      swap2\n      pop\n      pop\n      jump\t// out\n        /* \"#utility.yul\":317:449   */\n    tag_318:\n        /* \"#utility.yul\":384:388   */\n      0x00\n        /* \"#utility.yul\":407:410   */\n      dup2\n        /* \"#utility.yul\":399:410   */\n      swap1\n      pop\n        /* \"#utility.yul\":437:441   */\n      0x20\n        /* \"#utility.yul\":432:435   */\n      dup3\n        /* \"#utility.yul\":428:442   */\n      add\n        /* \"#utility.yul\":420:442   */\n      swap1\n      pop\n        /* \"#utility.yul\":317:449   */\n      swap2\n      swap1\n      pop\n      jump\t// out\n        /* \"#utility.yul\":455:581   */\n    tag_319:\n        /* \"#utility.yul\":492:499   */\n      0x00\n        /* \"#utility.yul\":532:574   */\n      0xffffffffffffffffffffffffffffffffffffffff\n        /* \"#utility.yul\":525:530   */\n      dup3\n        /* \"#utility.yul\":521:575   */\n      and\n        /* \"#utility.yul\":510:575   */\n      swap1\n      pop\n        /* \"#utility.yul\":455:581   */\n      swap2\n      swap1\n      pop\n      jump\t// out\n        /* \"#utility.yul\":587:683   */\n    tag_320:\n        /* \"#utility.yul\":624:631   */\n      0x00\n        /* \"#utility.yul\":653:677   */\n      tag_408\n        /* \"#utility.yul\":671:676   */\n      dup3\n        /* \"#utility.yul\":653:677   */\n      tag_319\n      jump\t// in\n    tag_408:\n        /* \"#utility.yul\":642:677   */\n      swap1\n      pop\n        /* \"#utility.yul\":587:683   */\n      swap2\n      swap1\n      pop\n      jump\t// out\n        /* \"#utility.yul\":689:797   */\n    tag_321:\n        /* \"#utility.yul\":766:790   */\n      tag_410\n        /* \"#utility.yul\":784:789   */\n      dup2\n        /* \"#utility.yul\":766:790   */\n      tag_320\n      jump\t// in\n    tag_410:\n        /* \"#utility.yul\":761:764   */\n      dup3\n        /* \"#utility.yul\":754:791   */\n      mstore\n        /* \"#utility.yul\":689:797   */\n      pop\n      pop\n      jump\t// out\n        /* \"#utility.yul\":803:982   */\n    tag_322:\n        /* \"#utility.yul\":872:882   */\n      0x00\n        /* \"#utility.yul\":893:939   */\n      tag_412\n        /* \"#utility.yul\":935:938   */\n      dup4\n        /* \"#utility.yul\":927:933   */\n      dup4\n        /* \"#utility.yul\":893:939   */\n      tag_321\n      jump\t// in\n    tag_412:\n        /* \"#utility.yul\":971:975   */\n      0x20\n        /* \"#utility.yul\":966:969   */\n      dup4\n        /* \"#utility.yul\":962:976   */\n      add\n        /* \"#utility.yul\":948:976   */\n      swap1\n      pop\n        /* \"#utility.yul\":803:982   */\n      swap3\n      swap2\n      pop\n      pop\n      jump\t// out\n        /* \"#utility.yul\":988:1101   */\n    tag_323:\n        /* \"#utility.yul\":1058:1062   */\n      0x00\n        /* \"#utility.yul\":1090:1094   */\n      0x20\n        /* \"#utility.yul\":1085:1088   */\n      dup3\n        /* \"#utility.yul\":1081:1095   */\n      add\n        /* \"#utility.yul\":1073:1095   */\n      swap1\n      pop\n        /* \"#utility.yul\":988:1101   */\n      swap2\n      swap1\n      pop\n      jump\t// out\n        /* \"#utility.yul\":1137:1869   */\n    tag_324:\n        /* \"#utility.yul\":1256:1259   */\n      0x00\n        /* \"#utility.yul\":1285:1339   */\n      tag_415\n        /* \"#utility.yul\":1333:1338   */\n      dup3\n        /* \"#utility.yul\":1285:1339   */\n      tag_316\n      jump\t// in\n    tag_415:\n        /* \"#utility.yul\":1355:1441   */\n      tag_416\n        /* \"#utility.yul\":1434:1440   */\n      dup2\n        /* \"#utility.yul\":1429:1432   */\n      dup6\n        /* \"#utility.yul\":1355:1441   */\n      tag_317\n      jump\t// in\n    tag_416:\n        /* \"#utility.yul\":1348:1441   */\n      swap4\n      pop\n        /* \"#utility.yul\":1465:1521   */\n      tag_417\n        /* \"#utility.yul\":1515:1520   */\n      dup4\n        /* \"#utility.yul\":1465:1521   */\n      tag_318\n      jump\t// in\n    tag_417:\n        /* \"#utility.yul\":1544:1551   */\n      dup1\n        /* \"#utility.yul\":1575:1576   */\n      0x00\n        /* \"#utility.yul\":1560:1844   */\n    tag_418:\n        /* \"#utility.yul\":1585:1591   */\n      dup4\n        /* \"#utility.yul\":1582:1583   */\n      dup2\n        /* \"#utility.yul\":1579:1592   */\n      lt\n        /* \"#utility.yul\":1560:1844   */\n      iszero\n      tag_420\n      jumpi\n        /* \"#utility.yul\":1661:1667   */\n      dup2\n        /* \"#utility.yul\":1655:1668   */\n      mload\n        /* \"#utility.yul\":1688:1751   */\n      tag_421\n        /* \"#utility.yul\":1747:1750   */\n      dup9\n        /* \"#utility.yul\":1732:1745   */\n      dup3\n        /* \"#utility.yul\":1688:1751   */\n      tag_322\n      jump\t// in\n    tag_421:\n        /* \"#utility.yul\":1681:1751   */\n      swap8\n      pop\n        /* \"#utility.yul\":1774:1834   */\n      tag_422\n        /* \"#utility.yul\":1827:1833   */\n      dup4\n        /* \"#utility.yul\":1774:1834   */\n      tag_323\n      jump\t// in\n    tag_422:\n        /* \"#utility.yul\":1764:1834   */\n      swap3\n      pop\n        /* \"#utility.yul\":1620:1844   */\n      pop\n        /* \"#utility.yul\":1607:1608   */\n      0x01\n        /* \"#utility.yul\":1604:1605   */\n      dup2\n        /* \"#utility.yul\":1600:1609   */\n      add\n        /* \"#utility.yul\":1595:1609   */\n      swap1\n      pop\n        /* \"#utility.yul\":1560:1844   */\n      jump(tag_418)\n    tag_420:\n        /* \"#utility.yul\":1564:1578   */\n      pop\n        /* \"#utility.yul\":1860:1863   */\n      dup6\n        /* \"#utility.yul\":1853:1863   */\n      swap4\n      pop\n        /* \"#utility.yul\":1261:1869   */\n      pop\n      pop\n      pop\n        /* \"#utility.yul\":1137:1869   */\n      swap3\n      swap2\n      pop\n      pop\n      jump\t// out\n        /* \"#utility.yul\":1875:2248   */\n    tag_24:\n        /* \"#utility.yul\":2018:2022   */\n      0x00\n        /* \"#utility.yul\":2056:2058   */\n      0x20\n        /* \"#utility.yul\":2045:2054   */\n      dup3\n        /* \"#utility.yul\":2041:2059   */\n      add\n        /* \"#utility.yul\":2033:2059   */\n      swap1\n      pop\n        /* \"#utility.yul\":2105:2114   */\n      dup2\n        /* \"#utility.yul\":2099:2103   */\n      dup2\n        /* \"#utility.yul\":2095:2115   */\n      sub\n        /* \"#utility.yul\":2091:2092   */\n      0x00\n        /* \"#utility.yul\":2080:2089   */\n      dup4\n        /* \"#utility.yul\":2076:2093   */\n      add\n        /* \"#utility.yul\":2069:2116   */\n      mstore\n        /* \"#utility.yul\":2133:2241   */\n      tag_424\n        /* \"#utility.yul\":2236:2240   */\n      dup2\n        /* \"#utility.yul\":2227:2233   */\n      dup5\n        /* \"#utility.yul\":2133:2241   */\n      tag_324\n      jump\t// in\n    tag_424:\n        /* \"#utility.yul\":2125:2241   */\n      swap1\n      pop\n        /* \"#utility.yul\":1875:2248   */\n      swap3\n      swap2\n      pop\n      pop\n      jump\t// out\n        /* \"#utility.yul\":2335:2452   */\n    tag_326:\n        /* \"#utility.yul\":2444:2445   */\n      0x00\n        /* \"#utility.yul\":2441:2442   */\n      dup1\n        /* \"#utility.yul\":2434:2446   */\n      revert\n        /* \"#utility.yul\":2458:2575   */\n    tag_327:\n        /* \"#utility.yul\":2567:2568   */\n      0x00\n        /* \"#utility.yul\":2564:2565   */\n      dup1\n        /* \"#utility.yul\":2557:2569   */\n      revert\n        /* \"#utility.yul\":2581:2703   */\n    tag_328:\n        /* \"#utility.yul\":2654:2678   */\n      tag_429\n        /* \"#utility.yul\":2672:2677   */\n      dup2\n        /* \"#utility.yul\":2654:2678   */\n      tag_320\n      jump\t// in\n    tag_429:\n        /* \"#utility.yul\":2647:2652   */\n      dup2\n        /* \"#utility.yul\":2644:2679   */\n      eq\n        /* \"#utility.yul\":2634:2697   */\n      tag_430\n      jumpi\n        /* \"#utility.yul\":2693:2694   */\n      0x00\n        /* \"#utility.yul\":2690:2691   */\n      dup1\n        /* \"#utility.yul\":2683:2695   */\n      revert\n        /* \"#utility.yul\":2634:2697   */\n    tag_430:\n        /* \"#utility.yul\":2581:2703   */\n      pop\n      jump\t// out\n        /* \"#utility.yul\":2709:2848   */\n    tag_329:\n        /* \"#utility.yul\":2755:2760   */\n      0x00\n        /* \"#utility.yul\":2793:2799   */\n      dup2\n        /* \"#utility.yul\":2780:2800   */\n      calldataload\n        /* \"#utility.yul\":2771:2800   */\n      swap1\n      pop\n        /* \"#utility.yul\":2809:2842   */\n      tag_432\n        /* \"#utility.yul\":2836:2841   */\n      dup2\n        /* \"#utility.yul\":2809:2842   */\n      tag_328\n      jump\t// in\n    tag_432:\n        /* \"#utility.yul\":2709:2848   */\n      swap3\n      swap2\n      pop\n      pop\n      jump\t// out\n        /* \"#utility.yul\":2854:3183   */\n    tag_27:\n        /* \"#utility.yul\":2913:2919   */\n      0x00\n        /* \"#utility.yul\":2962:2964   */\n      0x20\n        /* \"#utility.yul\":2950:2959   */\n      dup3\n        /* \"#utility.yul\":2941:2948   */\n      dup5\n        /* \"#utility.yul\":2937:2960   */\n      sub\n        /* \"#utility.yul\":2933:2965   */\n      slt\n        /* \"#utility.yul\":2930:3049   */\n      iszero\n      tag_434\n      jumpi\n        /* \"#utility.yul\":2968:3047   */\n      tag_435\n      tag_326\n      jump\t// in\n    tag_435:\n        /* \"#utility.yul\":2930:3049   */\n    tag_434:\n        /* \"#utility.yul\":3088:3089   */\n      0x00\n        /* \"#utility.yul\":3113:3166   */\n      tag_436\n        /* \"#utility.yul\":3158:3165   */\n      dup5\n        /* \"#utility.yul\":3149:3155   */\n      dup3\n        /* \"#utility.yul\":3138:3147   */\n      dup6\n        /* \"#utility.yul\":3134:3156   */\n      add\n        /* \"#utility.yul\":3113:3166   */\n      tag_329\n      jump\t// in\n    tag_436:\n        /* \"#utility.yul\":3103:3166   */\n      swap2\n      pop\n        /* \"#utility.yul\":3059:3176   */\n      pop\n        /* \"#utility.yul\":2854:3183   */\n      swap3\n      swap2\n      pop\n      pop\n      jump\t// out\n        /* \"#utility.yul\":3189:3288   */\n    tag_330:\n        /* \"#utility.yul\":3241:3247   */\n      0x00\n        /* \"#utility.yul\":3275:3280   */\n      dup2\n        /* \"#utility.yul\":3269:3281   */\n      mload\n        /* \"#utility.yul\":3259:3281   */\n      swap1\n      pop\n        /* \"#utility.yul\":3189:3288   */\n      swap2\n      swap1\n      pop\n      jump\t// out\n        /* \"#utility.yul\":3294:3463   */\n    tag_331:\n        /* \"#utility.yul\":3378:3389   */\n      0x00\n        /* \"#utility.yul\":3412:3418   */\n      dup3\n        /* \"#utility.yul\":3407:3410   */\n      dup3\n        /* \"#utility.yul\":3400:3419   */\n      mstore\n        /* \"#utility.yul\":3452:3456   */\n      0x20\n        /* \"#utility.yul\":3447:3450   */\n      dup3\n        /* \"#utility.yul\":3443:3457   */\n      add\n        /* \"#utility.yul\":3428:3457   */\n      swap1\n      pop\n        /* \"#utility.yul\":3294:3463   */\n      swap3\n      swap2\n      pop\n      pop\n      jump\t// out\n        /* \"#utility.yul\":3469:3717   */\n    tag_332:\n        /* \"#utility.yul\":3551:3552   */\n      0x00\n        /* \"#utility.yul\":3561:3674   */\n    tag_440:\n        /* \"#utility.yul\":3575:3581   */\n      dup4\n        /* \"#utility.yul\":3572:3573   */\n      dup2\n        /* \"#utility.yul\":3569:3582   */\n      lt\n        /* \"#utility.yul\":3561:3674   */\n      iszero\n      tag_442\n      jumpi\n        /* \"#utility.yul\":3660:3661   */\n      dup1\n        /* \"#utility.yul\":3655:3658   */\n      dup3\n        /* \"#utility.yul\":3651:3662   */\n      add\n        /* \"#utility.yul\":3645:3663   */\n      mload\n        /* \"#utility.yul\":3641:3642   */\n      dup2\n        /* \"#utility.yul\":3636:3639   */\n      dup5\n        /* \"#utility.yul\":3632:3643   */\n      add\n        /* \"#utility.yul\":3625:3664   */\n      mstore\n        /* \"#utility.yul\":3597:3599   */\n      0x20\n        /* \"#utility.yul\":3594:3595   */\n      dup2\n        /* \"#utility.yul\":3590:3600   */\n      add\n        /* \"#utility.yul\":3585:3600   */\n      swap1\n      pop\n        /* \"#utility.yul\":3561:3674   */\n      jump(tag_440)\n    tag_442:\n        /* \"#utility.yul\":3708:3709   */\n      0x00\n        /* \"#utility.yul\":3699:3705   */\n      dup5\n        /* \"#utility.yul\":3694:3697   */\n      dup5\n        /* \"#utility.yul\":3690:3706   */\n      add\n        /* \"#utility.yul\":3683:3710   */\n      mstore\n        /* \"#utility.yul\":3531:3717   */\n      pop\n        /* \"#utility.yul\":3469:3717   */\n      pop\n      pop\n      pop\n      jump\t// out\n        /* \"#utility.yul\":3723:3825   */\n    tag_333:\n        /* \"#utility.yul\":3764:3770   */\n      0x00\n        /* \"#utility.yul\":3815:3817   */\n      0x1f\n        /* \"#utility.yul\":3811:3818   */\n      not\n        /* \"#utility.yul\":3806:3808   */\n      0x1f\n        /* \"#utility.yul\":3799:3804   */\n      dup4\n        /* \"#utility.yul\":3795:3809   */\n      add\n        /* \"#utility.yul\":3791:3819   */\n      and\n        /* \"#utility.yul\":3781:3819   */\n      swap1\n      pop\n        /* \"#utility.yul\":3723:3825   */\n      swap2\n      swap1\n      pop\n      jump\t// out\n        /* \"#utility.yul\":3831:4208   */\n    tag_334:\n        /* \"#utility.yul\":3919:3922   */\n      0x00\n        /* \"#utility.yul\":3947:3986   */\n      tag_445\n        /* \"#utility.yul\":3980:3985   */\n      dup3\n        /* \"#utility.yul\":3947:3986   */\n      tag_330\n      jump\t// in\n    tag_445:\n        /* \"#utility.yul\":4002:4073   */\n      tag_446\n        /* \"#utility.yul\":4066:4072   */\n      dup2\n        /* \"#utility.yul\":4061:4064   */\n      dup6\n        /* \"#utility.yul\":4002:4073   */\n      tag_331\n      jump\t// in\n    tag_446:\n        /* \"#utility.yul\":3995:4073   */\n      swap4\n      pop\n        /* \"#utility.yul\":4082:4147   */\n      tag_447\n        /* \"#utility.yul\":4140:4146   */\n      dup2\n        /* \"#utility.yul\":4135:4138   */\n      dup6\n        /* \"#utility.yul\":4128:4132   */\n      0x20\n        /* \"#utility.yul\":4121:4126   */\n      dup7\n        /* \"#utility.yul\":4117:4133   */\n      add\n        /* \"#utility.yul\":4082:4147   */\n      tag_332\n      jump\t// in\n    tag_447:\n        /* \"#utility.yul\":4172:4201   */\n      tag_448\n        /* \"#utility.yul\":4194:4200   */\n      dup2\n        /* \"#utility.yul\":4172:4201   */\n      tag_333\n      jump\t// in\n    tag_448:\n        /* \"#utility.yul\":4167:4170   */\n      dup5\n        /* \"#utility.yul\":4163:4202   */\n      add\n        /* \"#utility.yul\":4156:4202   */\n      swap2\n      pop\n        /* \"#utility.yul\":3923:4208   */\n      pop\n        /* \"#utility.yul\":3831:4208   */\n      swap3\n      swap2\n      pop\n      pop\n      jump\t// out\n        /* \"#utility.yul\":4214:4527   */\n    tag_30:\n        /* \"#utility.yul\":4327:4331   */\n      0x00\n        /* \"#utility.yul\":4365:4367   */\n      0x20\n        /* \"#utility.yul\":4354:4363   */\n      dup3\n        /* \"#utility.yul\":4350:4368   */\n      add\n        /* \"#utility.yul\":4342:4368   */\n      swap1\n      pop\n        /* \"#utility.yul\":4414:4423   */\n      dup2\n        /* \"#utility.yul\":4408:4412   */\n      dup2\n        /* \"#utility.yul\":4404:4424   */\n      sub\n        /* \"#utility.yul\":4400:4401   */\n      0x00\n        /* \"#utility.yul\":4389:4398   */\n      dup4\n        /* \"#utility.yul\":4385:4402   */\n      add\n        /* \"#utility.yul\":4378:4425   */\n      mstore\n        /* \"#utility.yul\":4442:4520   */\n      tag_450\n        /* \"#utility.yul\":4515:4519   */\n      dup2\n        /* \"#utility.yul\":4506:4512   */\n      dup5\n        /* \"#utility.yul\":4442:4520   */\n      tag_334\n      jump\t// in\n    tag_450:\n        /* \"#utility.yul\":4434:4520   */\n      swap1\n      pop\n        /* \"#utility.yul\":4214:4527   */\n      swap3\n      swap2\n      pop\n      pop\n      jump\t// out\n        /* \"#utility.yul\":4533:4692   */\n    tag_335:\n        /* \"#utility.yul\":4607:4618   */\n      0x00\n        /* \"#utility.yul\":4641:4647   */\n      dup3\n        /* \"#utility.yul\":4636:4639   */\n      dup3\n        /* \"#utility.yul\":4629:4648   */\n      mstore\n        /* \"#utility.yul\":4681:4685   */\n      0x20\n        /* \"#utility.yul\":4676:4679   */\n      dup3\n        /* \"#utility.yul\":4672:4686   */\n      add\n        /* \"#utility.yul\":4657:4686   */\n      swap1\n      pop\n        /* \"#utility.yul\":4533:4692   */\n      swap3\n      swap2\n      pop\n      pop\n      jump\t// out\n        /* \"#utility.yul\":4698:5055   */\n    tag_336:\n        /* \"#utility.yul\":4776:4779   */\n      0x00\n        /* \"#utility.yul\":4804:4843   */\n      tag_453\n        /* \"#utility.yul\":4837:4842   */\n      dup3\n        /* \"#utility.yul\":4804:4843   */\n      tag_330\n      jump\t// in\n    tag_453:\n        /* \"#utility.yul\":4859:4920   */\n      tag_454\n        /* \"#utility.yul\":4913:4919   */\n      dup2\n        /* \"#utility.yul\":4908:4911   */\n      dup6\n        /* \"#utility.yul\":4859:4920   */\n      tag_335\n      jump\t// in\n    tag_454:\n        /* \"#utility.yul\":4852:4920   */\n      swap4\n      pop\n        /* \"#utility.yul\":4929:4994   */\n      tag_455\n        /* \"#utility.yul\":4987:4993   */\n      dup2\n        /* \"#utility.yul\":4982:4985   */\n      dup6\n        /* \"#utility.yul\":4975:4979   */\n      0x20\n        /* \"#utility.yul\":4968:4973   */\n      dup7\n        /* \"#utility.yul\":4964:4980   */\n      add\n        /* \"#utility.yul\":4929:4994   */\n      tag_332\n      jump\t// in\n    tag_455:\n        /* \"#utility.yul\":5019:5048   */\n      tag_456\n        /* \"#utility.yul\":5041:5047   */\n      dup2\n        /* \"#utility.yul\":5019:5048   */\n      tag_333\n      jump\t// in\n    tag_456:\n        /* \"#utility.yul\":5014:5017   */\n      dup5\n        /* \"#utility.yul\":5010:5049   */\n      add\n        /* \"#utility.yul\":5003:5049   */\n      swap2\n      pop\n        /* \"#utility.yul\":4780:5055   */\n      pop\n        /* \"#utility.yul\":4698:5055   */\n      swap3\n      swap2\n      pop\n      pop\n      jump\t// out\n        /* \"#utility.yul\":5061:5138   */\n    tag_337:\n        /* \"#utility.yul\":5098:5105   */\n      0x00\n        /* \"#utility.yul\":5127:5132   */\n      dup2\n        /* \"#utility.yul\":5116:5132   */\n      swap1\n      pop\n        /* \"#utility.yul\":5061:5138   */\n      swap2\n      swap1\n      pop\n      jump\t// out\n        /* \"#utility.yul\":5144:5252   */\n    tag_338:\n        /* \"#utility.yul\":5221:5245   */\n      tag_459\n        /* \"#utility.yul\":5239:5244   */\n      dup2\n        /* \"#utility.yul\":5221:5245   */\n      tag_337\n      jump\t// in\n    tag_459:\n        /* \"#utility.yul\":5216:5219   */\n      dup3\n        /* \"#utility.yul\":5209:5246   */\n      mstore\n        /* \"#utility.yul\":5144:5252   */\n      pop\n      pop\n      jump\t// out\n        /* \"#utility.yul\":5332:6462   */\n    tag_339:\n        /* \"#utility.yul\":5455:5458   */\n      0x00\n        /* \"#utility.yul\":5491:5495   */\n      0x80\n        /* \"#utility.yul\":5486:5489   */\n      dup4\n        /* \"#utility.yul\":5482:5496   */\n      add\n        /* \"#utility.yul\":5583:5587   */\n      0x00\n        /* \"#utility.yul\":5576:5581   */\n      dup4\n        /* \"#utility.yul\":5572:5588   */\n      add\n        /* \"#utility.yul\":5566:5589   */\n      mload\n        /* \"#utility.yul\":5636:5639   */\n      dup5\n        /* \"#utility.yul\":5630:5634   */\n      dup3\n        /* \"#utility.yul\":5626:5640   */\n      sub\n        /* \"#utility.yul\":5619:5623   */\n      0x00\n        /* \"#utility.yul\":5614:5617   */\n      dup7\n        /* \"#utility.yul\":5610:5624   */\n      add\n        /* \"#utility.yul\":5603:5641   */\n      mstore\n        /* \"#utility.yul\":5662:5735   */\n      tag_461\n        /* \"#utility.yul\":5730:5734   */\n      dup3\n        /* \"#utility.yul\":5716:5728   */\n      dup3\n        /* \"#utility.yul\":5662:5735   */\n      tag_336\n      jump\t// in\n    tag_461:\n        /* \"#utility.yul\":5654:5735   */\n      swap2\n      pop\n        /* \"#utility.yul\":5506:5746   */\n      pop\n        /* \"#utility.yul\":5835:5839   */\n      0x20\n        /* \"#utility.yul\":5828:5833   */\n      dup4\n        /* \"#utility.yul\":5824:5840   */\n      add\n        /* \"#utility.yul\":5818:5841   */\n      mload\n        /* \"#utility.yul\":5888:5891   */\n      dup5\n        /* \"#utility.yul\":5882:5886   */\n      dup3\n        /* \"#utility.yul\":5878:5892   */\n      sub\n        /* \"#utility.yul\":5871:5875   */\n      0x20\n        /* \"#utility.yul\":5866:5869   */\n      dup7\n        /* \"#utility.yul\":5862:5876   */\n      add\n        /* \"#utility.yul\":5855:5893   */\n      mstore\n        /* \"#utility.yul\":5914:5987   */\n      tag_462\n        /* \"#utility.yul\":5982:5986   */\n      dup3\n        /* \"#utility.yul\":5968:5980   */\n      dup3\n        /* \"#utility.yul\":5914:5987   */\n      tag_336\n      jump\t// in\n    tag_462:\n        /* \"#utility.yul\":5906:5987   */\n      swap2\n      pop\n        /* \"#utility.yul\":5756:5998   */\n      pop\n        /* \"#utility.yul\":6094:6098   */\n      0x40\n        /* \"#utility.yul\":6087:6092   */\n      dup4\n        /* \"#utility.yul\":6083:6099   */\n      add\n        /* \"#utility.yul\":6077:6100   */\n      mload\n        /* \"#utility.yul\":6147:6150   */\n      dup5\n        /* \"#utility.yul\":6141:6145   */\n      dup3\n        /* \"#utility.yul\":6137:6151   */\n      sub\n        /* \"#utility.yul\":6130:6134   */\n      0x40\n        /* \"#utility.yul\":6125:6128   */\n      dup7\n        /* \"#utility.yul\":6121:6135   */\n      add\n        /* \"#utility.yul\":6114:6152   */\n      mstore\n        /* \"#utility.yul\":6173:6246   */\n      tag_463\n        /* \"#utility.yul\":6241:6245   */\n      dup3\n        /* \"#utility.yul\":6227:6239   */\n      dup3\n        /* \"#utility.yul\":6173:6246   */\n      tag_336\n      jump\t// in\n    tag_463:\n        /* \"#utility.yul\":6165:6246   */\n      swap2\n      pop\n        /* \"#utility.yul\":6008:6257   */\n      pop\n        /* \"#utility.yul\":6343:6347   */\n      0x60\n        /* \"#utility.yul\":6336:6341   */\n      dup4\n        /* \"#utility.yul\":6332:6348   */\n      add\n        /* \"#utility.yul\":6326:6349   */\n      mload\n        /* \"#utility.yul\":6362:6425   */\n      tag_464\n        /* \"#utility.yul\":6419:6423   */\n      0x60\n        /* \"#utility.yul\":6414:6417   */\n      dup7\n        /* \"#utility.yul\":6410:6424   */\n      add\n        /* \"#utility.yul\":6396:6408   */\n      dup3\n        /* \"#utility.yul\":6362:6425   */\n      tag_338\n      jump\t// in\n    tag_464:\n        /* \"#utility.yul\":6267:6435   */\n      pop\n        /* \"#utility.yul\":6452:6456   */\n      dup1\n        /* \"#utility.yul\":6445:6456   */\n      swap2\n      pop\n        /* \"#utility.yul\":5460:6462   */\n      pop\n        /* \"#utility.yul\":5332:6462   */\n      swap3\n      swap2\n      pop\n      pop\n      jump\t// out\n        /* \"#utility.yul\":6468:6849   */\n    tag_35:\n        /* \"#utility.yul\":6615:6619   */\n      0x00\n        /* \"#utility.yul\":6653:6655   */\n      0x20\n        /* \"#utility.yul\":6642:6651   */\n      dup3\n        /* \"#utility.yul\":6638:6656   */\n      add\n        /* \"#utility.yul\":6630:6656   */\n      swap1\n      pop\n        /* \"#utility.yul\":6702:6711   */\n      dup2\n        /* \"#utility.yul\":6696:6700   */\n      dup2\n        /* \"#utility.yul\":6692:6712   */\n      sub\n        /* \"#utility.yul\":6688:6689   */\n      0x00\n        /* \"#utility.yul\":6677:6686   */\n      dup4\n        /* \"#utility.yul\":6673:6690   */\n      add\n        /* \"#utility.yul\":6666:6713   */\n      mstore\n        /* \"#utility.yul\":6730:6842   */\n      tag_466\n        /* \"#utility.yul\":6837:6841   */\n      dup2\n        /* \"#utility.yul\":6828:6834   */\n      dup5\n        /* \"#utility.yul\":6730:6842   */\n      tag_339\n      jump\t// in\n    tag_466:\n        /* \"#utility.yul\":6722:6842   */\n      swap1\n      pop\n        /* \"#utility.yul\":6468:6849   */\n      swap3\n      swap2\n      pop\n      pop\n      jump\t// out\n        /* \"#utility.yul\":6855:7000   */\n    tag_340:\n        /* \"#utility.yul\":6953:6959   */\n      0x00\n        /* \"#utility.yul\":6987:6992   */\n      dup2\n        /* \"#utility.yul\":6981:6993   */\n      mload\n        /* \"#utility.yul\":6971:6993   */\n      swap1\n      pop\n        /* \"#utility.yul\":6855:7000   */\n      swap2\n      swap1\n      pop\n      jump\t// out\n        /* \"#utility.yul\":7006:7221   */\n    tag_341:\n        /* \"#utility.yul\":7136:7147   */\n      0x00\n        /* \"#utility.yul\":7170:7176   */\n      dup3\n        /* \"#utility.yul\":7165:7168   */\n      dup3\n        /* \"#utility.yul\":7158:7177   */\n      mstore\n        /* \"#utility.yul\":7210:7214   */\n      0x20\n        /* \"#utility.yul\":7205:7208   */\n      dup3\n        /* \"#utility.yul\":7201:7215   */\n      add\n        /* \"#utility.yul\":7186:7215   */\n      swap1\n      pop\n        /* \"#utility.yul\":7006:7221   */\n      swap3\n      swap2\n      pop\n      pop\n      jump\t// out\n        /* \"#utility.yul\":7227:7390   */\n    tag_342:\n        /* \"#utility.yul\":7325:7329   */\n      0x00\n        /* \"#utility.yul\":7348:7351   */\n      dup2\n        /* \"#utility.yul\":7340:7351   */\n      swap1\n      pop\n        /* \"#utility.yul\":7378:7382   */\n      0x20\n        /* \"#utility.yul\":7373:7376   */\n      dup3\n        /* \"#utility.yul\":7369:7383   */\n      add\n        /* \"#utility.yul\":7361:7383   */\n      swap1\n      pop\n        /* \"#utility.yul\":7227:7390   */\n      swap2\n      swap1\n      pop\n      jump\t// out\n        /* \"#utility.yul\":7478:8352   */\n    tag_343:\n        /* \"#utility.yul\":7599:7602   */\n      0x00\n        /* \"#utility.yul\":7635:7639   */\n      0x60\n        /* \"#utility.yul\":7630:7633   */\n      dup4\n        /* \"#utility.yul\":7626:7640   */\n      add\n        /* \"#utility.yul\":7726:7730   */\n      0x00\n        /* \"#utility.yul\":7719:7724   */\n      dup4\n        /* \"#utility.yul\":7715:7731   */\n      add\n        /* \"#utility.yul\":7709:7732   */\n      mload\n        /* \"#utility.yul\":7779:7782   */\n      dup5\n        /* \"#utility.yul\":7773:7777   */\n      dup3\n        /* \"#utility.yul\":7769:7783   */\n      sub\n        /* \"#utility.yul\":7762:7766   */\n      0x00\n        /* \"#utility.yul\":7757:7760   */\n      dup7\n        /* \"#utility.yul\":7753:7767   */\n      add\n        /* \"#utility.yul\":7746:7784   */\n      mstore\n        /* \"#utility.yul\":7805:7878   */\n      tag_471\n        /* \"#utility.yul\":7873:7877   */\n      dup3\n        /* \"#utility.yul\":7859:7871   */\n      dup3\n        /* \"#utility.yul\":7805:7878   */\n      tag_336\n      jump\t// in\n    tag_471:\n        /* \"#utility.yul\":7797:7878   */\n      swap2\n      pop\n        /* \"#utility.yul\":7650:7889   */\n      pop\n        /* \"#utility.yul\":7981:7985   */\n      0x20\n        /* \"#utility.yul\":7974:7979   */\n      dup4\n        /* \"#utility.yul\":7970:7986   */\n      add\n        /* \"#utility.yul\":7964:7987   */\n      mload\n        /* \"#utility.yul\":8000:8063   */\n      tag_472\n        /* \"#utility.yul\":8057:8061   */\n      0x20\n        /* \"#utility.yul\":8052:8055   */\n      dup7\n        /* \"#utility.yul\":8048:8062   */\n      add\n        /* \"#utility.yul\":8034:8046   */\n      dup3\n        /* \"#utility.yul\":8000:8063   */\n      tag_321\n      jump\t// in\n    tag_472:\n        /* \"#utility.yul\":7899:8073   */\n      pop\n        /* \"#utility.yul\":8162:8166   */\n      0x40\n        /* \"#utility.yul\":8155:8160   */\n      dup4\n        /* \"#utility.yul\":8151:8167   */\n      add\n        /* \"#utility.yul\":8145:8168   */\n      mload\n        /* \"#utility.yul\":8215:8218   */\n      dup5\n        /* \"#utility.yul\":8209:8213   */\n      dup3\n        /* \"#utility.yul\":8205:8219   */\n      sub\n        /* \"#utility.yul\":8198:8202   */\n      0x40\n        /* \"#utility.yul\":8193:8196   */\n      dup7\n        /* \"#utility.yul\":8189:8203   */\n      add\n        /* \"#utility.yul\":8182:8220   */\n      mstore\n        /* \"#utility.yul\":8241:8314   */\n      tag_473\n        /* \"#utility.yul\":8309:8313   */\n      dup3\n        /* \"#utility.yul\":8295:8307   */\n      dup3\n        /* \"#utility.yul\":8241:8314   */\n      tag_336\n      jump\t// in\n    tag_473:\n        /* \"#utility.yul\":8233:8314   */\n      swap2\n      pop\n        /* \"#utility.yul\":8083:8325   */\n      pop\n        /* \"#utility.yul\":8342:8346   */\n      dup1\n        /* \"#utility.yul\":8335:8346   */\n      swap2\n      pop\n        /* \"#utility.yul\":7604:8352   */\n      pop\n        /* \"#utility.yul\":7478:8352   */\n      swap3\n      swap2\n      pop\n      pop\n      jump\t// out\n        /* \"#utility.yul\":8358:8638   */\n    tag_344:\n        /* \"#utility.yul\":8489:8499   */\n      0x00\n        /* \"#utility.yul\":8524:8632   */\n      tag_475\n        /* \"#utility.yul\":8628:8631   */\n      dup4\n        /* \"#utility.yul\":8620:8626   */\n      dup4\n        /* \"#utility.yul\":8524:8632   */\n      tag_343\n      jump\t// in\n    tag_475:\n        /* \"#utility.yul\":8510:8632   */\n      swap1\n      pop\n        /* \"#utility.yul\":8358:8638   */\n      swap3\n      swap2\n      pop\n      pop\n      jump\t// out\n        /* \"#utility.yul\":8644:8788   */\n    tag_345:\n        /* \"#utility.yul\":8745:8749   */\n      0x00\n        /* \"#utility.yul\":8777:8781   */\n      0x20\n        /* \"#utility.yul\":8772:8775   */\n      dup3\n        /* \"#utility.yul\":8768:8782   */\n      add\n        /* \"#utility.yul\":8760:8782   */\n      swap1\n      pop\n        /* \"#utility.yul\":8644:8788   */\n      swap2\n      swap1\n      pop\n      jump\t// out\n        /* \"#utility.yul\":8880:10039   */\n    tag_346:\n        /* \"#utility.yul\":9061:9064   */\n      0x00\n        /* \"#utility.yul\":9090:9175   */\n      tag_478\n        /* \"#utility.yul\":9169:9174   */\n      dup3\n        /* \"#utility.yul\":9090:9175   */\n      tag_340\n      jump\t// in\n    tag_478:\n        /* \"#utility.yul\":9191:9308   */\n      tag_479\n        /* \"#utility.yul\":9301:9307   */\n      dup2\n        /* \"#utility.yul\":9296:9299   */\n      dup6\n        /* \"#utility.yul\":9191:9308   */\n      tag_341\n      jump\t// in\n    tag_479:\n        /* \"#utility.yul\":9184:9308   */\n      swap4\n      pop\n        /* \"#utility.yul\":9334:9337   */\n      dup4\n        /* \"#utility.yul\":9379:9383   */\n      0x20\n        /* \"#utility.yul\":9371:9377   */\n      dup3\n        /* \"#utility.yul\":9367:9384   */\n      mul\n        /* \"#utility.yul\":9362:9365   */\n      dup6\n        /* \"#utility.yul\":9358:9385   */\n      add\n        /* \"#utility.yul\":9409:9496   */\n      tag_480\n        /* \"#utility.yul\":9490:9495   */\n      dup6\n        /* \"#utility.yul\":9409:9496   */\n      tag_342\n      jump\t// in\n    tag_480:\n        /* \"#utility.yul\":9519:9526   */\n      dup1\n        /* \"#utility.yul\":9550:9551   */\n      0x00\n        /* \"#utility.yul\":9535:9994   */\n    tag_481:\n        /* \"#utility.yul\":9560:9566   */\n      dup6\n        /* \"#utility.yul\":9557:9558   */\n      dup2\n        /* \"#utility.yul\":9554:9567   */\n      lt\n        /* \"#utility.yul\":9535:9994   */\n      iszero\n      tag_483\n      jumpi\n        /* \"#utility.yul\":9631:9640   */\n      dup5\n        /* \"#utility.yul\":9625:9629   */\n      dup5\n        /* \"#utility.yul\":9621:9641   */\n      sub\n        /* \"#utility.yul\":9616:9619   */\n      dup10\n        /* \"#utility.yul\":9609:9642   */\n      mstore\n        /* \"#utility.yul\":9682:9688   */\n      dup2\n        /* \"#utility.yul\":9676:9689   */\n      mload\n        /* \"#utility.yul\":9710:9836   */\n      tag_484\n        /* \"#utility.yul\":9831:9835   */\n      dup6\n        /* \"#utility.yul\":9816:9829   */\n      dup3\n        /* \"#utility.yul\":9710:9836   */\n      tag_344\n      jump\t// in\n    tag_484:\n        /* \"#utility.yul\":9702:9836   */\n      swap5\n      pop\n        /* \"#utility.yul\":9859:9950   */\n      tag_485\n        /* \"#utility.yul\":9943:9949   */\n      dup4\n        /* \"#utility.yul\":9859:9950   */\n      tag_345\n      jump\t// in\n    tag_485:\n        /* \"#utility.yul\":9849:9950   */\n      swap3\n      pop\n        /* \"#utility.yul\":9979:9983   */\n      0x20\n        /* \"#utility.yul\":9974:9977   */\n      dup11\n        /* \"#utility.yul\":9970:9984   */\n      add\n        /* \"#utility.yul\":9963:9984   */\n      swap10\n      pop\n        /* \"#utility.yul\":9595:9994   */\n      pop\n        /* \"#utility.yul\":9582:9583   */\n      0x01\n        /* \"#utility.yul\":9579:9580   */\n      dup2\n        /* \"#utility.yul\":9575:9584   */\n      add\n        /* \"#utility.yul\":9570:9584   */\n      swap1\n      pop\n        /* \"#utility.yul\":9535:9994   */\n      jump(tag_481)\n    tag_483:\n        /* \"#utility.yul\":9539:9553   */\n      pop\n        /* \"#utility.yul\":10010:10014   */\n      dup3\n        /* \"#utility.yul\":10003:10014   */\n      swap8\n      pop\n        /* \"#utility.yul\":10030:10033   */\n      dup8\n        /* \"#utility.yul\":10023:10033   */\n      swap6\n      pop\n        /* \"#utility.yul\":9066:10039   */\n      pop\n      pop\n      pop\n      pop\n      pop\n        /* \"#utility.yul\":8880:10039   */\n      swap3\n      swap2\n      pop\n      pop\n      jump\t// out\n        /* \"#utility.yul\":10045:10542   */\n    tag_40:\n        /* \"#utility.yul\":10250:10254   */\n      0x00\n        /* \"#utility.yul\":10288:10290   */\n      0x20\n        /* \"#utility.yul\":10277:10286   */\n      dup3\n        /* \"#utility.yul\":10273:10291   */\n      add\n        /* \"#utility.yul\":10265:10291   */\n      swap1\n      pop\n        /* \"#utility.yul\":10337:10346   */\n      dup2\n        /* \"#utility.yul\":10331:10335   */\n      dup2\n        /* \"#utility.yul\":10327:10347   */\n      sub\n        /* \"#utility.yul\":10323:10324   */\n      0x00\n        /* \"#utility.yul\":10312:10321   */\n      dup4\n        /* \"#utility.yul\":10308:10325   */\n      add\n        /* \"#utility.yul\":10301:10348   */\n      mstore\n        /* \"#utility.yul\":10365:10535   */\n      tag_487\n        /* \"#utility.yul\":10530:10534   */\n      dup2\n        /* \"#utility.yul\":10521:10527   */\n      dup5\n        /* \"#utility.yul\":10365:10535   */\n      tag_346\n      jump\t// in\n    tag_487:\n        /* \"#utility.yul\":10357:10535   */\n      swap1\n      pop\n        /* \"#utility.yul\":10045:10542   */\n      swap3\n      swap2\n      pop\n      pop\n      jump\t// out\n        /* \"#utility.yul\":10548:10665   */\n    tag_347:\n        /* \"#utility.yul\":10657:10658   */\n      0x00\n        /* \"#utility.yul\":10654:10655   */\n      dup1\n        /* \"#utility.yul\":10647:10659   */\n      revert\n        /* \"#utility.yul\":10671:10788   */\n    tag_348:\n        /* \"#utility.yul\":10780:10781   */\n      0x00\n        /* \"#utility.yul\":10777:10778   */\n      dup1\n        /* \"#utility.yul\":10770:10782   */\n      revert\n        /* \"#utility.yul\":10794:10911   */\n    tag_349:\n        /* \"#utility.yul\":10903:10904   */\n      0x00\n        /* \"#utility.yul\":10900:10901   */\n      dup1\n        /* \"#utility.yul\":10893:10905   */\n      revert\n        /* \"#utility.yul\":10931:11484   */\n    tag_350:\n        /* \"#utility.yul\":10989:10997   */\n      0x00\n        /* \"#utility.yul\":10999:11005   */\n      dup1\n        /* \"#utility.yul\":11049:11052   */\n      dup4\n        /* \"#utility.yul\":11042:11046   */\n      0x1f\n        /* \"#utility.yul\":11034:11040   */\n      dup5\n        /* \"#utility.yul\":11030:11047   */\n      add\n        /* \"#utility.yul\":11026:11053   */\n      slt\n        /* \"#utility.yul\":11016:11138   */\n      tag_492\n      jumpi\n        /* \"#utility.yul\":11057:11136   */\n      tag_493\n      tag_347\n      jump\t// in\n    tag_493:\n        /* \"#utility.yul\":11016:11138   */\n    tag_492:\n        /* \"#utility.yul\":11170:11176   */\n      dup3\n        /* \"#utility.yul\":11157:11177   */\n      calldataload\n        /* \"#utility.yul\":11147:11177   */\n      swap1\n      pop\n        /* \"#utility.yul\":11200:11218   */\n      0xffffffffffffffff\n        /* \"#utility.yul\":11192:11198   */\n      dup2\n        /* \"#utility.yul\":11189:11219   */\n      gt\n        /* \"#utility.yul\":11186:11303   */\n      iszero\n      tag_494\n      jumpi\n        /* \"#utility.yul\":11222:11301   */\n      tag_495\n      tag_348\n      jump\t// in\n    tag_495:\n        /* \"#utility.yul\":11186:11303   */\n    tag_494:\n        /* \"#utility.yul\":11336:11340   */\n      0x20\n        /* \"#utility.yul\":11328:11334   */\n      dup4\n        /* \"#utility.yul\":11324:11341   */\n      add\n        /* \"#utility.yul\":11312:11341   */\n      swap2\n      pop\n        /* \"#utility.yul\":11390:11393   */\n      dup4\n        /* \"#utility.yul\":11382:11386   */\n      0x01\n        /* \"#utility.yul\":11374:11380   */\n      dup3\n        /* \"#utility.yul\":11370:11387   */\n      mul\n        /* \"#utility.yul\":11360:11368   */\n      dup4\n        /* \"#utility.yul\":11356:11388   */\n      add\n        /* \"#utility.yul\":11353:11394   */\n      gt\n        /* \"#utility.yul\":11350:11478   */\n      iszero\n      tag_496\n      jumpi\n        /* \"#utility.yul\":11397:11476   */\n      tag_497\n      tag_349\n      jump\t// in\n    tag_497:\n        /* \"#utility.yul\":11350:11478   */\n    tag_496:\n        /* \"#utility.yul\":10931:11484   */\n      swap3\n      pop\n      swap3\n      swap1\n      pop\n      jump\t// out\n        /* \"#utility.yul\":11490:12164   */\n    tag_43:\n        /* \"#utility.yul\":11570:11576   */\n      0x00\n        /* \"#utility.yul\":11578:11584   */\n      dup1\n        /* \"#utility.yul\":11586:11592   */\n      0x00\n        /* \"#utility.yul\":11635:11637   */\n      0x40\n        /* \"#utility.yul\":11623:11632   */\n      dup5\n        /* \"#utility.yul\":11614:11621   */\n      dup7\n        /* \"#utility.yul\":11610:11633   */\n      sub\n        /* \"#utility.yul\":11606:11638   */\n      slt\n        /* \"#utility.yul\":11603:11722   */\n      iszero\n      tag_499\n      jumpi\n        /* \"#utility.yul\":11641:11720   */\n      tag_500\n      tag_326\n      jump\t// in\n    tag_500:\n        /* \"#utility.yul\":11603:11722   */\n    tag_499:\n        /* \"#utility.yul\":11761:11762   */\n      0x00\n        /* \"#utility.yul\":11786:11839   */\n      tag_501\n        /* \"#utility.yul\":11831:11838   */\n      dup7\n        /* \"#utility.yul\":11822:11828   */\n      dup3\n        /* \"#utility.yul\":11811:11820   */\n      dup8\n        /* \"#utility.yul\":11807:11829   */\n      add\n        /* \"#utility.yul\":11786:11839   */\n      tag_329\n      jump\t// in\n    tag_501:\n        /* \"#utility.yul\":11776:11839   */\n      swap4\n      pop\n        /* \"#utility.yul\":11732:11849   */\n      pop\n        /* \"#utility.yul\":11916:11918   */\n      0x20\n        /* \"#utility.yul\":11905:11914   */\n      dup5\n        /* \"#utility.yul\":11901:11919   */\n      add\n        /* \"#utility.yul\":11888:11920   */\n      calldataload\n        /* \"#utility.yul\":11947:11965   */\n      0xffffffffffffffff\n        /* \"#utility.yul\":11939:11945   */\n      dup2\n        /* \"#utility.yul\":11936:11966   */\n      gt\n        /* \"#utility.yul\":11933:12050   */\n      iszero\n      tag_502\n      jumpi\n        /* \"#utility.yul\":11969:12048   */\n      tag_503\n      tag_327\n      jump\t// in\n    tag_503:\n        /* \"#utility.yul\":11933:12050   */\n    tag_502:\n        /* \"#utility.yul\":12082:12147   */\n      tag_504\n        /* \"#utility.yul\":12139:12146   */\n      dup7\n        /* \"#utility.yul\":12130:12136   */\n      dup3\n        /* \"#utility.yul\":12119:12128   */\n      dup8\n        /* \"#utility.yul\":12115:12137   */\n      add\n        /* \"#utility.yul\":12082:12147   */\n      tag_350\n      jump\t// in\n    tag_504:\n        /* \"#utility.yul\":12064:12147   */\n      swap3\n      pop\n      swap3\n      pop\n        /* \"#utility.yul\":11859:12157   */\n      pop\n        /* \"#utility.yul\":11490:12164   */\n      swap3\n      pop\n      swap3\n      pop\n      swap3\n      jump\t// out\n        /* \"#utility.yul\":12170:12699   */\n    tag_47:\n        /* \"#utility.yul\":12241:12247   */\n      0x00\n        /* \"#utility.yul\":12249:12255   */\n      dup1\n        /* \"#utility.yul\":12298:12300   */\n      0x20\n        /* \"#utility.yul\":12286:12295   */\n      dup4\n        /* \"#utility.yul\":12277:12284   */\n      dup6\n        /* \"#utility.yul\":12273:12296   */\n      sub\n        /* \"#utility.yul\":12269:12301   */\n      slt\n        /* \"#utility.yul\":12266:12385   */\n      iszero\n      tag_506\n      jumpi\n        /* \"#utility.yul\":12304:12383   */\n      tag_507\n      tag_326\n      jump\t// in\n    tag_507:\n        /* \"#utility.yul\":12266:12385   */\n    tag_506:\n        /* \"#utility.yul\":12452:12453   */\n      0x00\n        /* \"#utility.yul\":12441:12450   */\n      dup4\n        /* \"#utility.yul\":12437:12454   */\n      add\n        /* \"#utility.yul\":12424:12455   */\n      calldataload\n        /* \"#utility.yul\":12482:12500   */\n      0xffffffffffffffff\n        /* \"#utility.yul\":12474:12480   */\n      dup2\n        /* \"#utility.yul\":12471:12501   */\n      gt\n        /* \"#utility.yul\":12468:12585   */\n      iszero\n      tag_508\n      jumpi\n        /* \"#utility.yul\":12504:12583   */\n      tag_509\n      tag_327\n      jump\t// in\n    tag_509:\n        /* \"#utility.yul\":12468:12585   */\n    tag_508:\n        /* \"#utility.yul\":12617:12682   */\n      tag_510\n        /* \"#utility.yul\":12674:12681   */\n      dup6\n        /* \"#utility.yul\":12665:12671   */\n      dup3\n        /* \"#utility.yul\":12654:12663   */\n      dup7\n        /* \"#utility.yul\":12650:12672   */\n      add\n        /* \"#utility.yul\":12617:12682   */\n      tag_350\n      jump\t// in\n    tag_510:\n        /* \"#utility.yul\":12599:12682   */\n      swap3\n      pop\n      swap3\n      pop\n        /* \"#utility.yul\":12395:12692   */\n      pop\n        /* \"#utility.yul\":12170:12699   */\n      swap3\n      pop\n      swap3\n      swap1\n      pop\n      jump\t// out\n        /* \"#utility.yul\":12705:12823   */\n    tag_351:\n        /* \"#utility.yul\":12792:12816   */\n      tag_512\n        /* \"#utility.yul\":12810:12815   */\n      dup2\n        /* \"#utility.yul\":12792:12816   */\n      tag_337\n      jump\t// in\n    tag_512:\n        /* \"#utility.yul\":12787:12790   */\n      dup3\n        /* \"#utility.yul\":12780:12817   */\n      mstore\n        /* \"#utility.yul\":12705:12823   */\n      pop\n      pop\n      jump\t// out\n        /* \"#utility.yul\":12829:13564   */\n    tag_50:\n        /* \"#utility.yul\":13046:13050   */\n      0x00\n        /* \"#utility.yul\":13084:13087   */\n      0x80\n        /* \"#utility.yul\":13073:13082   */\n      dup3\n        /* \"#utility.yul\":13069:13088   */\n      add\n        /* \"#utility.yul\":13061:13088   */\n      swap1\n      pop\n        /* \"#utility.yul\":13098:13169   */\n      tag_514\n        /* \"#utility.yul\":13166:13167   */\n      0x00\n        /* \"#utility.yul\":13155:13164   */\n      dup4\n        /* \"#utility.yul\":13151:13168   */\n      add\n        /* \"#utility.yul\":13142:13148   */\n      dup8\n        /* \"#utility.yul\":13098:13169   */\n      tag_351\n      jump\t// in\n    tag_514:\n        /* \"#utility.yul\":13179:13251   */\n      tag_515\n        /* \"#utility.yul\":13247:13249   */\n      0x20\n        /* \"#utility.yul\":13236:13245   */\n      dup4\n        /* \"#utility.yul\":13232:13250   */\n      add\n        /* \"#utility.yul\":13223:13229   */\n      dup7\n        /* \"#utility.yul\":13179:13251   */\n      tag_351\n      jump\t// in\n    tag_515:\n        /* \"#utility.yul\":13298:13307   */\n      dup2\n        /* \"#utility.yul\":13292:13296   */\n      dup2\n        /* \"#utility.yul\":13288:13308   */\n      sub\n        /* \"#utility.yul\":13283:13285   */\n      0x40\n        /* \"#utility.yul\":13272:13281   */\n      dup4\n        /* \"#utility.yul\":13268:13286   */\n      add\n        /* \"#utility.yul\":13261:13309   */\n      mstore\n        /* \"#utility.yul\":13326:13404   */\n      tag_516\n        /* \"#utility.yul\":13399:13403   */\n      dup2\n        /* \"#utility.yul\":13390:13396   */\n      dup6\n        /* \"#utility.yul\":13326:13404   */\n      tag_334\n      jump\t// in\n    tag_516:\n        /* \"#utility.yul\":13318:13404   */\n      swap1\n      pop\n        /* \"#utility.yul\":13451:13460   */\n      dup2\n        /* \"#utility.yul\":13445:13449   */\n      dup2\n        /* \"#utility.yul\":13441:13461   */\n      sub\n        /* \"#utility.yul\":13436:13438   */\n      0x60\n        /* \"#utility.yul\":13425:13434   */\n      dup4\n        /* \"#utility.yul\":13421:13439   */\n      add\n        /* \"#utility.yul\":13414:13462   */\n      mstore\n        /* \"#utility.yul\":13479:13557   */\n      tag_517\n        /* \"#utility.yul\":13552:13556   */\n      dup2\n        /* \"#utility.yul\":13543:13549   */\n      dup5\n        /* \"#utility.yul\":13479:13557   */\n      tag_334\n      jump\t// in\n    tag_517:\n        /* \"#utility.yul\":13471:13557   */\n      swap1\n      pop\n        /* \"#utility.yul\":12829:13564   */\n      swap6\n      swap5\n      pop\n      pop\n      pop\n      pop\n      pop\n      jump\t// out\n        /* \"#utility.yul\":13570:13692   */\n    tag_352:\n        /* \"#utility.yul\":13643:13667   */\n      tag_519\n        /* \"#utility.yul\":13661:13666   */\n      dup2\n        /* \"#utility.yul\":13643:13667   */\n      tag_337\n      jump\t// in\n    tag_519:\n        /* \"#utility.yul\":13636:13641   */\n      dup2\n        /* \"#utility.yul\":13633:13668   */\n      eq\n        /* \"#utility.yul\":13623:13686   */\n      tag_520\n      jumpi\n        /* \"#utility.yul\":13682:13683   */\n      0x00\n        /* \"#utility.yul\":13679:13680   */\n      dup1\n        /* \"#utility.yul\":13672:13684   */\n      revert\n        /* \"#utility.yul\":13623:13686   */\n    tag_520:\n        /* \"#utility.yul\":13570:13692   */\n      pop\n      jump\t// out\n        /* \"#utility.yul\":13698:13837   */\n    tag_353:\n        /* \"#utility.yul\":13744:13749   */\n      0x00\n        /* \"#utility.yul\":13782:13788   */\n      dup2\n        /* \"#utility.yul\":13769:13789   */\n      calldataload\n        /* \"#utility.yul\":13760:13789   */\n      swap1\n      pop\n        /* \"#utility.yul\":13798:13831   */\n      tag_522\n        /* \"#utility.yul\":13825:13830   */\n      dup2\n        /* \"#utility.yul\":13798:13831   */\n      tag_352\n      jump\t// in\n    tag_522:\n        /* \"#utility.yul\":13698:13837   */\n      swap3\n      swap2\n      pop\n      pop\n      jump\t// out\n        /* \"#utility.yul\":13843:14172   */\n    tag_56:\n        /* \"#utility.yul\":13902:13908   */\n      0x00\n        /* \"#utility.yul\":13951:13953   */\n      0x20\n        /* \"#utility.yul\":13939:13948   */\n      dup3\n        /* \"#utility.yul\":13930:13937   */\n      dup5\n        /* \"#utility.yul\":13926:13949   */\n      sub\n        /* \"#utility.yul\":13922:13954   */\n      slt\n        /* \"#utility.yul\":13919:14038   */\n      iszero\n      tag_524\n      jumpi\n        /* \"#utility.yul\":13957:14036   */\n      tag_525\n      tag_326\n      jump\t// in\n    tag_525:\n        /* \"#utility.yul\":13919:14038   */\n    tag_524:\n        /* \"#utility.yul\":14077:14078   */\n      0x00\n        /* \"#utility.yul\":14102:14155   */\n      tag_526\n        /* \"#utility.yul\":14147:14154   */\n      dup5\n        /* \"#utility.yul\":14138:14144   */\n      dup3\n        /* \"#utility.yul\":14127:14136   */\n      dup6\n        /* \"#utility.yul\":14123:14145   */\n      add\n        /* \"#utility.yul\":14102:14155   */\n      tag_353\n      jump\t// in\n    tag_526:\n        /* \"#utility.yul\":14092:14155   */\n      swap2\n      pop\n        /* \"#utility.yul\":14048:14165   */\n      pop\n        /* \"#utility.yul\":13843:14172   */\n      swap3\n      swap2\n      pop\n      pop\n      jump\t// out\n        /* \"#utility.yul\":14178:14296   */\n    tag_354:\n        /* \"#utility.yul\":14265:14289   */\n      tag_528\n        /* \"#utility.yul\":14283:14288   */\n      dup2\n        /* \"#utility.yul\":14265:14289   */\n      tag_320\n      jump\t// in\n    tag_528:\n        /* \"#utility.yul\":14260:14263   */\n      dup3\n        /* \"#utility.yul\":14253:14290   */\n      mstore\n        /* \"#utility.yul\":14178:14296   */\n      pop\n      pop\n      jump\t// out\n        /* \"#utility.yul\":14302:14524   */\n    tag_59:\n        /* \"#utility.yul\":14395:14399   */\n      0x00\n        /* \"#utility.yul\":14433:14435   */\n      0x20\n        /* \"#utility.yul\":14422:14431   */\n      dup3\n        /* \"#utility.yul\":14418:14436   */\n      add\n        /* \"#utility.yul\":14410:14436   */\n      swap1\n      pop\n        /* \"#utility.yul\":14446:14517   */\n      tag_530\n        /* \"#utility.yul\":14514:14515   */\n      0x00\n        /* \"#utility.yul\":14503:14512   */\n      dup4\n        /* \"#utility.yul\":14499:14516   */\n      add\n        /* \"#utility.yul\":14490:14496   */\n      dup5\n        /* \"#utility.yul\":14446:14517   */\n      tag_354\n      jump\t// in\n    tag_530:\n        /* \"#utility.yul\":14302:14524   */\n      swap3\n      swap2\n      pop\n      pop\n      jump\t// out\n        /* \"#utility.yul\":14530:14619   */\n    tag_355:\n        /* \"#utility.yul\":14566:14573   */\n      0x00\n        /* \"#utility.yul\":14606:14612   */\n      0xffff\n        /* \"#utility.yul\":14599:14604   */\n      dup3\n        /* \"#utility.yul\":14595:14613   */\n      and\n        /* \"#utility.yul\":14584:14613   */\n      swap1\n      pop\n        /* \"#utility.yul\":14530:14619   */\n      swap2\n      swap1\n      pop\n      jump\t// out\n        /* \"#utility.yul\":14625:14740   */\n    tag_356:\n        /* \"#utility.yul\":14710:14733   */\n      tag_533\n        /* \"#utility.yul\":14727:14732   */\n      dup2\n        /* \"#utility.yul\":14710:14733   */\n      tag_355\n      jump\t// in\n    tag_533:\n        /* \"#utility.yul\":14705:14708   */\n      dup3\n        /* \"#utility.yul\":14698:14734   */\n      mstore\n        /* \"#utility.yul\":14625:14740   */\n      pop\n      pop\n      jump\t// out\n        /* \"#utility.yul\":14746:14964   */\n    tag_63:\n        /* \"#utility.yul\":14837:14841   */\n      0x00\n        /* \"#utility.yul\":14875:14877   */\n      0x20\n        /* \"#utility.yul\":14864:14873   */\n      dup3\n        /* \"#utility.yul\":14860:14878   */\n      add\n        /* \"#utility.yul\":14852:14878   */\n      swap1\n      pop\n        /* \"#utility.yul\":14888:14957   */\n      tag_535\n        /* \"#utility.yul\":14954:14955   */\n      0x00\n        /* \"#utility.yul\":14943:14952   */\n      dup4\n        /* \"#utility.yul\":14939:14956   */\n      add\n        /* \"#utility.yul\":14930:14936   */\n      dup5\n        /* \"#utility.yul\":14888:14957   */\n      tag_356\n      jump\t// in\n    tag_535:\n        /* \"#utility.yul\":14746:14964   */\n      swap3\n      swap2\n      pop\n      pop\n      jump\t// out\n        /* \"#utility.yul\":14970:15796   */\n    tag_71:\n        /* \"#utility.yul\":15207:15211   */\n      0x00\n        /* \"#utility.yul\":15245:15248   */\n      0x80\n        /* \"#utility.yul\":15234:15243   */\n      dup3\n        /* \"#utility.yul\":15230:15249   */\n      add\n        /* \"#utility.yul\":15222:15249   */\n      swap1\n      pop\n        /* \"#utility.yul\":15295:15304   */\n      dup2\n        /* \"#utility.yul\":15289:15293   */\n      dup2\n        /* \"#utility.yul\":15285:15305   */\n      sub\n        /* \"#utility.yul\":15281:15282   */\n      0x00\n        /* \"#utility.yul\":15270:15279   */\n      dup4\n        /* \"#utility.yul\":15266:15283   */\n      add\n        /* \"#utility.yul\":15259:15306   */\n      mstore\n        /* \"#utility.yul\":15323:15401   */\n      tag_537\n        /* \"#utility.yul\":15396:15400   */\n      dup2\n        /* \"#utility.yul\":15387:15393   */\n      dup8\n        /* \"#utility.yul\":15323:15401   */\n      tag_334\n      jump\t// in\n    tag_537:\n        /* \"#utility.yul\":15315:15401   */\n      swap1\n      pop\n        /* \"#utility.yul\":15448:15457   */\n      dup2\n        /* \"#utility.yul\":15442:15446   */\n      dup2\n        /* \"#utility.yul\":15438:15458   */\n      sub\n        /* \"#utility.yul\":15433:15435   */\n      0x20\n        /* \"#utility.yul\":15422:15431   */\n      dup4\n        /* \"#utility.yul\":15418:15436   */\n      add\n        /* \"#utility.yul\":15411:15459   */\n      mstore\n        /* \"#utility.yul\":15476:15554   */\n      tag_538\n        /* \"#utility.yul\":15549:15553   */\n      dup2\n        /* \"#utility.yul\":15540:15546   */\n      dup7\n        /* \"#utility.yul\":15476:15554   */\n      tag_334\n      jump\t// in\n    tag_538:\n        /* \"#utility.yul\":15468:15554   */\n      swap1\n      pop\n        /* \"#utility.yul\":15601:15610   */\n      dup2\n        /* \"#utility.yul\":15595:15599   */\n      dup2\n        /* \"#utility.yul\":15591:15611   */\n      sub\n        /* \"#utility.yul\":15586:15588   */\n      0x40\n        /* \"#utility.yul\":15575:15584   */\n      dup4\n        /* \"#utility.yul\":15571:15589   */\n      add\n        /* \"#utility.yul\":15564:15612   */\n      mstore\n        /* \"#utility.yul\":15629:15707   */\n      tag_539\n        /* \"#utility.yul\":15702:15706   */\n      dup2\n        /* \"#utility.yul\":15693:15699   */\n      dup6\n        /* \"#utility.yul\":15629:15707   */\n      tag_334\n      jump\t// in\n    tag_539:\n        /* \"#utility.yul\":15621:15707   */\n      swap1\n      pop\n        /* \"#utility.yul\":15717:15789   */\n      tag_540\n        /* \"#utility.yul\":15785:15787   */\n      0x60\n        /* \"#utility.yul\":15774:15783   */\n      dup4\n        /* \"#utility.yul\":15770:15788   */\n      add\n        /* \"#utility.yul\":15761:15767   */\n      dup5\n        /* \"#utility.yul\":15717:15789   */\n      tag_351\n      jump\t// in\n    tag_540:\n        /* \"#utility.yul\":14970:15796   */\n      swap6\n      swap5\n      pop\n      pop\n      pop\n      pop\n      pop\n      jump\t// out\n        /* \"#utility.yul\":15802:17513   */\n    tag_80:\n        /* \"#utility.yul\":15945:15951   */\n      0x00\n        /* \"#utility.yul\":15953:15959   */\n      dup1\n        /* \"#utility.yul\":15961:15967   */\n      0x00\n        /* \"#utility.yul\":15969:15975   */\n      dup1\n        /* \"#utility.yul\":15977:15983   */\n      0x00\n        /* \"#utility.yul\":15985:15991   */\n      dup1\n        /* \"#utility.yul\":15993:15999   */\n      0x00\n        /* \"#utility.yul\":16001:16007   */\n      dup1\n        /* \"#utility.yul\":16009:16015   */\n      0x00\n        /* \"#utility.yul\":16058:16061   */\n      0xa0\n        /* \"#utility.yul\":16046:16055   */\n      dup11\n        /* \"#utility.yul\":16037:16044   */\n      dup13\n        /* \"#utility.yul\":16033:16056   */\n      sub\n        /* \"#utility.yul\":16029:16062   */\n      slt\n        /* \"#utility.yul\":16026:16146   */\n      iszero\n      tag_542\n      jumpi\n        /* \"#utility.yul\":16065:16144   */\n      tag_543\n      tag_326\n      jump\t// in\n    tag_543:\n        /* \"#utility.yul\":16026:16146   */\n    tag_542:\n        /* \"#utility.yul\":16213:16214   */\n      0x00\n        /* \"#utility.yul\":16202:16211   */\n      dup11\n        /* \"#utility.yul\":16198:16215   */\n      add\n        /* \"#utility.yul\":16185:16216   */\n      calldataload\n        /* \"#utility.yul\":16243:16261   */\n      0xffffffffffffffff\n        /* \"#utility.yul\":16235:16241   */\n      dup2\n        /* \"#utility.yul\":16232:16262   */\n      gt\n        /* \"#utility.yul\":16229:16346   */\n      iszero\n      tag_544\n      jumpi\n        /* \"#utility.yul\":16265:16344   */\n      tag_545\n      tag_327\n      jump\t// in\n    tag_545:\n        /* \"#utility.yul\":16229:16346   */\n    tag_544:\n        /* \"#utility.yul\":16378:16443   */\n      tag_546\n        /* \"#utility.yul\":16435:16442   */\n      dup13\n        /* \"#utility.yul\":16426:16432   */\n      dup3\n        /* \"#utility.yul\":16415:16424   */\n      dup14\n        /* \"#utility.yul\":16411:16433   */\n      add\n        /* \"#utility.yul\":16378:16443   */\n      tag_350\n      jump\t// in\n    tag_546:\n        /* \"#utility.yul\":16360:16443   */\n      swap10\n      pop\n      swap10\n      pop\n        /* \"#utility.yul\":16156:16453   */\n      pop\n        /* \"#utility.yul\":16520:16522   */\n      0x20\n        /* \"#utility.yul\":16509:16518   */\n      dup11\n        /* \"#utility.yul\":16505:16523   */\n      add\n        /* \"#utility.yul\":16492:16524   */\n      calldataload\n        /* \"#utility.yul\":16551:16569   */\n      0xffffffffffffffff\n        /* \"#utility.yul\":16543:16549   */\n      dup2\n        /* \"#utility.yul\":16540:16570   */\n      gt\n        /* \"#utility.yul\":16537:16654   */\n      iszero\n      tag_547\n      jumpi\n        /* \"#utility.yul\":16573:16652   */\n      tag_548\n      tag_327\n      jump\t// in\n    tag_548:\n        /* \"#utility.yul\":16537:16654   */\n    tag_547:\n        /* \"#utility.yul\":16686:16751   */\n      tag_549\n        /* \"#utility.yul\":16743:16750   */\n      dup13\n        /* \"#utility.yul\":16734:16740   */\n      dup3\n        /* \"#utility.yul\":16723:16732   */\n      dup14\n        /* \"#utility.yul\":16719:16741   */\n      add\n        /* \"#utility.yul\":16686:16751   */\n      tag_350\n      jump\t// in\n    tag_549:\n        /* \"#utility.yul\":16668:16751   */\n      swap8\n      pop\n      swap8\n      pop\n        /* \"#utility.yul\":16463:16761   */\n      pop\n        /* \"#utility.yul\":16800:16802   */\n      0x40\n        /* \"#utility.yul\":16826:16879   */\n      tag_550\n        /* \"#utility.yul\":16871:16878   */\n      dup13\n        /* \"#utility.yul\":16862:16868   */\n      dup3\n        /* \"#utility.yul\":16851:16860   */\n      dup14\n        /* \"#utility.yul\":16847:16869   */\n      add\n        /* \"#utility.yul\":16826:16879   */\n      tag_329\n      jump\t// in\n    tag_550:\n        /* \"#utility.yul\":16816:16879   */\n      swap6\n      pop\n        /* \"#utility.yul\":16771:16889   */\n      pop\n        /* \"#utility.yul\":16956:16958   */\n      0x60\n        /* \"#utility.yul\":16945:16954   */\n      dup11\n        /* \"#utility.yul\":16941:16959   */\n      add\n        /* \"#utility.yul\":16928:16960   */\n      calldataload\n        /* \"#utility.yul\":16987:17005   */\n      0xffffffffffffffff\n        /* \"#utility.yul\":16979:16985   */\n      dup2\n        /* \"#utility.yul\":16976:17006   */\n      gt\n        /* \"#utility.yul\":16973:17090   */\n      iszero\n      tag_551\n      jumpi\n        /* \"#utility.yul\":17009:17088   */\n      tag_552\n      tag_327\n      jump\t// in\n    tag_552:\n        /* \"#utility.yul\":16973:17090   */\n    tag_551:\n        /* \"#utility.yul\":17122:17187   */\n      tag_553\n        /* \"#utility.yul\":17179:17186   */\n      dup13\n        /* \"#utility.yul\":17170:17176   */\n      dup3\n        /* \"#utility.yul\":17159:17168   */\n      dup14\n        /* \"#utility.yul\":17155:17177   */\n      add\n        /* \"#utility.yul\":17122:17187   */\n      tag_350\n      jump\t// in\n    tag_553:\n        /* \"#utility.yul\":17104:17187   */\n      swap5\n      pop\n      swap5\n      pop\n        /* \"#utility.yul\":16899:17197   */\n      pop\n        /* \"#utility.yul\":17264:17267   */\n      0x80\n        /* \"#utility.yul\":17253:17262   */\n      dup11\n        /* \"#utility.yul\":17249:17268   */\n      add\n        /* \"#utility.yul\":17236:17269   */\n      calldataload\n        /* \"#utility.yul\":17296:17314   */\n      0xffffffffffffffff\n        /* \"#utility.yul\":17288:17294   */\n      dup2\n        /* \"#utility.yul\":17285:17315   */\n      gt\n        /* \"#utility.yul\":17282:17399   */\n      iszero\n      tag_554\n      jumpi\n        /* \"#utility.yul\":17318:17397   */\n      tag_555\n      tag_327\n      jump\t// in\n    tag_555:\n        /* \"#utility.yul\":17282:17399   */\n    tag_554:\n        /* \"#utility.yul\":17431:17496   */\n      tag_556\n        /* \"#utility.yul\":17488:17495   */\n      dup13\n        /* \"#utility.yul\":17479:17485   */\n      dup3\n        /* \"#utility.yul\":17468:17477   */\n      dup14\n        /* \"#utility.yul\":17464:17486   */\n      add\n        /* \"#utility.yul\":17431:17496   */\n      tag_350\n      jump\t// in\n    tag_556:\n        /* \"#utility.yul\":17413:17496   */\n      swap3\n      pop\n      swap3\n      pop\n        /* \"#utility.yul\":17207:17506   */\n      pop\n        /* \"#utility.yul\":15802:17513   */\n      swap3\n      swap6\n      swap9\n      pop\n      swap3\n      swap6\n      swap9\n      pop\n      swap3\n      swap6\n      swap9\n      jump\t// out\n        /* \"#utility.yul\":17519:18193   */\n    tag_84:\n        /* \"#utility.yul\":17599:17605   */\n      0x00\n        /* \"#utility.yul\":17607:17613   */\n      dup1\n        /* \"#utility.yul\":17615:17621   */\n      0x00\n        /* \"#utility.yul\":17664:17666   */\n      0x40\n        /* \"#utility.yul\":17652:17661   */\n      dup5\n        /* \"#utility.yul\":17643:17650   */\n      dup7\n        /* \"#utility.yul\":17639:17662   */\n      sub\n        /* \"#utility.yul\":17635:17667   */\n      slt\n        /* \"#utility.yul\":17632:17751   */\n      iszero\n      tag_558\n      jumpi\n        /* \"#utility.yul\":17670:17749   */\n      tag_559\n      tag_326\n      jump\t// in\n    tag_559:\n        /* \"#utility.yul\":17632:17751   */\n    tag_558:\n        /* \"#utility.yul\":17818:17819   */\n      0x00\n        /* \"#utility.yul\":17807:17816   */\n      dup5\n        /* \"#utility.yul\":17803:17820   */\n      add\n        /* \"#utility.yul\":17790:17821   */\n      calldataload\n        /* \"#utility.yul\":17848:17866   */\n      0xffffffffffffffff\n        /* \"#utility.yul\":17840:17846   */\n      dup2\n        /* \"#utility.yul\":17837:17867   */\n      gt\n        /* \"#utility.yul\":17834:17951   */\n      iszero\n      tag_560\n      jumpi\n        /* \"#utility.yul\":17870:17949   */\n      tag_561\n      tag_327\n      jump\t// in\n    tag_561:\n        /* \"#utility.yul\":17834:17951   */\n    tag_560:\n        /* \"#utility.yul\":17983:18048   */\n      tag_562\n        /* \"#utility.yul\":18040:18047   */\n      dup7\n        /* \"#utility.yul\":18031:18037   */\n      dup3\n        /* \"#utility.yul\":18020:18029   */\n      dup8\n        /* \"#utility.yul\":18016:18038   */\n      add\n        /* \"#utility.yul\":17983:18048   */\n      tag_350\n      jump\t// in\n    tag_562:\n        /* \"#utility.yul\":17965:18048   */\n      swap4\n      pop\n      swap4\n      pop\n        /* \"#utility.yul\":17761:18058   */\n      pop\n        /* \"#utility.yul\":18097:18099   */\n      0x20\n        /* \"#utility.yul\":18123:18176   */\n      tag_563\n        /* \"#utility.yul\":18168:18175   */\n      dup7\n        /* \"#utility.yul\":18159:18165   */\n      dup3\n        /* \"#utility.yul\":18148:18157   */\n      dup8\n        /* \"#utility.yul\":18144:18166   */\n      add\n        /* \"#utility.yul\":18123:18176   */\n      tag_329\n      jump\t// in\n    tag_563:\n        /* \"#utility.yul\":18113:18176   */\n      swap2\n      pop\n        /* \"#utility.yul\":18068:18186   */\n      pop\n        /* \"#utility.yul\":17519:18193   */\n      swap3\n      pop\n      swap3\n      pop\n      swap3\n      jump\t// out\n        /* \"#utility.yul\":18199:18379   */\n    tag_357:\n        /* \"#utility.yul\":18247:18324   */\n      0x4e487b7100000000000000000000000000000000000000000000000000000000\n        /* \"#utility.yul\":18244:18245   */\n      0x00\n        /* \"#utility.yul\":18237:18325   */\n      mstore\n        /* \"#utility.yul\":18344:18348   */\n      0x22\n        /* \"#utility.yul\":18341:18342   */\n      0x04\n        /* \"#utility.yul\":18334:18349   */\n      mstore\n        /* \"#utility.yul\":18368:18372   */\n      0x24\n        /* \"#utility.yul\":18365:18366   */\n      0x00\n        /* \"#utility.yul\":18358:18373   */\n      revert\n        /* \"#utility.yul\":18385:18705   */\n    tag_91:\n        /* \"#utility.yul\":18429:18435   */\n      0x00\n        /* \"#utility.yul\":18466:18467   */\n      0x02\n        /* \"#utility.yul\":18460:18464   */\n      dup3\n        /* \"#utility.yul\":18456:18468   */\n      div\n        /* \"#utility.yul\":18446:18468   */\n      swap1\n      pop\n        /* \"#utility.yul\":18513:18514   */\n      0x01\n        /* \"#utility.yul\":18507:18511   */\n      dup3\n        /* \"#utility.yul\":18503:18515   */\n      and\n        /* \"#utility.yul\":18534:18552   */\n      dup1\n        /* \"#utility.yul\":18524:18605   */\n      tag_566\n      jumpi\n        /* \"#utility.yul\":18590:18594   */\n      0x7f\n        /* \"#utility.yul\":18582:18588   */\n      dup3\n        /* \"#utility.yul\":18578:18595   */\n      and\n        /* \"#utility.yul\":18568:18595   */\n      swap2\n      pop\n        /* \"#utility.yul\":18524:18605   */\n    tag_566:\n        /* \"#utility.yul\":18652:18654   */\n      0x20\n        /* \"#utility.yul\":18644:18650   */\n      dup3\n        /* \"#utility.yul\":18641:18655   */\n      lt\n        /* \"#utility.yul\":18621:18639   */\n      dup2\n        /* \"#utility.yul\":18618:18656   */\n      sub\n        /* \"#utility.yul\":18615:18699   */\n      tag_567\n      jumpi\n        /* \"#utility.yul\":18671:18689   */\n      tag_568\n      tag_357\n      jump\t// in\n    tag_568:\n        /* \"#utility.yul\":18615:18699   */\n    tag_567:\n        /* \"#utility.yul\":18436:18705   */\n      pop\n        /* \"#utility.yul\":18385:18705   */\n      swap2\n      swap1\n      pop\n      jump\t// out\n        /* \"#utility.yul\":18711:18884   */\n    tag_358:\n        /* \"#utility.yul\":18851:18876   */\n      0x496e76616c69642073747564656e742061646472657373000000000000000000\n        /* \"#utility.yul\":18847:18848   */\n      0x00\n        /* \"#utility.yul\":18839:18845   */\n      dup3\n        /* \"#utility.yul\":18835:18849   */\n      add\n        /* \"#utility.yul\":18828:18877   */\n      mstore\n        /* \"#utility.yul\":18711:18884   */\n      pop\n      jump\t// out\n        /* \"#utility.yul\":18890:19256   */\n    tag_359:\n        /* \"#utility.yul\":19032:19035   */\n      0x00\n        /* \"#utility.yul\":19053:19120   */\n      tag_571\n        /* \"#utility.yul\":19117:19119   */\n      0x17\n        /* \"#utility.yul\":19112:19115   */\n      dup4\n        /* \"#utility.yul\":19053:19120   */\n      tag_331\n      jump\t// in\n    tag_571:\n        /* \"#utility.yul\":19046:19120   */\n      swap2\n      pop\n        /* \"#utility.yul\":19129:19222   */\n      tag_572\n        /* \"#utility.yul\":19218:19221   */\n      dup3\n        /* \"#utility.yul\":19129:19222   */\n      tag_358\n      jump\t// in\n    tag_572:\n        /* \"#utility.yul\":19247:19249   */\n      0x20\n        /* \"#utility.yul\":19242:19245   */\n      dup3\n        /* \"#utility.yul\":19238:19250   */\n      add\n        /* \"#utility.yul\":19231:19250   */\n      swap1\n      pop\n        /* \"#utility.yul\":18890:19256   */\n      swap2\n      swap1\n      pop\n      jump\t// out\n        /* \"#utility.yul\":19262:19681   */\n    tag_101:\n        /* \"#utility.yul\":19428:19432   */\n      0x00\n        /* \"#utility.yul\":19466:19468   */\n      0x20\n        /* \"#utility.yul\":19455:19464   */\n      dup3\n        /* \"#utility.yul\":19451:19469   */\n      add\n        /* \"#utility.yul\":19443:19469   */\n      swap1\n      pop\n        /* \"#utility.yul\":19515:19524   */\n      dup2\n        /* \"#utility.yul\":19509:19513   */\n      dup2\n        /* \"#utility.yul\":19505:19525   */\n      sub\n        /* \"#utility.yul\":19501:19502   */\n      0x00\n        /* \"#utility.yul\":19490:19499   */\n      dup4\n        /* \"#utility.yul\":19486:19503   */\n      add\n        /* \"#utility.yul\":19479:19526   */\n      mstore\n        /* \"#utility.yul\":19543:19674   */\n      tag_574\n        /* \"#utility.yul\":19669:19673   */\n      dup2\n        /* \"#utility.yul\":19543:19674   */\n      tag_359\n      jump\t// in\n    tag_574:\n        /* \"#utility.yul\":19535:19674   */\n      swap1\n      pop\n        /* \"#utility.yul\":19262:19681   */\n      swap2\n      swap1\n      pop\n      jump\t// out\n        /* \"#utility.yul\":19687:19855   */\n    tag_360:\n        /* \"#utility.yul\":19827:19847   */\n      0x4578706f72746572206e6f7420666f756e640000000000000000000000000000\n        /* \"#utility.yul\":19823:19824   */\n      0x00\n        /* \"#utility.yul\":19815:19821   */\n      dup3\n        /* \"#utility.yul\":19811:19825   */\n      add\n        /* \"#utility.yul\":19804:19848   */\n      mstore\n        /* \"#utility.yul\":19687:19855   */\n      pop\n      jump\t// out\n        /* \"#utility.yul\":19861:20227   */\n    tag_361:\n        /* \"#utility.yul\":20003:20006   */\n      0x00\n        /* \"#utility.yul\":20024:20091   */\n      tag_577\n        /* \"#utility.yul\":20088:20090   */\n      0x12\n        /* \"#utility.yul\":20083:20086   */\n      dup4\n        /* \"#utility.yul\":20024:20091   */\n      tag_331\n      jump\t// in\n    tag_577:\n        /* \"#utility.yul\":20017:20091   */\n      swap2\n      pop\n        /* \"#utility.yul\":20100:20193   */\n      tag_578\n        /* \"#utility.yul\":20189:20192   */\n      dup3\n        /* \"#utility.yul\":20100:20193   */\n      tag_360\n      jump\t// in\n    tag_578:\n        /* \"#utility.yul\":20218:20220   */\n      0x20\n        /* \"#utility.yul\":20213:20216   */\n      dup3\n        /* \"#utility.yul\":20209:20221   */\n      add\n        /* \"#utility.yul\":20202:20221   */\n      swap1\n      pop\n        /* \"#utility.yul\":19861:20227   */\n      swap2\n      swap1\n      pop\n      jump\t// out\n        /* \"#utility.yul\":20233:20652   */\n    tag_122:\n        /* \"#utility.yul\":20399:20403   */\n      0x00\n        /* \"#utility.yul\":20437:20439   */\n      0x20\n        /* \"#utility.yul\":20426:20435   */\n      dup3\n        /* \"#utility.yul\":20422:20440   */\n      add\n        /* \"#utility.yul\":20414:20440   */\n      swap1\n      pop\n        /* \"#utility.yul\":20486:20495   */\n      dup2\n        /* \"#utility.yul\":20480:20484   */\n      dup2\n        /* \"#utility.yul\":20476:20496   */\n      sub\n        /* \"#utility.yul\":20472:20473   */\n      0x00\n        /* \"#utility.yul\":20461:20470   */\n      dup4\n        /* \"#utility.yul\":20457:20474   */\n      add\n        /* \"#utility.yul\":20450:20497   */\n      mstore\n        /* \"#utility.yul\":20514:20645   */\n      tag_580\n        /* \"#utility.yul\":20640:20644   */\n      dup2\n        /* \"#utility.yul\":20514:20645   */\n      tag_361\n      jump\t// in\n    tag_580:\n        /* \"#utility.yul\":20506:20645   */\n      swap1\n      pop\n        /* \"#utility.yul\":20233:20652   */\n      swap2\n      swap1\n      pop\n      jump\t// out\n        /* \"#utility.yul\":20658:20831   */\n    tag_362:\n        /* \"#utility.yul\":20798:20823   */\n      0x43616c6c6572206973206e6f7420746865206f776e6572000000000000000000\n        /* \"#utility.yul\":20794:20795   */\n      0x00\n        /* \"#utility.yul\":20786:20792   */\n      dup3\n        /* \"#utility.yul\":20782:20796   */\n      add\n        /* \"#utility.yul\":20775:20824   */\n      mstore\n        /* \"#utility.yul\":20658:20831   */\n      pop\n      jump\t// out\n        /* \"#utility.yul\":20837:21203   */\n    tag_363:\n        /* \"#utility.yul\":20979:20982   */\n      0x00\n        /* \"#utility.yul\":21000:21067   */\n      tag_583\n        /* \"#utility.yul\":21064:21066   */\n      0x17\n        /* \"#utility.yul\":21059:21062   */\n      dup4\n        /* \"#utility.yul\":21000:21067   */\n      tag_331\n      jump\t// in\n    tag_583:\n        /* \"#utility.yul\":20993:21067   */\n      swap2\n      pop\n        /* \"#utility.yul\":21076:21169   */\n      tag_584\n        /* \"#utility.yul\":21165:21168   */\n      dup3\n        /* \"#utility.yul\":21076:21169   */\n      tag_362\n      jump\t// in\n    tag_584:\n        /* \"#utility.yul\":21194:21196   */\n      0x20\n        /* \"#utility.yul\":21189:21192   */\n      dup3\n        /* \"#utility.yul\":21185:21197   */\n      add\n        /* \"#utility.yul\":21178:21197   */\n      swap1\n      pop\n        /* \"#utility.yul\":20837:21203   */\n      swap2\n      swap1\n      pop\n      jump\t// out\n        /* \"#utility.yul\":21209:21628   */\n    tag_139:\n        /* \"#utility.yul\":21375:21379   */\n      0x00\n        /* \"#utility.yul\":21413:21415   */\n      0x20\n        /* \"#utility.yul\":21402:21411   */\n      dup3\n        /* \"#utility.yul\":21398:21416   */\n      add\n        /* \"#utility.yul\":21390:21416   */\n      swap1\n      pop\n        /* \"#utility.yul\":21462:21471   */\n      dup2\n        /* \"#utility.yul\":21456:21460   */\n      dup2\n        /* \"#utility.yul\":21452:21472   */\n      sub\n        /* \"#utility.yul\":21448:21449   */\n      0x00\n        /* \"#utility.yul\":21437:21446   */\n      dup4\n        /* \"#utility.yul\":21433:21450   */\n      add\n        /* \"#utility.yul\":21426:21473   */\n      mstore\n        /* \"#utility.yul\":21490:21621   */\n      tag_586\n        /* \"#utility.yul\":21616:21620   */\n      dup2\n        /* \"#utility.yul\":21490:21621   */\n      tag_363\n      jump\t// in\n    tag_586:\n        /* \"#utility.yul\":21482:21621   */\n      swap1\n      pop\n        /* \"#utility.yul\":21209:21628   */\n      swap2\n      swap1\n      pop\n      jump\t// out\n        /* \"#utility.yul\":21634:21731   */\n    tag_364:\n        /* \"#utility.yul\":21693:21699   */\n      0x00\n        /* \"#utility.yul\":21721:21724   */\n      dup3\n        /* \"#utility.yul\":21711:21724   */\n      swap1\n      pop\n        /* \"#utility.yul\":21634:21731   */\n      swap3\n      swap2\n      pop\n      pop\n      jump\t// out\n        /* \"#utility.yul\":21737:21917   */\n    tag_365:\n        /* \"#utility.yul\":21785:21862   */\n      0x4e487b7100000000000000000000000000000000000000000000000000000000\n        /* \"#utility.yul\":21782:21783   */\n      0x00\n        /* \"#utility.yul\":21775:21863   */\n      mstore\n        /* \"#utility.yul\":21882:21886   */\n      0x41\n        /* \"#utility.yul\":21879:21880   */\n      0x04\n        /* \"#utility.yul\":21872:21887   */\n      mstore\n        /* \"#utility.yul\":21906:21910   */\n      0x24\n        /* \"#utility.yul\":21903:21904   */\n      0x00\n        /* \"#utility.yul\":21896:21911   */\n      revert\n        /* \"#utility.yul\":21923:22064   */\n    tag_366:\n        /* \"#utility.yul\":21972:21976   */\n      0x00\n        /* \"#utility.yul\":21995:21998   */\n      dup2\n        /* \"#utility.yul\":21987:21998   */\n      swap1\n      pop\n        /* \"#utility.yul\":22018:22021   */\n      dup2\n        /* \"#utility.yul\":22015:22016   */\n      0x00\n        /* \"#utility.yul\":22008:22022   */\n      mstore\n        /* \"#utility.yul\":22052:22056   */\n      0x20\n        /* \"#utility.yul\":22049:22050   */\n      0x00\n        /* \"#utility.yul\":22039:22057   */\n      keccak256\n        /* \"#utility.yul\":22031:22057   */\n      swap1\n      pop\n        /* \"#utility.yul\":21923:22064   */\n      swap2\n      swap1\n      pop\n      jump\t// out\n        /* \"#utility.yul\":22070:22163   */\n    tag_367:\n        /* \"#utility.yul\":22107:22113   */\n      0x00\n        /* \"#utility.yul\":22154:22156   */\n      0x20\n        /* \"#utility.yul\":22149:22151   */\n      0x1f\n        /* \"#utility.yul\":22142:22147   */\n      dup4\n        /* \"#utility.yul\":22138:22152   */\n      add\n        /* \"#utility.yul\":22134:22157   */\n      div\n        /* \"#utility.yul\":22124:22157   */\n      swap1\n      pop\n        /* \"#utility.yul\":22070:22163   */\n      swap2\n      swap1\n      pop\n      jump\t// out\n        /* \"#utility.yul\":22169:22276   */\n    tag_368:\n        /* \"#utility.yul\":22213:22221   */\n      0x00\n        /* \"#utility.yul\":22263:22268   */\n      dup3\n        /* \"#utility.yul\":22257:22261   */\n      dup3\n        /* \"#utility.yul\":22253:22269   */\n      shl\n        /* \"#utility.yul\":22232:22269   */\n      swap1\n      pop\n        /* \"#utility.yul\":22169:22276   */\n      swap3\n      swap2\n      pop\n      pop\n      jump\t// out\n        /* \"#utility.yul\":22282:22675   */\n    tag_369:\n        /* \"#utility.yul\":22351:22357   */\n      0x00\n        /* \"#utility.yul\":22401:22402   */\n      0x08\n        /* \"#utility.yul\":22389:22399   */\n      dup4\n        /* \"#utility.yul\":22385:22403   */\n      mul\n        /* \"#utility.yul\":22424:22521   */\n      tag_593\n        /* \"#utility.yul\":22454:22520   */\n      0xffffffffffffffffffffffffffffffffffffffffffffffffffffffffffffffff\n        /* \"#utility.yul\":22443:22452   */\n      dup3\n        /* \"#utility.yul\":22424:22521   */\n      tag_368\n      jump\t// in\n    tag_593:\n        /* \"#utility.yul\":22542:22581   */\n      tag_594\n        /* \"#utility.yul\":22572:22580   */\n      dup7\n        /* \"#utility.yul\":22561:22570   */\n      dup4\n        /* \"#utility.yul\":22542:22581   */\n      tag_368\n      jump\t// in\n    tag_594:\n        /* \"#utility.yul\":22530:22581   */\n      swap6\n      pop\n        /* \"#utility.yul\":22614:22618   */\n      dup1\n        /* \"#utility.yul\":22610:22619   */\n      not\n        /* \"#utility.yul\":22603:22608   */\n      dup5\n        /* \"#utility.yul\":22599:22620   */\n      and\n        /* \"#utility.yul\":22590:22620   */\n      swap4\n      pop\n        /* \"#utility.yul\":22663:22667   */\n      dup1\n        /* \"#utility.yul\":22653:22661   */\n      dup7\n        /* \"#utility.yul\":22649:22668   */\n      and\n        /* \"#utility.yul\":22642:22647   */\n      dup5\n        /* \"#utility.yul\":22639:22669   */\n      or\n        /* \"#utility.yul\":22629:22669   */\n      swap3\n      pop\n        /* \"#utility.yul\":22358:22675   */\n      pop\n      pop\n        /* \"#utility.yul\":22282:22675   */\n      swap4\n      swap3\n      pop\n      pop\n      pop\n      jump\t// out\n        /* \"#utility.yul\":22681:22741   */\n    tag_370:\n        /* \"#utility.yul\":22709:22712   */\n      0x00\n        /* \"#utility.yul\":22730:22735   */\n      dup2\n        /* \"#utility.yul\":22723:22735   */\n      swap1\n      pop\n        /* \"#utility.yul\":22681:22741   */\n      swap2\n      swap1\n      pop\n      jump\t// out\n        /* \"#utility.yul\":22747:22889   */\n    tag_371:\n        /* \"#utility.yul\":22797:22806   */\n      0x00\n        /* \"#utility.yul\":22830:22883   */\n      tag_597\n        /* \"#utility.yul\":22848:22882   */\n      tag_598\n        /* \"#utility.yul\":22857:22881   */\n      tag_599\n        /* \"#utility.yul\":22875:22880   */\n      dup5\n        /* \"#utility.yul\":22857:22881   */\n      tag_337\n      jump\t// in\n    tag_599:\n        /* \"#utility.yul\":22848:22882   */\n      tag_370\n      jump\t// in\n    tag_598:\n        /* \"#utility.yul\":22830:22883   */\n      tag_337\n      jump\t// in\n    tag_597:\n        /* \"#utility.yul\":22817:22883   */\n      swap1\n      pop\n        /* \"#utility.yul\":22747:22889   */\n      swap2\n      swap1\n      pop\n      jump\t// out\n        /* \"#utility.yul\":22895:22970   */\n    tag_372:\n        /* \"#utility.yul\":22938:22941   */\n      0x00\n        /* \"#utility.yul\":22959:22964   */\n      dup2\n        /* \"#utility.yul\":22952:22964   */\n      swap1\n      pop\n        /* \"#utility.yul\":22895:22970   */\n      swap2\n      swap1\n      pop\n      jump\t// out\n        /* \"#utility.yul\":22976:23245   */\n    tag_373:\n        /* \"#utility.yul\":23086:23125   */\n      tag_602\n        /* \"#utility.yul\":23117:23124   */\n      dup4\n        /* \"#utility.yul\":23086:23125   */\n      tag_371\n      jump\t// in\n    tag_602:\n        /* \"#utility.yul\":23147:23238   */\n      tag_603\n        /* \"#utility.yul\":23196:23237   */\n      tag_604\n        /* \"#utility.yul\":23220:23236   */\n      dup3\n        /* \"#utility.yul\":23196:23237   */\n      tag_372\n      jump\t// in\n    tag_604:\n        /* \"#utility.yul\":23188:23194   */\n      dup5\n        /* \"#utility.yul\":23181:23185   */\n      dup5\n        /* \"#utility.yul\":23175:23186   */\n      sload\n        /* \"#utility.yul\":23147:23238   */\n      tag_369\n      jump\t// in\n    tag_603:\n        /* \"#utility.yul\":23141:23145   */\n      dup3\n        /* \"#utility.yul\":23134:23239   */\n      sstore\n        /* \"#utility.yul\":23052:23245   */\n      pop\n        /* \"#utility.yul\":22976:23245   */\n      pop\n      pop\n      pop\n      jump\t// out\n        /* \"#utility.yul\":23251:23324   */\n    tag_374:\n        /* \"#utility.yul\":23296:23299   */\n      0x00\n        /* \"#utility.yul\":23251:23324   */\n      swap1\n      jump\t// out\n        /* \"#utility.yul\":23330:23519   */\n    tag_375:\n        /* \"#utility.yul\":23407:23439   */\n      tag_607\n      tag_374\n      jump\t// in\n    tag_607:\n        /* \"#utility.yul\":23448:23513   */\n      tag_608\n        /* \"#utility.yul\":23506:23512   */\n      dup2\n        /* \"#utility.yul\":23498:23504   */\n      dup5\n        /* \"#utility.yul\":23492:23496   */\n      dup5\n        /* \"#utility.yul\":23448:23513   */\n      tag_373\n      jump\t// in\n    tag_608:\n        /* \"#utility.yul\":23383:23519   */\n      pop\n        /* \"#utility.yul\":23330:23519   */\n      pop\n      pop\n      jump\t// out\n        /* \"#utility.yul\":23525:23711   */\n    tag_376:\n        /* \"#utility.yul\":23585:23705   */\n    tag_610:\n        /* \"#utility.yul\":23602:23605   */\n      dup2\n        /* \"#utility.yul\":23595:23600   */\n      dup2\n        /* \"#utility.yul\":23592:23606   */\n      lt\n        /* \"#utility.yul\":23585:23705   */\n      iszero\n      tag_612\n      jumpi\n        /* \"#utility.yul\":23656:23695   */\n      tag_613\n        /* \"#utility.yul\":23693:23694   */\n      0x00\n        /* \"#utility.yul\":23686:23691   */\n      dup3\n        /* \"#utility.yul\":23656:23695   */\n      tag_375\n      jump\t// in\n    tag_613:\n        /* \"#utility.yul\":23629:23630   */\n      0x01\n        /* \"#utility.yul\":23622:23627   */\n      dup2\n        /* \"#utility.yul\":23618:23631   */\n      add\n        /* \"#utility.yul\":23609:23631   */\n      swap1\n      pop\n        /* \"#utility.yul\":23585:23705   */\n      jump(tag_610)\n    tag_612:\n        /* \"#utility.yul\":23525:23711   */\n      pop\n      pop\n      jump\t// out\n        /* \"#utility.yul\":23717:24260   */\n    tag_377:\n        /* \"#utility.yul\":23818:23820   */\n      0x1f\n        /* \"#utility.yul\":23813:23816   */\n      dup3\n        /* \"#utility.yul\":23810:23821   */\n      gt\n        /* \"#utility.yul\":23807:24253   */\n      iszero\n      tag_615\n      jumpi\n        /* \"#utility.yul\":23852:23890   */\n      tag_616\n        /* \"#utility.yul\":23884:23889   */\n      dup2\n        /* \"#utility.yul\":23852:23890   */\n      tag_366\n      jump\t// in\n    tag_616:\n        /* \"#utility.yul\":23936:23965   */\n      tag_617\n        /* \"#utility.yul\":23954:23964   */\n      dup5\n        /* \"#utility.yul\":23936:23965   */\n      tag_367\n      jump\t// in\n    tag_617:\n        /* \"#utility.yul\":23926:23934   */\n      dup2\n        /* \"#utility.yul\":23922:23966   */\n      add\n        /* \"#utility.yul\":24119:24121   */\n      0x20\n        /* \"#utility.yul\":24107:24117   */\n      dup6\n        /* \"#utility.yul\":24104:24122   */\n      lt\n        /* \"#utility.yul\":24101:24150   */\n      iszero\n      tag_618\n      jumpi\n        /* \"#utility.yul\":24140:24148   */\n      dup2\n        /* \"#utility.yul\":24125:24148   */\n      swap1\n      pop\n        /* \"#utility.yul\":24101:24150   */\n    tag_618:\n        /* \"#utility.yul\":24163:24243   */\n      tag_619\n        /* \"#utility.yul\":24219:24241   */\n      tag_620\n        /* \"#utility.yul\":24237:24240   */\n      dup6\n        /* \"#utility.yul\":24219:24241   */\n      tag_367\n      jump\t// in\n    tag_620:\n        /* \"#utility.yul\":24209:24217   */\n      dup4\n        /* \"#utility.yul\":24205:24242   */\n      add\n        /* \"#utility.yul\":24192:24203   */\n      dup3\n        /* \"#utility.yul\":24163:24243   */\n      tag_376\n      jump\t// in\n    tag_619:\n        /* \"#utility.yul\":23822:24253   */\n      pop\n      pop\n        /* \"#utility.yul\":23807:24253   */\n    tag_615:\n        /* \"#utility.yul\":23717:24260   */\n      pop\n      pop\n      pop\n      jump\t// out\n        /* \"#utility.yul\":24266:24383   */\n    tag_378:\n        /* \"#utility.yul\":24320:24328   */\n      0x00\n        /* \"#utility.yul\":24370:24375   */\n      dup3\n        /* \"#utility.yul\":24364:24368   */\n      dup3\n        /* \"#utility.yul\":24360:24376   */\n      shr\n        /* \"#utility.yul\":24339:24376   */\n      swap1\n      pop\n        /* \"#utility.yul\":24266:24383   */\n      swap3\n      swap2\n      pop\n      pop\n      jump\t// out\n        /* \"#utility.yul\":24389:24558   */\n    tag_379:\n        /* \"#utility.yul\":24433:24439   */\n      0x00\n        /* \"#utility.yul\":24466:24517   */\n      tag_623\n        /* \"#utility.yul\":24514:24515   */\n      0x00\n        /* \"#utility.yul\":24510:24516   */\n      not\n        /* \"#utility.yul\":24502:24507   */\n      dup5\n        /* \"#utility.yul\":24499:24500   */\n      0x08\n        /* \"#utility.yul\":24495:24508   */\n      mul\n        /* \"#utility.yul\":24466:24517   */\n      tag_378\n      jump\t// in\n    tag_623:\n        /* \"#utility.yul\":24462:24518   */\n      not\n        /* \"#utility.yul\":24547:24551   */\n      dup1\n        /* \"#utility.yul\":24541:24545   */\n      dup4\n        /* \"#utility.yul\":24537:24552   */\n      and\n        /* \"#utility.yul\":24527:24552   */\n      swap2\n      pop\n        /* \"#utility.yul\":24440:24558   */\n      pop\n        /* \"#utility.yul\":24389:24558   */\n      swap3\n      swap2\n      pop\n      pop\n      jump\t// out\n        /* \"#utility.yul\":24563:24858   */\n    tag_380:\n        /* \"#utility.yul\":24639:24643   */\n      0x00\n        /* \"#utility.yul\":24785:24814   */\n      tag_625\n        /* \"#utility.yul\":24810:24813   */\n      dup4\n        /* \"#utility.yul\":24804:24808   */\n      dup4\n        /* \"#utility.yul\":24785:24814   */\n      tag_379\n      jump\t// in\n    tag_625:\n        /* \"#utility.yul\":24777:24814   */\n      swap2\n      pop\n        /* \"#utility.yul\":24847:24850   */\n      dup3\n        /* \"#utility.yul\":24844:24845   */\n      0x02\n        /* \"#utility.yul\":24840:24851   */\n      mul\n        /* \"#utility.yul\":24834:24838   */\n      dup3\n        /* \"#utility.yul\":24831:24852   */\n      or\n        /* \"#utility.yul\":24823:24852   */\n      swap1\n      pop\n        /* \"#utility.yul\":24563:24858   */\n      swap3\n      swap2\n      pop\n      pop\n      jump\t// out\n        /* \"#utility.yul\":24863:26266   */\n    tag_145:\n        /* \"#utility.yul\":24987:25031   */\n      tag_627\n        /* \"#utility.yul\":25027:25030   */\n      dup4\n        /* \"#utility.yul\":25022:25025   */\n      dup4\n        /* \"#utility.yul\":24987:25031   */\n      tag_364\n      jump\t// in\n    tag_627:\n        /* \"#utility.yul\":25096:25114   */\n      0xffffffffffffffff\n        /* \"#utility.yul\":25088:25094   */\n      dup2\n        /* \"#utility.yul\":25085:25115   */\n      gt\n        /* \"#utility.yul\":25082:25138   */\n      iszero\n      tag_628\n      jumpi\n        /* \"#utility.yul\":25118:25136   */\n      tag_629\n      tag_365\n      jump\t// in\n    tag_629:\n        /* \"#utility.yul\":25082:25138   */\n    tag_628:\n        /* \"#utility.yul\":25162:25200   */\n      tag_630\n        /* \"#utility.yul\":25194:25198   */\n      dup3\n        /* \"#utility.yul\":25188:25199   */\n      sload\n        /* \"#utility.yul\":25162:25200   */\n      tag_91\n      jump\t// in\n    tag_630:\n        /* \"#utility.yul\":25247:25314   */\n      tag_631\n        /* \"#utility.yul\":25307:25313   */\n      dup3\n        /* \"#utility.yul\":25299:25305   */\n      dup3\n        /* \"#utility.yul\":25293:25297   */\n      dup6\n        /* \"#utility.yul\":25247:25314   */\n      tag_377\n      jump\t// in\n    tag_631:\n        /* \"#utility.yul\":25341:25342   */\n      0x00\n        /* \"#utility.yul\":25370:25372   */\n      0x1f\n        /* \"#utility.yul\":25362:25368   */\n      dup4\n        /* \"#utility.yul\":25359:25373   */\n      gt\n        /* \"#utility.yul\":25387:25388   */\n      0x01\n        /* \"#utility.yul\":25382:26014   */\n      dup2\n      eq\n      tag_633\n      jumpi\n        /* \"#utility.yul\":26058:26059   */\n      0x00\n        /* \"#utility.yul\":26075:26081   */\n      dup5\n        /* \"#utility.yul\":26072:26156   */\n      iszero\n      tag_634\n      jumpi\n        /* \"#utility.yul\":26131:26140   */\n      dup3\n        /* \"#utility.yul\":26126:26129   */\n      dup8\n        /* \"#utility.yul\":26122:26141   */\n      add\n        /* \"#utility.yul\":26109:26142   */\n      calldataload\n        /* \"#utility.yul\":26100:26142   */\n      swap1\n      pop\n        /* \"#utility.yul\":26072:26156   */\n    tag_634:\n        /* \"#utility.yul\":26182:26249   */\n      tag_635\n        /* \"#utility.yul\":26242:26248   */\n      dup6\n        /* \"#utility.yul\":26235:26240   */\n      dup3\n        /* \"#utility.yul\":26182:26249   */\n      tag_380\n      jump\t// in\n    tag_635:\n        /* \"#utility.yul\":26176:26180   */\n      dup7\n        /* \"#utility.yul\":26169:26250   */\n      sstore\n        /* \"#utility.yul\":26031:26260   */\n      pop\n        /* \"#utility.yul\":25352:26260   */\n      jump(tag_632)\n        /* \"#utility.yul\":25382:26014   */\n    tag_633:\n        /* \"#utility.yul\":25434:25438   */\n      0x1f\n        /* \"#utility.yul\":25430:25439   */\n      not\n        /* \"#utility.yul\":25422:25428   */\n      dup5\n        /* \"#utility.yul\":25418:25440   */\n      and\n        /* \"#utility.yul\":25468:25505   */\n      tag_636\n        /* \"#utility.yul\":25500:25504   */\n      dup7\n        /* \"#utility.yul\":25468:25505   */\n      tag_366\n      jump\t// in\n    tag_636:\n        /* \"#utility.yul\":25527:25528   */\n      0x00\n        /* \"#utility.yul\":25541:25756   */\n    tag_637:\n        /* \"#utility.yul\":25555:25562   */\n      dup3\n        /* \"#utility.yul\":25552:25553   */\n      dup2\n        /* \"#utility.yul\":25549:25563   */\n      lt\n        /* \"#utility.yul\":25541:25756   */\n      iszero\n      tag_639\n      jumpi\n        /* \"#utility.yul\":25641:25650   */\n      dup5\n        /* \"#utility.yul\":25636:25639   */\n      dup10\n        /* \"#utility.yul\":25632:25651   */\n      add\n        /* \"#utility.yul\":25619:25652   */\n      calldataload\n        /* \"#utility.yul\":25611:25617   */\n      dup3\n        /* \"#utility.yul\":25604:25653   */\n      sstore\n        /* \"#utility.yul\":25692:25693   */\n      0x01\n        /* \"#utility.yul\":25684:25690   */\n      dup3\n        /* \"#utility.yul\":25680:25694   */\n      add\n        /* \"#utility.yul\":25670:25694   */\n      swap2\n      pop\n        /* \"#utility.yul\":25739:25741   */\n      0x20\n        /* \"#utility.yul\":25728:25737   */\n      dup6\n        /* \"#utility.yul\":25724:25742   */\n      add\n        /* \"#utility.yul\":25711:25742   */\n      swap5\n      pop\n        /* \"#utility.yul\":25578:25582   */\n      0x20\n        /* \"#utility.yul\":25575:25576   */\n      dup2\n        /* \"#utility.yul\":25571:25583   */\n      add\n        /* \"#utility.yul\":25566:25583   */\n      swap1\n      pop\n        /* \"#utility.yul\":25541:25756   */\n      jump(tag_637)\n    tag_639:\n        /* \"#utility.yul\":25784:25790   */\n      dup7\n        /* \"#utility.yul\":25775:25782   */\n      dup4\n        /* \"#utility.yul\":25772:25791   */\n      lt\n        /* \"#utility.yul\":25769:25955   */\n      iszero\n      tag_640\n      jumpi\n        /* \"#utility.yul\":25849:25858   */\n      dup5\n        /* \"#utility.yul\":25844:25847   */\n      dup10\n        /* \"#utility.yul\":25840:25859   */\n      add\n        /* \"#utility.yul\":25827:25860   */\n      calldataload\n        /* \"#utility.yul\":25892:25940   */\n      tag_641\n        /* \"#utility.yul\":25934:25938   */\n      0x1f\n        /* \"#utility.yul\":25926:25932   */\n      dup10\n        /* \"#utility.yul\":25922:25939   */\n      and\n        /* \"#utility.yul\":25911:25920   */\n      dup3\n        /* \"#utility.yul\":25892:25940   */\n      tag_379\n      jump\t// in\n    tag_641:\n        /* \"#utility.yul\":25884:25890   */\n      dup4\n        /* \"#utility.yul\":25877:25941   */\n      sstore\n        /* \"#utility.yul\":25792:25955   */\n      pop\n        /* \"#utility.yul\":25769:25955   */\n    tag_640:\n        /* \"#utility.yul\":26001:26002   */\n      0x01\n        /* \"#utility.yul\":25997:25998   */\n      0x02\n        /* \"#utility.yul\":25989:25995   */\n      dup9\n        /* \"#utility.yul\":25985:25999   */\n      mul\n        /* \"#utility.yul\":25981:26003   */\n      add\n        /* \"#utility.yul\":25975:25979   */\n      dup9\n        /* \"#utility.yul\":25968:26004   */\n      sstore\n        /* \"#utility.yul\":25389:26014   */\n      pop\n      pop\n      pop\n        /* \"#utility.yul\":25352:26260   */\n    tag_632:\n      pop\n        /* \"#utility.yul\":24962:26266   */\n      pop\n      pop\n      pop\n        /* \"#utility.yul\":24863:26266   */\n      pop\n      pop\n      pop\n      jump\t// out\n        /* \"#utility.yul\":26272:26420   */\n    tag_381:\n        /* \"#utility.yul\":26374:26385   */\n      0x00\n        /* \"#utility.yul\":26411:26414   */\n      dup2\n        /* \"#utility.yul\":26396:26414   */\n      swap1\n      pop\n        /* \"#utility.yul\":26272:26420   */\n      swap3\n      swap2\n      pop\n      pop\n      jump\t// out\n        /* \"#utility.yul\":26426:26574   */\n    tag_382:\n        /* \"#utility.yul\":26524:26530   */\n      dup3\n        /* \"#utility.yul\":26519:26522   */\n      dup2\n        /* \"#utility.yul\":26514:26517   */\n      dup4\n        /* \"#utility.yul\":26501:26531   */\n      calldatacopy\n        /* \"#utility.yul\":26565:26566   */\n      0x00\n        /* \"#utility.yul\":26556:26562   */\n      dup4\n        /* \"#utility.yul\":26551:26554   */\n      dup4\n        /* \"#utility.yul\":26547:26563   */\n      add\n        /* \"#utility.yul\":26540:26567   */\n      mstore\n        /* \"#utility.yul\":26426:26574   */\n      pop\n      pop\n      pop\n      jump\t// out\n        /* \"#utility.yul\":26604:26934   */\n    tag_383:\n        /* \"#utility.yul\":26720:26723   */\n      0x00\n        /* \"#utility.yul\":26741:26830   */\n      tag_645\n        /* \"#utility.yul\":26823:26829   */\n      dup4\n        /* \"#utility.yul\":26818:26821   */\n      dup6\n        /* \"#utility.yul\":26741:26830   */\n      tag_381\n      jump\t// in\n    tag_645:\n        /* \"#utility.yul\":26734:26830   */\n      swap4\n      pop\n        /* \"#utility.yul\":26840:26896   */\n      tag_646\n        /* \"#utility.yul\":26889:26895   */\n      dup4\n        /* \"#utility.yul\":26884:26887   */\n      dup6\n        /* \"#utility.yul\":26877:26882   */\n      dup5\n        /* \"#utility.yul\":26840:26896   */\n      tag_382\n      jump\t// in\n    tag_646:\n        /* \"#utility.yul\":26921:26927   */\n      dup3\n        /* \"#utility.yul\":26916:26919   */\n      dup5\n        /* \"#utility.yul\":26912:26928   */\n      add\n        /* \"#utility.yul\":26905:26928   */\n      swap1\n      pop\n        /* \"#utility.yul\":26604:26934   */\n      swap4\n      swap3\n      pop\n      pop\n      pop\n      jump\t// out\n        /* \"#utility.yul\":26940:27235   */\n    tag_148:\n        /* \"#utility.yul\":27082:27085   */\n      0x00\n        /* \"#utility.yul\":27104:27209   */\n      tag_648\n        /* \"#utility.yul\":27205:27208   */\n      dup3\n        /* \"#utility.yul\":27196:27202   */\n      dup5\n        /* \"#utility.yul\":27188:27194   */\n      dup7\n        /* \"#utility.yul\":27104:27209   */\n      tag_383\n      jump\t// in\n    tag_648:\n        /* \"#utility.yul\":27097:27209   */\n      swap2\n      pop\n        /* \"#utility.yul\":27226:27229   */\n      dup2\n        /* \"#utility.yul\":27219:27229   */\n      swap1\n      pop\n        /* \"#utility.yul\":26940:27235   */\n      swap4\n      swap3\n      pop\n      pop\n      pop\n      jump\t// out\n        /* \"#utility.yul\":27241:27413   */\n    tag_384:\n        /* \"#utility.yul\":27381:27405   */\n      0x4578706f7274657220616c726561647920616464656400000000000000000000\n        /* \"#utility.yul\":27377:27378   */\n      0x00\n        /* \"#utility.yul\":27369:27375   */\n      dup3\n        /* \"#utility.yul\":27365:27379   */\n      add\n        /* \"#utility.yul\":27358:27406   */\n      mstore\n        /* \"#utility.yul\":27241:27413   */\n      pop\n      jump\t// out\n        /* \"#utility.yul\":27419:27785   */\n    tag_385:\n        /* \"#utility.yul\":27561:27564   */\n      0x00\n        /* \"#utility.yul\":27582:27649   */\n      tag_651\n        /* \"#utility.yul\":27646:27648   */\n      0x16\n        /* \"#utility.yul\":27641:27644   */\n      dup4\n        /* \"#utility.yul\":27582:27649   */\n      tag_331\n      jump\t// in\n    tag_651:\n        /* \"#utility.yul\":27575:27649   */\n      swap2\n      pop\n        /* \"#utility.yul\":27658:27751   */\n      tag_652\n        /* \"#utility.yul\":27747:27750   */\n      dup3\n        /* \"#utility.yul\":27658:27751   */\n      tag_384\n      jump\t// in\n    tag_652:\n        /* \"#utility.yul\":27776:27778   */\n      0x20\n        /* \"#utility.yul\":27771:27774   */\n      dup3\n        /* \"#utility.yul\":27767:27779   */\n      add\n        /* \"#utility.yul\":27760:27779   */\n      swap1\n      pop\n        /* \"#utility.yul\":27419:27785   */\n      swap2\n      swap1\n      pop\n      jump\t// out\n        /* \"#utility.yul\":27791:28210   */\n    tag_169:\n        /* \"#utility.yul\":27957:27961   */\n      0x00\n        /* \"#utility.yul\":27995:27997   */\n      0x20\n        /* \"#utility.yul\":27984:27993   */\n      dup3\n        /* \"#utility.yul\":27980:27998   */\n      add\n        /* \"#utility.yul\":27972:27998   */\n      swap1\n      pop\n        /* \"#utility.yul\":28044:28053   */\n      dup2\n        /* \"#utility.yul\":28038:28042   */\n      dup2\n        /* \"#utility.yul\":28034:28054   */\n      sub\n        /* \"#utility.yul\":28030:28031   */\n      0x00\n        /* \"#utility.yul\":28019:28028   */\n      dup4\n        /* \"#utility.yul\":28015:28032   */\n      add\n        /* \"#utility.yul\":28008:28055   */\n      mstore\n        /* \"#utility.yul\":28072:28203   */\n      tag_654\n        /* \"#utility.yul\":28198:28202   */\n      dup2\n        /* \"#utility.yul\":28072:28203   */\n      tag_385\n      jump\t// in\n    tag_654:\n        /* \"#utility.yul\":28064:28203   */\n      swap1\n      pop\n        /* \"#utility.yul\":27791:28210   */\n      swap2\n      swap1\n      pop\n      jump\t// out\n        /* \"#utility.yul\":28216:29611   */\n    tag_171:\n        /* \"#utility.yul\":28333:28370   */\n      tag_656\n        /* \"#utility.yul\":28366:28369   */\n      dup3\n        /* \"#utility.yul\":28333:28370   */\n      tag_330\n      jump\t// in\n    tag_656:\n        /* \"#utility.yul\":28435:28453   */\n      0xffffffffffffffff\n        /* \"#utility.yul\":28427:28433   */\n      dup2\n        /* \"#utility.yul\":28424:28454   */\n      gt\n        /* \"#utility.yul\":28421:28477   */\n      iszero\n      tag_657\n      jumpi\n        /* \"#utility.yul\":28457:28475   */\n      tag_658\n      tag_365\n      jump\t// in\n    tag_658:\n        /* \"#utility.yul\":28421:28477   */\n    tag_657:\n        /* \"#utility.yul\":28501:28539   */\n      tag_659\n        /* \"#utility.yul\":28533:28537   */\n      dup3\n        /* \"#utility.yul\":28527:28538   */\n      sload\n        /* \"#utility.yul\":28501:28539   */\n      tag_91\n      jump\t// in\n    tag_659:\n        /* \"#utility.yul\":28586:28653   */\n      tag_660\n        /* \"#utility.yul\":28646:28652   */\n      dup3\n        /* \"#utility.yul\":28638:28644   */\n      dup3\n        /* \"#utility.yul\":28632:28636   */\n      dup6\n        /* \"#utility.yul\":28586:28653   */\n      tag_377\n      jump\t// in\n    tag_660:\n        /* \"#utility.yul\":28680:28681   */\n      0x00\n        /* \"#utility.yul\":28704:28708   */\n      0x20\n        /* \"#utility.yul\":28691:28708   */\n      swap1\n      pop\n        /* \"#utility.yul\":28736:28738   */\n      0x1f\n        /* \"#utility.yul\":28728:28734   */\n      dup4\n        /* \"#utility.yul\":28725:28739   */\n      gt\n        /* \"#utility.yul\":28753:28754   */\n      0x01\n        /* \"#utility.yul\":28748:29366   */\n      dup2\n      eq\n      tag_662\n      jumpi\n        /* \"#utility.yul\":29410:29411   */\n      0x00\n        /* \"#utility.yul\":29427:29433   */\n      dup5\n        /* \"#utility.yul\":29424:29501   */\n      iszero\n      tag_663\n      jumpi\n        /* \"#utility.yul\":29476:29485   */\n      dup3\n        /* \"#utility.yul\":29471:29474   */\n      dup8\n        /* \"#utility.yul\":29467:29486   */\n      add\n        /* \"#utility.yul\":29461:29487   */\n      mload\n        /* \"#utility.yul\":29452:29487   */\n      swap1\n      pop\n        /* \"#utility.yul\":29424:29501   */\n    tag_663:\n        /* \"#utility.yul\":29527:29594   */\n      tag_664\n        /* \"#utility.yul\":29587:29593   */\n      dup6\n        /* \"#utility.yul\":29580:29585   */\n      dup3\n        /* \"#utility.yul\":29527:29594   */\n      tag_380\n      jump\t// in\n    tag_664:\n        /* \"#utility.yul\":29521:29525   */\n      dup7\n        /* \"#utility.yul\":29514:29595   */\n      sstore\n        /* \"#utility.yul\":29383:29605   */\n      pop\n        /* \"#utility.yul\":28718:29605   */\n      jump(tag_661)\n        /* \"#utility.yul\":28748:29366   */\n    tag_662:\n        /* \"#utility.yul\":28800:28804   */\n      0x1f\n        /* \"#utility.yul\":28796:28805   */\n      not\n        /* \"#utility.yul\":28788:28794   */\n      dup5\n        /* \"#utility.yul\":28784:28806   */\n      and\n        /* \"#utility.yul\":28834:28871   */\n      tag_665\n        /* \"#utility.yul\":28866:28870   */\n      dup7\n        /* \"#utility.yul\":28834:28871   */\n      tag_366\n      jump\t// in\n    tag_665:\n        /* \"#utility.yul\":28893:28894   */\n      0x00\n        /* \"#utility.yul\":28907:29115   */\n    tag_666:\n        /* \"#utility.yul\":28921:28928   */\n      dup3\n        /* \"#utility.yul\":28918:28919   */\n      dup2\n        /* \"#utility.yul\":28915:28929   */\n      lt\n        /* \"#utility.yul\":28907:29115   */\n      iszero\n      tag_668\n      jumpi\n        /* \"#utility.yul\":29000:29009   */\n      dup5\n        /* \"#utility.yul\":28995:28998   */\n      dup10\n        /* \"#utility.yul\":28991:29010   */\n      add\n        /* \"#utility.yul\":28985:29011   */\n      mload\n        /* \"#utility.yul\":28977:28983   */\n      dup3\n        /* \"#utility.yul\":28970:29012   */\n      sstore\n        /* \"#utility.yul\":29051:29052   */\n      0x01\n        /* \"#utility.yul\":29043:29049   */\n      dup3\n        /* \"#utility.yul\":29039:29053   */\n      add\n        /* \"#utility.yul\":29029:29053   */\n      swap2\n      pop\n        /* \"#utility.yul\":29098:29100   */\n      0x20\n        /* \"#utility.yul\":29087:29096   */\n      dup6\n        /* \"#utility.yul\":29083:29101   */\n      add\n        /* \"#utility.yul\":29070:29101   */\n      swap5\n      pop\n        /* \"#utility.yul\":28944:28948   */\n      0x20\n        /* \"#utility.yul\":28941:28942   */\n      dup2\n        /* \"#utility.yul\":28937:28949   */\n      add\n        /* \"#utility.yul\":28932:28949   */\n      swap1\n      pop\n        /* \"#utility.yul\":28907:29115   */\n      jump(tag_666)\n    tag_668:\n        /* \"#utility.yul\":29143:29149   */\n      dup7\n        /* \"#utility.yul\":29134:29141   */\n      dup4\n        /* \"#utility.yul\":29131:29150   */\n      lt\n        /* \"#utility.yul\":29128:29307   */\n      iszero\n      tag_669\n      jumpi\n        /* \"#utility.yul\":29201:29210   */\n      dup5\n        /* \"#utility.yul\":29196:29199   */\n      dup10\n        /* \"#utility.yul\":29192:29211   */\n      add\n        /* \"#utility.yul\":29186:29212   */\n      mload\n        /* \"#utility.yul\":29244:29292   */\n      tag_670\n        /* \"#utility.yul\":29286:29290   */\n      0x1f\n        /* \"#utility.yul\":29278:29284   */\n      dup10\n        /* \"#utility.yul\":29274:29291   */\n      and\n        /* \"#utility.yul\":29263:29272   */\n      dup3\n        /* \"#utility.yul\":29244:29292   */\n      tag_379\n      jump\t// in\n    tag_670:\n        /* \"#utility.yul\":29236:29242   */\n      dup4\n        /* \"#utility.yul\":29229:29293   */\n      sstore\n        /* \"#utility.yul\":29151:29307   */\n      pop\n        /* \"#utility.yul\":29128:29307   */\n    tag_669:\n        /* \"#utility.yul\":29353:29354   */\n      0x01\n        /* \"#utility.yul\":29349:29350   */\n      0x02\n        /* \"#utility.yul\":29341:29347   */\n      dup9\n        /* \"#utility.yul\":29337:29351   */\n      mul\n        /* \"#utility.yul\":29333:29355   */\n      add\n        /* \"#utility.yul\":29327:29331   */\n      dup9\n        /* \"#utility.yul\":29320:29356   */\n      sstore\n        /* \"#utility.yul\":28755:29366   */\n      pop\n      pop\n      pop\n        /* \"#utility.yul\":28718:29605   */\n    tag_661:\n      pop\n        /* \"#utility.yul\":28308:29611   */\n      pop\n      pop\n      pop\n        /* \"#utility.yul\":28216:29611   */\n      pop\n      pop\n      jump\t// out\n        /* \"#utility.yul\":29617:29797   */\n    tag_386:\n        /* \"#utility.yul\":29665:29742   */\n      0x4e487b7100000000000000000000000000000000000000000000000000000000\n        /* \"#utility.yul\":29662:29663   */\n      0x00\n        /* \"#utility.yul\":29655:29743   */\n      mstore\n        /* \"#utility.yul\":29762:29766   */\n      0x11\n        /* \"#utility.yul\":29759:29760   */\n      0x04\n        /* \"#utility.yul\":29752:29767   */\n      mstore\n        /* \"#utility.yul\":29786:29790   */\n      0x24\n        /* \"#utility.yul\":29783:29784   */\n      0x00\n        /* \"#utility.yul\":29776:29791   */\n      revert\n        /* \"#utility.yul\":29803:29974   */\n    tag_174:\n        /* \"#utility.yul\":29841:29844   */\n      0x00\n        /* \"#utility.yul\":29864:29887   */\n      tag_673\n        /* \"#utility.yul\":29881:29886   */\n      dup3\n        /* \"#utility.yul\":29864:29887   */\n      tag_355\n      jump\t// in\n    tag_673:\n        /* \"#utility.yul\":29855:29887   */\n      swap2\n      pop\n        /* \"#utility.yul\":29909:29915   */\n      0xffff\n        /* \"#utility.yul\":29902:29907   */\n      dup3\n        /* \"#utility.yul\":29899:29916   */\n      sub\n        /* \"#utility.yul\":29896:29939   */\n      tag_674\n      jumpi\n        /* \"#utility.yul\":29919:29937   */\n      tag_675\n      tag_386\n      jump\t// in\n    tag_675:\n        /* \"#utility.yul\":29896:29939   */\n    tag_674:\n        /* \"#utility.yul\":29966:29967   */\n      0x01\n        /* \"#utility.yul\":29959:29964   */\n      dup3\n        /* \"#utility.yul\":29955:29968   */\n      add\n        /* \"#utility.yul\":29948:29968   */\n      swap1\n      pop\n        /* \"#utility.yul\":29803:29974   */\n      swap2\n      swap1\n      pop\n      jump\t// out\n        /* \"#utility.yul\":29980:30160   */\n    tag_198:\n        /* \"#utility.yul\":30028:30105   */\n      0x4e487b7100000000000000000000000000000000000000000000000000000000\n        /* \"#utility.yul\":30025:30026   */\n      0x00\n        /* \"#utility.yul\":30018:30106   */\n      mstore\n        /* \"#utility.yul\":30125:30129   */\n      0x01\n        /* \"#utility.yul\":30122:30123   */\n      0x04\n        /* \"#utility.yul\":30115:30130   */\n      mstore\n        /* \"#utility.yul\":30149:30153   */\n      0x24\n        /* \"#utility.yul\":30146:30147   */\n      0x00\n        /* \"#utility.yul\":30139:30154   */\n      revert\n        /* \"#utility.yul\":30166:30346   */\n    tag_214:\n        /* \"#utility.yul\":30214:30291   */\n      0x4e487b7100000000000000000000000000000000000000000000000000000000\n        /* \"#utility.yul\":30211:30212   */\n      0x00\n        /* \"#utility.yul\":30204:30292   */\n      mstore\n        /* \"#utility.yul\":30311:30315   */\n      0x32\n        /* \"#utility.yul\":30308:30309   */\n      0x04\n        /* \"#utility.yul\":30301:30316   */\n      mstore\n        /* \"#utility.yul\":30335:30339   */\n      0x24\n        /* \"#utility.yul\":30332:30333   */\n      0x00\n        /* \"#utility.yul\":30325:30340   */\n      revert\n        /* \"#utility.yul\":30352:30546   */\n    tag_218:\n        /* \"#utility.yul\":30392:30396   */\n      0x00\n        /* \"#utility.yul\":30412:30432   */\n      tag_679\n        /* \"#utility.yul\":30430:30431   */\n      dup3\n        /* \"#utility.yul\":30412:30432   */\n      tag_337\n      jump\t// in\n    tag_679:\n        /* \"#utility.yul\":30407:30432   */\n      swap2\n      pop\n        /* \"#utility.yul\":30446:30466   */\n      tag_680\n        /* \"#utility.yul\":30464:30465   */\n      dup4\n        /* \"#utility.yul\":30446:30466   */\n      tag_337\n      jump\t// in\n    tag_680:\n        /* \"#utility.yul\":30441:30466   */\n      swap3\n      pop\n        /* \"#utility.yul\":30490:30491   */\n      dup3\n        /* \"#utility.yul\":30487:30488   */\n      dup3\n        /* \"#utility.yul\":30483:30492   */\n      sub\n        /* \"#utility.yul\":30475:30492   */\n      swap1\n      pop\n        /* \"#utility.yul\":30514:30515   */\n      dup2\n        /* \"#utility.yul\":30508:30512   */\n      dup2\n        /* \"#utility.yul\":30505:30516   */\n      gt\n        /* \"#utility.yul\":30502:30539   */\n      iszero\n      tag_681\n      jumpi\n        /* \"#utility.yul\":30519:30537   */\n      tag_682\n      tag_386\n      jump\t// in\n    tag_682:\n        /* \"#utility.yul\":30502:30539   */\n    tag_681:\n        /* \"#utility.yul\":30352:30546   */\n      swap3\n      swap2\n      pop\n      pop\n      jump\t// out\n        /* \"#utility.yul\":30552:30732   */\n    tag_227:\n        /* \"#utility.yul\":30600:30677   */\n      0x4e487b7100000000000000000000000000000000000000000000000000000000\n        /* \"#utility.yul\":30597:30598   */\n      0x00\n        /* \"#utility.yul\":30590:30678   */\n      mstore\n        /* \"#utility.yul\":30697:30701   */\n      0x31\n        /* \"#utility.yul\":30694:30695   */\n      0x04\n        /* \"#utility.yul\":30687:30702   */\n      mstore\n        /* \"#utility.yul\":30721:30725   */\n      0x24\n        /* \"#utility.yul\":30718:30719   */\n      0x00\n        /* \"#utility.yul\":30711:30726   */\n      revert\n        /* \"#utility.yul\":30738:30907   */\n    tag_230:\n        /* \"#utility.yul\":30776:30779   */\n      0x00\n        /* \"#utility.yul\":30799:30822   */\n      tag_685\n        /* \"#utility.yul\":30816:30821   */\n      dup3\n        /* \"#utility.yul\":30799:30822   */\n      tag_355\n      jump\t// in\n    tag_685:\n        /* \"#utility.yul\":30790:30822   */\n      swap2\n      pop\n        /* \"#utility.yul\":30844:30848   */\n      0x00\n        /* \"#utility.yul\":30837:30842   */\n      dup3\n        /* \"#utility.yul\":30834:30849   */\n      sub\n        /* \"#utility.yul\":30831:30872   */\n      tag_686\n      jumpi\n        /* \"#utility.yul\":30852:30870   */\n      tag_687\n      tag_386\n      jump\t// in\n    tag_687:\n        /* \"#utility.yul\":30831:30872   */\n    tag_686:\n        /* \"#utility.yul\":30899:30900   */\n      0x01\n        /* \"#utility.yul\":30892:30897   */\n      dup3\n        /* \"#utility.yul\":30888:30901   */\n      sub\n        /* \"#utility.yul\":30881:30901   */\n      swap1\n      pop\n        /* \"#utility.yul\":30738:30907   */\n      swap2\n      swap1\n      pop\n      jump\t// out\n        /* \"#utility.yul\":30913:31134   */\n    tag_387:\n        /* \"#utility.yul\":31053:31087   */\n      0x43616c6c6572206973206e6f7420616e20617070726f766564204578706f7274\n        /* \"#utility.yul\":31049:31050   */\n      0x00\n        /* \"#utility.yul\":31041:31047   */\n      dup3\n        /* \"#utility.yul\":31037:31051   */\n      add\n        /* \"#utility.yul\":31030:31088   */\n      mstore\n        /* \"#utility.yul\":31122:31126   */\n      0x6572000000000000000000000000000000000000000000000000000000000000\n        /* \"#utility.yul\":31117:31119   */\n      0x20\n        /* \"#utility.yul\":31109:31115   */\n      dup3\n        /* \"#utility.yul\":31105:31120   */\n      add\n        /* \"#utility.yul\":31098:31127   */\n      mstore\n        /* \"#utility.yul\":30913:31134   */\n      pop\n      jump\t// out\n        /* \"#utility.yul\":31140:31506   */\n    tag_388:\n        /* \"#utility.yul\":31282:31285   */\n      0x00\n        /* \"#utility.yul\":31303:31370   */\n      tag_690\n        /* \"#utility.yul\":31367:31369   */\n      0x22\n        /* \"#utility.yul\":31362:31365   */\n      dup4\n        /* \"#utility.yul\":31303:31370   */\n      tag_331\n      jump\t// in\n    tag_690:\n        /* \"#utility.yul\":31296:31370   */\n      swap2\n      pop\n        /* \"#utility.yul\":31379:31472   */\n      tag_691\n        /* \"#utility.yul\":31468:31471   */\n      dup3\n        /* \"#utility.yul\":31379:31472   */\n      tag_387\n      jump\t// in\n    tag_691:\n        /* \"#utility.yul\":31497:31499   */\n      0x40\n        /* \"#utility.yul\":31492:31495   */\n      dup3\n        /* \"#utility.yul\":31488:31500   */\n      add\n        /* \"#utility.yul\":31481:31500   */\n      swap1\n      pop\n        /* \"#utility.yul\":31140:31506   */\n      swap2\n      swap1\n      pop\n      jump\t// out\n        /* \"#utility.yul\":31512:31931   */\n    tag_235:\n        /* \"#utility.yul\":31678:31682   */\n      0x00\n        /* \"#utility.yul\":31716:31718   */\n      0x20\n        /* \"#utility.yul\":31705:31714   */\n      dup3\n        /* \"#utility.yul\":31701:31719   */\n      add\n        /* \"#utility.yul\":31693:31719   */\n      swap1\n      pop\n        /* \"#utility.yul\":31765:31774   */\n      dup2\n        /* \"#utility.yul\":31759:31763   */\n      dup2\n        /* \"#utility.yul\":31755:31775   */\n      sub\n        /* \"#utility.yul\":31751:31752   */\n      0x00\n        /* \"#utility.yul\":31740:31749   */\n      dup4\n        /* \"#utility.yul\":31736:31753   */\n      add\n        /* \"#utility.yul\":31729:31776   */\n      mstore\n        /* \"#utility.yul\":31793:31924   */\n      tag_693\n        /* \"#utility.yul\":31919:31923   */\n      dup2\n        /* \"#utility.yul\":31793:31924   */\n      tag_388\n      jump\t// in\n    tag_693:\n        /* \"#utility.yul\":31785:31924   */\n      swap1\n      pop\n        /* \"#utility.yul\":31512:31931   */\n      swap2\n      swap1\n      pop\n      jump\t// out\n        /* \"#utility.yul\":31937:32115   */\n    tag_389:\n        /* \"#utility.yul\":32077:32107   */\n      0x446f63756d656e74206861736820616c72656164792065786973747300000000\n        /* \"#utility.yul\":32073:32074   */\n      0x00\n        /* \"#utility.yul\":32065:32071   */\n      dup3\n        /* \"#utility.yul\":32061:32075   */\n      add\n        /* \"#utility.yul\":32054:32108   */\n      mstore\n        /* \"#utility.yul\":31937:32115   */\n      pop\n      jump\t// out\n        /* \"#utility.yul\":32121:32487   */\n    tag_390:\n        /* \"#utility.yul\":32263:32266   */\n      0x00\n        /* \"#utility.yul\":32284:32351   */\n      tag_696\n        /* \"#utility.yul\":32348:32350   */\n      0x1c\n        /* \"#utility.yul\":32343:32346   */\n      dup4\n        /* \"#utility.yul\":32284:32351   */\n      tag_331\n      jump\t// in\n    tag_696:\n        /* \"#utility.yul\":32277:32351   */\n      swap2\n      pop\n        /* \"#utility.yul\":32360:32453   */\n      tag_697\n        /* \"#utility.yul\":32449:32452   */\n      dup3\n        /* \"#utility.yul\":32360:32453   */\n      tag_389\n      jump\t// in\n    tag_697:\n        /* \"#utility.yul\":32478:32480   */\n      0x20\n        /* \"#utility.yul\":32473:32476   */\n      dup3\n        /* \"#utility.yul\":32469:32481   */\n      add\n        /* \"#utility.yul\":32462:32481   */\n      swap1\n      pop\n        /* \"#utility.yul\":32121:32487   */\n      swap2\n      swap1\n      pop\n      jump\t// out\n        /* \"#utility.yul\":32493:32912   */\n    tag_239:\n        /* \"#utility.yul\":32659:32663   */\n      0x00\n        /* \"#utility.yul\":32697:32699   */\n      0x20\n        /* \"#utility.yul\":32686:32695   */\n      dup3\n        /* \"#utility.yul\":32682:32700   */\n      add\n        /* \"#utility.yul\":32674:32700   */\n      swap1\n      pop\n        /* \"#utility.yul\":32746:32755   */\n      dup2\n        /* \"#utility.yul\":32740:32744   */\n      dup2\n        /* \"#utility.yul\":32736:32756   */\n      sub\n        /* \"#utility.yul\":32732:32733   */\n      0x00\n        /* \"#utility.yul\":32721:32730   */\n      dup4\n        /* \"#utility.yul\":32717:32734   */\n      add\n        /* \"#utility.yul\":32710:32757   */\n      mstore\n        /* \"#utility.yul\":32774:32905   */\n      tag_699\n        /* \"#utility.yul\":32900:32904   */\n      dup2\n        /* \"#utility.yul\":32774:32905   */\n      tag_390\n      jump\t// in\n    tag_699:\n        /* \"#utility.yul\":32766:32905   */\n      swap1\n      pop\n        /* \"#utility.yul\":32493:32912   */\n      swap2\n      swap1\n      pop\n      jump\t// out\n        /* \"#utility.yul\":32942:33259   */\n    tag_391:\n        /* \"#utility.yul\":33040:33043   */\n      0x00\n        /* \"#utility.yul\":33061:33132   */\n      tag_701\n        /* \"#utility.yul\":33125:33131   */\n      dup4\n        /* \"#utility.yul\":33120:33123   */\n      dup6\n        /* \"#utility.yul\":33061:33132   */\n      tag_331\n      jump\t// in\n    tag_701:\n        /* \"#utility.yul\":33054:33132   */\n      swap4\n      pop\n        /* \"#utility.yul\":33142:33198   */\n      tag_702\n        /* \"#utility.yul\":33191:33197   */\n      dup4\n        /* \"#utility.yul\":33186:33189   */\n      dup6\n        /* \"#utility.yul\":33179:33184   */\n      dup5\n        /* \"#utility.yul\":33142:33198   */\n      tag_382\n      jump\t// in\n    tag_702:\n        /* \"#utility.yul\":33223:33252   */\n      tag_703\n        /* \"#utility.yul\":33245:33251   */\n      dup4\n        /* \"#utility.yul\":33223:33252   */\n      tag_333\n      jump\t// in\n    tag_703:\n        /* \"#utility.yul\":33218:33221   */\n      dup5\n        /* \"#utility.yul\":33214:33253   */\n      add\n        /* \"#utility.yul\":33207:33253   */\n      swap1\n      pop\n        /* \"#utility.yul\":32942:33259   */\n      swap4\n      swap3\n      pop\n      pop\n      pop\n      jump\t// out\n        /* \"#utility.yul\":33265:33598   */\n    tag_249:\n        /* \"#utility.yul\":33388:33392   */\n      0x00\n        /* \"#utility.yul\":33426:33428   */\n      0x20\n        /* \"#utility.yul\":33415:33424   */\n      dup3\n        /* \"#utility.yul\":33411:33429   */\n      add\n        /* \"#utility.yul\":33403:33429   */\n      swap1\n      pop\n        /* \"#utility.yul\":33475:33484   */\n      dup2\n        /* \"#utility.yul\":33469:33473   */\n      dup2\n        /* \"#utility.yul\":33465:33485   */\n      sub\n        /* \"#utility.yul\":33461:33462   */\n      0x00\n        /* \"#utility.yul\":33450:33459   */\n      dup4\n        /* \"#utility.yul\":33446:33463   */\n      add\n        /* \"#utility.yul\":33439:33486   */\n      mstore\n        /* \"#utility.yul\":33503:33591   */\n      tag_705\n        /* \"#utility.yul\":33586:33590   */\n      dup2\n        /* \"#utility.yul\":33577:33583   */\n      dup5\n        /* \"#utility.yul\":33569:33575   */\n      dup7\n        /* \"#utility.yul\":33503:33591   */\n      tag_391\n      jump\t// in\n    tag_705:\n        /* \"#utility.yul\":33495:33591   */\n      swap1\n      pop\n        /* \"#utility.yul\":33265:33598   */\n      swap4\n      swap3\n      pop\n      pop\n      pop\n      jump\t// out\n        /* \"#utility.yul\":33628:34502   */\n    tag_392:\n        /* \"#utility.yul\":33731:33734   */\n      0x00\n        /* \"#utility.yul\":33768:33773   */\n      dup2\n        /* \"#utility.yul\":33762:33774   */\n      sload\n        /* \"#utility.yul\":33797:33833   */\n      tag_707\n        /* \"#utility.yul\":33823:33832   */\n      dup2\n        /* \"#utility.yul\":33797:33833   */\n      tag_91\n      jump\t// in\n    tag_707:\n        /* \"#utility.yul\":33849:33938   */\n      tag_708\n        /* \"#utility.yul\":33931:33937   */\n      dup2\n        /* \"#utility.yul\":33926:33929   */\n      dup7\n        /* \"#utility.yul\":33849:33938   */\n      tag_381\n      jump\t// in\n    tag_708:\n        /* \"#utility.yul\":33842:33938   */\n      swap5\n      pop\n        /* \"#utility.yul\":33969:33970   */\n      0x01\n        /* \"#utility.yul\":33958:33967   */\n      dup3\n        /* \"#utility.yul\":33954:33971   */\n      and\n        /* \"#utility.yul\":33985:33986   */\n      0x00\n        /* \"#utility.yul\":33980:34146   */\n      dup2\n      eq\n      tag_710\n      jumpi\n        /* \"#utility.yul\":34160:34161   */\n      0x01\n        /* \"#utility.yul\":34155:34496   */\n      dup2\n      eq\n      tag_711\n      jumpi\n        /* \"#utility.yul\":33947:34496   */\n      jump(tag_709)\n        /* \"#utility.yul\":33980:34146   */\n    tag_710:\n        /* \"#utility.yul\":34064:34068   */\n      0xff\n        /* \"#utility.yul\":34060:34069   */\n      not\n        /* \"#utility.yul\":34049:34058   */\n      dup4\n        /* \"#utility.yul\":34045:34070   */\n      and\n        /* \"#utility.yul\":34040:34043   */\n      dup7\n        /* \"#utility.yul\":34033:34071   */\n      mstore\n        /* \"#utility.yul\":34126:34132   */\n      dup2\n        /* \"#utility.yul\":34119:34133   */\n      iszero\n        /* \"#utility.yul\":34112:34134   */\n      iszero\n        /* \"#utility.yul\":34104:34110   */\n      dup3\n        /* \"#utility.yul\":34100:34135   */\n      mul\n        /* \"#utility.yul\":34095:34098   */\n      dup7\n        /* \"#utility.yul\":34091:34136   */\n      add\n        /* \"#utility.yul\":34084:34136   */\n      swap4\n      pop\n        /* \"#utility.yul\":33980:34146   */\n      jump(tag_709)\n        /* \"#utility.yul\":34155:34496   */\n    tag_711:\n        /* \"#utility.yul\":34222:34260   */\n      tag_712\n        /* \"#utility.yul\":34254:34259   */\n      dup6\n        /* \"#utility.yul\":34222:34260   */\n      tag_366\n      jump\t// in\n    tag_712:\n        /* \"#utility.yul\":34282:34283   */\n      0x00\n        /* \"#utility.yul\":34296:34450   */\n    tag_713:\n        /* \"#utility.yul\":34310:34316   */\n      dup4\n        /* \"#utility.yul\":34307:34308   */\n      dup2\n        /* \"#utility.yul\":34304:34317   */\n      lt\n        /* \"#utility.yul\":34296:34450   */\n      iszero\n      tag_715\n      jumpi\n        /* \"#utility.yul\":34384:34391   */\n      dup2\n        /* \"#utility.yul\":34378:34392   */\n      sload\n        /* \"#utility.yul\":34374:34375   */\n      dup2\n        /* \"#utility.yul\":34369:34372   */\n      dup10\n        /* \"#utility.yul\":34365:34376   */\n      add\n        /* \"#utility.yul\":34358:34393   */\n      mstore\n        /* \"#utility.yul\":34434:34435   */\n      0x01\n        /* \"#utility.yul\":34425:34432   */\n      dup3\n        /* \"#utility.yul\":34421:34436   */\n      add\n        /* \"#utility.yul\":34410:34436   */\n      swap2\n      pop\n        /* \"#utility.yul\":34332:34336   */\n      0x20\n        /* \"#utility.yul\":34329:34330   */\n      dup2\n        /* \"#utility.yul\":34325:34337   */\n      add\n        /* \"#utility.yul\":34320:34337   */\n      swap1\n      pop\n        /* \"#utility.yul\":34296:34450   */\n      jump(tag_713)\n    tag_715:\n        /* \"#utility.yul\":34479:34485   */\n      dup4\n        /* \"#utility.yul\":34474:34477   */\n      dup9\n        /* \"#utility.yul\":34470:34486   */\n      add\n        /* \"#utility.yul\":34463:34486   */\n      swap6\n      pop\n        /* \"#utility.yul\":34162:34496   */\n      pop\n      pop\n        /* \"#utility.yul\":33947:34496   */\n    tag_709:\n      pop\n        /* \"#utility.yul\":33735:34502   */\n      pop\n      pop\n        /* \"#utility.yul\":33628:34502   */\n      swap3\n      swap2\n      pop\n      pop\n      jump\t// out\n        /* \"#utility.yul\":34508:34777   */\n    tag_264:\n        /* \"#utility.yul\":34637:34640   */\n      0x00\n        /* \"#utility.yul\":34659:34751   */\n      tag_717\n        /* \"#utility.yul\":34747:34750   */\n      dup3\n        /* \"#utility.yul\":34738:34744   */\n      dup5\n        /* \"#utility.yul\":34659:34751   */\n      tag_392\n      jump\t// in\n    tag_717:\n        /* \"#utility.yul\":34652:34751   */\n      swap2\n      pop\n        /* \"#utility.yul\":34768:34771   */\n      dup2\n        /* \"#utility.yul\":34761:34771   */\n      swap1\n      pop\n        /* \"#utility.yul\":34508:34777   */\n      swap3\n      swap2\n      pop\n      pop\n      jump\t// out\n        /* \"#utility.yul\":34783:35016   */\n    tag_393:\n        /* \"#utility.yul\":34923:34957   */\n      0x43616c6c6572206973206e6f7420617574686f72697a656420746f2065646974\n        /* \"#utility.yul\":34919:34920   */\n      0x00\n        /* \"#utility.yul\":34911:34917   */\n      dup3\n        /* \"#utility.yul\":34907:34921   */\n      add\n        /* \"#utility.yul\":34900:34958   */\n      mstore\n        /* \"#utility.yul\":34992:35008   */\n      0x207468697320646f63756d656e74000000000000000000000000000000000000\n        /* \"#utility.yul\":34987:34989   */\n      0x20\n        /* \"#utility.yul\":34979:34985   */\n      dup3\n        /* \"#utility.yul\":34975:34990   */\n      add\n        /* \"#utility.yul\":34968:35009   */\n      mstore\n        /* \"#utility.yul\":34783:35016   */\n      pop\n      jump\t// out\n        /* \"#utility.yul\":35022:35388   */\n    tag_394:\n        /* \"#utility.yul\":35164:35167   */\n      0x00\n        /* \"#utility.yul\":35185:35252   */\n      tag_720\n        /* \"#utility.yul\":35249:35251   */\n      0x2e\n        /* \"#utility.yul\":35244:35247   */\n      dup4\n        /* \"#utility.yul\":35185:35252   */\n      tag_331\n      jump\t// in\n    tag_720:\n        /* \"#utility.yul\":35178:35252   */\n      swap2\n      pop\n        /* \"#utility.yul\":35261:35354   */\n      tag_721\n        /* \"#utility.yul\":35350:35353   */\n      dup3\n        /* \"#utility.yul\":35261:35354   */\n      tag_393\n      jump\t// in\n    tag_721:\n        /* \"#utility.yul\":35379:35381   */\n      0x40\n        /* \"#utility.yul\":35374:35377   */\n      dup3\n        /* \"#utility.yul\":35370:35382   */\n      add\n        /* \"#utility.yul\":35363:35382   */\n      swap1\n      pop\n        /* \"#utility.yul\":35022:35388   */\n      swap2\n      swap1\n      pop\n      jump\t// out\n        /* \"#utility.yul\":35394:35813   */\n    tag_268:\n        /* \"#utility.yul\":35560:35564   */\n      0x00\n        /* \"#utility.yul\":35598:35600   */\n      0x20\n        /* \"#utility.yul\":35587:35596   */\n      dup3\n        /* \"#utility.yul\":35583:35601   */\n      add\n        /* \"#utility.yul\":35575:35601   */\n      swap1\n      pop\n        /* \"#utility.yul\":35647:35656   */\n      dup2\n        /* \"#utility.yul\":35641:35645   */\n      dup2\n        /* \"#utility.yul\":35637:35657   */\n      sub\n        /* \"#utility.yul\":35633:35634   */\n      0x00\n        /* \"#utility.yul\":35622:35631   */\n      dup4\n        /* \"#utility.yul\":35618:35635   */\n      add\n        /* \"#utility.yul\":35611:35658   */\n      mstore\n        /* \"#utility.yul\":35675:35806   */\n      tag_723\n        /* \"#utility.yul\":35801:35805   */\n      dup2\n        /* \"#utility.yul\":35675:35806   */\n      tag_394\n      jump\t// in\n    tag_723:\n        /* \"#utility.yul\":35667:35806   */\n      swap1\n      pop\n        /* \"#utility.yul\":35394:35813   */\n      swap2\n      swap1\n      pop\n      jump\t// out\n        /* \"#utility.yul\":35819:35992   */\n    tag_395:\n        /* \"#utility.yul\":35959:35984   */\n      0x446f63756d656e742068617368206e6f7420666f756e64000000000000000000\n        /* \"#utility.yul\":35955:35956   */\n      0x00\n        /* \"#utility.yul\":35947:35953   */\n      dup3\n        /* \"#utility.yul\":35943:35957   */\n      add\n        /* \"#utility.yul\":35936:35985   */\n      mstore\n        /* \"#utility.yul\":35819:35992   */\n      pop\n      jump\t// out\n        /* \"#utility.yul\":35998:36364   */\n    tag_396:\n        /* \"#utility.yul\":36140:36143   */\n      0x00\n        /* \"#utility.yul\":36161:36228   */\n      tag_726\n        /* \"#utility.yul\":36225:36227   */\n      0x17\n        /* \"#utility.yul\":36220:36223   */\n      dup4\n        /* \"#utility.yul\":36161:36228   */\n      tag_331\n      jump\t// in\n    tag_726:\n        /* \"#utility.yul\":36154:36228   */\n      swap2\n      pop\n        /* \"#utility.yul\":36237:36330   */\n      tag_727\n        /* \"#utility.yul\":36326:36329   */\n      dup3\n        /* \"#utility.yul\":36237:36330   */\n      tag_395\n      jump\t// in\n    tag_727:\n        /* \"#utility.yul\":36355:36357   */\n      0x20\n        /* \"#utility.yul\":36350:36353   */\n      dup3\n        /* \"#utility.yul\":36346:36358   */\n      add\n        /* \"#utility.yul\":36339:36358   */\n      swap1\n      pop\n        /* \"#utility.yul\":35998:36364   */\n      swap2\n      swap1\n      pop\n      jump\t// out\n        /* \"#utility.yul\":36370:36789   */\n    tag_273:\n        /* \"#utility.yul\":36536:36540   */\n      0x00\n        /* \"#utility.yul\":36574:36576   */\n      0x20\n        /* \"#utility.yul\":36563:36572   */\n      dup3\n        /* \"#utility.yul\":36559:36577   */\n      add\n        /* \"#utility.yul\":36551:36577   */\n      swap1\n      pop\n        /* \"#utility.yul\":36623:36632   */\n      dup2\n        /* \"#utility.yul\":36617:36621   */\n      dup2\n        /* \"#utility.yul\":36613:36633   */\n      sub\n        /* \"#utility.yul\":36609:36610   */\n      0x00\n        /* \"#utility.yul\":36598:36607   */\n      dup4\n        /* \"#utility.yul\":36594:36611   */\n      add\n        /* \"#utility.yul\":36587:36634   */\n      mstore\n        /* \"#utility.yul\":36651:36782   */\n      tag_729\n        /* \"#utility.yul\":36777:36781   */\n      dup2\n        /* \"#utility.yul\":36651:36782   */\n      tag_396\n      jump\t// in\n    tag_729:\n        /* \"#utility.yul\":36643:36782   */\n      swap1\n      pop\n        /* \"#utility.yul\":36370:36789   */\n      swap2\n      swap1\n      pop\n      jump\t// out\n        /* \"#utility.yul\":36795:36942   */\n    tag_397:\n        /* \"#utility.yul\":36896:36907   */\n      0x00\n        /* \"#utility.yul\":36933:36936   */\n      dup2\n        /* \"#utility.yul\":36918:36936   */\n      swap1\n      pop\n        /* \"#utility.yul\":36795:36942   */\n      swap3\n      swap2\n      pop\n      pop\n      jump\t// out\n        /* \"#utility.yul\":36970:37297   */\n    tag_398:\n        /* \"#utility.yul\":37084:37087   */\n      0x00\n        /* \"#utility.yul\":37105:37193   */\n      tag_732\n        /* \"#utility.yul\":37186:37192   */\n      dup4\n        /* \"#utility.yul\":37181:37184   */\n      dup6\n        /* \"#utility.yul\":37105:37193   */\n      tag_397\n      jump\t// in\n    tag_732:\n        /* \"#utility.yul\":37098:37193   */\n      swap4\n      pop\n        /* \"#utility.yul\":37203:37259   */\n      tag_733\n        /* \"#utility.yul\":37252:37258   */\n      dup4\n        /* \"#utility.yul\":37247:37250   */\n      dup6\n        /* \"#utility.yul\":37240:37245   */\n      dup5\n        /* \"#utility.yul\":37203:37259   */\n      tag_382\n      jump\t// in\n    tag_733:\n        /* \"#utility.yul\":37284:37290   */\n      dup3\n        /* \"#utility.yul\":37279:37282   */\n      dup5\n        /* \"#utility.yul\":37275:37291   */\n      add\n        /* \"#utility.yul\":37268:37291   */\n      swap1\n      pop\n        /* \"#utility.yul\":36970:37297   */\n      swap4\n      swap3\n      pop\n      pop\n      pop\n      jump\t// out\n        /* \"#utility.yul\":37303:37594   */\n    tag_280:\n        /* \"#utility.yul\":37443:37446   */\n      0x00\n        /* \"#utility.yul\":37465:37568   */\n      tag_735\n        /* \"#utility.yul\":37564:37567   */\n      dup3\n        /* \"#utility.yul\":37555:37561   */\n      dup5\n        /* \"#utility.yul\":37547:37553   */\n      dup7\n        /* \"#utility.yul\":37465:37568   */\n      tag_398\n      jump\t// in\n    tag_735:\n        /* \"#utility.yul\":37458:37568   */\n      swap2\n      pop\n        /* \"#utility.yul\":37585:37588   */\n      dup2\n        /* \"#utility.yul\":37578:37588   */\n      swap1\n      pop\n        /* \"#utility.yul\":37303:37594   */\n      swap4\n      swap3\n      pop\n      pop\n      pop\n      jump\t// out\n        /* \"#utility.yul\":37600:37744   */\n    tag_399:\n        /* \"#utility.yul\":37652:37656   */\n      0x00\n        /* \"#utility.yul\":37675:37678   */\n      dup2\n        /* \"#utility.yul\":37667:37678   */\n      swap1\n      pop\n        /* \"#utility.yul\":37698:37701   */\n      dup2\n        /* \"#utility.yul\":37695:37696   */\n      0x00\n        /* \"#utility.yul\":37688:37702   */\n      mstore\n        /* \"#utility.yul\":37732:37736   */\n      0x20\n        /* \"#utility.yul\":37729:37730   */\n      0x00\n        /* \"#utility.yul\":37719:37737   */\n      keccak256\n        /* \"#utility.yul\":37711:37737   */\n      swap1\n      pop\n        /* \"#utility.yul\":37600:37744   */\n      swap2\n      swap1\n      pop\n      jump\t// out\n        /* \"#utility.yul\":37772:38650   */\n    tag_400:\n        /* \"#utility.yul\":37877:37880   */\n      0x00\n        /* \"#utility.yul\":37914:37919   */\n      dup2\n        /* \"#utility.yul\":37908:37920   */\n      sload\n        /* \"#utility.yul\":37943:37979   */\n      tag_738\n        /* \"#utility.yul\":37969:37978   */\n      dup2\n        /* \"#utility.yul\":37943:37979   */\n      tag_91\n      jump\t// in\n    tag_738:\n        /* \"#utility.yul\":37995:38083   */\n      tag_739\n        /* \"#utility.yul\":38076:38082   */\n      dup2\n        /* \"#utility.yul\":38071:38074   */\n      dup7\n        /* \"#utility.yul\":37995:38083   */\n      tag_397\n      jump\t// in\n    tag_739:\n        /* \"#utility.yul\":37988:38083   */\n      swap5\n      pop\n        /* \"#utility.yul\":38114:38115   */\n      0x01\n        /* \"#utility.yul\":38103:38112   */\n      dup3\n        /* \"#utility.yul\":38099:38116   */\n      and\n        /* \"#utility.yul\":38130:38131   */\n      0x00\n        /* \"#utility.yul\":38125:38291   */\n      dup2\n      eq\n      tag_741\n      jumpi\n        /* \"#utility.yul\":38305:38306   */\n      0x01\n        /* \"#utility.yul\":38300:38644   */\n      dup2\n      eq\n      tag_742\n      jumpi\n        /* \"#utility.yul\":38092:38644   */\n      jump(tag_740)\n        /* \"#utility.yul\":38125:38291   */\n    tag_741:\n        /* \"#utility.yul\":38209:38213   */\n      0xff\n        /* \"#utility.yul\":38205:38214   */\n      not\n        /* \"#utility.yul\":38194:38203   */\n      dup4\n        /* \"#utility.yul\":38190:38215   */\n      and\n        /* \"#utility.yul\":38185:38188   */\n      dup7\n        /* \"#utility.yul\":38178:38216   */\n      mstore\n        /* \"#utility.yul\":38271:38277   */\n      dup2\n        /* \"#utility.yul\":38264:38278   */\n      iszero\n        /* \"#utility.yul\":38257:38279   */\n      iszero\n        /* \"#utility.yul\":38249:38255   */\n      dup3\n        /* \"#utility.yul\":38245:38280   */\n      mul\n        /* \"#utility.yul\":38240:38243   */\n      dup7\n        /* \"#utility.yul\":38236:38281   */\n      add\n        /* \"#utility.yul\":38229:38281   */\n      swap4\n      pop\n        /* \"#utility.yul\":38125:38291   */\n      jump(tag_740)\n        /* \"#utility.yul\":38300:38644   */\n    tag_742:\n        /* \"#utility.yul\":38367:38408   */\n      tag_743\n        /* \"#utility.yul\":38402:38407   */\n      dup6\n        /* \"#utility.yul\":38367:38408   */\n      tag_399\n      jump\t// in\n    tag_743:\n        /* \"#utility.yul\":38430:38431   */\n      0x00\n        /* \"#utility.yul\":38444:38598   */\n    tag_744:\n        /* \"#utility.yul\":38458:38464   */\n      dup4\n        /* \"#utility.yul\":38455:38456   */\n      dup2\n        /* \"#utility.yul\":38452:38465   */\n      lt\n        /* \"#utility.yul\":38444:38598   */\n      iszero\n      tag_746\n      jumpi\n        /* \"#utility.yul\":38532:38539   */\n      dup2\n        /* \"#utility.yul\":38526:38540   */\n      sload\n        /* \"#utility.yul\":38522:38523   */\n      dup2\n        /* \"#utility.yul\":38517:38520   */\n      dup10\n        /* \"#utility.yul\":38513:38524   */\n      add\n        /* \"#utility.yul\":38506:38541   */\n      mstore\n        /* \"#utility.yul\":38582:38583   */\n      0x01\n        /* \"#utility.yul\":38573:38580   */\n      dup3\n        /* \"#utility.yul\":38569:38584   */\n      add\n        /* \"#utility.yul\":38558:38584   */\n      swap2\n      pop\n        /* \"#utility.yul\":38480:38484   */\n      0x20\n        /* \"#utility.yul\":38477:38478   */\n      dup2\n        /* \"#utility.yul\":38473:38485   */\n      add\n        /* \"#utility.yul\":38468:38485   */\n      swap1\n      pop\n        /* \"#utility.yul\":38444:38598   */\n      jump(tag_744)\n    tag_746:\n        /* \"#utility.yul\":38627:38633   */\n      dup4\n        /* \"#utility.yul\":38622:38625   */\n      dup9\n        /* \"#utility.yul\":38618:38634   */\n      add\n        /* \"#utility.yul\":38611:38634   */\n      swap6\n      pop\n        /* \"#utility.yul\":38307:38644   */\n      pop\n      pop\n        /* \"#utility.yul\":38092:38644   */\n    tag_740:\n      pop\n        /* \"#utility.yul\":37881:38650   */\n      pop\n      pop\n        /* \"#utility.yul\":37772:38650   */\n      swap3\n      swap2\n      pop\n      pop\n      jump\t// out\n        /* \"#utility.yul\":38656:38929   */\n    tag_285:\n        /* \"#utility.yul\":38787:38790   */\n      0x00\n        /* \"#utility.yul\":38809:38903   */\n      tag_748\n        /* \"#utility.yul\":38899:38902   */\n      dup3\n        /* \"#utility.yul\":38890:38896   */\n      dup5\n        /* \"#utility.yul\":38809:38903   */\n      tag_400\n      jump\t// in\n    tag_748:\n        /* \"#utility.yul\":38802:38903   */\n      swap2\n      pop\n        /* \"#utility.yul\":38920:38923   */\n      dup2\n        /* \"#utility.yul\":38913:38923   */\n      swap1\n      pop\n        /* \"#utility.yul\":38656:38929   */\n      swap3\n      swap2\n      pop\n      pop\n      jump\t// out\n        /* \"#utility.yul\":38935:39084   */\n    tag_401:\n        /* \"#utility.yul\":38984:38990   */\n      0x00\n        /* \"#utility.yul\":39018:39023   */\n      dup2\n        /* \"#utility.yul\":39012:39024   */\n      sload\n        /* \"#utility.yul\":39002:39024   */\n      swap1\n      pop\n        /* \"#utility.yul\":39044:39077   */\n      tag_750\n        /* \"#utility.yul\":39070:39076   */\n      dup2\n        /* \"#utility.yul\":39044:39077   */\n      tag_91\n      jump\t// in\n    tag_750:\n        /* \"#utility.yul\":39034:39077   */\n      swap1\n      pop\n        /* \"#utility.yul\":38935:39084   */\n      swap2\n      swap1\n      pop\n      jump\t// out\n        /* \"#utility.yul\":39090:40541   */\n    tag_295:\n        /* \"#utility.yul\":39201:39204   */\n      dup2\n        /* \"#utility.yul\":39195:39199   */\n      dup2\n        /* \"#utility.yul\":39192:39205   */\n      sub\n        /* \"#utility.yul\":39189:39215   */\n      tag_752\n      jumpi\n        /* \"#utility.yul\":39208:39213   */\n      pop\n      pop\n      jump(tag_751)\n        /* \"#utility.yul\":39189:39215   */\n    tag_752:\n        /* \"#utility.yul\":39239:39273   */\n      tag_753\n        /* \"#utility.yul\":39269:39272   */\n      dup3\n        /* \"#utility.yul\":39239:39273   */\n      tag_401\n      jump\t// in\n    tag_753:\n        /* \"#utility.yul\":39338:39356   */\n      0xffffffffffffffff\n        /* \"#utility.yul\":39330:39336   */\n      dup2\n        /* \"#utility.yul\":39327:39357   */\n      gt\n        /* \"#utility.yul\":39324:39380   */\n      iszero\n      tag_754\n      jumpi\n        /* \"#utility.yul\":39360:39378   */\n      tag_755\n      tag_365\n      jump\t// in\n    tag_755:\n        /* \"#utility.yul\":39324:39380   */\n    tag_754:\n        /* \"#utility.yul\":39404:39442   */\n      tag_756\n        /* \"#utility.yul\":39436:39440   */\n      dup3\n        /* \"#utility.yul\":39430:39441   */\n      sload\n        /* \"#utility.yul\":39404:39442   */\n      tag_91\n      jump\t// in\n    tag_756:\n        /* \"#utility.yul\":39489:39556   */\n      tag_757\n        /* \"#utility.yul\":39549:39555   */\n      dup3\n        /* \"#utility.yul\":39541:39547   */\n      dup3\n        /* \"#utility.yul\":39535:39539   */\n      dup6\n        /* \"#utility.yul\":39489:39556   */\n      tag_377\n      jump\t// in\n    tag_757:\n        /* \"#utility.yul\":39583:39584   */\n      0x00\n        /* \"#utility.yul\":39612:39614   */\n      0x1f\n        /* \"#utility.yul\":39604:39610   */\n      dup4\n        /* \"#utility.yul\":39601:39615   */\n      gt\n        /* \"#utility.yul\":39629:39630   */\n      0x01\n        /* \"#utility.yul\":39624:40296   */\n      dup2\n      eq\n      tag_759\n      jumpi\n        /* \"#utility.yul\":40340:40341   */\n      0x00\n        /* \"#utility.yul\":40357:40363   */\n      dup5\n        /* \"#utility.yul\":40354:40431   */\n      iszero\n      tag_760\n      jumpi\n        /* \"#utility.yul\":40406:40415   */\n      dup3\n        /* \"#utility.yul\":40401:40404   */\n      dup8\n        /* \"#utility.yul\":40397:40416   */\n      add\n        /* \"#utility.yul\":40391:40417   */\n      sload\n        /* \"#utility.yul\":40382:40417   */\n      swap1\n      pop\n        /* \"#utility.yul\":40354:40431   */\n    tag_760:\n        /* \"#utility.yul\":40457:40524   */\n      tag_761\n        /* \"#utility.yul\":40517:40523   */\n      dup6\n        /* \"#utility.yul\":40510:40515   */\n      dup3\n        /* \"#utility.yul\":40457:40524   */\n      tag_380\n      jump\t// in\n    tag_761:\n        /* \"#utility.yul\":40451:40455   */\n      dup7\n        /* \"#utility.yul\":40444:40525   */\n      sstore\n        /* \"#utility.yul\":40313:40535   */\n      pop\n        /* \"#utility.yul\":39594:40535   */\n      jump(tag_758)\n        /* \"#utility.yul\":39624:40296   */\n    tag_759:\n        /* \"#utility.yul\":39676:39680   */\n      0x1f\n        /* \"#utility.yul\":39672:39681   */\n      not\n        /* \"#utility.yul\":39664:39670   */\n      dup5\n        /* \"#utility.yul\":39660:39682   */\n      and\n        /* \"#utility.yul\":39702:39738   */\n      tag_762\n        /* \"#utility.yul\":39734:39737   */\n      dup8\n        /* \"#utility.yul\":39702:39738   */\n      tag_366\n      jump\t// in\n    tag_762:\n        /* \"#utility.yul\":39695:39738   */\n      swap7\n      pop\n        /* \"#utility.yul\":39765:39802   */\n      tag_763\n        /* \"#utility.yul\":39797:39801   */\n      dup7\n        /* \"#utility.yul\":39765:39802   */\n      tag_366\n      jump\t// in\n    tag_763:\n        /* \"#utility.yul\":39824:39825   */\n      0x00\n        /* \"#utility.yul\":39838:40045   */\n    tag_764:\n        /* \"#utility.yul\":39852:39859   */\n      dup3\n        /* \"#utility.yul\":39849:39850   */\n      dup2\n        /* \"#utility.yul\":39846:39860   */\n      lt\n        /* \"#utility.yul\":39838:40045   */\n      iszero\n      tag_766\n      jumpi\n        /* \"#utility.yul\":39931:39940   */\n      dup5\n        /* \"#utility.yul\":39926:39929   */\n      dup10\n        /* \"#utility.yul\":39922:39941   */\n      add\n        /* \"#utility.yul\":39916:39942   */\n      sload\n        /* \"#utility.yul\":39908:39914   */\n      dup3\n        /* \"#utility.yul\":39901:39943   */\n      sstore\n        /* \"#utility.yul\":39982:39983   */\n      0x01\n        /* \"#utility.yul\":39974:39980   */\n      dup3\n        /* \"#utility.yul\":39970:39984   */\n      add\n        /* \"#utility.yul\":39960:39984   */\n      swap2\n      pop\n        /* \"#utility.yul\":40029:40030   */\n      0x01\n        /* \"#utility.yul\":40018:40027   */\n      dup6\n        /* \"#utility.yul\":40014:40031   */\n      add\n        /* \"#utility.yul\":40001:40031   */\n      swap5\n      pop\n        /* \"#utility.yul\":39875:39879   */\n      0x20\n        /* \"#utility.yul\":39872:39873   */\n      dup2\n        /* \"#utility.yul\":39868:39880   */\n      add\n        /* \"#utility.yul\":39863:39880   */\n      swap1\n      pop\n        /* \"#utility.yul\":39838:40045   */\n      jump(tag_764)\n    tag_766:\n        /* \"#utility.yul\":40073:40079   */\n      dup7\n        /* \"#utility.yul\":40064:40071   */\n      dup4\n        /* \"#utility.yul\":40061:40080   */\n      lt\n        /* \"#utility.yul\":40058:40237   */\n      iszero\n      tag_767\n      jumpi\n        /* \"#utility.yul\":40131:40140   */\n      dup5\n        /* \"#utility.yul\":40126:40129   */\n      dup10\n        /* \"#utility.yul\":40122:40141   */\n      add\n        /* \"#utility.yul\":40116:40142   */\n      sload\n        /* \"#utility.yul\":40174:40222   */\n      tag_768\n        /* \"#utility.yul\":40216:40220   */\n      0x1f\n        /* \"#utility.yul\":40208:40214   */\n      dup10\n        /* \"#utility.yul\":40204:40221   */\n      and\n        /* \"#utility.yul\":40193:40202   */\n      dup3\n        /* \"#utility.yul\":40174:40222   */\n      tag_379\n      jump\t// in\n    tag_768:\n        /* \"#utility.yul\":40166:40172   */\n      dup4\n        /* \"#utility.yul\":40159:40223   */\n      sstore\n        /* \"#utility.yul\":40081:40237   */\n      pop\n        /* \"#utility.yul\":40058:40237   */\n    tag_767:\n        /* \"#utility.yul\":40283:40284   */\n      0x01\n        /* \"#utility.yul\":40279:40280   */\n      0x02\n        /* \"#utility.yul\":40271:40277   */\n      dup9\n        /* \"#utility.yul\":40267:40281   */\n      mul\n        /* \"#utility.yul\":40263:40285   */\n      add\n        /* \"#utility.yul\":40257:40261   */\n      dup9\n        /* \"#utility.yul\":40250:40286   */\n      sstore\n        /* \"#utility.yul\":39631:40296   */\n      pop\n      pop\n      pop\n        /* \"#utility.yul\":39594:40535   */\n    tag_758:\n      pop\n        /* \"#utility.yul\":39179:40541   */\n      pop\n      pop\n      pop\n        /* \"#utility.yul\":39090:40541   */\n      pop\n      pop\n    tag_751:\n      jump\t// out\n\n    auxdata: 0xa2646970667358221220e7542978949a15f8fca7db33a22306d9cdc684c7ad403f092915cd8c4b35b3a164736f6c63430008190033\n}\n","bytecode":{"linkReferences":{},"object":"608060405260008060006101000a81548161ffff021916908361ffff160217905550348015602c57600080fd5b5033600060026101000a81548173ffffffffffffffffffffffffffffffffffffffff021916908373ffffffffffffffffffffffffffffffffffffffff1602179055506135358061007d6000396000f3fe608060405234801561001057600080fd5b50600436106100f55760003560e01c8063478b2aa211610097578063a6f9dae111610066578063a6f9dae1146102b2578063ccde7710146102ce578063ccf715ea146102ea578063e7d9972214610306576100f5565b8063478b2aa21461021357806377f89255146102435780638da5cb5b14610261578063a3daddc51461027f576100f5565b8063117cabec116100d3578063117cabec146101785780631eff1d71146101a85780634078dfcf146101c457806345278d1e146101f7576100f5565b806303233af8146100fa57806305c8dc19146101185780630b2b5bf514610148575b600080fd5b610102610322565b60405161010f91906121a2565b60405180910390f35b610132600480360381019061012d91906121fa565b6103b0565b60405161013f91906122b7565b60405180910390f35b610162600480360381019061015d91906121fa565b610484565b60405161016f91906123ad565b60405180910390f35b610192600480360381019061018d91906121fa565b61070c565b60405161019f91906124e8565b60405180910390f35b6101c260048036038101906101bd919061256f565b61096c565b005b6101de60048036038101906101d991906125cf565b610a9b565b6040516101ee949392919061262b565b60405180910390f35b610211600480360381019061020c919061256f565b610c58565b005b61022d600480360381019061022891906126aa565b610e89565b60405161023a91906126e6565b60405180910390f35b61024b610ec8565b604051610258919061271e565b60405180910390f35b610269610eda565b60405161027691906126e6565b60405180910390f35b610299600480360381019061029491906121fa565b610f00565b6040516102a99493929190612739565b60405180910390f35b6102cc60048036038101906102c791906121fa565b6110c8565b005b6102e860048036038101906102e391906121fa565b6111db565b005b61030460048036038101906102ff9190612793565b6114cc565b005b610320600480360381019061031b919061288f565b611ae7565b005b606060048054806020026020016040519081016040528092919081815260200182805480156103a657602002820191906000526020600020905b8160009054906101000a900473ffffffffffffffffffffffffffffffffffffffff1673ffffffffffffffffffffffffffffffffffffffff168152602001906001019080831161035c575b5050505050905090565b6060600260008373ffffffffffffffffffffffffffffffffffffffff1673ffffffffffffffffffffffffffffffffffffffff16815260200190815260200160002060010180546103ff9061291e565b80601f016020809104026020016040519081016040528092919081815260200182805461042b9061291e565b80156104785780601f1061044d57610100808354040283529160200191610478565b820191906000526020600020905b81548152906001019060200180831161045b57829003601f168201915b50505050509050919050565b61048c61202d565b600073ffffffffffffffffffffffffffffffffffffffff168273ffffffffffffffffffffffffffffffffffffffff16036104fb576040517f08c379a00000000000000000000000000000000000000000000000000000000081526004016104f29061299b565b60405180910390fd5b600360008373ffffffffffffffffffffffffffffffffffffffff1673ffffffffffffffffffffffffffffffffffffffff1681526020019081526020016000206040518060800160405290816000820180546105559061291e565b80601f01602080910402602001604051908101604052809291908181526020018280546105819061291e565b80156105ce5780601f106105a3576101008083540402835291602001916105ce565b820191906000526020600020905b8154815290600101906020018083116105b157829003601f168201915b505050505081526020016001820180546105e79061291e565b80601f01602080910402602001604051908101604052809291908181526020018280546106139061291e565b80156106605780601f1061063557610100808354040283529160200191610660565b820191906000526020600020905b81548152906001019060200180831161064357829003601f168201915b505050505081526020016002820180546106799061291e565b80601f01602080910402602001604051908101604052809291908181526020018280546106a59061291e565b80156106f25780601f106106c7576101008083540402835291602001916106f2565b820191906000526020600020905b8154815290600101906020018083116106d557829003601f168201915b505050505081526020016003820154815250509050919050565b606061071782611fde565b610756576040517f08c379a000000000000000000000000000000000000000000000000000000000815260040161074d90612a07565b60405180910390fd5b600560008373ffffffffffffffffffffffffffffffffffffffff1673ffffffffffffffffffffffffffffffffffffffff168152602001908152602001600020805480602002602001604051908101604052809291908181526020016000905b8282101561096157838290600052602060002090600302016040518060600160405290816000820180546107e89061291e565b80601f01602080910402602001604051908101604052809291908181526020018280546108149061291e565b80156108615780601f1061083657610100808354040283529160200191610861565b820191906000526020600020905b81548152906001019060200180831161084457829003601f168201915b505050505081526020016001820160009054906101000a900473ffffffffffffffffffffffffffffffffffffffff1673ffffffffffffffffffffffffffffffffffffffff1673ffffffffffffffffffffffffffffffffffffffff1681526020016002820180546108d09061291e565b80601f01602080910402602001604051908101604052809291908181526020018280546108fc9061291e565b80156109495780601f1061091e57610100808354040283529160200191610949565b820191906000526020600020905b81548152906001019060200180831161092c57829003601f168201915b505050505081525050815260200190600101906107b5565b505050509050919050565b600060029054906101000a900473ffffffffffffffffffffffffffffffffffffffff1673ffffffffffffffffffffffffffffffffffffffff163373ffffffffffffffffffffffffffffffffffffffff16146109fc576040517f08c379a00000000000000000000000000000000000000000000000000000000081526004016109f390612a73565b60405180910390fd5b610a0583611fde565b610a44576040517f08c379a0000000000000000000000000000000000000000000000000000000008152600401610a3b90612a07565b60405180910390fd5b8181600260008673ffffffffffffffffffffffffffffffffffffffff1673ffffffffffffffffffffffffffffffffffffffff1681526020019081526020016000206001019182610a95929190612c79565b50505050565b60008060608060018686604051610ab3929190612d88565b90815260200160405180910390206000015460018787604051610ad7929190612d88565b90815260200160405180910390206001015460018888604051610afb929190612d88565b908152602001604051809103902060020160018989604051610b1e929190612d88565b9081526020016040518091039020600301818054610b3b9061291e565b80601f0160208091040260200160405190810160405280929190818152602001828054610b679061291e565b8015610bb45780601f10610b8957610100808354040283529160200191610bb4565b820191906000526020600020905b815481529060010190602001808311610b9757829003601f168201915b50505050509150808054610bc79061291e565b80601f0160208091040260200160405190810160405280929190818152602001828054610bf39061291e565b8015610c405780601f10610c1557610100808354040283529160200191610c40565b820191906000526020600020905b815481529060010190602001808311610c2357829003601f168201915b50505050509050935093509350935092959194509250565b600060029054906101000a900473ffffffffffffffffffffffffffffffffffffffff1673ffffffffffffffffffffffffffffffffffffffff163373ffffffffffffffffffffffffffffffffffffffff1614610ce8576040517f08c379a0000000000000000000000000000000000000000000000000000000008152600401610cdf90612a73565b60405180910390fd5b610cf183611fde565b15610d31576040517f08c379a0000000000000000000000000000000000000000000000000000000008152600401610d2890612ded565b60405180910390fd5b604051806040016040528043815260200183838080601f016020809104026020016040519081016040528093929190818152602001838380828437600081840152601f19601f82011690508083019250505050505050815250600260008573ffffffffffffffffffffffffffffffffffffffff1673ffffffffffffffffffffffffffffffffffffffff168152602001908152602001600020600082015181600001556020820151816001019081610de89190612e0d565b509050506004839080600181540180825580915050600190039060005260206000200160009091909190916101000a81548173ffffffffffffffffffffffffffffffffffffffff021916908373ffffffffffffffffffffffffffffffffffffffff16021790555060008081819054906101000a900461ffff16610e6a90612f0e565b91906101000a81548161ffff021916908361ffff160217905550505050565b60048181548110610e9957600080fd5b906000526020600020016000915054906101000a900473ffffffffffffffffffffffffffffffffffffffff1681565b60008054906101000a900461ffff1681565b600060029054906101000a900473ffffffffffffffffffffffffffffffffffffffff1681565b6003602052806000526040600020600091509050806000018054610f239061291e565b80601f0160208091040260200160405190810160405280929190818152602001828054610f4f9061291e565b8015610f9c5780601f10610f7157610100808354040283529160200191610f9c565b820191906000526020600020905b815481529060010190602001808311610f7f57829003601f168201915b505050505090806001018054610fb19061291e565b80601f0160208091040260200160405190810160405280929190818152602001828054610fdd9061291e565b801561102a5780601f10610fff5761010080835404028352916020019161102a565b820191906000526020600020905b81548152906001019060200180831161100d57829003601f168201915b50505050509080600201805461103f9061291e565b80601f016020809104026020016040519081016040528092919081815260200182805461106b9061291e565b80156110b85780601f1061108d576101008083540402835291602001916110b8565b820191906000526020600020905b81548152906001019060200180831161109b57829003601f168201915b5050505050908060030154905084565b600060029054906101000a900473ffffffffffffffffffffffffffffffffffffffff1673ffffffffffffffffffffffffffffffffffffffff163373ffffffffffffffffffffffffffffffffffffffff1614611158576040517f08c379a000000000000000000000000000000000000000000000000000000000815260040161114f90612a73565b60405180910390fd5b80600073ffffffffffffffffffffffffffffffffffffffff168173ffffffffffffffffffffffffffffffffffffffff160361119657611195612f38565b5b81600060026101000a81548173ffffffffffffffffffffffffffffffffffffffff021916908373ffffffffffffffffffffffffffffffffffffffff1602179055505050565b600060029054906101000a900473ffffffffffffffffffffffffffffffffffffffff1673ffffffffffffffffffffffffffffffffffffffff163373ffffffffffffffffffffffffffffffffffffffff161461126b576040517f08c379a000000000000000000000000000000000000000000000000000000000815260040161126290612a73565b60405180910390fd5b61127481611fde565b6112b3576040517f08c379a00000000000000000000000000000000000000000000000000000000081526004016112aa90612a07565b60405180910390fd5b600260008273ffffffffffffffffffffffffffffffffffffffff1673ffffffffffffffffffffffffffffffffffffffff16815260200190815260200160002060008082016000905560018201600061130b9190612055565b505060005b600480549050811015611493578173ffffffffffffffffffffffffffffffffffffffff166004828154811061134857611347612f67565b5b9060005260206000200160009054906101000a900473ffffffffffffffffffffffffffffffffffffffff1673ffffffffffffffffffffffffffffffffffffffff160361148657600460016004805490506113a29190612f96565b815481106113b3576113b2612f67565b5b9060005260206000200160009054906101000a900473ffffffffffffffffffffffffffffffffffffffff16600482815481106113f2576113f1612f67565b5b9060005260206000200160006101000a81548173ffffffffffffffffffffffffffffffffffffffff021916908373ffffffffffffffffffffffffffffffffffffffff160217905550600480548061144c5761144b612fca565b5b6001900381819060005260206000200160006101000a81549073ffffffffffffffffffffffffffffffffffffffff02191690559055611493565b8080600101915050611310565b5060008081819054906101000a900461ffff166114af90612ff9565b91906101000a81548161ffff021916908361ffff16021790555050565b6114d533611fde565b611514576040517f08c379a000000000000000000000000000000000000000000000000000000000815260040161150b90613094565b60405180910390fd5b600060018a8a604051611528929190612d88565b9081526020016040518091039020600001541461157a576040517f08c379a000000000000000000000000000000000000000000000000000000000815260040161157190613100565b60405180910390fd5b6040518060800160405280438152602001428152602001600260003373ffffffffffffffffffffffffffffffffffffffff1673ffffffffffffffffffffffffffffffffffffffff16815260200190815260200160002060010180546115de9061291e565b80601f016020809104026020016040519081016040528092919081815260200182805461160a9061291e565b80156116575780601f1061162c57610100808354040283529160200191611657565b820191906000526020600020905b81548152906001019060200180831161163a57829003601f168201915b5050505050815260200188888080601f016020809104026020016040519081016040528093929190818152602001838380828437600081840152601f19601f8201169050808301925050505050505081525060018a8a6040516116bb929190612d88565b9081526020016040518091039020600082015181600001556020820151816001015560408201518160020190816116f29190612e0d565b5060608201518160030190816117089190612e0d565b509050503373ffffffffffffffffffffffffffffffffffffffff167f42db1418459a4104bd694454330c69ef6e28a01ea57974c129dcbac8e8dd1412888860405161175492919061314d565b60405180910390a2600073ffffffffffffffffffffffffffffffffffffffff168573ffffffffffffffffffffffffffffffffffffffff16036117cb576040517f08c379a00000000000000000000000000000000000000000000000000000000081526004016117c29061299b565b60405180910390fd5b60405180608001604052808a8a8080601f016020809104026020016040519081016040528093929190818152602001838380828437600081840152601f19601f82011690508083019250505050505050815260200185858080601f016020809104026020016040519081016040528093929190818152602001838380828437600081840152601f19601f82011690508083019250505050505050815260200183838080601f016020809104026020016040519081016040528093929190818152602001838380828437600081840152601f19601f82011690508083019250505050505050815260200142815250600360008773ffffffffffffffffffffffffffffffffffffffff1673ffffffffffffffffffffffffffffffffffffffff168152602001908152602001600020600082015181600001908161190c9190612e0d565b5060208201518160010190816119229190612e0d565b5060408201518160020190816119389190612e0d565b5060608201518160030155905050600560003373ffffffffffffffffffffffffffffffffffffffff1673ffffffffffffffffffffffffffffffffffffffff16815260200190815260200160002060405180606001604052808b8b8080601f016020809104026020016040519081016040528093929190818152602001838380828437600081840152601f19601f8201169050808301925050505050505081526020018773ffffffffffffffffffffffffffffffffffffffff16815260200186868080601f016020809104026020016040519081016040528093929190818152602001838380828437600081840152601f19601f8201169050808301925050505050505081525090806001815401808255809150506001900390600052602060002090600302016000909190919091506000820151816000019081611a7c9190612e0d565b5060208201518160010160006101000a81548173ffffffffffffffffffffffffffffffffffffffff021916908373ffffffffffffffffffffffffffffffffffffffff1602179055506040820151816002019081611ad99190612e0d565b505050505050505050505050565b8282611af233611fde565b611b31576040517f08c379a0000000000000000000000000000000000000000000000000000000008152600401611b2890613094565b60405180910390fd5b60018282604051611b43929190612d88565b9081526020016040518091039020600201604051602001611b6491906131f4565b60405160208183030381529060405280519060200120600260003373ffffffffffffffffffffffffffffffffffffffff1673ffffffffffffffffffffffffffffffffffffffff168152602001908152602001600020600101604051602001611bcc91906131f4565b6040516020818303038152906040528051906020012014611c22576040517f08c379a0000000000000000000000000000000000000000000000000000000008152600401611c199061327d565b60405180910390fd5b600060018686604051611c36929190612d88565b90815260200160405180910390206001015403611c88576040517f08c379a0000000000000000000000000000000000000000000000000000000008152600401611c7f906132e9565b60405180910390fd5b600073ffffffffffffffffffffffffffffffffffffffff168373ffffffffffffffffffffffffffffffffffffffff1603611cf7576040517f08c379a0000000000000000000000000000000000000000000000000000000008152600401611cee9061299b565b60405180910390fd5b6000600560003373ffffffffffffffffffffffffffffffffffffffff1673ffffffffffffffffffffffffffffffffffffffff168152602001908152602001600020905060005b8180549050811015611f08578686604051611d59929190613339565b6040518091039020828281548110611d7457611d73612f67565b5b9060005260206000209060030201600001604051611d9291906133ea565b604051809103902003611efb578160018380549050611db19190612f96565b81548110611dc257611dc1612f67565b5b9060005260206000209060030201828281548110611de357611de2612f67565b5b906000526020600020906003020160008201816000019081611e059190613417565b506001820160009054906101000a900473ffffffffffffffffffffffffffffffffffffffff168160010160006101000a81548173ffffffffffffffffffffffffffffffffffffffff021916908373ffffffffffffffffffffffffffffffffffffffff16021790555060028201816002019081611e819190613417565b5090505081805480611e9657611e95612fca565b5b600190038181906000526020600020906003020160008082016000611ebb9190612055565b6001820160006101000a81549073ffffffffffffffffffffffffffffffffffffffff0219169055600282016000611ef29190612055565b50509055611f08565b8080600101915050611d3d565b5060018686604051611f1b929190612d88565b90815260200160405180910390206000808201600090556001820160009055600282016000611f4a9190612055565b600382016000611f5a9190612055565b5050600360008573ffffffffffffffffffffffffffffffffffffffff1673ffffffffffffffffffffffffffffffffffffffff16815260200190815260200160002060008082016000611fac9190612055565b600182016000611fbc9190612055565b600282016000611fcc9190612055565b60038201600090555050505050505050565b600080600260008473ffffffffffffffffffffffffffffffffffffffff1673ffffffffffffffffffffffffffffffffffffffff1681526020019081526020016000206000015414159050919050565b6040518060800160405280606081526020016060815260200160608152602001600081525090565b5080546120619061291e565b6000825580601f106120735750612092565b601f0160209004906000526020600020908101906120919190612095565b5b50565b5b808211156120ae576000816000905550600101612096565b5090565b600081519050919050565b600082825260208201905092915050565b6000819050602082019050919050565b600073ffffffffffffffffffffffffffffffffffffffff82169050919050565b6000612109826120de565b9050919050565b612119816120fe565b82525050565b600061212b8383612110565b60208301905092915050565b6000602082019050919050565b600061214f826120b2565b61215981856120bd565b9350612164836120ce565b8060005b8381101561219557815161217c888261211f565b975061218783612137565b925050600181019050612168565b5085935050505092915050565b600060208201905081810360008301526121bc8184612144565b905092915050565b600080fd5b600080fd5b6121d7816120fe565b81146121e257600080fd5b50565b6000813590506121f4816121ce565b92915050565b6000602082840312156122105761220f6121c4565b5b600061221e848285016121e5565b91505092915050565b600081519050919050565b600082825260208201905092915050565b60005b83811015612261578082015181840152602081019050612246565b60008484015250505050565b6000601f19601f8301169050919050565b600061228982612227565b6122938185612232565b93506122a3818560208601612243565b6122ac8161226d565b840191505092915050565b600060208201905081810360008301526122d1818461227e565b905092915050565b600082825260208201905092915050565b60006122f582612227565b6122ff81856122d9565b935061230f818560208601612243565b6123188161226d565b840191505092915050565b6000819050919050565b61233681612323565b82525050565b6000608083016000830151848203600086015261235982826122ea565b9150506020830151848203602086015261237382826122ea565b9150506040830151848203604086015261238d82826122ea565b91505060608301516123a2606086018261232d565b508091505092915050565b600060208201905081810360008301526123c7818461233c565b905092915050565b600081519050919050565b600082825260208201905092915050565b6000819050602082019050919050565b6000606083016000830151848203600086015261241882826122ea565b915050602083015161242d6020860182612110565b506040830151848203604086015261244582826122ea565b9150508091505092915050565b600061245e83836123fb565b905092915050565b6000602082019050919050565b600061247e826123cf565b61248881856123da565b93508360208202850161249a856123eb565b8060005b858110156124d657848403895281516124b78582612452565b94506124c283612466565b925060208a0199505060018101905061249e565b50829750879550505050505092915050565b600060208201905081810360008301526125028184612473565b905092915050565b600080fd5b600080fd5b600080fd5b60008083601f84011261252f5761252e61250a565b5b8235905067ffffffffffffffff81111561254c5761254b61250f565b5b60208301915083600182028301111561256857612567612514565b5b9250929050565b600080600060408486031215612588576125876121c4565b5b6000612596868287016121e5565b935050602084013567ffffffffffffffff8111156125b7576125b66121c9565b5b6125c386828701612519565b92509250509250925092565b600080602083850312156125e6576125e56121c4565b5b600083013567ffffffffffffffff811115612604576126036121c9565b5b61261085828601612519565b92509250509250929050565b61262581612323565b82525050565b6000608082019050612640600083018761261c565b61264d602083018661261c565b818103604083015261265f818561227e565b90508181036060830152612673818461227e565b905095945050505050565b61268781612323565b811461269257600080fd5b50565b6000813590506126a48161267e565b92915050565b6000602082840312156126c0576126bf6121c4565b5b60006126ce84828501612695565b91505092915050565b6126e0816120fe565b82525050565b60006020820190506126fb60008301846126d7565b92915050565b600061ffff82169050919050565b61271881612701565b82525050565b6000602082019050612733600083018461270f565b92915050565b60006080820190508181036000830152612753818761227e565b90508181036020830152612767818661227e565b9050818103604083015261277b818561227e565b905061278a606083018461261c565b95945050505050565b600080600080600080600080600060a08a8c0312156127b5576127b46121c4565b5b60008a013567ffffffffffffffff8111156127d3576127d26121c9565b5b6127df8c828d01612519565b995099505060208a013567ffffffffffffffff811115612802576128016121c9565b5b61280e8c828d01612519565b975097505060406128218c828d016121e5565b95505060608a013567ffffffffffffffff811115612842576128416121c9565b5b61284e8c828d01612519565b945094505060808a013567ffffffffffffffff811115612871576128706121c9565b5b61287d8c828d01612519565b92509250509295985092959850929598565b6000806000604084860312156128a8576128a76121c4565b5b600084013567ffffffffffffffff8111156128c6576128c56121c9565b5b6128d286828701612519565b935093505060206128e5868287016121e5565b9150509250925092565b7f4e487b7100000000000000000000000000000000000000000000000000000000600052602260045260246000fd5b6000600282049050600182168061293657607f821691505b602082108103612949576129486128ef565b5b50919050565b7f496e76616c69642073747564656e742061646472657373000000000000000000600082015250565b6000612985601783612232565b91506129908261294f565b602082019050919050565b600060208201905081810360008301526129b481612978565b9050919050565b7f4578706f72746572206e6f7420666f756e640000000000000000000000000000600082015250565b60006129f1601283612232565b91506129fc826129bb565b602082019050919050565b60006020820190508181036000830152612a20816129e4565b9050919050565b7f43616c6c6572206973206e6f7420746865206f776e6572000000000000000000600082015250565b6000612a5d601783612232565b9150612a6882612a27565b602082019050919050565b60006020820190508181036000830152612a8c81612a50565b9050919050565b600082905092915050565b7f4e487b7100000000000000000000000000000000000000000000000000000000600052604160045260246000fd5b60008190508160005260206000209050919050565b60006020601f8301049050919050565b600082821b905092915050565b600060088302612b2f7fffffffffffffffffffffffffffffffffffffffffffffffffffffffffffffffff82612af2565b612b398683612af2565b95508019841693508086168417925050509392505050565b6000819050919050565b6000612b76612b71612b6c84612323565b612b51565b612323565b9050919050565b6000819050919050565b612b9083612b5b565b612ba4612b9c82612b7d565b848454612aff565b825550505050565b600090565b612bb9612bac565b612bc4818484612b87565b505050565b5b81811015612be857612bdd600082612bb1565b600181019050612bca565b5050565b601f821115612c2d57612bfe81612acd565b612c0784612ae2565b81016020851015612c16578190505b612c2a612c2285612ae2565b830182612bc9565b50505b505050565b600082821c905092915050565b6000612c5060001984600802612c32565b1980831691505092915050565b6000612c698383612c3f565b9150826002028217905092915050565b612c838383612a93565b67ffffffffffffffff811115612c9c57612c9b612a9e565b5b612ca6825461291e565b612cb1828285612bec565b6000601f831160018114612ce05760008415612cce578287013590505b612cd88582612c5d565b865550612d40565b601f198416612cee86612acd565b60005b82811015612d1657848901358255600182019150602085019450602081019050612cf1565b86831015612d335784890135612d2f601f891682612c3f565b8355505b6001600288020188555050505b50505050505050565b600081905092915050565b82818337600083830152505050565b6000612d6f8385612d49565b9350612d7c838584612d54565b82840190509392505050565b6000612d95828486612d63565b91508190509392505050565b7f4578706f7274657220616c726561647920616464656400000000000000000000600082015250565b6000612dd7601683612232565b9150612de282612da1565b602082019050919050565b60006020820190508181036000830152612e0681612dca565b9050919050565b612e1682612227565b67ffffffffffffffff811115612e2f57612e2e612a9e565b5b612e39825461291e565b612e44828285612bec565b600060209050601f831160018114612e775760008415612e65578287015190505b612e6f8582612c5d565b865550612ed7565b601f198416612e8586612acd565b60005b82811015612ead57848901518255600182019150602085019450602081019050612e88565b86831015612eca5784890151612ec6601f891682612c3f565b8355505b6001600288020188555050505b505050505050565b7f4e487b7100000000000000000000000000000000000000000000000000000000600052601160045260246000fd5b6000612f1982612701565b915061ffff8203612f2d57612f2c612edf565b5b600182019050919050565b7f4e487b7100000000000000000000000000000000000000000000000000000000600052600160045260246000fd5b7f4e487b7100000000000000000000000000000000000000000000000000000000600052603260045260246000fd5b6000612fa182612323565b9150612fac83612323565b9250828203905081811115612fc457612fc3612edf565b5b92915050565b7f4e487b7100000000000000000000000000000000000000000000000000000000600052603160045260246000fd5b600061300482612701565b91506000820361301757613016612edf565b5b600182039050919050565b7f43616c6c6572206973206e6f7420616e20617070726f766564204578706f727460008201527f6572000000000000000000000000000000000000000000000000000000000000602082015250565b600061307e602283612232565b915061308982613022565b604082019050919050565b600060208201905081810360008301526130ad81613071565b9050919050565b7f446f63756d656e74206861736820616c72656164792065786973747300000000600082015250565b60006130ea601c83612232565b91506130f5826130b4565b602082019050919050565b60006020820190508181036000830152613119816130dd565b9050919050565b600061312c8385612232565b9350613139838584612d54565b6131428361226d565b840190509392505050565b60006020820190508181036000830152613168818486613120565b90509392505050565b6000815461317e8161291e565b6131888186612d49565b945060018216600081146131a357600181146131b8576131eb565b60ff19831686528115158202860193506131eb565b6131c185612acd565b60005b838110156131e3578154818901526001820191506020810190506131c4565b838801955050505b50505092915050565b60006132008284613171565b915081905092915050565b7f43616c6c6572206973206e6f7420617574686f72697a656420746f206564697460008201527f207468697320646f63756d656e74000000000000000000000000000000000000602082015250565b6000613267602e83612232565b91506132728261320b565b604082019050919050565b600060208201905081810360008301526132968161325a565b9050919050565b7f446f63756d656e742068617368206e6f7420666f756e64000000000000000000600082015250565b60006132d3601783612232565b91506132de8261329d565b602082019050919050565b60006020820190508181036000830152613302816132c6565b9050919050565b600081905092915050565b60006133208385613309565b935061332d838584612d54565b82840190509392505050565b6000613346828486613314565b91508190509392505050565b60008190508160005260206000209050919050565b600081546133748161291e565b61337e8186613309565b9450600182166000811461339957600181146133ae576133e1565b60ff19831686528115158202860193506133e1565b6133b785613352565b60005b838110156133d9578154818901526001820191506020810190506133ba565b838801955050505b50505092915050565b60006133f68284613367565b915081905092915050565b6000815490506134108161291e565b9050919050565b8181036134255750506134fd565b61342e82613401565b67ffffffffffffffff81111561344757613446612a9e565b5b613451825461291e565b61345c828285612bec565b6000601f83116001811461348b5760008415613479578287015490505b6134838582612c5d565b8655506134f6565b601f19841661349987612acd565b96506134a486612acd565b60005b828110156134cc578489015482556001820191506001850194506020810190506134a7565b868310156134e957848901546134e5601f891682612c3f565b8355505b6001600288020188555050505b5050505050505b56fea2646970667358221220e7542978949a15f8fca7db33a22306d9cdc684c7ad403f092915cd8c4b35b3a164736f6c63430008190033","opcodes":"PUSH1 0x80 PUSH1 0x40 MSTORE PUSH1 0x0 DUP1 PUSH1 0x0 PUSH2 0x100 EXP DUP2 SLOAD DUP2 PUSH2 0xFFFF MUL NOT AND SWAP1 DUP4 PUSH2 0xFFFF AND MUL OR SWAP1 SSTORE POP CALLVALUE DUP1 ISZERO PUSH1 0x2C JUMPI PUSH1 0x0 DUP1 REVERT JUMPDEST POP CALLER PUSH1 0x0 PUSH1 0x2 PUSH2 0x100 EXP DUP2 SLOAD DUP2 PUSH20 0xFFFFFFFFFFFFFFFFFFFFFFFFFFFFFFFFFFFFFFFF MUL NOT AND SWAP1 DUP4 PUSH20 0xFFFFFFFFFFFFFFFFFFFFFFFFFFFFFFFFFFFFFFFF AND MUL OR SWAP1 SSTORE POP PUSH2 0x3535 DUP1 PUSH2 0x7D PUSH1 0x0 CODECOPY PUSH1 0x0 RETURN INVALID PUSH1 0x80 PUSH1 0x40 MSTORE CALLVALUE DUP1 ISZERO PUSH2 0x10 JUMPI PUSH1 0x0 DUP1 REVERT JUMPDEST POP PUSH1 0x4 CALLDATASIZE LT PUSH2 0xF5 JUMPI PUSH1 0x0 CALLDATALOAD PUSH1 0xE0 SHR DUP1 PUSH4 0x478B2AA2 GT PUSH2 0x97 JUMPI DUP1 PUSH4 0xA6F9DAE1 GT PUSH2 0x66 JUMPI DUP1 PUSH4 0xA6F9DAE1 EQ PUSH2 0x2B2 JUMPI DUP1 PUSH4 0xCCDE7710 EQ PUSH2 0x2CE JUMPI DUP1 PUSH4 0xCCF715EA EQ PUSH2 0x2EA JUMPI DUP1 PUSH4 0xE7D99722 EQ PUSH2 0x306 JUMPI PUSH2 0xF5 JUMP JUMPDEST DUP1 PUSH4 0x478B2AA2 EQ PUSH2 0x213 JUMPI DUP1 PUSH4 0x77F89255 EQ PUSH2 0x243 JUMPI DUP1 PUSH4 0x8DA5CB5B EQ PUSH2 0x261 JUMPI DUP1 PUSH4 0xA3DADDC5 EQ PUSH2 0x27F JUMPI PUSH2 0xF5 JUMP JUMPDEST DUP1 PUSH4 0x117CABEC GT PUSH2 0xD3 JUMPI DUP1 PUSH4 0x117CABEC EQ PUSH2 0x178 JUMPI DUP1 PUSH4 0x1EFF1D71 EQ PUSH2 0x1A8 JUMPI DUP1 PUSH4 0x4078DFCF EQ PUSH2 0x1C4 JUMPI DUP1 PUSH4 0x45278D1E EQ PUSH2 0x1F7 JUMPI PUSH2 0xF5 JUMP JUMPDEST DUP1 PUSH4 0x3233AF8 EQ PUSH2 0xFA JUMPI DUP1 PUSH4 0x5C8DC19 EQ PUSH2 0x118 JUMPI DUP1 PUSH4 0xB2B5BF5 EQ PUSH2 0x148 JUMPI JUMPDEST PUSH1 0x0 DUP1 REVERT JUMPDEST PUSH2 0x102 PUSH2 0x322 JUMP JUMPDEST PUSH1 0x40 MLOAD PUSH2 0x10F SWAP2 SWAP1 PUSH2 0x21A2 JUMP JUMPDEST PUSH1 0x40 MLOAD DUP1 SWAP2 SUB SWAP1 RETURN JUMPDEST PUSH2 0x132 PUSH1 0x4 DUP1 CALLDATASIZE SUB DUP2 ADD SWAP1 PUSH2 0x12D SWAP2 SWAP1 PUSH2 0x21FA JUMP JUMPDEST PUSH2 0x3B0 JUMP JUMPDEST PUSH1 0x40 MLOAD PUSH2 0x13F SWAP2 SWAP1 PUSH2 0x22B7 JUMP JUMPDEST PUSH1 0x40 MLOAD DUP1 SWAP2 SUB SWAP1 RETURN JUMPDEST PUSH2 0x162 PUSH1 0x4 DUP1 CALLDATASIZE SUB DUP2 ADD SWAP1 PUSH2 0x15D SWAP2 SWAP1 PUSH2 0x21FA JUMP JUMPDEST PUSH2 0x484 JUMP JUMPDEST PUSH1 0x40 MLOAD PUSH2 0x16F SWAP2 SWAP1 PUSH2 0x23AD JUMP JUMPDEST PUSH1 0x40 MLOAD DUP1 SWAP2 SUB SWAP1 RETURN JUMPDEST PUSH2 0x192 PUSH1 0x4 DUP1 CALLDATASIZE SUB DUP2 ADD SWAP1 PUSH2 0x18D SWAP2 SWAP1 PUSH2 0x21FA JUMP JUMPDEST PUSH2 0x70C JUMP JUMPDEST PUSH1 0x40 MLOAD PUSH2 0x19F SWAP2 SWAP1 PUSH2 0x24E8 JUMP JUMPDEST PUSH1 0x40 MLOAD DUP1 SWAP2 SUB SWAP1 RETURN JUMPDEST PUSH2 0x1C2 PUSH1 0x4 DUP1 CALLDATASIZE SUB DUP2 ADD SWAP1 PUSH2 0x1BD SWAP2 SWAP1 PUSH2 0x256F JUMP JUMPDEST PUSH2 0x96C JUMP JUMPDEST STOP JUMPDEST PUSH2 0x1DE PUSH1 0x4 DUP1 CALLDATASIZE SUB DUP2 ADD SWAP1 PUSH2 0x1D9 SWAP2 SWAP1 PUSH2 0x25CF JUMP JUMPDEST PUSH2 0xA9B JUMP JUMPDEST PUSH1 0x40 MLOAD PUSH2 0x1EE SWAP5 SWAP4 SWAP3 SWAP2 SWAP1 PUSH2 0x262B JUMP JUMPDEST PUSH1 0x40 MLOAD DUP1 SWAP2 SUB SWAP1 RETURN JUMPDEST PUSH2 0x211 PUSH1 0x4 DUP1 CALLDATASIZE SUB DUP2 ADD SWAP1 PUSH2 0x20C SWAP2 SWAP1 PUSH2 0x256F JUMP JUMPDEST PUSH2 0xC58 JUMP JUMPDEST STOP JUMPDEST PUSH2 0x22D PUSH1 0x4 DUP1 CALLDATASIZE SUB DUP2 ADD SWAP1 PUSH2 0x228 SWAP2 SWAP1 PUSH2 0x26AA JUMP JUMPDEST PUSH2 0xE89 JUMP JUMPDEST PUSH1 0x40 MLOAD PUSH2 0x23A SWAP2 SWAP1 PUSH2 0x26E6 JUMP JUMPDEST PUSH1 0x40 MLOAD DUP1 SWAP2 SUB SWAP1 RETURN JUMPDEST PUSH2 0x24B PUSH2 0xEC8 JUMP JUMPDEST PUSH1 0x40 MLOAD PUSH2 0x258 SWAP2 SWAP1 PUSH2 0x271E JUMP JUMPDEST PUSH1 0x40 MLOAD DUP1 SWAP2 SUB SWAP1 RETURN JUMPDEST PUSH2 0x269 PUSH2 0xEDA JUMP JUMPDEST PUSH1 0x40 MLOAD PUSH2 0x276 SWAP2 SWAP1 PUSH2 0x26E6 JUMP JUMPDEST PUSH1 0x40 MLOAD DUP1 SWAP2 SUB SWAP1 RETURN JUMPDEST PUSH2 0x299 PUSH1 0x4 DUP1 CALLDATASIZE SUB DUP2 ADD SWAP1 PUSH2 0x294 SWAP2 SWAP1 PUSH2 0x21FA JUMP JUMPDEST PUSH2 0xF00 JUMP JUMPDEST PUSH1 0x40 MLOAD PUSH2 0x2A9 SWAP5 SWAP4 SWAP3 SWAP2 SWAP1 PUSH2 0x2739 JUMP JUMPDEST PUSH1 0x40 MLOAD DUP1 SWAP2 SUB SWAP1 RETURN JUMPDEST PUSH2 0x2CC PUSH1 0x4 DUP1 CALLDATASIZE SUB DUP2 ADD SWAP1 PUSH2 0x2C7 SWAP2 SWAP1 PUSH2 0x21FA JUMP JUMPDEST PUSH2 0x10C8 JUMP JUMPDEST STOP JUMPDEST PUSH2 0x2E8 PUSH1 0x4 DUP1 CALLDATASIZE SUB DUP2 ADD SWAP1 PUSH2 0x2E3 SWAP2 SWAP1 PUSH2 0x21FA JUMP JUMPDEST PUSH2 0x11DB JUMP JUMPDEST STOP JUMPDEST PUSH2 0x304 PUSH1 0x4 DUP1 CALLDATASIZE SUB DUP2 ADD SWAP1 PUSH2 0x2FF SWAP2 SWAP1 PUSH2 0x2793 JUMP JUMPDEST PUSH2 0x14CC JUMP JUMPDEST STOP JUMPDEST PUSH2 0x320 PUSH1 0x4 DUP1 CALLDATASIZE SUB DUP2 ADD SWAP1 PUSH2 0x31B SWAP2 SWAP1 PUSH2 0x288F JUMP JUMPDEST PUSH2 0x1AE7 JUMP JUMPDEST STOP JUMPDEST PUSH1 0x60 PUSH1 0x4 DUP1 SLOAD DUP1 PUSH1 0x20 MUL PUSH1 0x20 ADD PUSH1 0x40 MLOAD SWAP1 DUP2 ADD PUSH1 0x40 MSTORE DUP1 SWAP3 SWAP2 SWAP1 DUP2 DUP2 MSTORE PUSH1 0x20 ADD DUP3 DUP1 SLOAD DUP1 ISZERO PUSH2 0x3A6 JUMPI PUSH1 0x20 MUL DUP3 ADD SWAP2 SWAP1 PUSH1 0x0 MSTORE PUSH1 0x20 PUSH1 0x0 KECCAK256 SWAP1 JUMPDEST DUP2 PUSH1 0x0 SWAP1 SLOAD SWAP1 PUSH2 0x100 EXP SWAP1 DIV PUSH20 0xFFFFFFFFFFFFFFFFFFFFFFFFFFFFFFFFFFFFFFFF AND PUSH20 0xFFFFFFFFFFFFFFFFFFFFFFFFFFFFFFFFFFFFFFFF AND DUP2 MSTORE PUSH1 0x20 ADD SWAP1 PUSH1 0x1 ADD SWAP1 DUP1 DUP4 GT PUSH2 0x35C JUMPI JUMPDEST POP POP POP POP POP SWAP1 POP SWAP1 JUMP JUMPDEST PUSH1 0x60 PUSH1 0x2 PUSH1 0x0 DUP4 PUSH20 0xFFFFFFFFFFFFFFFFFFFFFFFFFFFFFFFFFFFFFFFF AND PUSH20 0xFFFFFFFFFFFFFFFFFFFFFFFFFFFFFFFFFFFFFFFF AND DUP2 MSTORE PUSH1 0x20 ADD SWAP1 DUP2 MSTORE PUSH1 0x20 ADD PUSH1 0x0 KECCAK256 PUSH1 0x1 ADD DUP1 SLOAD PUSH2 0x3FF SWAP1 PUSH2 0x291E JUMP JUMPDEST DUP1 PUSH1 0x1F ADD PUSH1 0x20 DUP1 SWAP2 DIV MUL PUSH1 0x20 ADD PUSH1 0x40 MLOAD SWAP1 DUP2 ADD PUSH1 0x40 MSTORE DUP1 SWAP3 SWAP2 SWAP1 DUP2 DUP2 MSTORE PUSH1 0x20 ADD DUP3 DUP1 SLOAD PUSH2 0x42B SWAP1 PUSH2 0x291E JUMP JUMPDEST DUP1 ISZERO PUSH2 0x478 JUMPI DUP1 PUSH1 0x1F LT PUSH2 0x44D JUMPI PUSH2 0x100 DUP1 DUP4 SLOAD DIV MUL DUP4 MSTORE SWAP2 PUSH1 0x20 ADD SWAP2 PUSH2 0x478 JUMP JUMPDEST DUP3 ADD SWAP2 SWAP1 PUSH1 0x0 MSTORE PUSH1 0x20 PUSH1 0x0 KECCAK256 SWAP1 JUMPDEST DUP2 SLOAD DUP2 MSTORE SWAP1 PUSH1 0x1 ADD SWAP1 PUSH1 0x20 ADD DUP1 DUP4 GT PUSH2 0x45B JUMPI DUP3 SWAP1 SUB PUSH1 0x1F AND DUP3 ADD SWAP2 JUMPDEST POP POP POP POP POP SWAP1 POP SWAP2 SWAP1 POP JUMP JUMPDEST PUSH2 0x48C PUSH2 0x202D JUMP JUMPDEST PUSH1 0x0 PUSH20 0xFFFFFFFFFFFFFFFFFFFFFFFFFFFFFFFFFFFFFFFF AND DUP3 PUSH20 0xFFFFFFFFFFFFFFFFFFFFFFFFFFFFFFFFFFFFFFFF AND SUB PUSH2 0x4FB JUMPI PUSH1 0x40 MLOAD PUSH32 0x8C379A000000000000000000000000000000000000000000000000000000000 DUP2 MSTORE PUSH1 0x4 ADD PUSH2 0x4F2 SWAP1 PUSH2 0x299B JUMP JUMPDEST PUSH1 0x40 MLOAD DUP1 SWAP2 SUB SWAP1 REVERT JUMPDEST PUSH1 0x3 PUSH1 0x0 DUP4 PUSH20 0xFFFFFFFFFFFFFFFFFFFFFFFFFFFFFFFFFFFFFFFF AND PUSH20 0xFFFFFFFFFFFFFFFFFFFFFFFFFFFFFFFFFFFFFFFF AND DUP2 MSTORE PUSH1 0x20 ADD SWAP1 DUP2 MSTORE PUSH1 0x20 ADD PUSH1 0x0 KECCAK256 PUSH1 0x40 MLOAD DUP1 PUSH1 0x80 ADD PUSH1 0x40 MSTORE SWAP1 DUP2 PUSH1 0x0 DUP3 ADD DUP1 SLOAD PUSH2 0x555 SWAP1 PUSH2 0x291E JUMP JUMPDEST DUP1 PUSH1 0x1F ADD PUSH1 0x20 DUP1 SWAP2 DIV MUL PUSH1 0x20 ADD PUSH1 0x40 MLOAD SWAP1 DUP2 ADD PUSH1 0x40 MSTORE DUP1 SWAP3 SWAP2 SWAP1 DUP2 DUP2 MSTORE PUSH1 0x20 ADD DUP3 DUP1 SLOAD PUSH2 0x581 SWAP1 PUSH2 0x291E JUMP JUMPDEST DUP1 ISZERO PUSH2 0x5CE JUMPI DUP1 PUSH1 0x1F LT PUSH2 0x5A3 JUMPI PUSH2 0x100 DUP1 DUP4 SLOAD DIV MUL DUP4 MSTORE SWAP2 PUSH1 0x20 ADD SWAP2 PUSH2 0x5CE JUMP JUMPDEST DUP3 ADD SWAP2 SWAP1 PUSH1 0x0 MSTORE PUSH1 0x20 PUSH1 0x0 KECCAK256 SWAP1 JUMPDEST DUP2 SLOAD DUP2 MSTORE SWAP1 PUSH1 0x1 ADD SWAP1 PUSH1 0x20 ADD DUP1 DUP4 GT PUSH2 0x5B1 JUMPI DUP3 SWAP1 SUB PUSH1 0x1F AND DUP3 ADD SWAP2 JUMPDEST POP POP POP POP POP DUP2 MSTORE PUSH1 0x20 ADD PUSH1 0x1 DUP3 ADD DUP1 SLOAD PUSH2 0x5E7 SWAP1 PUSH2 0x291E JUMP JUMPDEST DUP1 PUSH1 0x1F ADD PUSH1 0x20 DUP1 SWAP2 DIV MUL PUSH1 0x20 ADD PUSH1 0x40 MLOAD SWAP1 DUP2 ADD PUSH1 0x40 MSTORE DUP1 SWAP3 SWAP2 SWAP1 DUP2 DUP2 MSTORE PUSH1 0x20 ADD DUP3 DUP1 SLOAD PUSH2 0x613 SWAP1 PUSH2 0x291E JUMP JUMPDEST DUP1 ISZERO PUSH2 0x660 JUMPI DUP1 PUSH1 0x1F LT PUSH2 0x635 JUMPI PUSH2 0x100 DUP1 DUP4 SLOAD DIV MUL DUP4 MSTORE SWAP2 PUSH1 0x20 ADD SWAP2 PUSH2 0x660 JUMP JUMPDEST DUP3 ADD SWAP2 SWAP1 PUSH1 0x0 MSTORE PUSH1 0x20 PUSH1 0x0 KECCAK256 SWAP1 JUMPDEST DUP2 SLOAD DUP2 MSTORE SWAP1 PUSH1 0x1 ADD SWAP1 PUSH1 0x20 ADD DUP1 DUP4 GT PUSH2 0x643 JUMPI DUP3 SWAP1 SUB PUSH1 0x1F AND DUP3 ADD SWAP2 JUMPDEST POP POP POP POP POP DUP2 MSTORE PUSH1 0x20 ADD PUSH1 0x2 DUP3 ADD DUP1 SLOAD PUSH2 0x679 SWAP1 PUSH2 0x291E JUMP JUMPDEST DUP1 PUSH1 0x1F ADD PUSH1 0x20 DUP1 SWAP2 DIV MUL PUSH1 0x20 ADD PUSH1 0x40 MLOAD SWAP1 DUP2 ADD PUSH1 0x40 MSTORE DUP1 SWAP3 SWAP2 SWAP1 DUP2 DUP2 MSTORE PUSH1 0x20 ADD DUP3 DUP1 SLOAD PUSH2 0x6A5 SWAP1 PUSH2 0x291E JUMP JUMPDEST DUP1 ISZERO PUSH2 0x6F2 JUMPI DUP1 PUSH1 0x1F LT PUSH2 0x6C7 JUMPI PUSH2 0x100 DUP1 DUP4 SLOAD DIV MUL DUP4 MSTORE SWAP2 PUSH1 0x20 ADD SWAP2 PUSH2 0x6F2 JUMP JUMPDEST DUP3 ADD SWAP2 SWAP1 PUSH1 0x0 MSTORE PUSH1 0x20 PUSH1 0x0 KECCAK256 SWAP1 JUMPDEST DUP2 SLOAD DUP2 MSTORE SWAP1 PUSH1 0x1 ADD SWAP1 PUSH1 0x20 ADD DUP1 DUP4 GT PUSH2 0x6D5 JUMPI DUP3 SWAP1 SUB PUSH1 0x1F AND DUP3 ADD SWAP2 JUMPDEST POP POP POP POP POP DUP2 MSTORE PUSH1 0x20 ADD PUSH1 0x3 DUP3 ADD SLOAD DUP2 MSTORE POP POP SWAP1 POP SWAP2 SWAP1 POP JUMP JUMPDEST PUSH1 0x60 PUSH2 0x717 DUP3 PUSH2 0x1FDE JUMP JUMPDEST PUSH2 0x756 JUMPI PUSH1 0x40 MLOAD PUSH32 0x8C379A000000000000000000000000000000000000000000000000000000000 DUP2 MSTORE PUSH1 0x4 ADD PUSH2 0x74D SWAP1 PUSH2 0x2A07 JUMP JUMPDEST PUSH1 0x40 MLOAD DUP1 SWAP2 SUB SWAP1 REVERT JUMPDEST PUSH1 0x5 PUSH1 0x0 DUP4 PUSH20 0xFFFFFFFFFFFFFFFFFFFFFFFFFFFFFFFFFFFFFFFF AND PUSH20 0xFFFFFFFFFFFFFFFFFFFFFFFFFFFFFFFFFFFFFFFF AND DUP2 MSTORE PUSH1 0x20 ADD SWAP1 DUP2 MSTORE PUSH1 0x20 ADD PUSH1 0x0 KECCAK256 DUP1 SLOAD DUP1 PUSH1 0x20 MUL PUSH1 0x20 ADD PUSH1 0x40 MLOAD SWAP1 DUP2 ADD PUSH1 0x40 MSTORE DUP1 SWAP3 SWAP2 SWAP1 DUP2 DUP2 MSTORE PUSH1 0x20 ADD PUSH1 0x0 SWAP1 JUMPDEST DUP3 DUP3 LT ISZERO PUSH2 0x961 JUMPI DUP4 DUP3 SWAP1 PUSH1 0x0 MSTORE PUSH1 0x20 PUSH1 0x0 KECCAK256 SWAP1 PUSH1 0x3 MUL ADD PUSH1 0x40 MLOAD DUP1 PUSH1 0x60 ADD PUSH1 0x40 MSTORE SWAP1 DUP2 PUSH1 0x0 DUP3 ADD DUP1 SLOAD PUSH2 0x7E8 SWAP1 PUSH2 0x291E JUMP JUMPDEST DUP1 PUSH1 0x1F ADD PUSH1 0x20 DUP1 SWAP2 DIV MUL PUSH1 0x20 ADD PUSH1 0x40 MLOAD SWAP1 DUP2 ADD PUSH1 0x40 MSTORE DUP1 SWAP3 SWAP2 SWAP1 DUP2 DUP2 MSTORE PUSH1 0x20 ADD DUP3 DUP1 SLOAD PUSH2 0x814 SWAP1 PUSH2 0x291E JUMP JUMPDEST DUP1 ISZERO PUSH2 0x861 JUMPI DUP1 PUSH1 0x1F LT PUSH2 0x836 JUMPI PUSH2 0x100 DUP1 DUP4 SLOAD DIV MUL DUP4 MSTORE SWAP2 PUSH1 0x20 ADD SWAP2 PUSH2 0x861 JUMP JUMPDEST DUP3 ADD SWAP2 SWAP1 PUSH1 0x0 MSTORE PUSH1 0x20 PUSH1 0x0 KECCAK256 SWAP1 JUMPDEST DUP2 SLOAD DUP2 MSTORE SWAP1 PUSH1 0x1 ADD SWAP1 PUSH1 0x20 ADD DUP1 DUP4 GT PUSH2 0x844 JUMPI DUP3 SWAP1 SUB PUSH1 0x1F AND DUP3 ADD SWAP2 JUMPDEST POP POP POP POP POP DUP2 MSTORE PUSH1 0x20 ADD PUSH1 0x1 DUP3 ADD PUSH1 0x0 SWAP1 SLOAD SWAP1 PUSH2 0x100 EXP SWAP1 DIV PUSH20 0xFFFFFFFFFFFFFFFFFFFFFFFFFFFFFFFFFFFFFFFF AND PUSH20 0xFFFFFFFFFFFFFFFFFFFFFFFFFFFFFFFFFFFFFFFF AND PUSH20 0xFFFFFFFFFFFFFFFFFFFFFFFFFFFFFFFFFFFFFFFF AND DUP2 MSTORE PUSH1 0x20 ADD PUSH1 0x2 DUP3 ADD DUP1 SLOAD PUSH2 0x8D0 SWAP1 PUSH2 0x291E JUMP JUMPDEST DUP1 PUSH1 0x1F ADD PUSH1 0x20 DUP1 SWAP2 DIV MUL PUSH1 0x20 ADD PUSH1 0x40 MLOAD SWAP1 DUP2 ADD PUSH1 0x40 MSTORE DUP1 SWAP3 SWAP2 SWAP1 DUP2 DUP2 MSTORE PUSH1 0x20 ADD DUP3 DUP1 SLOAD PUSH2 0x8FC SWAP1 PUSH2 0x291E JUMP JUMPDEST DUP1 ISZERO PUSH2 0x949 JUMPI DUP1 PUSH1 0x1F LT PUSH2 0x91E JUMPI PUSH2 0x100 DUP1 DUP4 SLOAD DIV MUL DUP4 MSTORE SWAP2 PUSH1 0x20 ADD SWAP2 PUSH2 0x949 JUMP JUMPDEST DUP3 ADD SWAP2 SWAP1 PUSH1 0x0 MSTORE PUSH1 0x20 PUSH1 0x0 KECCAK256 SWAP1 JUMPDEST DUP2 SLOAD DUP2 MSTORE SWAP1 PUSH1 0x1 ADD SWAP1 PUSH1 0x20 ADD DUP1 DUP4 GT PUSH2 0x92C JUMPI DUP3 SWAP1 SUB PUSH1 0x1F AND DUP3 ADD SWAP2 JUMPDEST POP POP POP POP POP DUP2 MSTORE POP POP DUP2 MSTORE PUSH1 0x20 ADD SWAP1 PUSH1 0x1 ADD SWAP1 PUSH2 0x7B5 JUMP JUMPDEST POP POP POP POP SWAP1 POP SWAP2 SWAP1 POP JUMP JUMPDEST PUSH1 0x0 PUSH1 0x2 SWAP1 SLOAD SWAP1 PUSH2 0x100 EXP SWAP1 DIV PUSH20 0xFFFFFFFFFFFFFFFFFFFFFFFFFFFFFFFFFFFFFFFF AND PUSH20 0xFFFFFFFFFFFFFFFFFFFFFFFFFFFFFFFFFFFFFFFF AND CALLER PUSH20 0xFFFFFFFFFFFFFFFFFFFFFFFFFFFFFFFFFFFFFFFF AND EQ PUSH2 0x9FC JUMPI PUSH1 0x40 MLOAD PUSH32 0x8C379A000000000000000000000000000000000000000000000000000000000 DUP2 MSTORE PUSH1 0x4 ADD PUSH2 0x9F3 SWAP1 PUSH2 0x2A73 JUMP JUMPDEST PUSH1 0x40 MLOAD DUP1 SWAP2 SUB SWAP1 REVERT JUMPDEST PUSH2 0xA05 DUP4 PUSH2 0x1FDE JUMP JUMPDEST PUSH2 0xA44 JUMPI PUSH1 0x40 MLOAD PUSH32 0x8C379A000000000000000000000000000000000000000000000000000000000 DUP2 MSTORE PUSH1 0x4 ADD PUSH2 0xA3B SWAP1 PUSH2 0x2A07 JUMP JUMPDEST PUSH1 0x40 MLOAD DUP1 SWAP2 SUB SWAP1 REVERT JUMPDEST DUP2 DUP2 PUSH1 0x2 PUSH1 0x0 DUP7 PUSH20 0xFFFFFFFFFFFFFFFFFFFFFFFFFFFFFFFFFFFFFFFF AND PUSH20 0xFFFFFFFFFFFFFFFFFFFFFFFFFFFFFFFFFFFFFFFF AND DUP2 MSTORE PUSH1 0x20 ADD SWAP1 DUP2 MSTORE PUSH1 0x20 ADD PUSH1 0x0 KECCAK256 PUSH1 0x1 ADD SWAP2 DUP3 PUSH2 0xA95 SWAP3 SWAP2 SWAP1 PUSH2 0x2C79 JUMP JUMPDEST POP POP POP POP JUMP JUMPDEST PUSH1 0x0 DUP1 PUSH1 0x60 DUP1 PUSH1 0x1 DUP7 DUP7 PUSH1 0x40 MLOAD PUSH2 0xAB3 SWAP3 SWAP2 SWAP1 PUSH2 0x2D88 JUMP JUMPDEST SWAP1 DUP2 MSTORE PUSH1 0x20 ADD PUSH1 0x40 MLOAD DUP1 SWAP2 SUB SWAP1 KECCAK256 PUSH1 0x0 ADD SLOAD PUSH1 0x1 DUP8 DUP8 PUSH1 0x40 MLOAD PUSH2 0xAD7 SWAP3 SWAP2 SWAP1 PUSH2 0x2D88 JUMP JUMPDEST SWAP1 DUP2 MSTORE PUSH1 0x20 ADD PUSH1 0x40 MLOAD DUP1 SWAP2 SUB SWAP1 KECCAK256 PUSH1 0x1 ADD SLOAD PUSH1 0x1 DUP9 DUP9 PUSH1 0x40 MLOAD PUSH2 0xAFB SWAP3 SWAP2 SWAP1 PUSH2 0x2D88 JUMP JUMPDEST SWAP1 DUP2 MSTORE PUSH1 0x20 ADD PUSH1 0x40 MLOAD DUP1 SWAP2 SUB SWAP1 KECCAK256 PUSH1 0x2 ADD PUSH1 0x1 DUP10 DUP10 PUSH1 0x40 MLOAD PUSH2 0xB1E SWAP3 SWAP2 SWAP1 PUSH2 0x2D88 JUMP JUMPDEST SWAP1 DUP2 MSTORE PUSH1 0x20 ADD PUSH1 0x40 MLOAD DUP1 SWAP2 SUB SWAP1 KECCAK256 PUSH1 0x3 ADD DUP2 DUP1 SLOAD PUSH2 0xB3B SWAP1 PUSH2 0x291E JUMP JUMPDEST DUP1 PUSH1 0x1F ADD PUSH1 0x20 DUP1 SWAP2 DIV MUL PUSH1 0x20 ADD PUSH1 0x40 MLOAD SWAP1 DUP2 ADD PUSH1 0x40 MSTORE DUP1 SWAP3 SWAP2 SWAP1 DUP2 DUP2 MSTORE PUSH1 0x20 ADD DUP3 DUP1 SLOAD PUSH2 0xB67 SWAP1 PUSH2 0x291E JUMP JUMPDEST DUP1 ISZERO PUSH2 0xBB4 JUMPI DUP1 PUSH1 0x1F LT PUSH2 0xB89 JUMPI PUSH2 0x100 DUP1 DUP4 SLOAD DIV MUL DUP4 MSTORE SWAP2 PUSH1 0x20 ADD SWAP2 PUSH2 0xBB4 JUMP JUMPDEST DUP3 ADD SWAP2 SWAP1 PUSH1 0x0 MSTORE PUSH1 0x20 PUSH1 0x0 KECCAK256 SWAP1 JUMPDEST DUP2 SLOAD DUP2 MSTORE SWAP1 PUSH1 0x1 ADD SWAP1 PUSH1 0x20 ADD DUP1 DUP4 GT PUSH2 0xB97 JUMPI DUP3 SWAP1 SUB PUSH1 0x1F AND DUP3 ADD SWAP2 JUMPDEST POP POP POP POP POP SWAP2 POP DUP1 DUP1 SLOAD PUSH2 0xBC7 SWAP1 PUSH2 0x291E JUMP JUMPDEST DUP1 PUSH1 0x1F ADD PUSH1 0x20 DUP1 SWAP2 DIV MUL PUSH1 0x20 ADD PUSH1 0x40 MLOAD SWAP1 DUP2 ADD PUSH1 0x40 MSTORE DUP1 SWAP3 SWAP2 SWAP1 DUP2 DUP2 MSTORE PUSH1 0x20 ADD DUP3 DUP1 SLOAD PUSH2 0xBF3 SWAP1 PUSH2 0x291E JUMP JUMPDEST DUP1 ISZERO PUSH2 0xC40 JUMPI DUP1 PUSH1 0x1F LT PUSH2 0xC15 JUMPI PUSH2 0x100 DUP1 DUP4 SLOAD DIV MUL DUP4 MSTORE SWAP2 PUSH1 0x20 ADD SWAP2 PUSH2 0xC40 JUMP JUMPDEST DUP3 ADD SWAP2 SWAP1 PUSH1 0x0 MSTORE PUSH1 0x20 PUSH1 0x0 KECCAK256 SWAP1 JUMPDEST DUP2 SLOAD DUP2 MSTORE SWAP1 PUSH1 0x1 ADD SWAP1 PUSH1 0x20 ADD DUP1 DUP4 GT PUSH2 0xC23 JUMPI DUP3 SWAP1 SUB PUSH1 0x1F AND DUP3 ADD SWAP2 JUMPDEST POP POP POP POP POP SWAP1 POP SWAP4 POP SWAP4 POP SWAP4 POP SWAP4 POP SWAP3 SWAP6 SWAP2 SWAP5 POP SWAP3 POP JUMP JUMPDEST PUSH1 0x0 PUSH1 0x2 SWAP1 SLOAD SWAP1 PUSH2 0x100 EXP SWAP1 DIV PUSH20 0xFFFFFFFFFFFFFFFFFFFFFFFFFFFFFFFFFFFFFFFF AND PUSH20 0xFFFFFFFFFFFFFFFFFFFFFFFFFFFFFFFFFFFFFFFF AND CALLER PUSH20 0xFFFFFFFFFFFFFFFFFFFFFFFFFFFFFFFFFFFFFFFF AND EQ PUSH2 0xCE8 JUMPI PUSH1 0x40 MLOAD PUSH32 0x8C379A000000000000000000000000000000000000000000000000000000000 DUP2 MSTORE PUSH1 0x4 ADD PUSH2 0xCDF SWAP1 PUSH2 0x2A73 JUMP JUMPDEST PUSH1 0x40 MLOAD DUP1 SWAP2 SUB SWAP1 REVERT JUMPDEST PUSH2 0xCF1 DUP4 PUSH2 0x1FDE JUMP JUMPDEST ISZERO PUSH2 0xD31 JUMPI PUSH1 0x40 MLOAD PUSH32 0x8C379A000000000000000000000000000000000000000000000000000000000 DUP2 MSTORE PUSH1 0x4 ADD PUSH2 0xD28 SWAP1 PUSH2 0x2DED JUMP JUMPDEST PUSH1 0x40 MLOAD DUP1 SWAP2 SUB SWAP1 REVERT JUMPDEST PUSH1 0x40 MLOAD DUP1 PUSH1 0x40 ADD PUSH1 0x40 MSTORE DUP1 NUMBER DUP2 MSTORE PUSH1 0x20 ADD DUP4 DUP4 DUP1 DUP1 PUSH1 0x1F ADD PUSH1 0x20 DUP1 SWAP2 DIV MUL PUSH1 0x20 ADD PUSH1 0x40 MLOAD SWAP1 DUP2 ADD PUSH1 0x40 MSTORE DUP1 SWAP4 SWAP3 SWAP2 SWAP1 DUP2 DUP2 MSTORE PUSH1 0x20 ADD DUP4 DUP4 DUP1 DUP3 DUP5 CALLDATACOPY PUSH1 0x0 DUP2 DUP5 ADD MSTORE PUSH1 0x1F NOT PUSH1 0x1F DUP3 ADD AND SWAP1 POP DUP1 DUP4 ADD SWAP3 POP POP POP POP POP POP POP DUP2 MSTORE POP PUSH1 0x2 PUSH1 0x0 DUP6 PUSH20 0xFFFFFFFFFFFFFFFFFFFFFFFFFFFFFFFFFFFFFFFF AND PUSH20 0xFFFFFFFFFFFFFFFFFFFFFFFFFFFFFFFFFFFFFFFF AND DUP2 MSTORE PUSH1 0x20 ADD SWAP1 DUP2 MSTORE PUSH1 0x20 ADD PUSH1 0x0 KECCAK256 PUSH1 0x0 DUP3 ADD MLOAD DUP2 PUSH1 0x0 ADD SSTORE PUSH1 0x20 DUP3 ADD MLOAD DUP2 PUSH1 0x1 ADD SWAP1 DUP2 PUSH2 0xDE8 SWAP2 SWAP1 PUSH2 0x2E0D JUMP JUMPDEST POP SWAP1 POP POP PUSH1 0x4 DUP4 SWAP1 DUP1 PUSH1 0x1 DUP2 SLOAD ADD DUP1 DUP3 SSTORE DUP1 SWAP2 POP POP PUSH1 0x1 SWAP1 SUB SWAP1 PUSH1 0x0 MSTORE PUSH1 0x20 PUSH1 0x0 KECCAK256 ADD PUSH1 0x0 SWAP1 SWAP2 SWAP1 SWAP2 SWAP1 SWAP2 PUSH2 0x100 EXP DUP2 SLOAD DUP2 PUSH20 0xFFFFFFFFFFFFFFFFFFFFFFFFFFFFFFFFFFFFFFFF MUL NOT AND SWAP1 DUP4 PUSH20 0xFFFFFFFFFFFFFFFFFFFFFFFFFFFFFFFFFFFFFFFF AND MUL OR SWAP1 SSTORE POP PUSH1 0x0 DUP1 DUP2 DUP2 SWAP1 SLOAD SWAP1 PUSH2 0x100 EXP SWAP1 DIV PUSH2 0xFFFF AND PUSH2 0xE6A SWAP1 PUSH2 0x2F0E JUMP JUMPDEST SWAP2 SWAP1 PUSH2 0x100 EXP DUP2 SLOAD DUP2 PUSH2 0xFFFF MUL NOT AND SWAP1 DUP4 PUSH2 0xFFFF AND MUL OR SWAP1 SSTORE POP POP POP POP JUMP JUMPDEST PUSH1 0x4 DUP2 DUP2 SLOAD DUP2 LT PUSH2 0xE99 JUMPI PUSH1 0x0 DUP1 REVERT JUMPDEST SWAP1 PUSH1 0x0 MSTORE PUSH1 0x20 PUSH1 0x0 KECCAK256 ADD PUSH1 0x0 SWAP2 POP SLOAD SWAP1 PUSH2 0x100 EXP SWAP1 DIV PUSH20 0xFFFFFFFFFFFFFFFFFFFFFFFFFFFFFFFFFFFFFFFF AND DUP2 JUMP JUMPDEST PUSH1 0x0 DUP1 SLOAD SWAP1 PUSH2 0x100 EXP SWAP1 DIV PUSH2 0xFFFF AND DUP2 JUMP JUMPDEST PUSH1 0x0 PUSH1 0x2 SWAP1 SLOAD SWAP1 PUSH2 0x100 EXP SWAP1 DIV PUSH20 0xFFFFFFFFFFFFFFFFFFFFFFFFFFFFFFFFFFFFFFFF AND DUP2 JUMP JUMPDEST PUSH1 0x3 PUSH1 0x20 MSTORE DUP1 PUSH1 0x0 MSTORE PUSH1 0x40 PUSH1 0x0 KECCAK256 PUSH1 0x0 SWAP2 POP SWAP1 POP DUP1 PUSH1 0x0 ADD DUP1 SLOAD PUSH2 0xF23 SWAP1 PUSH2 0x291E JUMP JUMPDEST DUP1 PUSH1 0x1F ADD PUSH1 0x20 DUP1 SWAP2 DIV MUL PUSH1 0x20 ADD PUSH1 0x40 MLOAD SWAP1 DUP2 ADD PUSH1 0x40 MSTORE DUP1 SWAP3 SWAP2 SWAP1 DUP2 DUP2 MSTORE PUSH1 0x20 ADD DUP3 DUP1 SLOAD PUSH2 0xF4F SWAP1 PUSH2 0x291E JUMP JUMPDEST DUP1 ISZERO PUSH2 0xF9C JUMPI DUP1 PUSH1 0x1F LT PUSH2 0xF71 JUMPI PUSH2 0x100 DUP1 DUP4 SLOAD DIV MUL DUP4 MSTORE SWAP2 PUSH1 0x20 ADD SWAP2 PUSH2 0xF9C JUMP JUMPDEST DUP3 ADD SWAP2 SWAP1 PUSH1 0x0 MSTORE PUSH1 0x20 PUSH1 0x0 KECCAK256 SWAP1 JUMPDEST DUP2 SLOAD DUP2 MSTORE SWAP1 PUSH1 0x1 ADD SWAP1 PUSH1 0x20 ADD DUP1 DUP4 GT PUSH2 0xF7F JUMPI DUP3 SWAP1 SUB PUSH1 0x1F AND DUP3 ADD SWAP2 JUMPDEST POP POP POP POP POP SWAP1 DUP1 PUSH1 0x1 ADD DUP1 SLOAD PUSH2 0xFB1 SWAP1 PUSH2 0x291E JUMP JUMPDEST DUP1 PUSH1 0x1F ADD PUSH1 0x20 DUP1 SWAP2 DIV MUL PUSH1 0x20 ADD PUSH1 0x40 MLOAD SWAP1 DUP2 ADD PUSH1 0x40 MSTORE DUP1 SWAP3 SWAP2 SWAP1 DUP2 DUP2 MSTORE PUSH1 0x20 ADD DUP3 DUP1 SLOAD PUSH2 0xFDD SWAP1 PUSH2 0x291E JUMP JUMPDEST DUP1 ISZERO PUSH2 0x102A JUMPI DUP1 PUSH1 0x1F LT PUSH2 0xFFF JUMPI PUSH2 0x100 DUP1 DUP4 SLOAD DIV MUL DUP4 MSTORE SWAP2 PUSH1 0x20 ADD SWAP2 PUSH2 0x102A JUMP JUMPDEST DUP3 ADD SWAP2 SWAP1 PUSH1 0x0 MSTORE PUSH1 0x20 PUSH1 0x0 KECCAK256 SWAP1 JUMPDEST DUP2 SLOAD DUP2 MSTORE SWAP1 PUSH1 0x1 ADD SWAP1 PUSH1 0x20 ADD DUP1 DUP4 GT PUSH2 0x100D JUMPI DUP3 SWAP1 SUB PUSH1 0x1F AND DUP3 ADD SWAP2 JUMPDEST POP POP POP POP POP SWAP1 DUP1 PUSH1 0x2 ADD DUP1 SLOAD PUSH2 0x103F SWAP1 PUSH2 0x291E JUMP JUMPDEST DUP1 PUSH1 0x1F ADD PUSH1 0x20 DUP1 SWAP2 DIV MUL PUSH1 0x20 ADD PUSH1 0x40 MLOAD SWAP1 DUP2 ADD PUSH1 0x40 MSTORE DUP1 SWAP3 SWAP2 SWAP1 DUP2 DUP2 MSTORE PUSH1 0x20 ADD DUP3 DUP1 SLOAD PUSH2 0x106B SWAP1 PUSH2 0x291E JUMP JUMPDEST DUP1 ISZERO PUSH2 0x10B8 JUMPI DUP1 PUSH1 0x1F LT PUSH2 0x108D JUMPI PUSH2 0x100 DUP1 DUP4 SLOAD DIV MUL DUP4 MSTORE SWAP2 PUSH1 0x20 ADD SWAP2 PUSH2 0x10B8 JUMP JUMPDEST DUP3 ADD SWAP2 SWAP1 PUSH1 0x0 MSTORE PUSH1 0x20 PUSH1 0x0 KECCAK256 SWAP1 JUMPDEST DUP2 SLOAD DUP2 MSTORE SWAP1 PUSH1 0x1 ADD SWAP1 PUSH1 0x20 ADD DUP1 DUP4 GT PUSH2 0x109B JUMPI DUP3 SWAP1 SUB PUSH1 0x1F AND DUP3 ADD SWAP2 JUMPDEST POP POP POP POP POP SWAP1 DUP1 PUSH1 0x3 ADD SLOAD SWAP1 POP DUP5 JUMP JUMPDEST PUSH1 0x0 PUSH1 0x2 SWAP1 SLOAD SWAP1 PUSH2 0x100 EXP SWAP1 DIV PUSH20 0xFFFFFFFFFFFFFFFFFFFFFFFFFFFFFFFFFFFFFFFF AND PUSH20 0xFFFFFFFFFFFFFFFFFFFFFFFFFFFFFFFFFFFFFFFF AND CALLER PUSH20 0xFFFFFFFFFFFFFFFFFFFFFFFFFFFFFFFFFFFFFFFF AND EQ PUSH2 0x1158 JUMPI PUSH1 0x40 MLOAD PUSH32 0x8C379A000000000000000000000000000000000000000000000000000000000 DUP2 MSTORE PUSH1 0x4 ADD PUSH2 0x114F SWAP1 PUSH2 0x2A73 JUMP JUMPDEST PUSH1 0x40 MLOAD DUP1 SWAP2 SUB SWAP1 REVERT JUMPDEST DUP1 PUSH1 0x0 PUSH20 0xFFFFFFFFFFFFFFFFFFFFFFFFFFFFFFFFFFFFFFFF AND DUP2 PUSH20 0xFFFFFFFFFFFFFFFFFFFFFFFFFFFFFFFFFFFFFFFF AND SUB PUSH2 0x1196 JUMPI PUSH2 0x1195 PUSH2 0x2F38 JUMP JUMPDEST JUMPDEST DUP2 PUSH1 0x0 PUSH1 0x2 PUSH2 0x100 EXP DUP2 SLOAD DUP2 PUSH20 0xFFFFFFFFFFFFFFFFFFFFFFFFFFFFFFFFFFFFFFFF MUL NOT AND SWAP1 DUP4 PUSH20 0xFFFFFFFFFFFFFFFFFFFFFFFFFFFFFFFFFFFFFFFF AND MUL OR SWAP1 SSTORE POP POP POP JUMP JUMPDEST PUSH1 0x0 PUSH1 0x2 SWAP1 SLOAD SWAP1 PUSH2 0x100 EXP SWAP1 DIV PUSH20 0xFFFFFFFFFFFFFFFFFFFFFFFFFFFFFFFFFFFFFFFF AND PUSH20 0xFFFFFFFFFFFFFFFFFFFFFFFFFFFFFFFFFFFFFFFF AND CALLER PUSH20 0xFFFFFFFFFFFFFFFFFFFFFFFFFFFFFFFFFFFFFFFF AND EQ PUSH2 0x126B JUMPI PUSH1 0x40 MLOAD PUSH32 0x8C379A000000000000000000000000000000000000000000000000000000000 DUP2 MSTORE PUSH1 0x4 ADD PUSH2 0x1262 SWAP1 PUSH2 0x2A73 JUMP JUMPDEST PUSH1 0x40 MLOAD DUP1 SWAP2 SUB SWAP1 REVERT JUMPDEST PUSH2 0x1274 DUP2 PUSH2 0x1FDE JUMP JUMPDEST PUSH2 0x12B3 JUMPI PUSH1 0x40 MLOAD PUSH32 0x8C379A000000000000000000000000000000000000000000000000000000000 DUP2 MSTORE PUSH1 0x4 ADD PUSH2 0x12AA SWAP1 PUSH2 0x2A07 JUMP JUMPDEST PUSH1 0x40 MLOAD DUP1 SWAP2 SUB SWAP1 REVERT JUMPDEST PUSH1 0x2 PUSH1 0x0 DUP3 PUSH20 0xFFFFFFFFFFFFFFFFFFFFFFFFFFFFFFFFFFFFFFFF AND PUSH20 0xFFFFFFFFFFFFFFFFFFFFFFFFFFFFFFFFFFFFFFFF AND DUP2 MSTORE PUSH1 0x20 ADD SWAP1 DUP2 MSTORE PUSH1 0x20 ADD PUSH1 0x0 KECCAK256 PUSH1 0x0 DUP1 DUP3 ADD PUSH1 0x0 SWAP1 SSTORE PUSH1 0x1 DUP3 ADD PUSH1 0x0 PUSH2 0x130B SWAP2 SWAP1 PUSH2 0x2055 JUMP JUMPDEST POP POP PUSH1 0x0 JUMPDEST PUSH1 0x4 DUP1 SLOAD SWAP1 POP DUP2 LT ISZERO PUSH2 0x1493 JUMPI DUP2 PUSH20 0xFFFFFFFFFFFFFFFFFFFFFFFFFFFFFFFFFFFFFFFF AND PUSH1 0x4 DUP3 DUP2 SLOAD DUP2 LT PUSH2 0x1348 JUMPI PUSH2 0x1347 PUSH2 0x2F67 JUMP JUMPDEST JUMPDEST SWAP1 PUSH1 0x0 MSTORE PUSH1 0x20 PUSH1 0x0 KECCAK256 ADD PUSH1 0x0 SWAP1 SLOAD SWAP1 PUSH2 0x100 EXP SWAP1 DIV PUSH20 0xFFFFFFFFFFFFFFFFFFFFFFFFFFFFFFFFFFFFFFFF AND PUSH20 0xFFFFFFFFFFFFFFFFFFFFFFFFFFFFFFFFFFFFFFFF AND SUB PUSH2 0x1486 JUMPI PUSH1 0x4 PUSH1 0x1 PUSH1 0x4 DUP1 SLOAD SWAP1 POP PUSH2 0x13A2 SWAP2 SWAP1 PUSH2 0x2F96 JUMP JUMPDEST DUP2 SLOAD DUP2 LT PUSH2 0x13B3 JUMPI PUSH2 0x13B2 PUSH2 0x2F67 JUMP JUMPDEST JUMPDEST SWAP1 PUSH1 0x0 MSTORE PUSH1 0x20 PUSH1 0x0 KECCAK256 ADD PUSH1 0x0 SWAP1 SLOAD SWAP1 PUSH2 0x100 EXP SWAP1 DIV PUSH20 0xFFFFFFFFFFFFFFFFFFFFFFFFFFFFFFFFFFFFFFFF AND PUSH1 0x4 DUP3 DUP2 SLOAD DUP2 LT PUSH2 0x13F2 JUMPI PUSH2 0x13F1 PUSH2 0x2F67 JUMP JUMPDEST JUMPDEST SWAP1 PUSH1 0x0 MSTORE PUSH1 0x20 PUSH1 0x0 KECCAK256 ADD PUSH1 0x0 PUSH2 0x100 EXP DUP2 SLOAD DUP2 PUSH20 0xFFFFFFFFFFFFFFFFFFFFFFFFFFFFFFFFFFFFFFFF MUL NOT AND SWAP1 DUP4 PUSH20 0xFFFFFFFFFFFFFFFFFFFFFFFFFFFFFFFFFFFFFFFF AND MUL OR SWAP1 SSTORE POP PUSH1 0x4 DUP1 SLOAD DUP1 PUSH2 0x144C JUMPI PUSH2 0x144B PUSH2 0x2FCA JUMP JUMPDEST JUMPDEST PUSH1 0x1 SWAP1 SUB DUP2 DUP2 SWAP1 PUSH1 0x0 MSTORE PUSH1 0x20 PUSH1 0x0 KECCAK256 ADD PUSH1 0x0 PUSH2 0x100 EXP DUP2 SLOAD SWAP1 PUSH20 0xFFFFFFFFFFFFFFFFFFFFFFFFFFFFFFFFFFFFFFFF MUL NOT AND SWAP1 SSTORE SWAP1 SSTORE PUSH2 0x1493 JUMP JUMPDEST DUP1 DUP1 PUSH1 0x1 ADD SWAP2 POP POP PUSH2 0x1310 JUMP JUMPDEST POP PUSH1 0x0 DUP1 DUP2 DUP2 SWAP1 SLOAD SWAP1 PUSH2 0x100 EXP SWAP1 DIV PUSH2 0xFFFF AND PUSH2 0x14AF SWAP1 PUSH2 0x2FF9 JUMP JUMPDEST SWAP2 SWAP1 PUSH2 0x100 EXP DUP2 SLOAD DUP2 PUSH2 0xFFFF MUL NOT AND SWAP1 DUP4 PUSH2 0xFFFF AND MUL OR SWAP1 SSTORE POP POP JUMP JUMPDEST PUSH2 0x14D5 CALLER PUSH2 0x1FDE JUMP JUMPDEST PUSH2 0x1514 JUMPI PUSH1 0x40 MLOAD PUSH32 0x8C379A000000000000000000000000000000000000000000000000000000000 DUP2 MSTORE PUSH1 0x4 ADD PUSH2 0x150B SWAP1 PUSH2 0x3094 JUMP JUMPDEST PUSH1 0x40 MLOAD DUP1 SWAP2 SUB SWAP1 REVERT JUMPDEST PUSH1 0x0 PUSH1 0x1 DUP11 DUP11 PUSH1 0x40 MLOAD PUSH2 0x1528 SWAP3 SWAP2 SWAP1 PUSH2 0x2D88 JUMP JUMPDEST SWAP1 DUP2 MSTORE PUSH1 0x20 ADD PUSH1 0x40 MLOAD DUP1 SWAP2 SUB SWAP1 KECCAK256 PUSH1 0x0 ADD SLOAD EQ PUSH2 0x157A JUMPI PUSH1 0x40 MLOAD PUSH32 0x8C379A000000000000000000000000000000000000000000000000000000000 DUP2 MSTORE PUSH1 0x4 ADD PUSH2 0x1571 SWAP1 PUSH2 0x3100 JUMP JUMPDEST PUSH1 0x40 MLOAD DUP1 SWAP2 SUB SWAP1 REVERT JUMPDEST PUSH1 0x40 MLOAD DUP1 PUSH1 0x80 ADD PUSH1 0x40 MSTORE DUP1 NUMBER DUP2 MSTORE PUSH1 0x20 ADD TIMESTAMP DUP2 MSTORE PUSH1 0x20 ADD PUSH1 0x2 PUSH1 0x0 CALLER PUSH20 0xFFFFFFFFFFFFFFFFFFFFFFFFFFFFFFFFFFFFFFFF AND PUSH20 0xFFFFFFFFFFFFFFFFFFFFFFFFFFFFFFFFFFFFFFFF AND DUP2 MSTORE PUSH1 0x20 ADD SWAP1 DUP2 MSTORE PUSH1 0x20 ADD PUSH1 0x0 KECCAK256 PUSH1 0x1 ADD DUP1 SLOAD PUSH2 0x15DE SWAP1 PUSH2 0x291E JUMP JUMPDEST DUP1 PUSH1 0x1F ADD PUSH1 0x20 DUP1 SWAP2 DIV MUL PUSH1 0x20 ADD PUSH1 0x40 MLOAD SWAP1 DUP2 ADD PUSH1 0x40 MSTORE DUP1 SWAP3 SWAP2 SWAP1 DUP2 DUP2 MSTORE PUSH1 0x20 ADD DUP3 DUP1 SLOAD PUSH2 0x160A SWAP1 PUSH2 0x291E JUMP JUMPDEST DUP1 ISZERO PUSH2 0x1657 JUMPI DUP1 PUSH1 0x1F LT PUSH2 0x162C JUMPI PUSH2 0x100 DUP1 DUP4 SLOAD DIV MUL DUP4 MSTORE SWAP2 PUSH1 0x20 ADD SWAP2 PUSH2 0x1657 JUMP JUMPDEST DUP3 ADD SWAP2 SWAP1 PUSH1 0x0 MSTORE PUSH1 0x20 PUSH1 0x0 KECCAK256 SWAP1 JUMPDEST DUP2 SLOAD DUP2 MSTORE SWAP1 PUSH1 0x1 ADD SWAP1 PUSH1 0x20 ADD DUP1 DUP4 GT PUSH2 0x163A JUMPI DUP3 SWAP1 SUB PUSH1 0x1F AND DUP3 ADD SWAP2 JUMPDEST POP POP POP POP POP DUP2 MSTORE PUSH1 0x20 ADD DUP9 DUP9 DUP1 DUP1 PUSH1 0x1F ADD PUSH1 0x20 DUP1 SWAP2 DIV MUL PUSH1 0x20 ADD PUSH1 0x40 MLOAD SWAP1 DUP2 ADD PUSH1 0x40 MSTORE DUP1 SWAP4 SWAP3 SWAP2 SWAP1 DUP2 DUP2 MSTORE PUSH1 0x20 ADD DUP4 DUP4 DUP1 DUP3 DUP5 CALLDATACOPY PUSH1 0x0 DUP2 DUP5 ADD MSTORE PUSH1 0x1F NOT PUSH1 0x1F DUP3 ADD AND SWAP1 POP DUP1 DUP4 ADD SWAP3 POP POP POP POP POP POP POP DUP2 MSTORE POP PUSH1 0x1 DUP11 DUP11 PUSH1 0x40 MLOAD PUSH2 0x16BB SWAP3 SWAP2 SWAP1 PUSH2 0x2D88 JUMP JUMPDEST SWAP1 DUP2 MSTORE PUSH1 0x20 ADD PUSH1 0x40 MLOAD DUP1 SWAP2 SUB SWAP1 KECCAK256 PUSH1 0x0 DUP3 ADD MLOAD DUP2 PUSH1 0x0 ADD SSTORE PUSH1 0x20 DUP3 ADD MLOAD DUP2 PUSH1 0x1 ADD SSTORE PUSH1 0x40 DUP3 ADD MLOAD DUP2 PUSH1 0x2 ADD SWAP1 DUP2 PUSH2 0x16F2 SWAP2 SWAP1 PUSH2 0x2E0D JUMP JUMPDEST POP PUSH1 0x60 DUP3 ADD MLOAD DUP2 PUSH1 0x3 ADD SWAP1 DUP2 PUSH2 0x1708 SWAP2 SWAP1 PUSH2 0x2E0D JUMP JUMPDEST POP SWAP1 POP POP CALLER PUSH20 0xFFFFFFFFFFFFFFFFFFFFFFFFFFFFFFFFFFFFFFFF AND PUSH32 0x42DB1418459A4104BD694454330C69EF6E28A01EA57974C129DCBAC8E8DD1412 DUP9 DUP9 PUSH1 0x40 MLOAD PUSH2 0x1754 SWAP3 SWAP2 SWAP1 PUSH2 0x314D JUMP JUMPDEST PUSH1 0x40 MLOAD DUP1 SWAP2 SUB SWAP1 LOG2 PUSH1 0x0 PUSH20 0xFFFFFFFFFFFFFFFFFFFFFFFFFFFFFFFFFFFFFFFF AND DUP6 PUSH20 0xFFFFFFFFFFFFFFFFFFFFFFFFFFFFFFFFFFFFFFFF AND SUB PUSH2 0x17CB JUMPI PUSH1 0x40 MLOAD PUSH32 0x8C379A000000000000000000000000000000000000000000000000000000000 DUP2 MSTORE PUSH1 0x4 ADD PUSH2 0x17C2 SWAP1 PUSH2 0x299B JUMP JUMPDEST PUSH1 0x40 MLOAD DUP1 SWAP2 SUB SWAP1 REVERT JUMPDEST PUSH1 0x40 MLOAD DUP1 PUSH1 0x80 ADD PUSH1 0x40 MSTORE DUP1 DUP11 DUP11 DUP1 DUP1 PUSH1 0x1F ADD PUSH1 0x20 DUP1 SWAP2 DIV MUL PUSH1 0x20 ADD PUSH1 0x40 MLOAD SWAP1 DUP2 ADD PUSH1 0x40 MSTORE DUP1 SWAP4 SWAP3 SWAP2 SWAP1 DUP2 DUP2 MSTORE PUSH1 0x20 ADD DUP4 DUP4 DUP1 DUP3 DUP5 CALLDATACOPY PUSH1 0x0 DUP2 DUP5 ADD MSTORE PUSH1 0x1F NOT PUSH1 0x1F DUP3 ADD AND SWAP1 POP DUP1 DUP4 ADD SWAP3 POP POP POP POP POP POP POP DUP2 MSTORE PUSH1 0x20 ADD DUP6 DUP6 DUP1 DUP1 PUSH1 0x1F ADD PUSH1 0x20 DUP1 SWAP2 DIV MUL PUSH1 0x20 ADD PUSH1 0x40 MLOAD SWAP1 DUP2 ADD PUSH1 0x40 MSTORE DUP1 SWAP4 SWAP3 SWAP2 SWAP1 DUP2 DUP2 MSTORE PUSH1 0x20 ADD DUP4 DUP4 DUP1 DUP3 DUP5 CALLDATACOPY PUSH1 0x0 DUP2 DUP5 ADD MSTORE PUSH1 0x1F NOT PUSH1 0x1F DUP3 ADD AND SWAP1 POP DUP1 DUP4 ADD SWAP3 POP POP POP POP POP POP POP DUP2 MSTORE PUSH1 0x20 ADD DUP4 DUP4 DUP1 DUP1 PUSH1 0x1F ADD PUSH1 0x20 DUP1 SWAP2 DIV MUL PUSH1 0x20 ADD PUSH1 0x40 MLOAD SWAP1 DUP2 ADD PUSH1 0x40 MSTORE DUP1 SWAP4 SWAP3 SWAP2 SWAP1 DUP2 DUP2 MSTORE PUSH1 0x20 ADD DUP4 DUP4 DUP1 DUP3 DUP5 CALLDATACOPY PUSH1 0x0 DUP2 DUP5 ADD MSTORE PUSH1 0x1F NOT PUSH1 0x1F DUP3 ADD AND SWAP1 POP DUP1 DUP4 ADD SWAP3 POP POP POP POP POP POP POP DUP2 MSTORE PUSH1 0x20 ADD TIMESTAMP DUP2 MSTORE POP PUSH1 0x3 PUSH1 0x0 DUP8 PUSH20 0xFFFFFFFFFFFFFFFFFFFFFFFFFFFFFFFFFFFFFFFF AND PUSH20 0xFFFFFFFFFFFFFFFFFFFFFFFFFFFFFFFFFFFFFFFF AND DUP2 MSTORE PUSH1 0x20 ADD SWAP1 DUP2 MSTORE PUSH1 0x20 ADD PUSH1 0x0 KECCAK256 PUSH1 0x0 DUP3 ADD MLOAD DUP2 PUSH1 0x0 ADD SWAP1 DUP2 PUSH2 0x190C SWAP2 SWAP1 PUSH2 0x2E0D JUMP JUMPDEST POP PUSH1 0x20 DUP3 ADD MLOAD DUP2 PUSH1 0x1 ADD SWAP1 DUP2 PUSH2 0x1922 SWAP2 SWAP1 PUSH2 0x2E0D JUMP JUMPDEST POP PUSH1 0x40 DUP3 ADD MLOAD DUP2 PUSH1 0x2 ADD SWAP1 DUP2 PUSH2 0x1938 SWAP2 SWAP1 PUSH2 0x2E0D JUMP JUMPDEST POP PUSH1 0x60 DUP3 ADD MLOAD DUP2 PUSH1 0x3 ADD SSTORE SWAP1 POP POP PUSH1 0x5 PUSH1 0x0 CALLER PUSH20 0xFFFFFFFFFFFFFFFFFFFFFFFFFFFFFFFFFFFFFFFF AND PUSH20 0xFFFFFFFFFFFFFFFFFFFFFFFFFFFFFFFFFFFFFFFF AND DUP2 MSTORE PUSH1 0x20 ADD SWAP1 DUP2 MSTORE PUSH1 0x20 ADD PUSH1 0x0 KECCAK256 PUSH1 0x40 MLOAD DUP1 PUSH1 0x60 ADD PUSH1 0x40 MSTORE DUP1 DUP12 DUP12 DUP1 DUP1 PUSH1 0x1F ADD PUSH1 0x20 DUP1 SWAP2 DIV MUL PUSH1 0x20 ADD PUSH1 0x40 MLOAD SWAP1 DUP2 ADD PUSH1 0x40 MSTORE DUP1 SWAP4 SWAP3 SWAP2 SWAP1 DUP2 DUP2 MSTORE PUSH1 0x20 ADD DUP4 DUP4 DUP1 DUP3 DUP5 CALLDATACOPY PUSH1 0x0 DUP2 DUP5 ADD MSTORE PUSH1 0x1F NOT PUSH1 0x1F DUP3 ADD AND SWAP1 POP DUP1 DUP4 ADD SWAP3 POP POP POP POP POP POP POP DUP2 MSTORE PUSH1 0x20 ADD DUP8 PUSH20 0xFFFFFFFFFFFFFFFFFFFFFFFFFFFFFFFFFFFFFFFF AND DUP2 MSTORE PUSH1 0x20 ADD DUP7 DUP7 DUP1 DUP1 PUSH1 0x1F ADD PUSH1 0x20 DUP1 SWAP2 DIV MUL PUSH1 0x20 ADD PUSH1 0x40 MLOAD SWAP1 DUP2 ADD PUSH1 0x40 MSTORE DUP1 SWAP4 SWAP3 SWAP2 SWAP1 DUP2 DUP2 MSTORE PUSH1 0x20 ADD DUP4 DUP4 DUP1 DUP3 DUP5 CALLDATACOPY PUSH1 0x0 DUP2 DUP5 ADD MSTORE PUSH1 0x1F NOT PUSH1 0x1F DUP3 ADD AND SWAP1 POP DUP1 DUP4 ADD SWAP3 POP POP POP POP POP POP POP DUP2 MSTORE POP SWAP1 DUP1 PUSH1 0x1 DUP2 SLOAD ADD DUP1 DUP3 SSTORE DUP1 SWAP2 POP POP PUSH1 0x1 SWAP1 SUB SWAP1 PUSH1 0x0 MSTORE PUSH1 0x20 PUSH1 0x0 KECCAK256 SWAP1 PUSH1 0x3 MUL ADD PUSH1 0x0 SWAP1 SWAP2 SWAP1 SWAP2 SWAP1 SWAP2 POP PUSH1 0x0 DUP3 ADD MLOAD DUP2 PUSH1 0x0 ADD SWAP1 DUP2 PUSH2 0x1A7C SWAP2 SWAP1 PUSH2 0x2E0D JUMP JUMPDEST POP PUSH1 0x20 DUP3 ADD MLOAD DUP2 PUSH1 0x1 ADD PUSH1 0x0 PUSH2 0x100 EXP DUP2 SLOAD DUP2 PUSH20 0xFFFFFFFFFFFFFFFFFFFFFFFFFFFFFFFFFFFFFFFF MUL NOT AND SWAP1 DUP4 PUSH20 0xFFFFFFFFFFFFFFFFFFFFFFFFFFFFFFFFFFFFFFFF AND MUL OR SWAP1 SSTORE POP PUSH1 0x40 DUP3 ADD MLOAD DUP2 PUSH1 0x2 ADD SWAP1 DUP2 PUSH2 0x1AD9 SWAP2 SWAP1 PUSH2 0x2E0D JUMP JUMPDEST POP POP POP POP POP POP POP POP POP POP POP POP JUMP JUMPDEST DUP3 DUP3 PUSH2 0x1AF2 CALLER PUSH2 0x1FDE JUMP JUMPDEST PUSH2 0x1B31 JUMPI PUSH1 0x40 MLOAD PUSH32 0x8C379A000000000000000000000000000000000000000000000000000000000 DUP2 MSTORE PUSH1 0x4 ADD PUSH2 0x1B28 SWAP1 PUSH2 0x3094 JUMP JUMPDEST PUSH1 0x40 MLOAD DUP1 SWAP2 SUB SWAP1 REVERT JUMPDEST PUSH1 0x1 DUP3 DUP3 PUSH1 0x40 MLOAD PUSH2 0x1B43 SWAP3 SWAP2 SWAP1 PUSH2 0x2D88 JUMP JUMPDEST SWAP1 DUP2 MSTORE PUSH1 0x20 ADD PUSH1 0x40 MLOAD DUP1 SWAP2 SUB SWAP1 KECCAK256 PUSH1 0x2 ADD PUSH1 0x40 MLOAD PUSH1 0x20 ADD PUSH2 0x1B64 SWAP2 SWAP1 PUSH2 0x31F4 JUMP JUMPDEST PUSH1 0x40 MLOAD PUSH1 0x20 DUP2 DUP4 SUB SUB DUP2 MSTORE SWAP1 PUSH1 0x40 MSTORE DUP1 MLOAD SWAP1 PUSH1 0x20 ADD KECCAK256 PUSH1 0x2 PUSH1 0x0 CALLER PUSH20 0xFFFFFFFFFFFFFFFFFFFFFFFFFFFFFFFFFFFFFFFF AND PUSH20 0xFFFFFFFFFFFFFFFFFFFFFFFFFFFFFFFFFFFFFFFF AND DUP2 MSTORE PUSH1 0x20 ADD SWAP1 DUP2 MSTORE PUSH1 0x20 ADD PUSH1 0x0 KECCAK256 PUSH1 0x1 ADD PUSH1 0x40 MLOAD PUSH1 0x20 ADD PUSH2 0x1BCC SWAP2 SWAP1 PUSH2 0x31F4 JUMP JUMPDEST PUSH1 0x40 MLOAD PUSH1 0x20 DUP2 DUP4 SUB SUB DUP2 MSTORE SWAP1 PUSH1 0x40 MSTORE DUP1 MLOAD SWAP1 PUSH1 0x20 ADD KECCAK256 EQ PUSH2 0x1C22 JUMPI PUSH1 0x40 MLOAD PUSH32 0x8C379A000000000000000000000000000000000000000000000000000000000 DUP2 MSTORE PUSH1 0x4 ADD PUSH2 0x1C19 SWAP1 PUSH2 0x327D JUMP JUMPDEST PUSH1 0x40 MLOAD DUP1 SWAP2 SUB SWAP1 REVERT JUMPDEST PUSH1 0x0 PUSH1 0x1 DUP7 DUP7 PUSH1 0x40 MLOAD PUSH2 0x1C36 SWAP3 SWAP2 SWAP1 PUSH2 0x2D88 JUMP JUMPDEST SWAP1 DUP2 MSTORE PUSH1 0x20 ADD PUSH1 0x40 MLOAD DUP1 SWAP2 SUB SWAP1 KECCAK256 PUSH1 0x1 ADD SLOAD SUB PUSH2 0x1C88 JUMPI PUSH1 0x40 MLOAD PUSH32 0x8C379A000000000000000000000000000000000000000000000000000000000 DUP2 MSTORE PUSH1 0x4 ADD PUSH2 0x1C7F SWAP1 PUSH2 0x32E9 JUMP JUMPDEST PUSH1 0x40 MLOAD DUP1 SWAP2 SUB SWAP1 REVERT JUMPDEST PUSH1 0x0 PUSH20 0xFFFFFFFFFFFFFFFFFFFFFFFFFFFFFFFFFFFFFFFF AND DUP4 PUSH20 0xFFFFFFFFFFFFFFFFFFFFFFFFFFFFFFFFFFFFFFFF AND SUB PUSH2 0x1CF7 JUMPI PUSH1 0x40 MLOAD PUSH32 0x8C379A000000000000000000000000000000000000000000000000000000000 DUP2 MSTORE PUSH1 0x4 ADD PUSH2 0x1CEE SWAP1 PUSH2 0x299B JUMP JUMPDEST PUSH1 0x40 MLOAD DUP1 SWAP2 SUB SWAP1 REVERT JUMPDEST PUSH1 0x0 PUSH1 0x5 PUSH1 0x0 CALLER PUSH20 0xFFFFFFFFFFFFFFFFFFFFFFFFFFFFFFFFFFFFFFFF AND PUSH20 0xFFFFFFFFFFFFFFFFFFFFFFFFFFFFFFFFFFFFFFFF AND DUP2 MSTORE PUSH1 0x20 ADD SWAP1 DUP2 MSTORE PUSH1 0x20 ADD PUSH1 0x0 KECCAK256 SWAP1 POP PUSH1 0x0 JUMPDEST DUP2 DUP1 SLOAD SWAP1 POP DUP2 LT ISZERO PUSH2 0x1F08 JUMPI DUP7 DUP7 PUSH1 0x40 MLOAD PUSH2 0x1D59 SWAP3 SWAP2 SWAP1 PUSH2 0x3339 JUMP JUMPDEST PUSH1 0x40 MLOAD DUP1 SWAP2 SUB SWAP1 KECCAK256 DUP3 DUP3 DUP2 SLOAD DUP2 LT PUSH2 0x1D74 JUMPI PUSH2 0x1D73 PUSH2 0x2F67 JUMP JUMPDEST JUMPDEST SWAP1 PUSH1 0x0 MSTORE PUSH1 0x20 PUSH1 0x0 KECCAK256 SWAP1 PUSH1 0x3 MUL ADD PUSH1 0x0 ADD PUSH1 0x40 MLOAD PUSH2 0x1D92 SWAP2 SWAP1 PUSH2 0x33EA JUMP JUMPDEST PUSH1 0x40 MLOAD DUP1 SWAP2 SUB SWAP1 KECCAK256 SUB PUSH2 0x1EFB JUMPI DUP2 PUSH1 0x1 DUP4 DUP1 SLOAD SWAP1 POP PUSH2 0x1DB1 SWAP2 SWAP1 PUSH2 0x2F96 JUMP JUMPDEST DUP2 SLOAD DUP2 LT PUSH2 0x1DC2 JUMPI PUSH2 0x1DC1 PUSH2 0x2F67 JUMP JUMPDEST JUMPDEST SWAP1 PUSH1 0x0 MSTORE PUSH1 0x20 PUSH1 0x0 KECCAK256 SWAP1 PUSH1 0x3 MUL ADD DUP3 DUP3 DUP2 SLOAD DUP2 LT PUSH2 0x1DE3 JUMPI PUSH2 0x1DE2 PUSH2 0x2F67 JUMP JUMPDEST JUMPDEST SWAP1 PUSH1 0x0 MSTORE PUSH1 0x20 PUSH1 0x0 KECCAK256 SWAP1 PUSH1 0x3 MUL ADD PUSH1 0x0 DUP3 ADD DUP2 PUSH1 0x0 ADD SWAP1 DUP2 PUSH2 0x1E05 SWAP2 SWAP1 PUSH2 0x3417 JUMP JUMPDEST POP PUSH1 0x1 DUP3 ADD PUSH1 0x0 SWAP1 SLOAD SWAP1 PUSH2 0x100 EXP SWAP1 DIV PUSH20 0xFFFFFFFFFFFFFFFFFFFFFFFFFFFFFFFFFFFFFFFF AND DUP2 PUSH1 0x1 ADD PUSH1 0x0 PUSH2 0x100 EXP DUP2 SLOAD DUP2 PUSH20 0xFFFFFFFFFFFFFFFFFFFFFFFFFFFFFFFFFFFFFFFF MUL NOT AND SWAP1 DUP4 PUSH20 0xFFFFFFFFFFFFFFFFFFFFFFFFFFFFFFFFFFFFFFFF AND MUL OR SWAP1 SSTORE POP PUSH1 0x2 DUP3 ADD DUP2 PUSH1 0x2 ADD SWAP1 DUP2 PUSH2 0x1E81 SWAP2 SWAP1 PUSH2 0x3417 JUMP JUMPDEST POP SWAP1 POP POP DUP2 DUP1 SLOAD DUP1 PUSH2 0x1E96 JUMPI PUSH2 0x1E95 PUSH2 0x2FCA JUMP JUMPDEST JUMPDEST PUSH1 0x1 SWAP1 SUB DUP2 DUP2 SWAP1 PUSH1 0x0 MSTORE PUSH1 0x20 PUSH1 0x0 KECCAK256 SWAP1 PUSH1 0x3 MUL ADD PUSH1 0x0 DUP1 DUP3 ADD PUSH1 0x0 PUSH2 0x1EBB SWAP2 SWAP1 PUSH2 0x2055 JUMP JUMPDEST PUSH1 0x1 DUP3 ADD PUSH1 0x0 PUSH2 0x100 EXP DUP2 SLOAD SWAP1 PUSH20 0xFFFFFFFFFFFFFFFFFFFFFFFFFFFFFFFFFFFFFFFF MUL NOT AND SWAP1 SSTORE PUSH1 0x2 DUP3 ADD PUSH1 0x0 PUSH2 0x1EF2 SWAP2 SWAP1 PUSH2 0x2055 JUMP JUMPDEST POP POP SWAP1 SSTORE PUSH2 0x1F08 JUMP JUMPDEST DUP1 DUP1 PUSH1 0x1 ADD SWAP2 POP POP PUSH2 0x1D3D JUMP JUMPDEST POP PUSH1 0x1 DUP7 DUP7 PUSH1 0x40 MLOAD PUSH2 0x1F1B SWAP3 SWAP2 SWAP1 PUSH2 0x2D88 JUMP JUMPDEST SWAP1 DUP2 MSTORE PUSH1 0x20 ADD PUSH1 0x40 MLOAD DUP1 SWAP2 SUB SWAP1 KECCAK256 PUSH1 0x0 DUP1 DUP3 ADD PUSH1 0x0 SWAP1 SSTORE PUSH1 0x1 DUP3 ADD PUSH1 0x0 SWAP1 SSTORE PUSH1 0x2 DUP3 ADD PUSH1 0x0 PUSH2 0x1F4A SWAP2 SWAP1 PUSH2 0x2055 JUMP JUMPDEST PUSH1 0x3 DUP3 ADD PUSH1 0x0 PUSH2 0x1F5A SWAP2 SWAP1 PUSH2 0x2055 JUMP JUMPDEST POP POP PUSH1 0x3 PUSH1 0x0 DUP6 PUSH20 0xFFFFFFFFFFFFFFFFFFFFFFFFFFFFFFFFFFFFFFFF AND PUSH20 0xFFFFFFFFFFFFFFFFFFFFFFFFFFFFFFFFFFFFFFFF AND DUP2 MSTORE PUSH1 0x20 ADD SWAP1 DUP2 MSTORE PUSH1 0x20 ADD PUSH1 0x0 KECCAK256 PUSH1 0x0 DUP1 DUP3 ADD PUSH1 0x0 PUSH2 0x1FAC SWAP2 SWAP1 PUSH2 0x2055 JUMP JUMPDEST PUSH1 0x1 DUP3 ADD PUSH1 0x0 PUSH2 0x1FBC SWAP2 SWAP1 PUSH2 0x2055 JUMP JUMPDEST PUSH1 0x2 DUP3 ADD PUSH1 0x0 PUSH2 0x1FCC SWAP2 SWAP1 PUSH2 0x2055 JUMP JUMPDEST PUSH1 0x3 DUP3 ADD PUSH1 0x0 SWAP1 SSTORE POP POP POP POP POP POP POP POP JUMP JUMPDEST PUSH1 0x0 DUP1 PUSH1 0x2 PUSH1 0x0 DUP5 PUSH20 0xFFFFFFFFFFFFFFFFFFFFFFFFFFFFFFFFFFFFFFFF AND PUSH20 0xFFFFFFFFFFFFFFFFFFFFFFFFFFFFFFFFFFFFFFFF AND DUP2 MSTORE PUSH1 0x20 ADD SWAP1 DUP2 MSTORE PUSH1 0x20 ADD PUSH1 0x0 KECCAK256 PUSH1 0x0 ADD SLOAD EQ ISZERO SWAP1 POP SWAP2 SWAP1 POP JUMP JUMPDEST PUSH1 0x40 MLOAD DUP1 PUSH1 0x80 ADD PUSH1 0x40 MSTORE DUP1 PUSH1 0x60 DUP2 MSTORE PUSH1 0x20 ADD PUSH1 0x60 DUP2 MSTORE PUSH1 0x20 ADD PUSH1 0x60 DUP2 MSTORE PUSH1 0x20 ADD PUSH1 0x0 DUP2 MSTORE POP SWAP1 JUMP JUMPDEST POP DUP1 SLOAD PUSH2 0x2061 SWAP1 PUSH2 0x291E JUMP JUMPDEST PUSH1 0x0 DUP3 SSTORE DUP1 PUSH1 0x1F LT PUSH2 0x2073 JUMPI POP PUSH2 0x2092 JUMP JUMPDEST PUSH1 0x1F ADD PUSH1 0x20 SWAP1 DIV SWAP1 PUSH1 0x0 MSTORE PUSH1 0x20 PUSH1 0x0 KECCAK256 SWAP1 DUP2 ADD SWAP1 PUSH2 0x2091 SWAP2 SWAP1 PUSH2 0x2095 JUMP JUMPDEST JUMPDEST POP JUMP JUMPDEST JUMPDEST DUP1 DUP3 GT ISZERO PUSH2 0x20AE JUMPI PUSH1 0x0 DUP2 PUSH1 0x0 SWAP1 SSTORE POP PUSH1 0x1 ADD PUSH2 0x2096 JUMP JUMPDEST POP SWAP1 JUMP JUMPDEST PUSH1 0x0 DUP2 MLOAD SWAP1 POP SWAP2 SWAP1 POP JUMP JUMPDEST PUSH1 0x0 DUP3 DUP3 MSTORE PUSH1 0x20 DUP3 ADD SWAP1 POP SWAP3 SWAP2 POP POP JUMP JUMPDEST PUSH1 0x0 DUP2 SWAP1 POP PUSH1 0x20 DUP3 ADD SWAP1 POP SWAP2 SWAP1 POP JUMP JUMPDEST PUSH1 0x0 PUSH20 0xFFFFFFFFFFFFFFFFFFFFFFFFFFFFFFFFFFFFFFFF DUP3 AND SWAP1 POP SWAP2 SWAP1 POP JUMP JUMPDEST PUSH1 0x0 PUSH2 0x2109 DUP3 PUSH2 0x20DE JUMP JUMPDEST SWAP1 POP SWAP2 SWAP1 POP JUMP JUMPDEST PUSH2 0x2119 DUP2 PUSH2 0x20FE JUMP JUMPDEST DUP3 MSTORE POP POP JUMP JUMPDEST PUSH1 0x0 PUSH2 0x212B DUP4 DUP4 PUSH2 0x2110 JUMP JUMPDEST PUSH1 0x20 DUP4 ADD SWAP1 POP SWAP3 SWAP2 POP POP JUMP JUMPDEST PUSH1 0x0 PUSH1 0x20 DUP3 ADD SWAP1 POP SWAP2 SWAP1 POP JUMP JUMPDEST PUSH1 0x0 PUSH2 0x214F DUP3 PUSH2 0x20B2 JUMP JUMPDEST PUSH2 0x2159 DUP2 DUP6 PUSH2 0x20BD JUMP JUMPDEST SWAP4 POP PUSH2 0x2164 DUP4 PUSH2 0x20CE JUMP JUMPDEST DUP1 PUSH1 0x0 JUMPDEST DUP4 DUP2 LT ISZERO PUSH2 0x2195 JUMPI DUP2 MLOAD PUSH2 0x217C DUP9 DUP3 PUSH2 0x211F JUMP JUMPDEST SWAP8 POP PUSH2 0x2187 DUP4 PUSH2 0x2137 JUMP JUMPDEST SWAP3 POP POP PUSH1 0x1 DUP2 ADD SWAP1 POP PUSH2 0x2168 JUMP JUMPDEST POP DUP6 SWAP4 POP POP POP POP SWAP3 SWAP2 POP POP JUMP JUMPDEST PUSH1 0x0 PUSH1 0x20 DUP3 ADD SWAP1 POP DUP2 DUP2 SUB PUSH1 0x0 DUP4 ADD MSTORE PUSH2 0x21BC DUP2 DUP5 PUSH2 0x2144 JUMP JUMPDEST SWAP1 POP SWAP3 SWAP2 POP POP JUMP JUMPDEST PUSH1 0x0 DUP1 REVERT JUMPDEST PUSH1 0x0 DUP1 REVERT JUMPDEST PUSH2 0x21D7 DUP2 PUSH2 0x20FE JUMP JUMPDEST DUP2 EQ PUSH2 0x21E2 JUMPI PUSH1 0x0 DUP1 REVERT JUMPDEST POP JUMP JUMPDEST PUSH1 0x0 DUP2 CALLDATALOAD SWAP1 POP PUSH2 0x21F4 DUP2 PUSH2 0x21CE JUMP JUMPDEST SWAP3 SWAP2 POP POP JUMP JUMPDEST PUSH1 0x0 PUSH1 0x20 DUP3 DUP5 SUB SLT ISZERO PUSH2 0x2210 JUMPI PUSH2 0x220F PUSH2 0x21C4 JUMP JUMPDEST JUMPDEST PUSH1 0x0 PUSH2 0x221E DUP5 DUP3 DUP6 ADD PUSH2 0x21E5 JUMP JUMPDEST SWAP2 POP POP SWAP3 SWAP2 POP POP JUMP JUMPDEST PUSH1 0x0 DUP2 MLOAD SWAP1 POP SWAP2 SWAP1 POP JUMP JUMPDEST PUSH1 0x0 DUP3 DUP3 MSTORE PUSH1 0x20 DUP3 ADD SWAP1 POP SWAP3 SWAP2 POP POP JUMP JUMPDEST PUSH1 0x0 JUMPDEST DUP4 DUP2 LT ISZERO PUSH2 0x2261 JUMPI DUP1 DUP3 ADD MLOAD DUP2 DUP5 ADD MSTORE PUSH1 0x20 DUP2 ADD SWAP1 POP PUSH2 0x2246 JUMP JUMPDEST PUSH1 0x0 DUP5 DUP5 ADD MSTORE POP POP POP POP JUMP JUMPDEST PUSH1 0x0 PUSH1 0x1F NOT PUSH1 0x1F DUP4 ADD AND SWAP1 POP SWAP2 SWAP1 POP JUMP JUMPDEST PUSH1 0x0 PUSH2 0x2289 DUP3 PUSH2 0x2227 JUMP JUMPDEST PUSH2 0x2293 DUP2 DUP6 PUSH2 0x2232 JUMP JUMPDEST SWAP4 POP PUSH2 0x22A3 DUP2 DUP6 PUSH1 0x20 DUP7 ADD PUSH2 0x2243 JUMP JUMPDEST PUSH2 0x22AC DUP2 PUSH2 0x226D JUMP JUMPDEST DUP5 ADD SWAP2 POP POP SWAP3 SWAP2 POP POP JUMP JUMPDEST PUSH1 0x0 PUSH1 0x20 DUP3 ADD SWAP1 POP DUP2 DUP2 SUB PUSH1 0x0 DUP4 ADD MSTORE PUSH2 0x22D1 DUP2 DUP5 PUSH2 0x227E JUMP JUMPDEST SWAP1 POP SWAP3 SWAP2 POP POP JUMP JUMPDEST PUSH1 0x0 DUP3 DUP3 MSTORE PUSH1 0x20 DUP3 ADD SWAP1 POP SWAP3 SWAP2 POP POP JUMP JUMPDEST PUSH1 0x0 PUSH2 0x22F5 DUP3 PUSH2 0x2227 JUMP JUMPDEST PUSH2 0x22FF DUP2 DUP6 PUSH2 0x22D9 JUMP JUMPDEST SWAP4 POP PUSH2 0x230F DUP2 DUP6 PUSH1 0x20 DUP7 ADD PUSH2 0x2243 JUMP JUMPDEST PUSH2 0x2318 DUP2 PUSH2 0x226D JUMP JUMPDEST DUP5 ADD SWAP2 POP POP SWAP3 SWAP2 POP POP JUMP JUMPDEST PUSH1 0x0 DUP2 SWAP1 POP SWAP2 SWAP1 POP JUMP JUMPDEST PUSH2 0x2336 DUP2 PUSH2 0x2323 JUMP JUMPDEST DUP3 MSTORE POP POP JUMP JUMPDEST PUSH1 0x0 PUSH1 0x80 DUP4 ADD PUSH1 0x0 DUP4 ADD MLOAD DUP5 DUP3 SUB PUSH1 0x0 DUP7 ADD MSTORE PUSH2 0x2359 DUP3 DUP3 PUSH2 0x22EA JUMP JUMPDEST SWAP2 POP POP PUSH1 0x20 DUP4 ADD MLOAD DUP5 DUP3 SUB PUSH1 0x20 DUP7 ADD MSTORE PUSH2 0x2373 DUP3 DUP3 PUSH2 0x22EA JUMP JUMPDEST SWAP2 POP POP PUSH1 0x40 DUP4 ADD MLOAD DUP5 DUP3 SUB PUSH1 0x40 DUP7 ADD MSTORE PUSH2 0x238D DUP3 DUP3 PUSH2 0x22EA JUMP JUMPDEST SWAP2 POP POP PUSH1 0x60 DUP4 ADD MLOAD PUSH2 0x23A2 PUSH1 0x60 DUP7 ADD DUP3 PUSH2 0x232D JUMP JUMPDEST POP DUP1 SWAP2 POP POP SWAP3 SWAP2 POP POP JUMP JUMPDEST PUSH1 0x0 PUSH1 0x20 DUP3 ADD SWAP1 POP DUP2 DUP2 SUB PUSH1 0x0 DUP4 ADD MSTORE PUSH2 0x23C7 DUP2 DUP5 PUSH2 0x233C JUMP JUMPDEST SWAP1 POP SWAP3 SWAP2 POP POP JUMP JUMPDEST PUSH1 0x0 DUP2 MLOAD SWAP1 POP SWAP2 SWAP1 POP JUMP JUMPDEST PUSH1 0x0 DUP3 DUP3 MSTORE PUSH1 0x20 DUP3 ADD SWAP1 POP SWAP3 SWAP2 POP POP JUMP JUMPDEST PUSH1 0x0 DUP2 SWAP1 POP PUSH1 0x20 DUP3 ADD SWAP1 POP SWAP2 SWAP1 POP JUMP JUMPDEST PUSH1 0x0 PUSH1 0x60 DUP4 ADD PUSH1 0x0 DUP4 ADD MLOAD DUP5 DUP3 SUB PUSH1 0x0 DUP7 ADD MSTORE PUSH2 0x2418 DUP3 DUP3 PUSH2 0x22EA JUMP JUMPDEST SWAP2 POP POP PUSH1 0x20 DUP4 ADD MLOAD PUSH2 0x242D PUSH1 0x20 DUP7 ADD DUP3 PUSH2 0x2110 JUMP JUMPDEST POP PUSH1 0x40 DUP4 ADD MLOAD DUP5 DUP3 SUB PUSH1 0x40 DUP7 ADD MSTORE PUSH2 0x2445 DUP3 DUP3 PUSH2 0x22EA JUMP JUMPDEST SWAP2 POP POP DUP1 SWAP2 POP POP SWAP3 SWAP2 POP POP JUMP JUMPDEST PUSH1 0x0 PUSH2 0x245E DUP4 DUP4 PUSH2 0x23FB JUMP JUMPDEST SWAP1 POP SWAP3 SWAP2 POP POP JUMP JUMPDEST PUSH1 0x0 PUSH1 0x20 DUP3 ADD SWAP1 POP SWAP2 SWAP1 POP JUMP JUMPDEST PUSH1 0x0 PUSH2 0x247E DUP3 PUSH2 0x23CF JUMP JUMPDEST PUSH2 0x2488 DUP2 DUP6 PUSH2 0x23DA JUMP JUMPDEST SWAP4 POP DUP4 PUSH1 0x20 DUP3 MUL DUP6 ADD PUSH2 0x249A DUP6 PUSH2 0x23EB JUMP JUMPDEST DUP1 PUSH1 0x0 JUMPDEST DUP6 DUP2 LT ISZERO PUSH2 0x24D6 JUMPI DUP5 DUP5 SUB DUP10 MSTORE DUP2 MLOAD PUSH2 0x24B7 DUP6 DUP3 PUSH2 0x2452 JUMP JUMPDEST SWAP5 POP PUSH2 0x24C2 DUP4 PUSH2 0x2466 JUMP JUMPDEST SWAP3 POP PUSH1 0x20 DUP11 ADD SWAP10 POP POP PUSH1 0x1 DUP2 ADD SWAP1 POP PUSH2 0x249E JUMP JUMPDEST POP DUP3 SWAP8 POP DUP8 SWAP6 POP POP POP POP POP POP SWAP3 SWAP2 POP POP JUMP JUMPDEST PUSH1 0x0 PUSH1 0x20 DUP3 ADD SWAP1 POP DUP2 DUP2 SUB PUSH1 0x0 DUP4 ADD MSTORE PUSH2 0x2502 DUP2 DUP5 PUSH2 0x2473 JUMP JUMPDEST SWAP1 POP SWAP3 SWAP2 POP POP JUMP JUMPDEST PUSH1 0x0 DUP1 REVERT JUMPDEST PUSH1 0x0 DUP1 REVERT JUMPDEST PUSH1 0x0 DUP1 REVERT JUMPDEST PUSH1 0x0 DUP1 DUP4 PUSH1 0x1F DUP5 ADD SLT PUSH2 0x252F JUMPI PUSH2 0x252E PUSH2 0x250A JUMP JUMPDEST JUMPDEST DUP3 CALLDATALOAD SWAP1 POP PUSH8 0xFFFFFFFFFFFFFFFF DUP2 GT ISZERO PUSH2 0x254C JUMPI PUSH2 0x254B PUSH2 0x250F JUMP JUMPDEST JUMPDEST PUSH1 0x20 DUP4 ADD SWAP2 POP DUP4 PUSH1 0x1 DUP3 MUL DUP4 ADD GT ISZERO PUSH2 0x2568 JUMPI PUSH2 0x2567 PUSH2 0x2514 JUMP JUMPDEST JUMPDEST SWAP3 POP SWAP3 SWAP1 POP JUMP JUMPDEST PUSH1 0x0 DUP1 PUSH1 0x0 PUSH1 0x40 DUP5 DUP7 SUB SLT ISZERO PUSH2 0x2588 JUMPI PUSH2 0x2587 PUSH2 0x21C4 JUMP JUMPDEST JUMPDEST PUSH1 0x0 PUSH2 0x2596 DUP7 DUP3 DUP8 ADD PUSH2 0x21E5 JUMP JUMPDEST SWAP4 POP POP PUSH1 0x20 DUP5 ADD CALLDATALOAD PUSH8 0xFFFFFFFFFFFFFFFF DUP2 GT ISZERO PUSH2 0x25B7 JUMPI PUSH2 0x25B6 PUSH2 0x21C9 JUMP JUMPDEST JUMPDEST PUSH2 0x25C3 DUP7 DUP3 DUP8 ADD PUSH2 0x2519 JUMP JUMPDEST SWAP3 POP SWAP3 POP POP SWAP3 POP SWAP3 POP SWAP3 JUMP JUMPDEST PUSH1 0x0 DUP1 PUSH1 0x20 DUP4 DUP6 SUB SLT ISZERO PUSH2 0x25E6 JUMPI PUSH2 0x25E5 PUSH2 0x21C4 JUMP JUMPDEST JUMPDEST PUSH1 0x0 DUP4 ADD CALLDATALOAD PUSH8 0xFFFFFFFFFFFFFFFF DUP2 GT ISZERO PUSH2 0x2604 JUMPI PUSH2 0x2603 PUSH2 0x21C9 JUMP JUMPDEST JUMPDEST PUSH2 0x2610 DUP6 DUP3 DUP7 ADD PUSH2 0x2519 JUMP JUMPDEST SWAP3 POP SWAP3 POP POP SWAP3 POP SWAP3 SWAP1 POP JUMP JUMPDEST PUSH2 0x2625 DUP2 PUSH2 0x2323 JUMP JUMPDEST DUP3 MSTORE POP POP JUMP JUMPDEST PUSH1 0x0 PUSH1 0x80 DUP3 ADD SWAP1 POP PUSH2 0x2640 PUSH1 0x0 DUP4 ADD DUP8 PUSH2 0x261C JUMP JUMPDEST PUSH2 0x264D PUSH1 0x20 DUP4 ADD DUP7 PUSH2 0x261C JUMP JUMPDEST DUP2 DUP2 SUB PUSH1 0x40 DUP4 ADD MSTORE PUSH2 0x265F DUP2 DUP6 PUSH2 0x227E JUMP JUMPDEST SWAP1 POP DUP2 DUP2 SUB PUSH1 0x60 DUP4 ADD MSTORE PUSH2 0x2673 DUP2 DUP5 PUSH2 0x227E JUMP JUMPDEST SWAP1 POP SWAP6 SWAP5 POP POP POP POP POP JUMP JUMPDEST PUSH2 0x2687 DUP2 PUSH2 0x2323 JUMP JUMPDEST DUP2 EQ PUSH2 0x2692 JUMPI PUSH1 0x0 DUP1 REVERT JUMPDEST POP JUMP JUMPDEST PUSH1 0x0 DUP2 CALLDATALOAD SWAP1 POP PUSH2 0x26A4 DUP2 PUSH2 0x267E JUMP JUMPDEST SWAP3 SWAP2 POP POP JUMP JUMPDEST PUSH1 0x0 PUSH1 0x20 DUP3 DUP5 SUB SLT ISZERO PUSH2 0x26C0 JUMPI PUSH2 0x26BF PUSH2 0x21C4 JUMP JUMPDEST JUMPDEST PUSH1 0x0 PUSH2 0x26CE DUP5 DUP3 DUP6 ADD PUSH2 0x2695 JUMP JUMPDEST SWAP2 POP POP SWAP3 SWAP2 POP POP JUMP JUMPDEST PUSH2 0x26E0 DUP2 PUSH2 0x20FE JUMP JUMPDEST DUP3 MSTORE POP POP JUMP JUMPDEST PUSH1 0x0 PUSH1 0x20 DUP3 ADD SWAP1 POP PUSH2 0x26FB PUSH1 0x0 DUP4 ADD DUP5 PUSH2 0x26D7 JUMP JUMPDEST SWAP3 SWAP2 POP POP JUMP JUMPDEST PUSH1 0x0 PUSH2 0xFFFF DUP3 AND SWAP1 POP SWAP2 SWAP1 POP JUMP JUMPDEST PUSH2 0x2718 DUP2 PUSH2 0x2701 JUMP JUMPDEST DUP3 MSTORE POP POP JUMP JUMPDEST PUSH1 0x0 PUSH1 0x20 DUP3 ADD SWAP1 POP PUSH2 0x2733 PUSH1 0x0 DUP4 ADD DUP5 PUSH2 0x270F JUMP JUMPDEST SWAP3 SWAP2 POP POP JUMP JUMPDEST PUSH1 0x0 PUSH1 0x80 DUP3 ADD SWAP1 POP DUP2 DUP2 SUB PUSH1 0x0 DUP4 ADD MSTORE PUSH2 0x2753 DUP2 DUP8 PUSH2 0x227E JUMP JUMPDEST SWAP1 POP DUP2 DUP2 SUB PUSH1 0x20 DUP4 ADD MSTORE PUSH2 0x2767 DUP2 DUP7 PUSH2 0x227E JUMP JUMPDEST SWAP1 POP DUP2 DUP2 SUB PUSH1 0x40 DUP4 ADD MSTORE PUSH2 0x277B DUP2 DUP6 PUSH2 0x227E JUMP JUMPDEST SWAP1 POP PUSH2 0x278A PUSH1 0x60 DUP4 ADD DUP5 PUSH2 0x261C JUMP JUMPDEST SWAP6 SWAP5 POP POP POP POP POP JUMP JUMPDEST PUSH1 0x0 DUP1 PUSH1 0x0 DUP1 PUSH1 0x0 DUP1 PUSH1 0x0 DUP1 PUSH1 0x0 PUSH1 0xA0 DUP11 DUP13 SUB SLT ISZERO PUSH2 0x27B5 JUMPI PUSH2 0x27B4 PUSH2 0x21C4 JUMP JUMPDEST JUMPDEST PUSH1 0x0 DUP11 ADD CALLDATALOAD PUSH8 0xFFFFFFFFFFFFFFFF DUP2 GT ISZERO PUSH2 0x27D3 JUMPI PUSH2 0x27D2 PUSH2 0x21C9 JUMP JUMPDEST JUMPDEST PUSH2 0x27DF DUP13 DUP3 DUP14 ADD PUSH2 0x2519 JUMP JUMPDEST SWAP10 POP SWAP10 POP POP PUSH1 0x20 DUP11 ADD CALLDATALOAD PUSH8 0xFFFFFFFFFFFFFFFF DUP2 GT ISZERO PUSH2 0x2802 JUMPI PUSH2 0x2801 PUSH2 0x21C9 JUMP JUMPDEST JUMPDEST PUSH2 0x280E DUP13 DUP3 DUP14 ADD PUSH2 0x2519 JUMP JUMPDEST SWAP8 POP SWAP8 POP POP PUSH1 0x40 PUSH2 0x2821 DUP13 DUP3 DUP14 ADD PUSH2 0x21E5 JUMP JUMPDEST SWAP6 POP POP PUSH1 0x60 DUP11 ADD CALLDATALOAD PUSH8 0xFFFFFFFFFFFFFFFF DUP2 GT ISZERO PUSH2 0x2842 JUMPI PUSH2 0x2841 PUSH2 0x21C9 JUMP JUMPDEST JUMPDEST PUSH2 0x284E DUP13 DUP3 DUP14 ADD PUSH2 0x2519 JUMP JUMPDEST SWAP5 POP SWAP5 POP POP PUSH1 0x80 DUP11 ADD CALLDATALOAD PUSH8 0xFFFFFFFFFFFFFFFF DUP2 GT ISZERO PUSH2 0x2871 JUMPI PUSH2 0x2870 PUSH2 0x21C9 JUMP JUMPDEST JUMPDEST PUSH2 0x287D DUP13 DUP3 DUP14 ADD PUSH2 0x2519 JUMP JUMPDEST SWAP3 POP SWAP3 POP POP SWAP3 SWAP6 SWAP9 POP SWAP3 SWAP6 SWAP9 POP SWAP3 SWAP6 SWAP9 JUMP JUMPDEST PUSH1 0x0 DUP1 PUSH1 0x0 PUSH1 0x40 DUP5 DUP7 SUB SLT ISZERO PUSH2 0x28A8 JUMPI PUSH2 0x28A7 PUSH2 0x21C4 JUMP JUMPDEST JUMPDEST PUSH1 0x0 DUP5 ADD CALLDATALOAD PUSH8 0xFFFFFFFFFFFFFFFF DUP2 GT ISZERO PUSH2 0x28C6 JUMPI PUSH2 0x28C5 PUSH2 0x21C9 JUMP JUMPDEST JUMPDEST PUSH2 0x28D2 DUP7 DUP3 DUP8 ADD PUSH2 0x2519 JUMP JUMPDEST SWAP4 POP SWAP4 POP POP PUSH1 0x20 PUSH2 0x28E5 DUP7 DUP3 DUP8 ADD PUSH2 0x21E5 JUMP JUMPDEST SWAP2 POP POP SWAP3 POP SWAP3 POP SWAP3 JUMP JUMPDEST PUSH32 0x4E487B7100000000000000000000000000000000000000000000000000000000 PUSH1 0x0 MSTORE PUSH1 0x22 PUSH1 0x4 MSTORE PUSH1 0x24 PUSH1 0x0 REVERT JUMPDEST PUSH1 0x0 PUSH1 0x2 DUP3 DIV SWAP1 POP PUSH1 0x1 DUP3 AND DUP1 PUSH2 0x2936 JUMPI PUSH1 0x7F DUP3 AND SWAP2 POP JUMPDEST PUSH1 0x20 DUP3 LT DUP2 SUB PUSH2 0x2949 JUMPI PUSH2 0x2948 PUSH2 0x28EF JUMP JUMPDEST JUMPDEST POP SWAP2 SWAP1 POP JUMP JUMPDEST PUSH32 0x496E76616C69642073747564656E742061646472657373000000000000000000 PUSH1 0x0 DUP3 ADD MSTORE POP JUMP JUMPDEST PUSH1 0x0 PUSH2 0x2985 PUSH1 0x17 DUP4 PUSH2 0x2232 JUMP JUMPDEST SWAP2 POP PUSH2 0x2990 DUP3 PUSH2 0x294F JUMP JUMPDEST PUSH1 0x20 DUP3 ADD SWAP1 POP SWAP2 SWAP1 POP JUMP JUMPDEST PUSH1 0x0 PUSH1 0x20 DUP3 ADD SWAP1 POP DUP2 DUP2 SUB PUSH1 0x0 DUP4 ADD MSTORE PUSH2 0x29B4 DUP2 PUSH2 0x2978 JUMP JUMPDEST SWAP1 POP SWAP2 SWAP1 POP JUMP JUMPDEST PUSH32 0x4578706F72746572206E6F7420666F756E640000000000000000000000000000 PUSH1 0x0 DUP3 ADD MSTORE POP JUMP JUMPDEST PUSH1 0x0 PUSH2 0x29F1 PUSH1 0x12 DUP4 PUSH2 0x2232 JUMP JUMPDEST SWAP2 POP PUSH2 0x29FC DUP3 PUSH2 0x29BB JUMP JUMPDEST PUSH1 0x20 DUP3 ADD SWAP1 POP SWAP2 SWAP1 POP JUMP JUMPDEST PUSH1 0x0 PUSH1 0x20 DUP3 ADD SWAP1 POP DUP2 DUP2 SUB PUSH1 0x0 DUP4 ADD MSTORE PUSH2 0x2A20 DUP2 PUSH2 0x29E4 JUMP JUMPDEST SWAP1 POP SWAP2 SWAP1 POP JUMP JUMPDEST PUSH32 0x43616C6C6572206973206E6F7420746865206F776E6572000000000000000000 PUSH1 0x0 DUP3 ADD MSTORE POP JUMP JUMPDEST PUSH1 0x0 PUSH2 0x2A5D PUSH1 0x17 DUP4 PUSH2 0x2232 JUMP JUMPDEST SWAP2 POP PUSH2 0x2A68 DUP3 PUSH2 0x2A27 JUMP JUMPDEST PUSH1 0x20 DUP3 ADD SWAP1 POP SWAP2 SWAP1 POP JUMP JUMPDEST PUSH1 0x0 PUSH1 0x20 DUP3 ADD SWAP1 POP DUP2 DUP2 SUB PUSH1 0x0 DUP4 ADD MSTORE PUSH2 0x2A8C DUP2 PUSH2 0x2A50 JUMP JUMPDEST SWAP1 POP SWAP2 SWAP1 POP JUMP JUMPDEST PUSH1 0x0 DUP3 SWAP1 POP SWAP3 SWAP2 POP POP JUMP JUMPDEST PUSH32 0x4E487B7100000000000000000000000000000000000000000000000000000000 PUSH1 0x0 MSTORE PUSH1 0x41 PUSH1 0x4 MSTORE PUSH1 0x24 PUSH1 0x0 REVERT JUMPDEST PUSH1 0x0 DUP2 SWAP1 POP DUP2 PUSH1 0x0 MSTORE PUSH1 0x20 PUSH1 0x0 KECCAK256 SWAP1 POP SWAP2 SWAP1 POP JUMP JUMPDEST PUSH1 0x0 PUSH1 0x20 PUSH1 0x1F DUP4 ADD DIV SWAP1 POP SWAP2 SWAP1 POP JUMP JUMPDEST PUSH1 0x0 DUP3 DUP3 SHL SWAP1 POP SWAP3 SWAP2 POP POP JUMP JUMPDEST PUSH1 0x0 PUSH1 0x8 DUP4 MUL PUSH2 0x2B2F PUSH32 0xFFFFFFFFFFFFFFFFFFFFFFFFFFFFFFFFFFFFFFFFFFFFFFFFFFFFFFFFFFFFFFFF DUP3 PUSH2 0x2AF2 JUMP JUMPDEST PUSH2 0x2B39 DUP7 DUP4 PUSH2 0x2AF2 JUMP JUMPDEST SWAP6 POP DUP1 NOT DUP5 AND SWAP4 POP DUP1 DUP7 AND DUP5 OR SWAP3 POP POP POP SWAP4 SWAP3 POP POP POP JUMP JUMPDEST PUSH1 0x0 DUP2 SWAP1 POP SWAP2 SWAP1 POP JUMP JUMPDEST PUSH1 0x0 PUSH2 0x2B76 PUSH2 0x2B71 PUSH2 0x2B6C DUP5 PUSH2 0x2323 JUMP JUMPDEST PUSH2 0x2B51 JUMP JUMPDEST PUSH2 0x2323 JUMP JUMPDEST SWAP1 POP SWAP2 SWAP1 POP JUMP JUMPDEST PUSH1 0x0 DUP2 SWAP1 POP SWAP2 SWAP1 POP JUMP JUMPDEST PUSH2 0x2B90 DUP4 PUSH2 0x2B5B JUMP JUMPDEST PUSH2 0x2BA4 PUSH2 0x2B9C DUP3 PUSH2 0x2B7D JUMP JUMPDEST DUP5 DUP5 SLOAD PUSH2 0x2AFF JUMP JUMPDEST DUP3 SSTORE POP POP POP POP JUMP JUMPDEST PUSH1 0x0 SWAP1 JUMP JUMPDEST PUSH2 0x2BB9 PUSH2 0x2BAC JUMP JUMPDEST PUSH2 0x2BC4 DUP2 DUP5 DUP5 PUSH2 0x2B87 JUMP JUMPDEST POP POP POP JUMP JUMPDEST JUMPDEST DUP2 DUP2 LT ISZERO PUSH2 0x2BE8 JUMPI PUSH2 0x2BDD PUSH1 0x0 DUP3 PUSH2 0x2BB1 JUMP JUMPDEST PUSH1 0x1 DUP2 ADD SWAP1 POP PUSH2 0x2BCA JUMP JUMPDEST POP POP JUMP JUMPDEST PUSH1 0x1F DUP3 GT ISZERO PUSH2 0x2C2D JUMPI PUSH2 0x2BFE DUP2 PUSH2 0x2ACD JUMP JUMPDEST PUSH2 0x2C07 DUP5 PUSH2 0x2AE2 JUMP JUMPDEST DUP2 ADD PUSH1 0x20 DUP6 LT ISZERO PUSH2 0x2C16 JUMPI DUP2 SWAP1 POP JUMPDEST PUSH2 0x2C2A PUSH2 0x2C22 DUP6 PUSH2 0x2AE2 JUMP JUMPDEST DUP4 ADD DUP3 PUSH2 0x2BC9 JUMP JUMPDEST POP POP JUMPDEST POP POP POP JUMP JUMPDEST PUSH1 0x0 DUP3 DUP3 SHR SWAP1 POP SWAP3 SWAP2 POP POP JUMP JUMPDEST PUSH1 0x0 PUSH2 0x2C50 PUSH1 0x0 NOT DUP5 PUSH1 0x8 MUL PUSH2 0x2C32 JUMP JUMPDEST NOT DUP1 DUP4 AND SWAP2 POP POP SWAP3 SWAP2 POP POP JUMP JUMPDEST PUSH1 0x0 PUSH2 0x2C69 DUP4 DUP4 PUSH2 0x2C3F JUMP JUMPDEST SWAP2 POP DUP3 PUSH1 0x2 MUL DUP3 OR SWAP1 POP SWAP3 SWAP2 POP POP JUMP JUMPDEST PUSH2 0x2C83 DUP4 DUP4 PUSH2 0x2A93 JUMP JUMPDEST PUSH8 0xFFFFFFFFFFFFFFFF DUP2 GT ISZERO PUSH2 0x2C9C JUMPI PUSH2 0x2C9B PUSH2 0x2A9E JUMP JUMPDEST JUMPDEST PUSH2 0x2CA6 DUP3 SLOAD PUSH2 0x291E JUMP JUMPDEST PUSH2 0x2CB1 DUP3 DUP3 DUP6 PUSH2 0x2BEC JUMP JUMPDEST PUSH1 0x0 PUSH1 0x1F DUP4 GT PUSH1 0x1 DUP2 EQ PUSH2 0x2CE0 JUMPI PUSH1 0x0 DUP5 ISZERO PUSH2 0x2CCE JUMPI DUP3 DUP8 ADD CALLDATALOAD SWAP1 POP JUMPDEST PUSH2 0x2CD8 DUP6 DUP3 PUSH2 0x2C5D JUMP JUMPDEST DUP7 SSTORE POP PUSH2 0x2D40 JUMP JUMPDEST PUSH1 0x1F NOT DUP5 AND PUSH2 0x2CEE DUP7 PUSH2 0x2ACD JUMP JUMPDEST PUSH1 0x0 JUMPDEST DUP3 DUP2 LT ISZERO PUSH2 0x2D16 JUMPI DUP5 DUP10 ADD CALLDATALOAD DUP3 SSTORE PUSH1 0x1 DUP3 ADD SWAP2 POP PUSH1 0x20 DUP6 ADD SWAP5 POP PUSH1 0x20 DUP2 ADD SWAP1 POP PUSH2 0x2CF1 JUMP JUMPDEST DUP7 DUP4 LT ISZERO PUSH2 0x2D33 JUMPI DUP5 DUP10 ADD CALLDATALOAD PUSH2 0x2D2F PUSH1 0x1F DUP10 AND DUP3 PUSH2 0x2C3F JUMP JUMPDEST DUP4 SSTORE POP JUMPDEST PUSH1 0x1 PUSH1 0x2 DUP9 MUL ADD DUP9 SSTORE POP POP POP JUMPDEST POP POP POP POP POP POP POP JUMP JUMPDEST PUSH1 0x0 DUP2 SWAP1 POP SWAP3 SWAP2 POP POP JUMP JUMPDEST DUP3 DUP2 DUP4 CALLDATACOPY PUSH1 0x0 DUP4 DUP4 ADD MSTORE POP POP POP JUMP JUMPDEST PUSH1 0x0 PUSH2 0x2D6F DUP4 DUP6 PUSH2 0x2D49 JUMP JUMPDEST SWAP4 POP PUSH2 0x2D7C DUP4 DUP6 DUP5 PUSH2 0x2D54 JUMP JUMPDEST DUP3 DUP5 ADD SWAP1 POP SWAP4 SWAP3 POP POP POP JUMP JUMPDEST PUSH1 0x0 PUSH2 0x2D95 DUP3 DUP5 DUP7 PUSH2 0x2D63 JUMP JUMPDEST SWAP2 POP DUP2 SWAP1 POP SWAP4 SWAP3 POP POP POP JUMP JUMPDEST PUSH32 0x4578706F7274657220616C726561647920616464656400000000000000000000 PUSH1 0x0 DUP3 ADD MSTORE POP JUMP JUMPDEST PUSH1 0x0 PUSH2 0x2DD7 PUSH1 0x16 DUP4 PUSH2 0x2232 JUMP JUMPDEST SWAP2 POP PUSH2 0x2DE2 DUP3 PUSH2 0x2DA1 JUMP JUMPDEST PUSH1 0x20 DUP3 ADD SWAP1 POP SWAP2 SWAP1 POP JUMP JUMPDEST PUSH1 0x0 PUSH1 0x20 DUP3 ADD SWAP1 POP DUP2 DUP2 SUB PUSH1 0x0 DUP4 ADD MSTORE PUSH2 0x2E06 DUP2 PUSH2 0x2DCA JUMP JUMPDEST SWAP1 POP SWAP2 SWAP1 POP JUMP JUMPDEST PUSH2 0x2E16 DUP3 PUSH2 0x2227 JUMP JUMPDEST PUSH8 0xFFFFFFFFFFFFFFFF DUP2 GT ISZERO PUSH2 0x2E2F JUMPI PUSH2 0x2E2E PUSH2 0x2A9E JUMP JUMPDEST JUMPDEST PUSH2 0x2E39 DUP3 SLOAD PUSH2 0x291E JUMP JUMPDEST PUSH2 0x2E44 DUP3 DUP3 DUP6 PUSH2 0x2BEC JUMP JUMPDEST PUSH1 0x0 PUSH1 0x20 SWAP1 POP PUSH1 0x1F DUP4 GT PUSH1 0x1 DUP2 EQ PUSH2 0x2E77 JUMPI PUSH1 0x0 DUP5 ISZERO PUSH2 0x2E65 JUMPI DUP3 DUP8 ADD MLOAD SWAP1 POP JUMPDEST PUSH2 0x2E6F DUP6 DUP3 PUSH2 0x2C5D JUMP JUMPDEST DUP7 SSTORE POP PUSH2 0x2ED7 JUMP JUMPDEST PUSH1 0x1F NOT DUP5 AND PUSH2 0x2E85 DUP7 PUSH2 0x2ACD JUMP JUMPDEST PUSH1 0x0 JUMPDEST DUP3 DUP2 LT ISZERO PUSH2 0x2EAD JUMPI DUP5 DUP10 ADD MLOAD DUP3 SSTORE PUSH1 0x1 DUP3 ADD SWAP2 POP PUSH1 0x20 DUP6 ADD SWAP5 POP PUSH1 0x20 DUP2 ADD SWAP1 POP PUSH2 0x2E88 JUMP JUMPDEST DUP7 DUP4 LT ISZERO PUSH2 0x2ECA JUMPI DUP5 DUP10 ADD MLOAD PUSH2 0x2EC6 PUSH1 0x1F DUP10 AND DUP3 PUSH2 0x2C3F JUMP JUMPDEST DUP4 SSTORE POP JUMPDEST PUSH1 0x1 PUSH1 0x2 DUP9 MUL ADD DUP9 SSTORE POP POP POP JUMPDEST POP POP POP POP POP POP JUMP JUMPDEST PUSH32 0x4E487B7100000000000000000000000000000000000000000000000000000000 PUSH1 0x0 MSTORE PUSH1 0x11 PUSH1 0x4 MSTORE PUSH1 0x24 PUSH1 0x0 REVERT JUMPDEST PUSH1 0x0 PUSH2 0x2F19 DUP3 PUSH2 0x2701 JUMP JUMPDEST SWAP2 POP PUSH2 0xFFFF DUP3 SUB PUSH2 0x2F2D JUMPI PUSH2 0x2F2C PUSH2 0x2EDF JUMP JUMPDEST JUMPDEST PUSH1 0x1 DUP3 ADD SWAP1 POP SWAP2 SWAP1 POP JUMP JUMPDEST PUSH32 0x4E487B7100000000000000000000000000000000000000000000000000000000 PUSH1 0x0 MSTORE PUSH1 0x1 PUSH1 0x4 MSTORE PUSH1 0x24 PUSH1 0x0 REVERT JUMPDEST PUSH32 0x4E487B7100000000000000000000000000000000000000000000000000000000 PUSH1 0x0 MSTORE PUSH1 0x32 PUSH1 0x4 MSTORE PUSH1 0x24 PUSH1 0x0 REVERT JUMPDEST PUSH1 0x0 PUSH2 0x2FA1 DUP3 PUSH2 0x2323 JUMP JUMPDEST SWAP2 POP PUSH2 0x2FAC DUP4 PUSH2 0x2323 JUMP JUMPDEST SWAP3 POP DUP3 DUP3 SUB SWAP1 POP DUP2 DUP2 GT ISZERO PUSH2 0x2FC4 JUMPI PUSH2 0x2FC3 PUSH2 0x2EDF JUMP JUMPDEST JUMPDEST SWAP3 SWAP2 POP POP JUMP JUMPDEST PUSH32 0x4E487B7100000000000000000000000000000000000000000000000000000000 PUSH1 0x0 MSTORE PUSH1 0x31 PUSH1 0x4 MSTORE PUSH1 0x24 PUSH1 0x0 REVERT JUMPDEST PUSH1 0x0 PUSH2 0x3004 DUP3 PUSH2 0x2701 JUMP JUMPDEST SWAP2 POP PUSH1 0x0 DUP3 SUB PUSH2 0x3017 JUMPI PUSH2 0x3016 PUSH2 0x2EDF JUMP JUMPDEST JUMPDEST PUSH1 0x1 DUP3 SUB SWAP1 POP SWAP2 SWAP1 POP JUMP JUMPDEST PUSH32 0x43616C6C6572206973206E6F7420616E20617070726F766564204578706F7274 PUSH1 0x0 DUP3 ADD MSTORE PUSH32 0x6572000000000000000000000000000000000000000000000000000000000000 PUSH1 0x20 DUP3 ADD MSTORE POP JUMP JUMPDEST PUSH1 0x0 PUSH2 0x307E PUSH1 0x22 DUP4 PUSH2 0x2232 JUMP JUMPDEST SWAP2 POP PUSH2 0x3089 DUP3 PUSH2 0x3022 JUMP JUMPDEST PUSH1 0x40 DUP3 ADD SWAP1 POP SWAP2 SWAP1 POP JUMP JUMPDEST PUSH1 0x0 PUSH1 0x20 DUP3 ADD SWAP1 POP DUP2 DUP2 SUB PUSH1 0x0 DUP4 ADD MSTORE PUSH2 0x30AD DUP2 PUSH2 0x3071 JUMP JUMPDEST SWAP1 POP SWAP2 SWAP1 POP JUMP JUMPDEST PUSH32 0x446F63756D656E74206861736820616C72656164792065786973747300000000 PUSH1 0x0 DUP3 ADD MSTORE POP JUMP JUMPDEST PUSH1 0x0 PUSH2 0x30EA PUSH1 0x1C DUP4 PUSH2 0x2232 JUMP JUMPDEST SWAP2 POP PUSH2 0x30F5 DUP3 PUSH2 0x30B4 JUMP JUMPDEST PUSH1 0x20 DUP3 ADD SWAP1 POP SWAP2 SWAP1 POP JUMP JUMPDEST PUSH1 0x0 PUSH1 0x20 DUP3 ADD SWAP1 POP DUP2 DUP2 SUB PUSH1 0x0 DUP4 ADD MSTORE PUSH2 0x3119 DUP2 PUSH2 0x30DD JUMP JUMPDEST SWAP1 POP SWAP2 SWAP1 POP JUMP JUMPDEST PUSH1 0x0 PUSH2 0x312C DUP4 DUP6 PUSH2 0x2232 JUMP JUMPDEST SWAP4 POP PUSH2 0x3139 DUP4 DUP6 DUP5 PUSH2 0x2D54 JUMP JUMPDEST PUSH2 0x3142 DUP4 PUSH2 0x226D JUMP JUMPDEST DUP5 ADD SWAP1 POP SWAP4 SWAP3 POP POP POP JUMP JUMPDEST PUSH1 0x0 PUSH1 0x20 DUP3 ADD SWAP1 POP DUP2 DUP2 SUB PUSH1 0x0 DUP4 ADD MSTORE PUSH2 0x3168 DUP2 DUP5 DUP7 PUSH2 0x3120 JUMP JUMPDEST SWAP1 POP SWAP4 SWAP3 POP POP POP JUMP JUMPDEST PUSH1 0x0 DUP2 SLOAD PUSH2 0x317E DUP2 PUSH2 0x291E JUMP JUMPDEST PUSH2 0x3188 DUP2 DUP7 PUSH2 0x2D49 JUMP JUMPDEST SWAP5 POP PUSH1 0x1 DUP3 AND PUSH1 0x0 DUP2 EQ PUSH2 0x31A3 JUMPI PUSH1 0x1 DUP2 EQ PUSH2 0x31B8 JUMPI PUSH2 0x31EB JUMP JUMPDEST PUSH1 0xFF NOT DUP4 AND DUP7 MSTORE DUP2 ISZERO ISZERO DUP3 MUL DUP7 ADD SWAP4 POP PUSH2 0x31EB JUMP JUMPDEST PUSH2 0x31C1 DUP6 PUSH2 0x2ACD JUMP JUMPDEST PUSH1 0x0 JUMPDEST DUP4 DUP2 LT ISZERO PUSH2 0x31E3 JUMPI DUP2 SLOAD DUP2 DUP10 ADD MSTORE PUSH1 0x1 DUP3 ADD SWAP2 POP PUSH1 0x20 DUP2 ADD SWAP1 POP PUSH2 0x31C4 JUMP JUMPDEST DUP4 DUP9 ADD SWAP6 POP POP POP JUMPDEST POP POP POP SWAP3 SWAP2 POP POP JUMP JUMPDEST PUSH1 0x0 PUSH2 0x3200 DUP3 DUP5 PUSH2 0x3171 JUMP JUMPDEST SWAP2 POP DUP2 SWAP1 POP SWAP3 SWAP2 POP POP JUMP JUMPDEST PUSH32 0x43616C6C6572206973206E6F7420617574686F72697A656420746F2065646974 PUSH1 0x0 DUP3 ADD MSTORE PUSH32 0x207468697320646F63756D656E74000000000000000000000000000000000000 PUSH1 0x20 DUP3 ADD MSTORE POP JUMP JUMPDEST PUSH1 0x0 PUSH2 0x3267 PUSH1 0x2E DUP4 PUSH2 0x2232 JUMP JUMPDEST SWAP2 POP PUSH2 0x3272 DUP3 PUSH2 0x320B JUMP JUMPDEST PUSH1 0x40 DUP3 ADD SWAP1 POP SWAP2 SWAP1 POP JUMP JUMPDEST PUSH1 0x0 PUSH1 0x20 DUP3 ADD SWAP1 POP DUP2 DUP2 SUB PUSH1 0x0 DUP4 ADD MSTORE PUSH2 0x3296 DUP2 PUSH2 0x325A JUMP JUMPDEST SWAP1 POP SWAP2 SWAP1 POP JUMP JUMPDEST PUSH32 0x446F63756D656E742068617368206E6F7420666F756E64000000000000000000 PUSH1 0x0 DUP3 ADD MSTORE POP JUMP JUMPDEST PUSH1 0x0 PUSH2 0x32D3 PUSH1 0x17 DUP4 PUSH2 0x2232 JUMP JUMPDEST SWAP2 POP PUSH2 0x32DE DUP3 PUSH2 0x329D JUMP JUMPDEST PUSH1 0x20 DUP3 ADD SWAP1 POP SWAP2 SWAP1 POP JUMP JUMPDEST PUSH1 0x0 PUSH1 0x20 DUP3 ADD SWAP1 POP DUP2 DUP2 SUB PUSH1 0x0 DUP4 ADD MSTORE PUSH2 0x3302 DUP2 PUSH2 0x32C6 JUMP JUMPDEST SWAP1 POP SWAP2 SWAP1 POP JUMP JUMPDEST PUSH1 0x0 DUP2 SWAP1 POP SWAP3 SWAP2 POP POP JUMP JUMPDEST PUSH1 0x0 PUSH2 0x3320 DUP4 DUP6 PUSH2 0x3309 JUMP JUMPDEST SWAP4 POP PUSH2 0x332D DUP4 DUP6 DUP5 PUSH2 0x2D54 JUMP JUMPDEST DUP3 DUP5 ADD SWAP1 POP SWAP4 SWAP3 POP POP POP JUMP JUMPDEST PUSH1 0x0 PUSH2 0x3346 DUP3 DUP5 DUP7 PUSH2 0x3314 JUMP JUMPDEST SWAP2 POP DUP2 SWAP1 POP SWAP4 SWAP3 POP POP POP JUMP JUMPDEST PUSH1 0x0 DUP2 SWAP1 POP DUP2 PUSH1 0x0 MSTORE PUSH1 0x20 PUSH1 0x0 KECCAK256 SWAP1 POP SWAP2 SWAP1 POP JUMP JUMPDEST PUSH1 0x0 DUP2 SLOAD PUSH2 0x3374 DUP2 PUSH2 0x291E JUMP JUMPDEST PUSH2 0x337E DUP2 DUP7 PUSH2 0x3309 JUMP JUMPDEST SWAP5 POP PUSH1 0x1 DUP3 AND PUSH1 0x0 DUP2 EQ PUSH2 0x3399 JUMPI PUSH1 0x1 DUP2 EQ PUSH2 0x33AE JUMPI PUSH2 0x33E1 JUMP JUMPDEST PUSH1 0xFF NOT DUP4 AND DUP7 MSTORE DUP2 ISZERO ISZERO DUP3 MUL DUP7 ADD SWAP4 POP PUSH2 0x33E1 JUMP JUMPDEST PUSH2 0x33B7 DUP6 PUSH2 0x3352 JUMP JUMPDEST PUSH1 0x0 JUMPDEST DUP4 DUP2 LT ISZERO PUSH2 0x33D9 JUMPI DUP2 SLOAD DUP2 DUP10 ADD MSTORE PUSH1 0x1 DUP3 ADD SWAP2 POP PUSH1 0x20 DUP2 ADD SWAP1 POP PUSH2 0x33BA JUMP JUMPDEST DUP4 DUP9 ADD SWAP6 POP POP POP JUMPDEST POP POP POP SWAP3 SWAP2 POP POP JUMP JUMPDEST PUSH1 0x0 PUSH2 0x33F6 DUP3 DUP5 PUSH2 0x3367 JUMP JUMPDEST SWAP2 POP DUP2 SWAP1 POP SWAP3 SWAP2 POP POP JUMP JUMPDEST PUSH1 0x0 DUP2 SLOAD SWAP1 POP PUSH2 0x3410 DUP2 PUSH2 0x291E JUMP JUMPDEST SWAP1 POP SWAP2 SWAP1 POP JUMP JUMPDEST DUP2 DUP2 SUB PUSH2 0x3425 JUMPI POP POP PUSH2 0x34FD JUMP JUMPDEST PUSH2 0x342E DUP3 PUSH2 0x3401 JUMP JUMPDEST PUSH8 0xFFFFFFFFFFFFFFFF DUP2 GT ISZERO PUSH2 0x3447 JUMPI PUSH2 0x3446 PUSH2 0x2A9E JUMP JUMPDEST JUMPDEST PUSH2 0x3451 DUP3 SLOAD PUSH2 0x291E JUMP JUMPDEST PUSH2 0x345C DUP3 DUP3 DUP6 PUSH2 0x2BEC JUMP JUMPDEST PUSH1 0x0 PUSH1 0x1F DUP4 GT PUSH1 0x1 DUP2 EQ PUSH2 0x348B JUMPI PUSH1 0x0 DUP5 ISZERO PUSH2 0x3479 JUMPI DUP3 DUP8 ADD SLOAD SWAP1 POP JUMPDEST PUSH2 0x3483 DUP6 DUP3 PUSH2 0x2C5D JUMP JUMPDEST DUP7 SSTORE POP PUSH2 0x34F6 JUMP JUMPDEST PUSH1 0x1F NOT DUP5 AND PUSH2 0x3499 DUP8 PUSH2 0x2ACD JUMP JUMPDEST SWAP7 POP PUSH2 0x34A4 DUP7 PUSH2 0x2ACD JUMP JUMPDEST PUSH1 0x0 JUMPDEST DUP3 DUP2 LT ISZERO PUSH2 0x34CC JUMPI DUP5 DUP10 ADD SLOAD DUP3 SSTORE PUSH1 0x1 DUP3 ADD SWAP2 POP PUSH1 0x1 DUP6 ADD SWAP5 POP PUSH1 0x20 DUP2 ADD SWAP1 POP PUSH2 0x34A7 JUMP JUMPDEST DUP7 DUP4 LT ISZERO PUSH2 0x34E9 JUMPI DUP5 DUP10 ADD SLOAD PUSH2 0x34E5 PUSH1 0x1F DUP10 AND DUP3 PUSH2 0x2C3F JUMP JUMPDEST DUP4 SSTORE POP JUMPDEST PUSH1 0x1 PUSH1 0x2 DUP9 MUL ADD DUP9 SSTORE POP POP POP JUMPDEST POP POP POP POP POP POP JUMPDEST JUMP INVALID LOG2 PUSH5 0x6970667358 0x22 SLT KECCAK256 0xE7 SLOAD 0x29 PUSH25 0x949A15F8FCA7DB33A22306D9CDC684C7AD403F092915CD8C4B CALLDATALOAD 0xB3 LOG1 PUSH5 0x736F6C6343 STOP ADDMOD NOT STOP CALLER "},"gasEstimates":{"creation":{"codeDepositCost":"2724200","executionCost":"51544","totalCost":"2775744"},"external":{"addDocHash(string,string,address,string,string)":"infinite","addExporter(address,string)":"infinite","alterExporter(address,string)":"infinite","approvedExporters(uint256)":"4979","changeOwner(address)":"27054","countExporters()":"2513","deleteExporter(address)":"infinite","deleteHash(string,address)":"infinite","findDocHash(string)":"infinite","getApprovedExporters()":"infinite","getExporterDocuments(address)":"infinite","getExporterInfo(address)":"infinite","getStudentCertificate(address)":"infinite","owner()":"2631","studentCertificates(address)":"infinite"},"internal":{"isExporterApproved(address)":"2239"}},"methodIdentifiers":{"addDocHash(string,string,address,string,string)":"ccf715ea","addExporter(address,string)":"45278d1e","alterExporter(address,string)":"1eff1d71","approvedExporters(uint256)":"478b2aa2","changeOwner(address)":"a6f9dae1","countExporters()":"77f89255","deleteExporter(address)":"ccde7710","deleteHash(string,address)":"e7d99722","findDocHash(string)":"4078dfcf","getApprovedExporters()":"03233af8","getExporterDocuments(address)":"117cabec","getExporterInfo(address)":"05c8dc19","getStudentCertificate(address)":"0b2b5bf5","owner()":"8da5cb5b","studentCertificates(address)":"a3daddc5"}},"storageLayout":{"storage":[{"astId":43,"contract":"Verification.sol:Verification","label":"countExporters","offset":0,"slot":"0","type":"t_uint16"},{"astId":45,"contract":"Verification.sol:Verification","label":"owner","offset":2,"slot":"0","type":"t_address"},{"astId":50,"contract":"Verification.sol:Verification","label":"docHashes","offset":0,"slot":"1","type":"t_mapping(t_string_memory_ptr,t_struct(Record)19_storage)"},{"astId":55,"contract":"Verification.sol:Verification","label":"exporters","offset":0,"slot":"2","type":"t_mapping(t_address,t_struct(ExporterRecord)24_storage)"},{"astId":60,"contract":"Verification.sol:Verification","label":"studentCertificates","offset":0,"slot":"3","type":"t_mapping(t_address,t_struct(Certificate)33_storage)"},{"astId":63,"contract":"Verification.sol:Verification","label":"approvedExporters","offset":0,"slot":"4","type":"t_array(t_address)dyn_storage"},{"astId":69,"contract":"Verification.sol:Verification","label":"exporterDocuments","offset":0,"slot":"5","type":"t_mapping(t_address,t_array(t_struct(DocumentDetails)40_storage)dyn_storage)"}],"types":{"t_address":{"encoding":"inplace","label":"address","numberOfBytes":"20"},"t_array(t_address)dyn_storage":{"base":"t_address","encoding":"dynamic_array","label":"address[]","numberOfBytes":"32"},"t_array(t_struct(DocumentDetails)40_storage)dyn_storage":{"base":"t_struct(DocumentDetails)40_storage","encoding":"dynamic_array","label":"struct Verification.DocumentDetails[]","numberOfBytes":"32"},"t_mapping(t_address,t_array(t_struct(DocumentDetails)40_storage)dyn_storage)":{"encoding":"mapping","key":"t_address","label":"mapping(address => struct Verification.DocumentDetails[])","numberOfBytes":"32","value":"t_array(t_struct(DocumentDetails)40_storage)dyn_storage"},"t_mapping(t_address,t_struct(Certificate)33_storage)":{"encoding":"mapping","key":"t_address","label":"mapping(address => struct Verification.Certificate)","numberOfBytes":"32","value":"t_struct(Certificate)33_storage"},"t_mapping(t_address,t_struct(ExporterRecord)24_storage)":{"encoding":"mapping","key":"t_address","label":"mapping(address => struct Verification.ExporterRecord)","numberOfBytes":"32","value":"t_struct(ExporterRecord)24_storage"},"t_mapping(t_string_memory_ptr,t_struct(Record)19_storage)":{"encoding":"mapping","key":"t_string_memory_ptr","label":"mapping(string => struct Verification.Record)","numberOfBytes":"32","value":"t_struct(Record)19_storage"},"t_string_memory_ptr":{"encoding":"bytes","label":"string","numberOfBytes":"32"},"t_string_storage":{"encoding":"bytes","label":"string","numberOfBytes":"32"},"t_struct(Certificate)33_storage":{"encoding":"inplace","label":"struct Verification.Certificate","members":[{"astId":26,"contract":"Verification.sol:Verification","label":"ipfs_hash","offset":0,"slot":"0","type":"t_string_storage"},{"astId":28,"contract":"Verification.sol:Verification","label":"studentName","offset":0,"slot":"1","type":"t_string_storage"},{"astId":30,"contract":"Verification.sol:Verification","label":"certificateDetails","offset":0,"slot":"2","type":"t_string_storage"},{"astId":32,"contract":"Verification.sol:Verification","label":"issuedAt","offset":0,"slot":"3","type":"t_uint256"}],"numberOfBytes":"128"},"t_struct(DocumentDetails)40_storage":{"encoding":"inplace","label":"struct Verification.DocumentDetails","members":[{"astId":35,"contract":"Verification.sol:Verification","label":"ipfsHash","offset":0,"slot":"0","type":"t_string_storage"},{"astId":37,"contract":"Verification.sol:Verification","label":"studentAddress","offset":0,"slot":"1","type":"t_address"},{"astId":39,"contract":"Verification.sol:Verification","label":"studentName","offset":0,"slot":"2","type":"t_string_storage"}],"numberOfBytes":"96"},"t_struct(ExporterRecord)24_storage":{"encoding":"inplace","label":"struct Verification.ExporterRecord","members":[{"astId":21,"contract":"Verification.sol:Verification","label":"blockNumber","offset":0,"slot":"0","type":"t_uint256"},{"astId":23,"contract":"Verification.sol:Verification","label":"info","offset":0,"slot":"1","type":"t_string_storage"}],"numberOfBytes":"64"},"t_struct(Record)19_storage":{"encoding":"inplace","label":"struct Verification.Record","members":[{"astId":12,"contract":"Verification.sol:Verification","label":"blockNumber","offset":0,"slot":"0","type":"t_uint256"},{"astId":14,"contract":"Verification.sol:Verification","label":"timestamp","offset":0,"slot":"1","type":"t_uint256"},{"astId":16,"contract":"Verification.sol:Verification","label":"info","offset":0,"slot":"2","type":"t_string_storage"},{"astId":18,"contract":"Verification.sol:Verification","label":"ipfsHash","offset":0,"slot":"3","type":"t_string_storage"}],"numberOfBytes":"128"},"t_uint16":{"encoding":"inplace","label":"uint16","numberOfBytes":"2"},"t_uint256":{"encoding":"inplace","label":"uint256","numberOfBytes":"32"}}},"userdoc":{"kind":"user","methods":{},"version":1}}